:020000040800F2
:1000000000500020D17A000831550008335500080F
:100010003555000837550008395500080000000024
:100020000000000000000000000000003B55000838
:100030003D550008000000003F55000841550008EC
:10004000197B0008197B0008197B0008197B000840
:10005000197B0008197B0008197B0008197B000830
:10006000197B0008197B0008197B0008197B000820
:10007000197B0008197B00084955000859550008EC
:10008000197B0008197B0008197B0008197B000800
:10009000197B0008197B0008197B0008197B0008F0
:1000A0006955000879550008197B0008197B00087C
:1000B000197B0008197B0008197B0008197B0008D0
:1000C000197B0008197B0008197B0008197B0008C0
:1000D000197B000889550008197B0008197B000866
:1000E000197B0008197B0008197B0008000000003C
:1000F0000000000000000000000000000000000000
:0C01000000000000000000005FF808F1A3
:100110000348044B834202D0034B03B11847704796
:100120000C0200200C0200200000000005480649D7
:100130000B1AD90F01EBA301491002D0034B03B1F5
:10014000184770470C0200200C020020000000003D
:1001500010B5064C237843B9FFF7DAFF044B13B10F
:100160000448AFF300800123237010BD100200206B
:10017000000000001C7B000808B5044B1BB10449BB
:100180000448AFF30080BDE80840CFE7000000005E
:10019000140200201C7B0008014B1868704700BF48
:1001A0000000002070B50D4E0D4D761BB61006D028
:1001B0000024013455F8043B9847A642F9D1094E72
:1001C000094D07F0ABFC761BB61006D000240134B5
:1001D00055F8043B9847A642F9D170BD3C7F000812
:1001E0003C7F0008407F00083C7F0008F0B4860791
:1001F00046D0541E002A3CD0CAB2034602E014F195
:10020000FF3436D303F8012B9D07F8D1032C29D9ED
:10021000CDB245EA05250F2C45EA054533D9A4F1B1
:100220001006360903F1200707EB061703F1100249
:1002300042E9045542E902551032BA42F8D1721C23
:1002400014F00C0F03EB021204F00F0613D0331F4F
:1002500023F003030433134442F8045B9342FBD1BD
:1002600006F003042CB1C9B21C4403F8011B9C42E4
:10027000FBD1F0BC704734461346002CF3D1F8E7AD
:1002800014460346C2E71A462646E0E7002B2DE94E
:10029000F0471E46BBBF03F100431E4600232D233B
:1002A00088B0149CDDE9121A662C9046109D0B70E4
:1002B0001AD0462C18D024F02003452B4FF0020111
:1002C000334635D007AFCDE9001506A9CDE90317B0
:1002D000CDF808A000F0EEFD672C074633D1119B46
:1002E000DB0732D4079B1CE0032107AF009106A96E
:1002F0003346CDE903174246CDE9015A00F0DAFD55
:1003000007463B7800EB0509302B2BD0DAF800507C
:100310004D44404631460022002304F0A1FAB0B11A
:100320002B463846159ADB1B136008B0BDE8F087F2
:1003300007AF0091013506A9CDE90317CDE9015AB0
:1003400000F0B8FD0746472CC9D03D44E1E7079BC4
:100350009D42E6D930215A1C07921970079BAB4287
:10036000F9D3DEE7404631460022002304F078FA54
:100370000028CBD1C5F10105CAF80050C8E700BF7D
:100380000029F0B4B4BF2D232B230446B8BF494243
:10039000092904F8022B82B043702DDD0DF1070608
:1003A00035461A4F01E01546194687FB0132CB1737
:1003B000C3EBA20303EB8302A1EB420230326329B9
:1003C00005F8012C05F1FF32EDDC3033A91EDBB25C
:1003D0008E4202F8013C0BD9214601E012F8013BA4
:1003E000B24201F8013BF9D10DF109035D1B2C4428
:1003F000201A02B0F0BC70473023041D1944C170AC
:100400008370201A02B0F0BC704700BF6766666652
:100410002DE9F04F91B00C46DDF868B016461F4646
:10042000054601F003FF036818460A9300F07CFCC0
:1004300000230E93DBF80030226807330B900992FB
:1004400023F00703D3F804A0D3F8008051464046B8
:10045000083394F81890CBF800302AF0004BC4E928
:1004600012014FF0FF325946B74B04F02BFA48B94E
:10047000404659464FF0FF32B34B04F005FA0028CE
:1004800000F08A80424640465346514604F01AFA2C
:10049000002840F04A82099B606843F48061431C55
:1004A00032D0B9F1670F70D0B9F1470F6DD04FF06E
:1004B000000C216042460DF1380E01910DF1340817
:1004C0000DF133010090CDE902185346CDF810909C
:1004D000CDE905EC2846FFF7D9FE8046B9F1650F56
:1004E0000D9B39D8013B19464A4604F150000D9343
:1004F000FFF746FF0E9A82461318012A236140F344
:100500008C810133236139E0062060604FF0000CDC
:10051000216042460DF1380E01910DF134080DF1C4
:10052000330153460090CDE90218CDF81090CDE983
:1005300005EC2846FFF7AAFE09F0DF03472B8046AB
:10054000CCD10D9BD91C80F2E580A9F102095FFA9C
:1005500089F9B9F1650FC5D9B9F1660F00F0E180ED
:100560000E9A9A4240F3E880002BCCBF0121C3F1E0
:1005700002010A4422614FF0000AA3659DF833305E
:100580001BB32D2384F843301FE0002840F0158171
:10059000012318466360B9E7404651460022002314
:1005A00004F068F910B12D2384F84330099B674AA1
:1005B00023F004032360664B0321B9F1470F94BF76
:1005C000904698464FF0000A2161009733460FAAE3
:1005D0002146284600F0CAF9013024D02368580586
:1005E0002CD44246236931462846B84701301AD0F8
:1005F000226892070F98E3681AD51A1A002A17DDA5
:100600004FF0000804F1190904E0E3680F981A1A82
:1006100042450DDD01234A4631462846B8470130A0
:1006200008F10108F1D14FF0FF3011B0BDE8F08FB3
:100630009842B8BF184611B0BDE8F08FB9F1650F08
:1006400033D9D4E912010022002304F009F900286B
:1006500000F0828001233F4A31462846B8470130E6
:10066000E1D0DDE90D239A4202DB2268D107C0D533
:10067000DDE90A2331462846B8470130D3D00E9B26
:10068000012BB5DD4FF0000804F11A0903E00E9BC1
:10069000013B4345ACDD01234A4631462846B84775
:1006A000013008F10108F2D1BDE70E9A012A40F3AA
:1006B000A0800123424631462846B8470130B2D0D7
:1006C000DDE90A2331462846B8470130ABD0D4E9EA
:1006D000120100220023DDF8389004F0C1F8002850
:1006E00000F09680B9F1010F40F38E804FF00008C2
:1006F00004F11A0904E00E9B013B434540F384805A
:1007000001234A4631462846B847013008F101081E
:10071000F1D188E7626893423FF717AF4FF067095E
:100720001EE7002B62687DDD2361002A00F0AB80AC
:1007300001321A4422611EE722682361D2077FF545
:100740001AAF5A1C226116E7FFFFEF7FF87D000801
:10075000FC7D0008087E00080D9B002B69DD0E9BC8
:10076000D4F858A05345A8BF5346002B9B4608DD3C
:10077000424631462846B84701303FF454AFD4F8DA
:1007800058A02BEAEB7BAAEB0B03002B40F38880ED
:1007900004F11A034FF000099A4604E0A36DA3EB9D
:1007A0000B024A457BDD0123524631462846B847B5
:1007B000013009F10109F1D135E74FF0000C21605A
:1007C00042460DF1380E01910DF134080DF133015F
:1007D000CDE9021853460090CDF81090CDE905EC14
:1007E0002846FFF753FD0D9B8046D91CFFF6ADAEA2
:1007F00090E7D9073FF55DAF4246012331462846D1
:10080000B84701303FF40FAF534604F15002EAE617
:1008100009F1FF3308F10102F0E72268D2077FF502
:10082000ADAE6EE6002A33D12168C90730D401226B
:10083000A0E601234A4A31462846B84701303FF432
:10084000F2AEDDE90D23134324D0DDE90A2331465E
:100850002846B84701303FF4E6AE0D9B002B7CDA0A
:100860004FF0000904F11A0A03E00D9B5B424B456F
:1008700073DD0123524631462846B847013009F15D
:100880000109F2D1CFE62168C8077FF574AE4FE7C2
:1008900002326FE62268D3077FF5ABAED5E79A4602
:1008A000DDE90D218A4202DB2368D80709D5DDE99D
:1008B0000A2331462846B84701303FF4B4AEDDE99B
:1008C0000D215245A1EB0203CCBF9946A1EB0A09C9
:1008D000B9F1000F0BDD08EB0A024B463146284602
:1008E000B84701303FF49FAEDDE90D239B1A29EA9A
:1008F000E979A3EB0903002B7FF77AAE4FF00008EC
:1009000004F11A0A07E0DDE90D239B1AA3EB0903A2
:1009100043457FF76DAE0123524631462846B8471E
:10092000013008F10108EED17DE6BAF1000FB8BF41
:100930002D234FF00301B8BF84F84330099B094AC7
:1009400023F004032360084B2161B9F1470F94BFE2
:10095000904698464FF0000A37E642460E9B42E624
:10096000087E0008007E0008047E00082DE9F0479C
:100970000C460969A56891468D42B8BF0D461560C1
:1009800094F8431006461F46DDF8208011B16A1C1A
:10099000C9F80020236899065CD5D9F800200232F6
:1009A000C9F80020236813F0060F19461DD1E1682D
:1009B0008A1A002AD8BF194617DD002504F1190A42
:1009C00005E0E368D9F800209B1AAB420CDD012357
:1009D000524639463046C047013005F10105F0D195
:1009E0004FF0FF30BDE8F087216894F843300033C2
:1009F00018BF01238A060AD53021E21882F8431075
:100A000094F845105A1C224482F84310023304F132
:100A1000430239463046C0470130E1D02368A2681E
:100A200003F00603042B21691DD08A4226DD4FF016
:100A30000009521A914400251A3401E04D451DDA8F
:100A40000123224639463046C047013005F10105F1
:100A5000F4D1C5E713F0060F13D094F843300033F8
:100A600018BF0123D3E7D9F80000E3688A42A3EB5B
:100A7000000323EAE379DCDC002BDCDC0020BDE8AA
:100A8000F087E168D9F800208A1A002AD8BF1946F1
:100A900093DCAAE72DE9F0430C46097E85B06E2968
:100AA00006461746984604F1430C0C986DD039D988
:100AB000732900F0F48044D9752900F00281782967
:100AC00040F00F8178232268DFF854E284F8453043
:100AD0000168150651F8043B016040F1A180D1077F
:100AE00044BF42F020022260002B00F093801022CD
:100AF000002184F8431060680028A060C0F2C6801E
:100B0000216821F004012160002B40F0A280002820
:100B100040F0BE806546082A00F0AB80ACEB0503D0
:100B2000236141E0632900F0E3801AD8002938D01E
:100B3000582940F0D68084F845102268DFF8E4E1B7
:100B4000C6E76F2900F0BD80702940F0CA80782385
:100B50002268DFF8CCE142F02002226084F84530C0
:100B6000B6E7642902D0692940F0BB802268036897
:100B7000110603F1040557D5196805600B460029D5
:100B800059DB0A22DFF89CE1B5E7036822681D1DE6
:100B90006169056015061B6802D4500600F1BB8030
:100BA0001960002365462361CDF800803B4603AA07
:100BB00021463046FFF7DAFE013020D02A4623696D
:100BC00039463046C047013019D022680398920751
:100BD000E36819D51A1A002A16DD002504F119094F
:100BE00004E0E36803981A1AAA420DDD01234A467D
:100BF00039463046C047013005F10105F1D14FF0CB
:100C0000FF3005B0BDE8F0839842B8BF184605B084
:100C1000BDE8F0832168102221F02001216067E700
:100C2000500648BF9BB25AE75106A5D5B3F900302C
:100C300005601946A3E72D2061685B42002984F80E
:100C40004300A16002DB22F0040222600A22DFF8E6
:100C5000D4E0654600E00B46B3FBF2F102FB113035
:100C60001EF80000934205F8010DF4D2082A7FF423
:100C700055AF2368DB077FF551AF626823699A425D
:100C80003FF74CAF3023013D2B7047E7002BE0D1FD
:100C90009EF8003004F1420584F842303BE70368D7
:100CA0006268191D01601D680021284601F04EFB95
:100CB000002832D0401B60602061002384F843305C
:100CC00072E72268036812F0800F03F104051AD05E
:100CD0001B6805606F290CBF08220A22DFF844E078
:100CE00006E7012384F84210236104F14205E4E79A
:100CF0000122036804F14205191D1B68016084F894
:100D000042302261D9E712F0400F0DBF1B68056029
:100D10001B880560DEE7198043E76068CCE700BF09
:100D2000207E00080C7E000820F0030110F0030074
:100D3000C0F1000051F8043B00F1040C4FEACC0C68
:100D40006FF000021CBF22FA0CF213434FF0010CAB
:100D50004CEA0C2C4CEA0C4CA3EB0C0222EA0302EA
:100D600012EACC1204BF51F8043B0430F4D0C2F1B3
:100D7000000102EA0102B2FA82F2C2F11F0200EBA4
:100D8000D2007047000000002DE9F04F03690E69A2
:100D900083B0B342C0F28980013E01F1140500F135
:100DA000140955F8263059F8262001338246B00040
:100DB000009005EB00089A424844B2FBF3F701901B
:100DC0003CD30022AE461446CC465EF8043BDCF829
:100DD00000001FFA83FB07FB0B221B0C4FEA124B90
:100DE00007FB03BB93B2E31A82B21FFA8BF41344DE
:100DF000C4EB104404EB23449BB243EA0443F045A4
:100E00004CF8043B4FEA24444FEA1B42DDD2009BDE
:100E100059F8033093B9019A131F99450CD252F82F
:100E2000043C4BB9A2F1080302E01A68043B1AB96A
:100E3000994506F1FF36F8D3CAF81060504601F024
:100E40001FFE00282DDB48460023013755F8041B00
:100E500004688AB29A1A0B0CA1B20A44C3EB144379
:100E600003EB224392B242EA0342A84540F8042B26
:100E70004FEA2343EAD259F8262009EB860382B9C8
:100E80001A1F91450BD253F8042C42B9083B02E0DB
:100E90001A68043B1AB9994506F1FF36F8D3CAF827
:100EA0001060384603B0BDE8F08F002003B0BDE805
:100EB000F08F00BF2DE9F04F16461F46456A97B0E8
:100EC0000446CDE90267002D00F064832A6862B110
:100ED0004FF0010C6B6811460CFA03F5C2E90135BD
:100EE00001F030FB0022636A1A603E1EB4BF01238A
:100EF0000023239AB8BF26F000461360764BB8BF94
:100F00000396B34300F0B080DDE902231046194692
:100F100000220023CDE9080103F0A2FC074678B1C6
:100F20000123229A1360249B002B00F04C836B4B0F
:100F3000249A1360013B0493049817B0BDE8F08F26
:100F400014AA15ABCDE90032DDE9088920464246F6
:100F50004B4601F0C3FE350D834640F09B80DDE932
:100F60001485454405F23243202B40F3FC83C3F142
:100F700040039E40029B05F2124023FA00F03043EA
:100F800003F08CF902460120013D0D90A1F1F873A8
:100F9000104619460022524B03F042F848A3D3E909
:100FA000002303F0F5F948A3D3E9002303F03AF84E
:100FB000064628460F4603F081F945A3D3E90023EE
:100FC00003F0E6F902460B463046394603F02AF8AC
:100FD00006460F4603F08CFC002282460023304672
:100FE000394603F047FC002840F0E082A8EB0505F5
:100FF0006B1EBAF1160F059300F2C182DDE90801FC
:10100000384B03EBCA03D3E9002303F033FC002879
:101010006ED000230C93059B0AF1FF3A002BC0F21F
:10102000B4824FF00009BAF1000F67DACAF1000389
:101030000B93209BA9EB0A09092BCDF818A0626A33
:101040004FF0000A64D8052B40F38B830025043B46
:101050002093209B023B032B00F27C86DFE813F0F9
:10106000A404A1047A04940442F20F73229AC6F3F2
:1010700013061360029B334319D1249B002B00F00D
:101080007886194B04930833249A0498136017B098
:10109000BDE8F08FC9F3130141F07F534246A5F23A
:1010A000FF350D9743F44013DDF8508070E7249B23
:1010B000002B40F03D840D4B04933DE7AFF30080DF
:1010C00061436F63A787D23FB3C8608B288AC63F4E
:1010D000FB799F501344D33F0000F07F097E000846
:1010E0000000F83FB07B0008347E0008407E000816
:1010F000059B0C90002BC0F248828146059B626ADA
:101100005344CDE9053A00230B93209B092B9AD930
:1011100000230125209321934FF0FF330A95079375
:101120000021079B51601093204601F0CBF90490F9
:10113000002800F01786636A049A1A60079B0E2B3A
:1011400000F23481002D00F031810699002940F32E
:101150008284AA4B01F00F0203EBC2030D11D3E905
:101160000023CDE90E23EA0640F14B84DDE90801B6
:10117000A34B0327D3E9082303F034FACDE9020196
:1011800005F00F057DB1DDE90E019D4EEB0704D59D
:10119000D6E9002303F0FCF801376D1006F10806CC
:1011A000F4D1CDE90E01DDE90201DDE90E2303F002
:1011B00019FACDE902010C9B43B1DDE902010022DD
:1011C000904B03F057FB002840F04885384603F069
:1011D00075F8DDE9022303F0DBF88B4B002202F007
:1011E00021FFA1F15073CDE90E010F93079B002B56
:1011F00000F0BC80069B1293079B1193DDE9026708
:101200003946304603F074FB054603F057F80246B2
:101210000B463046394602F003FF119A774B0646DB
:1012200003EBC2030F46DDE90E120A98CDE9021264
:1012300053E90223049930355FFA85F84D1C0028E4
:1012400000F09F840020714903F0CCF9DDE902230E
:1012500002F0E6FE049B324683F800803B46CDE96F
:10126000020103F025FB002840F0E68432463B46AD
:101270000020644902F0D4FE02460B46DDE902017B
:1012800003F016FB002840F05D85119B012B00F058
:101290008980049ACDF844901344CDF84CA0CDF841
:1012A00038B09946DDE902ABA0460FE032463B4636
:1012B0000020544902F0B4FE52465B4603F0DAFACD
:1012C000002840F010854D4500F0168550465946DF
:1012D00000224F4B03F05CF800224D4B82468B46B8
:1012E0003046394603F054F80F46064603F000FB3B
:1012F000044602F0E3FF02460B463046394602F050
:101300008FFE3034E4B205F8014B52465B46064688
:101310000F4603F0AFFA0028C8D04446129BDDF810
:1013200038B0013306935946204601F00BF90023EB
:101330002B70229B1A46069B1360249B002B3FF4C4
:10134000FBAD04981D6017B0BDE8F08F384602F081
:10135000B5FFDDE9022303F01BF82B4B002202F05E
:1013600061FEA1F15073CDE90E010F930022DDE97A
:101370000201284B02F054FEDDE90E783A4643465E
:1013800005460E4603F094FA0746002840F0E38332
:10139000DDE90E01024601F100432846314603F023
:1013A00069FA30BBDDE90823CDE90223159B002B48
:1013B000C0F2C780069A0E2A00F3C3800F4B03EBDE
:1013C000C203D3E9009A219B002B25DA079F002F47
:1013D00022DC40F0788400220E4B4846514602F051
:1013E000D7FFDDE9022303F059FA002800F0B483A7
:1013F000079F3E46219B049DDB43F2E2B07B000841
:10140000A07C00080000F03F00001C400000E03F0E
:101410000000244000001440DDE902674A465346BC
:101420003046394603F0DEF803F062FA804602F0F7
:1014300045FF4A46534602F0ABFF02463046464659
:101440000B46394602F0ECFD049D3036069F05F848
:10145000016B079E0137012E02460B46069744D0CA
:101460000022C44B02F094FF0022002306460F46E0
:1014700003F0F6F900287FF456AFCDF808B04FF02E
:101480000108DDF81CB005940CE00022B94B02F015
:101490007FFF0022002306460F4603F0E1F90028F3
:1014A00040F050834A4653463046394603F09AF896
:1014B00003F01EFA044602F001FF4A46534602F0CA
:1014C00067FF02460B463046394602F0A9FD08F197
:1014D000010804F13006C34502460B4605F8016BCE
:1014E000D3D1A046DDF808B0059C1046194602F09D
:1014F00099FD4A46534606460F4603F0D9F960B9AE
:101500004A4653463046394603F0AAF900283FF4CC
:101510000AAF5FEAC8717FF506AF15F8018C6B1E44
:10152000049A04E09A4200F0BF8313F8018DB8F1E9
:10153000390F03F10105F5D008F10102D2B21A709A
:10154000F1E60A9A002A44D0209A012A40F37682D2
:10155000079B5F1E0B9BBB42C0F24D82DF1B079BAC
:10156000002BC0F2F482059A4D46114619440591AC
:1015700099440121204601F001F906462CE001239F
:101580000C93059B002BBFF64CAD0023C5F1010960
:10159000059348E5102000F0C9FE6062002800F0C5
:1015A000EC83C0E901550560C5609EE4504602F039
:1015B00085FE32463B4603F053F900287FF416AD12
:1015C0000AF1FF3A12E56C4B0493049817B0BDE89A
:1015D000F08F4D460B9F0A9E002D0BDD059A002AC9
:1015E00008DDAA421346A8BF2B46A9EB0309ED1A52
:1015F000D31A05930B9BD3B10A9B002B00F091816A
:10160000002F10DD31463A46204601F073F95A4664
:1016100001460646204601F0C7F8034659462046D3
:101620009B4600F08FFF0B9BDA1B40F07B81012172
:10163000204601F0A3F8BAF1000F074600F39E80A0
:10164000209B012B40F37981002308930120BAF1FC
:10165000000F40F09F80059A104410F01F0079D0D1
:10166000C0F12003042B40F38E83C0F11C00024420
:10167000814405440592B9F1000F05DD59464A46FB
:10168000204601F099F98346059B002B05DD39467C
:101690001A46204601F090F907460C9B002B40F0BB
:1016A0002581079B002B40F30B810A9B002B40F008
:1016B0008780069B01330693049D4FF00108DDF8F7
:1016C0001C9008E0594600230A22204600F060FFE3
:1016D000834608F1010839465846FFF755FBC145D6
:1016E00000F1300005F8010BECDC03464FF0000A76
:1016F000594601222046029301F05EF9394683469D
:1017000001F0BEF9002815F8012C40F382816B1E10
:10171000049904E0994200F08A8113F8012D392AD6
:1017200003F10105F6D001321A703946204600F067
:1017300009FF002E3FF4F7ADBAF1000F05D0B24516
:1017400003D05146204600F0FDFE3146204600F011
:10175000F9FEE8E51C20059B8144034405440593FC
:1017600089E7012575E4C3F12006029B03FA06F020
:1017700006E400BF00002440087E000801465246EF
:10178000204601F0B7F8209B0746012B40F38D81DE
:10179000002308933B6907EB8303186900F09EFF61
:1017A000C0F1200057E7314600230A22204600F00E
:1017B000EFFE109B0646002B40F3BB82CDE906836B
:1017C000002D05DD31462A46204601F0F5F8064693
:1017D000089B002B40F09F81B1460499029B8846EC
:1017E00003F001024B1E20990B920A430A92079ABA
:1017F0001A44089239465846FFF7C6FA3146029015
:10180000584601F03DF94A4682463946204601F0E5
:1018100053F9029BC26805463033002A42D1014683
:101820005846079301F02CF929460590204600F010
:1018300089FE059A079B1AB90A99002900F065826A
:10184000BAF1000F08F10105C0F24781209941EA81
:101850000A0A0B9951EA0A0100F03F81002A00F3BD
:101860007D81089A88F80030424500F0848159460D
:1018700000230A22204600F08BFE4E458346314667
:101880004FF000034FF00A02204613D000F080FE14
:101890004946064600230A22204600F079FEA84663
:1018A0008146A7E701462046059300F04BFE012242
:1018B000059BC5E700F06CFEA8460646814699E701
:1018C000209B022B76DC0A9B002B7FF479AF3946F4
:1018D0005846FFF759FA069A049D00F13003013289
:1018E000069205F8013B4FF0000A01E739465846D9
:1018F00001F0C6F80028BFF6D4AE594600230A22EC
:10190000204600F045FE069B834603F1FF380A9B04
:10191000002B7FF448AF109B002B40F3038207930A
:10192000CAE60B9A5946204600F0E4FF83467EE65D
:10193000B84B04930333FFF7A7BBDDE9021200297C
:101940007FF482AEC2F31303002B00F0B980029B38
:1019500008937BE601230A93219B002B54DD1E464E
:10196000109307930021172E51607FF7DDAB012004
:1019700004235B0003F11407B742014600F10100A4
:10198000F7D95160FFF7D0BB01230A93219B069939
:101990000B4410930133012B1E460793B8BF012659
:1019A000E0E700230A93F1E700230A93D4E7109BB2
:1019B000CDE90683079B002B7FF41CAD3946052239
:1019C000204600F0E5FD01460746584601F058F86C
:1019D00000287FF70FAD3122049D069B05F8012BEF
:1019E0000133013339462046069300F0ABFD002E4B
:1019F0007FF4ABAE97E40B9B0B97FB1A9A4400273E
:101A0000ADE50227FFF7BEBB012321930793FFF744
:101A100087BB03D1029BDB073FF579AE6B1E01E06C
:101A200013F8012D302A03F10105F9D07DE63123A9
:101A3000069A01320692049A137076E60D9A002AED
:101A400000F0FF80059A03F233431A444D46059295
:101A500099440B9F8DE500F0FE80DDE90801069BAF
:101A60005D426D4B05F00F0203EBC203D3E9002387
:101A700002F08EFC2D11CDE9020100F0EC80002374
:101A80000227664EEA0705D5D6E9002302F080FC5E
:101A900001231F446D1006F10806F3D1002B3FF41B
:101AA0008AABCDE90201FFF786BB029B002B7FF4D6
:101AB0006FAEDDE90212C2F31303002B40F0478141
:101AC000574B1340002B00F0FC80059B09F10109E6
:101AD0000133059301230893B8E50699002A01F123
:101AE0000101069112DD594601222046059300F0BE
:101AF00063FF3946834600F0C3FF0028059B40F38F
:101B0000EC80392B00F0D780029B3133B24688F845
:101B100000304E4609E67168204600F0D3FC0546C9
:101B2000002800F03581336906F10C0102339A0078
:101B30000C3000F051FC29460122204600F03CFF09
:101B400081464AE6DDF808B0059CFFF7ECBB079B31
:101B5000A9EB03050DE500273E463CE7069A392B25
:101B600002F10102069200F0A6800133B24688F825
:101B700000304E46D9E5069AB246013206924E46EC
:101B8000B6E5DDE9020102F003FC049BCDE90201A8
:101B900083F80080119B012B22D0119B049ACDF871
:101BA00038901344994600221E4B3046394602F0C5
:101BB000EFFB0F46064602F09BFE804602F07EFBDE
:101BC00002460B463046394602F02AFA08F1300840
:101BD00005F8018B4D4506460F46E4D1DDF83890F7
:101BE0000022DDE90201104B02F01CFA32463B46AE
:101BF00002F040FE00286AD1DDE9022300200A49F4
:101C000002F00EFA32463B4602F052FE00283FF444
:101C1000C9AB0CE0407E0008B07B0008A07C000847
:101C20000000F07F000024400000E03F154615F85A
:101C3000013C6A1E302BF9D0129B01330693FFF74B
:101C400072BB149B059AC3F136031A444D460592A4
:101C500099440B9F8DE40227FFF7ADBA079B002B39
:101C60003FF474AB109D002D7FF79CABDDE90201C2
:101C70000022514B02F08CFBCDE90201781C02F0EE
:101C80001DFBDDE9022302F083FB00224B4B02F037
:101C9000C9F9069AA1F15073013ACDE90E011292E9
:101CA0000F931195FFF7AABA069A013206923122D4
:101CB0001A70FFF738BB3922B24688F800204E462A
:101CC00025E50893C2E400273E46FFF793BB129B2D
:101CD0000133069315F8018C21E47FF417AFDA077E
:101CE0007FF514AF0DE74346A0461C46129BDDF876
:101CF00038B00133069312E4DDF84490DDF84CA0CF
:101D0000DDF838B04446FFF74DBB069A392B02F197
:101D10000102069208F10105CDD0BAF1000F3FF79C
:101D2000F3AEF3E6209B022B3FF741AECDF81880CF
:101D3000CDE5209B022B3FF73AAE109BCDF81880E3
:101D400007933DE5129B01330693FFF7E8BB029B27
:101D500008931FE5002520465560294600F0B2FB98
:101D60000490E0B9164B00224FF4D571154801F0EC
:101D7000E3F9154B0493FFF7DFB80246134BEA2152
:101D8000104801F0D9F93FF476ACC0F13C00E2E430
:101D900002460B4B40F2EA210A4801F0CDF94FF020
:101DA000FF331A4607931092636A049A21951A60CA
:101DB00001230A93FFF7FABA0000244000001C40F8
:101DC000907E00085C7E0008347E0008447E000897
:101DD0002DE9F0418F890C463A07804641D44B6883
:101DE000002B59DDE66A002E53D0002317F48052F1
:101DF000D8F80050216AC8F8003051D1012340467C
:101E0000B047431C5FD0A789E66A216A7F0705D5E2
:101E10006268636B801A0BB1236CC01A0246002300
:101E20004046B047461C45D1D8F80030B4F90C20E4
:101E3000002B55D01D2B01D0162B5AD1002223691F
:101E4000C4E90032616BC8F8005011B304F14403D7
:101E5000994202D0404601F047F800206063BDE897
:101E6000F0810E69AEB10D680E60B90714BF002392
:101E70006369AD1BA3600AE02B463246A76A216A5C
:101E80004046B8470028A5EB000506440ADD002DB2
:101E9000F2DC0020BDE8F0810B6C002BA2DCF8E73F
:101EA000606DB3E7A3894FF0FF3043F04003A38197
:101EB000BDE8F081002322696360A3892260DA040F
:101EC000C0D56065BEE7D8F80030002B9BD01D2B35
:101ED0000CD0162B0AD0A38943F04003A381D9E785
:101EE0002169C4E90013D304ACD5EAE7C8F800506F
:101EF000CFE742F04002A281CCE700BF0B6923B3D9
:101F000010B5044682B008B18369BBB1104B994249
:101F100012D0104B994216D00F4B994208BFE1687E
:101F2000B1F90C302BB1204602B0BDE81040FFF7EC
:101F30004FBF002002B010BD6168F1E7019100F0D1
:101F400007F90199E2E7A168EAE70020704700BFBE
:101F50007C7B00085C7B00083C7B000820B1054BC3
:101F600001461868FFF7CABF034B0449186800F020
:101F700033B900BF00000020387B0008FD1E0008B8
:101F800000207047014900F027B900BFFD1E00087E
:101F90000020704770B568254A1E05FB02F50E4605
:101FA00005F1740100F0F4FF044640B100210C304B
:101FB000666005F168022160A060FEF717F920460F
:101FC00070BD00BF1E4B70B51D680646AB6943B3BC
:101FD0004835D5E90134013B05D51EE0013B5A1CCB
:101FE00004F1680419D0B4F90C20002AF6D10025B8
:101FF000144B6566C4E90055A560C4E90455A561A4
:102000002946E360082204F15C00FEF7EFF8C4E91A
:102010000D55C4E91255204670BD2C682CB12546DB
:10202000D7E7284600F010F8D2E704213046FFF742
:10203000B1FF044628600028F1D10C233360EAE7A1
:10204000387B00080100FFFF2DE9F84F0023334AD9
:10205000C0E9123312680365904208BF012330497A
:1020600008BF836181620546FFF7ACFF68602846C0
:10207000FFF7A8FFA86028460024FFF7A3FF04236A
:102080006E68E8602146F3607466C6E90044B46097
:10209000C6E90444B46106F15C000822FEF7A6F824
:1020A000DFF888B0AF68DFF888A0DFF88890DFF845
:1020B00088801C4BC6E9086BC6E90AA9C6F83080BF
:1020C0002146FB6008227C66C7E90044BC60C7E982
:1020D0000444BC6107F15C00FEF788F8EE68124B1F
:1020E000C7E9087BC7E90AA9C7F830802146F36031
:1020F0007466C6E90044B460C6E90444B46106F1FC
:102100005C000822FEF772F80123C6E9086BC6E9F5
:102110000AA9C6F83080AB61BDE8F88F387B0008AB
:10212000851F000809000100120002007D30000830
:10213000A5300008E530000805310008024B0349CE
:10214000186800F049B800BF387B0008FD1E000881
:10215000836903B978E77047704700BF704700BFD5
:10216000704700BF704700BF024B0349186800F07A
:102170000FB800BF00000020811F0008024B034978
:10218000186800F005B800BF00000020911F00088B
:102190002DE9F04110F148071AD088460026D7E90A
:1021A0000154013D0ED4A389013D012B06D9B4F998
:1021B0000E30013302D02046C04706436B1C04F1A9
:1021C0006804F0D13F68002FE9D13046BDE8F081C6
:1021D0003E463046BDE8F0812DE9F84310F148064F
:1021E0001ED0884607464FF00009D6E90154013D4C
:1021F00010D4A389013D012B08D9B4F90E30013365
:1022000004D021463846C04749EA00096B1C04F156
:102210006804EED13668002EE7D14846BDE8F88361
:10222000B1464846BDE8F883F03070470048704733
:1022300054010020004870475401002070B50C463E
:10224000B1F90E1096B0002916461D4613DB6A46FA
:1022500000F0CCFF00280EDB019A4FF4806302F4FB
:102260007042A2F50052B2FA82F2002052092A60AE
:10227000336016B070BD0022A3892A601B0604D506
:1022800040230020336016B070BD4FF480630020FF
:10229000336016B070BD00BF8A890B46920706D521
:1022A000012103F1470259611A601A61704770B544
:1022B00082B001AB6A460C460646FFF7BFFF0099A5
:1022C0000546304600F064FEB4F90C3070B1164A91
:1022D0000099B262019A43F08003A3812060C4E9AF
:1022E00004018AB92B43A38102B070BD9A05FBD4C7
:1022F000012123F0030304F1470243F00203A38109
:10230000616122602261EFE73046B4F90E1000F0FF
:1023100081FF10B9B4F90C30E4E7A38923F003037B
:1023200043F001031BB2DDE7851F0008024B0146A5
:10233000186800F02DBE00BF00000020024B0146CF
:10234000186800F0D1BD00BF00000020830770B402
:10235000CDB23DD0541E0AB30378AB421FD0431C0C
:1023600005E014F1FF3419D30278AA4217D013F014
:10237000030F184603F10103F3D1032C11D84CB31A
:102380000378AB420BD00444431C02E00278AA421B
:1023900005D09C42184603F10103F7D1002070BC20
:1023A000704702460E02B6B22E4346EA064613684E
:1023B00010467340A3F1013121EA030313F0803F7B
:1023C00002F10402DCD1043C032C1046EFD8D6E71E
:1023D0001446D2E72046E2E7844641EA000313F0C0
:1023E000030349D1403A23D30B6803604B68436031
:1023F0008B688360CB68C3600B6903614B69436181
:102400008B698361CB69C3610B6A03624B6A436268
:102410008B6A8362CB6AC3620B6B03634B6B436350
:102420008B6B8363CB6BC36340304031403ADBD26C
:1024300030320BD30B6803604B6843608B6883605A
:10244000CB68C36010301031103AF3D20C3205D390
:1024500051F8043B40F8043B043AF9D2043208D066
:10246000D2071CBF11F8013B00F8013B01D30B88D8
:1024700003806046704700BF082A13D38B07B1D092
:1024800010F00303AED0C3F10403D21ADB071CBF64
:1024900011F8013B00F8013BA4D331F8023B20F8CE
:1024A000023B9FE7043AD9D3013A11F8013B00F807
:1024B000013BF9D20B7803704B7843708B788370B3
:1024C0006046704770B5446A06460D465CB1E368E5
:1024D000A3B153F82500E8B1026843F82520002392
:1024E000C0E9033370BD1020FFF720FF044670627F
:1024F000E8B10023C0E901330360C3602122042155
:10250000304600F0E3FC736AE060DB68002BE0D14A
:10251000002070BD012101FA05F4621D30469200D1
:1025200000F0D4FC0028F3D0C0E90154D7E70246FC
:10253000024B6621024800F0FFFD00BF447E000808
:10254000A47E000830B5456A83B0044655B139B160
:10255000636A4A68DB6853F82200086043F8221077
:1025600003B030BD10200191FFF7E0FE01996062D9
:1025700020B1C0E901550560C560E8E70246024B9D
:102580008A21024800F0D8FD447E0008A47E00089D
:10259000F0B54FF0000C0C4605460E6983B001F112
:1025A000140738680CF1010C81B202FB0133000CF6
:1025B000190C02FB00109BB203EB0043664547F881
:1025C000043B4FEA1043ECDC3BB1A268B24207DDAA
:1025D00004EB8602013653612661204603B0F0BD4C
:1025E0006168284601310193FFF76CFF019B0746A4
:1025F000A0B1226904F10C01023292000C30019367
:10260000FFF7EAFE21463C462846FFF79BFF019B69
:1026100004EB8602013653612661DEE70246024B77
:10262000B521024800F088FD907E0008A47E0008D5
:102630002DE9F8431D46264E083386FB0346092D37
:102640004FEAE37390460746C3EB66020C46089ECA
:1026500036DD012300215B009A4201F10101FADC21
:102660003846FFF72FFF68B30123B8F1090FC0E91F
:10267000043613DC4FF009080A3445450CDDA5EBA0
:102680000805254414F8013B0146303B0A22384630
:10269000FFF77EFFA542F5D1BDE8F88304F10909F3
:1026A0004E46444416F8013B0146303B0A22384668
:1026B000FFF76EFFB442F5D1A8F108044C44DCE703
:1026C0000021CDE70246034BCE21034800F034FD44
:1026D000398EE338907E0008A47E0008020C1204B4
:1026E0000346CAB90304102013F07F4F04BF1B0236
:1026F000083013F0704F04BF1B01043013F0404F3B
:1027000004BF9B000230002B05DB13F0804F00F16B
:10271000010008BF202070470020E5E7036801465C
:1027200013F0070207D0DA0720D4980722D55B08F8
:102730000B600120704798B2B0B910201B0C13F049
:10274000FF0F04BF1B0A08301A0704BF1B0904301F
:102750009A0704BF9B080230DA0703D45B0800F134
:10276000010005D00B6070471046E8E70020704775
:10277000202070479B080B600220704710B50C4664
:102780000121FFF79FFE024618B10123C0E904347E
:1027900010BD034B4FF4A071024800F0CDFC00BF08
:1027A000907E0008A47E00082DE9F04F0E6917699D
:1027B00083B0BE420C46154605DB3A462B463746EB
:1027C0000D4616461C46AB68696807EB060843458C
:1027D000B8BF0131FFF776FE009000287FD0009B44
:1027E00003F1140A0AEB8809CA4505D253460021B1
:1027F00043F8041B9945FBD804F1140E0EEB860B2D
:1028000005F11403DE4503EB870753D2CDF80480AE
:10281000984605E0090C28D1F3450AF1040A47D986
:102820005EF8041B8EB2002EF4D0454654460023B9
:1028300055F8041B20688AB21FFA80FC06FB02C20E
:10284000090C000C06FB0101134401EB13429BB27F
:1028500043EA0243AF4244F8043B4FEA1243E7D84D
:1028600023605EF8041C090CD6D0DAF8003040462C
:102870001A4654464FF0000C0588120C01FB052245
:102880009BB2944443EA0C4344F8043B50F8043BA5
:1028900022681B0C95B201FB0353874203EB1C43D8
:1028A0004FEA134CE8D8F34523600AF1040AB7D87D
:1028B000DDF80480B8F1000F0BDD59F8043CA9F1F4
:1028C00004091BB105E059F8043D13B9B8F101083A
:1028D000F9D10098C0F8108003B0BDE8F08F02462F
:1028E000024B40F25D11024800F026FC907E000889
:1028F000A47E00082DE9F04112F0030382B01446D3
:1029000007462DD10E46A4101CD07A6A8AB395686A
:10291000002D39D0E3074FF0000806D4641011D021
:10292000286898B10546E307F8D531462A46384667
:10293000FFF73AFF0346314638461E46FFF702FED0
:102940006410EDD1304602B0BDE8F0812A46294638
:102950003846FFF729FF2860C0F800800546E2E707
:10296000124A013B52F823200023FFF711FE0646CE
:10297000C9E71020FFF7DAFC0246786280B1002335
:10298000C0E901330360C36040F27121384601920F
:10299000FFF7F4FE0023019A054690600360B9E753
:1029A000034B4FF4D771034800F0C6FBA07B00082F
:1029B000447E0008A47E00082DE9F0470E694FEA26
:1029C000621A8B685644741C9C420D469146074619
:1029D000496804DD5B009C4201F10101FADC3846E4
:1029E000FFF770FD804600283FD0BAF1000F00F1DC
:1029F00014000EDD034600210AF1050A4FEA8A0A97
:102A000008EB0A0243F8041B9342FBD1AAF1140A13
:102A10005044296905F1140319F01F0903EB810CD7
:102A20001BD00022C9F1200E196801FA09F11143E7
:102A300040F8041B53F8042B9C4522FA0EF2F3D8FD
:102A4000002A18BF264602603846C8F8106029469A
:102A5000FFF778FD4046BDE8F087043853F8042BB3
:102A60009C4540F8042FF9D8EEE70246024B40F2AD
:102A7000D911024800F060FB907E0008A47E000897
:102A800030B40B6905460069C01A10D19B0014359B
:102A9000143119442B4401E09D4208D253F8044DEF
:102AA00051F8042D9442F7D003D24FF0FF3030BCE0
:102AB0007047012030BC70472DE9F04716460F697A
:102AC00012690D46BF1A002F6AD1920001F1140C51
:102AD00006F114010CEB0203114401E09C4562D2A3
:102AE00053F8042D51F8044DA242F7D053D369682E
:102AF000FFF7E8FC002860D0D5F810C03369143522
:102B000006F11402C76005EB8C0E02EB830800F19E
:102B10001407002100E037463E4655F8049B52F862
:102B2000044B1FFA89F30B441FFA84FA210CA3EB20
:102B30000A03C1EB194101EB23419BB243EA014374
:102B400090454FEA214146F8043B2C46E3D8AE4578
:102B500016D9324654F8047BBBB20B44191401EB6E
:102B600017419BB243EA0143A64542F8043B4FEAB2
:102B70002141EFD80EF1FF377F1B27F003073744C1
:102B80002BB957F8043D0CF1FF3C002BF9D0C0F8ED
:102B900010C0BDE8F0872B46012735461E46A6E744
:102BA000F9DB0027A3E70021FFF78CFC60B10122CD
:102BB0000023C0E90423BDE8F0870246064B4FF42A
:102BC0001071064800F0B8FA0246034B40F2322179
:102BD000024800F0B1FA00BF907E0008A47E000811
:102BE0000E4B0B40A3F15073002B02DD0020194661
:102BF00070475B421B15132B05DC4FF400220020AD
:102C000042FA03F17047143B1E2BD6BF4FF000422F
:102C1000012322FA03F30021184670470000F07FD9
:102C20002DE9F041076900F1140606EB870757F814
:102C3000048C4046FFF752FDC0F120030A280B60C8
:102C4000A7F1040230DD9642A0F10B031DD257F824
:102C5000080C23B3C3F1200120FA01F208FA03F8AB
:102C600048EA0208A7F1080248F07F55964200FAA8
:102C700003F045F4401503D257F80C3CCB40184301
:102C8000044629462046BDE8F0813BB108FA03F32B
:102C900043F07F5545F440150020F1E7184648F011
:102CA0007F5545F44015EBE796422CBF002257F8BC
:102CB000082CC0F10B0328FA03F138BFDA4000F109
:102CC000150341F07F5508FA03F345F4401543EA34
:102CD000020420462946BDE8F08100BF70B50121FD
:102CE00082B016461C46FFF7EDFB054600284CD087
:102CF0002346C4F30A54C3F313030CB143F4801303
:102D0000002E019322D068460096FFF707FD0028A9
:102D100037D0019BC0F12002009903FA02F20A4366
:102D2000C34001936A61002B14BF02210121AB61F2
:102D30002961B4B1069BA4F2334404441C60079B90
:102D4000C0F135001860284602B070BD01A8FFF739
:102D5000E5FC0123019A19462030C5E90432002C14
:102D6000E8D1069A05EB8103A0F2324010601869A1
:102D7000FFF7B4FC079BC0EB41101860284602B077
:102D800070BDDDE900236A61CDE70246024B40F2E7
:102D90000A31024800F0D0F9907E0008A47E0008B5
:102DA0002DE9F04383B00F4669460646FFF738FF2A
:102DB00004460D46384601A9FFF732FF36693A69E5
:102DC0008946DDE90013B61ACB1A03EB4613002B34
:102DD00080460BDD05EB03573D4642464B462046F9
:102DE000294601F0FFFB03B0BDE8F083C3EB0333DA
:102DF00009EB03518946F0E71728D0B504460ADDF0
:102E0000002000260749084F32463B4601F0C0FA31
:102E1000013CF9D1D0BD054B03EBC004D4E904015A
:102E2000D0BD00BF0000F03F00002440A07B0008A0
:102E300070B414694E1E02F11403761103EB840181
:102E400001368B4200EB86060CD2041F53F8045B5C
:102E5000994244F8045FF9D88B1A153B23F0030319
:102E600004331844864204D9002340F8043B8642C8
:102E7000FBD870BC704700BF03694A11934210B47D
:102E800000F114040FDA04EB83039C421CD253F8C4
:102E9000040C043B18B114E053F8042D8AB99C4289
:102EA000FAD310BC704704EB8203EEDD11F01F0172
:102EB000EBD054F8220020FA01F202FA01F1884224
:102EC000E3D0012010BC70470020EAE738B502FBD0
:102ED00001F4214600F05CF8054618B122460021B5
:102EE000FDF784F9284638BD00293AD038B551F8A5
:102EF000043C0C1F002BB8BFE418054600F0D2F9C3
:102F0000224B1A682AB1A2420DD921686018824268
:102F100021D0626028461C60BDE8384000F0C4B98A
:102F2000A34203D81A465368002BF9D111685018F0
:102F3000A04217D022D821686018834203BFD3E98A
:102F400000030918C4E90013636054602846BDE813
:102F5000384000F0A9B9D2E900020144C4E90012E6
:102F6000D8E7704720680144501883421160EDD1C2
:102F7000D3E900030144C2E90013E7E70C23284624
:102F80002B60BDE8384000F08FB900BF2C02002054
:102F9000F8B5CD1C25F0030508350C2D38BF0C25E0
:102FA000002D064633DBA94231D82A4F00F07AF9CA
:102FB0003A6852B113685B1B04D43FE023685B1B83
:102FC00029D522465468002CF8D1796800293BD0D5
:102FD0002946304600F040F8431C28D0C41C24F099
:102FE0000304A04205D0211A304600F035F8013024
:102FF0001DD02560304600F057F904F10B0020F099
:103000000700231DC21A01D01B1AA350F8BD0C22C1
:1030100000203260F8BD0B2B05D8A242636811D0A6
:103020005360E7E7144623601C442560E2E70C2365
:103030003046336000F038F90020F8BD0B2BF1D892
:10304000144653683B60D5E7304600F005F87860D9
:10305000BEE700BF2C02002038B50023064C054611
:103060000846236000F014FF431C00D038BD2368DD
:10307000002BFBD02B6038BDF005002010B50C46AE
:10308000B1F90E1000F0C4FA002803DB636D0344AD
:10309000636510BDA38923F48053A38110BD00BFD5
:1030A000002070472DE9F041B1F90C409846E30546
:1030B0000D461746B1F90E10064609D424F4805483
:1030C000AC8143463A463046BDE8F04100F01EB8B8
:1030D0000223002200F0B0F8B5F90C40B5F90E104B
:1030E000ECE700BF10B50C46B1F90E1000F0A4F8E3
:1030F000A389421C0EBF23F4805343F480536065C0
:10310000A38110BDB1F90E1000F03AB8F8B50E4623
:103110000025084C114607461A463046256004F043
:1031200083FC431C00D0F8BD2368002BFBD03B6020
:10313000F8BD00BFF005002000B50A4C0546206828
:1031400085B01C46C06852B1074BCDE901320091F1
:103150002B462246054900F035F800F067FB044B8A
:103160001A46F2E700000020D87E0008E87E00083A
:10317000DC7D000808B513460022FFF7DDFF00BF25
:1031800038B50023064C05460846236004F066FC6B
:10319000431C00D038BD2368002BFBD02B6038BD0A
:1031A000F00500200CB410B582B004AC54F8042B28
:1031B0002346019400F0BCF802B0BDE8104002B014
:1031C000704700BF0EB430B582B005AC54F8042B84
:1031D000054D014623462868019400F0A9F802B085
:1031E000BDE8304003B070470000002070B50D46C8
:1031F0000023074C064611462846236004F05AFC7B
:10320000431C00D070BD2368002BFBD0336070BD21
:10321000F005002038B50023064C0546084623601B
:1032200004F0F6FB431C00D038BD2368002BFBD014
:103230002B6038BDF0050020F8B50E460025084C7F
:10324000114607461A463046256004F013FC431C1D
:1032500000D0F8BD2368002BFBD03B60F8BD00BF59
:10326000F005002010B4034CD4F8E440A44610BC90
:10327000604700BF6400002082B049B15AB16BB111
:1032800013780B601278101C18BF012002B0704731
:1032900001A9002AF3D1104602B070476FF0010077
:1032A000F4E700BF704700BF704700BF9368013B61
:1032B000002B93600FDA10B49469A34208DB0A294B
:1032C00006D01368581C10601970084610BC70476F
:1032D00010BC00F0B3B91368581C10601970084690
:1032E000704700BF9BB1F8B513440F4606465D1EFC
:1032F000541E01E0AC4208D03A4614F8011F304693
:10330000FFF7D4FF431CF5D1F8BD0020F8BD002025
:10331000704700BF936810B5144613B95360184640
:1033200010BD00F08BFA0023C4E9013310BD00BFCB
:103330002DE9F04F9FB08B4690461C46039018B184
:103340008369002B00F0B980A34B9B4500F0BB8044
:10335000A24B9B4500F0C980A14B9B4504BF039B3A
:10336000D3F80CB0BBF80C30180740F1B480DBF890
:103370001030002B00F0AF803023002120228DF888
:10338000323098F8003005940B918DF83120954E2D
:103390000127002B00F08980252B00F0178145467E
:1033A00003E0252B00F0A58025466B786C1C002BD4
:1033B000F7D1B4EB080A78D04246534659460398F1
:1033C000FFF790FF013070D00B9B6A7853440B934A
:1033D000002A6AD000234FF0FF3201340693CDE972
:1033E00008338DF85B301C93079206E02C46069B51
:1033F000801B07FA00F0184306902546052215F8B1
:10340000011B3046FEF7A2FFAA460028EED1069B1C
:10341000D90644BF20228DF85B201A0748BF2B2213
:10342000217848BF8DF85B202A2967D1059A116859
:10343000043200290592C0F29E8009916178A51C92
:103440002E2974D0684C03222046FEF77FFF002807
:1034500000F087804022069B001B02FA00F0034325
:10346000069305F101082B78062219465F488DF86E
:103470003030FEF76BFF002800F083805C4B002BA0
:1034800072D005AB00935A465A4B06A90398FCF735
:10349000BFFF8146B9F1FF3F07D00B9B4B440B9315
:1034A00098F80030002B7FF477AFBBF80C305B0648
:1034B00018D40B981FB0BDE8F08FFEF749FE464BBD
:1034C0009B457FF445AF039BD3F804B0BBF80C30A9
:1034D00018073FF54CAF5946039800F027F900282C
:1034E0003FF44AAF4FF0FF30E4E7039BD3F808B056
:1034F00038E7B4EB080A3FF46DAF5DE7A1F13002A5
:10350000092A88BFA2469BD8099B01E02C460135B9
:10351000297803EB830302EB4303A1F13002092A6C
:10352000AA46F3D92E2904F1020509938AD19AF803
:1035300001102A292FD1059B0AF102001A680433D1
:10354000002A079205939AF802100AF1030538DB66
:10355000254C824603222046FEF7F8FE00287FF421
:1035600079AFA84655467EE7059B073323F007034E
:103570000833059391E7494243F00203099106930A
:103580005CE705AB00935A461A4B06A90398FDF772
:1035900081FA81467EE70023A1F13002092A0793D0
:1035A00001D915E05546697803EB830302EB430329
:1035B000A1F13002092A05F1010AF3D90235079376
:1035C00040E74FF0FF33824607933BE7444601E76D
:1035D000AA46013536E700BF7C7B00085C7B00080B
:1035E0003C7B0008287F0008307F0008347F0008FB
:1035F00011040008E532000810B4044C13460A46D2
:103600000146206810BCFFF793BE00BF00000020F9
:10361000F8B50E460025084C114607461A463046B6
:10362000256004F02FFA431C00D0F8BD2368002B5E
:10363000FBD03B60F8BD00BFF0050020F8B50D469B
:103640001446064608B1836943B3254B9C422AD0F1
:10365000244B9C4229D0244B9C4208BFF468A269A9
:10366000A389A2601A0722D5236903B3226861697E
:10367000D31AEDB299422F4629DD0133A168501CBF
:103680000139A1602060157062699A4216D0A38941
:10369000DB0701D50A2D11D03846F8BDFEF758FDDD
:1036A0000F4B9C42D4D17468D9E7B468D7E7214660
:1036B000304600F03BF838B92369D7E72146304659
:1036C000FEF71CFC0028E7D04FF0FF37E4E7214667
:1036D0003046FEF713FC0028F6D101232268CDE71F
:1036E0007C7B00085C7B00083C7B0008024B0A46A0
:1036F00001461868FFF7A2BF0000002010B4034C79
:10370000D4F8E040A44610BC604700BF640000202D
:1037100019B1FF2A03D80A700121084670478A238D
:103720004FF0FF3103600846704700BF3B4B70B558
:103730001D6806460C460DB1AB69DBB1384B9C42A7
:103740001ED0384B9C424AD0374B9C4208BFEC6895
:10375000B4F90C2093B2190718D5206908B313F0F7
:1037600001022CD000226369A2605B42A36160B3B6
:10377000002070BD2846FEF7EBFC294B9C42E0D1AF
:103780006C68B4F90C2093B21907E6D4DD063CD579
:10379000580726D4206942F00803A3819BB2002871
:1037A000DDD103F42072B2F5007FD8D03046214637
:1037B000FEF772FDA389206913F00102D2D19907A7
:1037C00058BF6269A2600028D2D1B4F90C301A0641
:1037D000CFD543F04003A3814FF0FF3070BDAC68FC
:1037E000B6E7616B51B104F14403994204D030460D
:1037F000FFF77AFBB4F90C200023636300232069F0
:1038000022F02402C4E90003C5E7092342F0400284
:1038100033604FF0FF30A28170BD00BF0000002078
:103820007C7B00085C7B00083C7B000808B5062018
:1038300000F096FA012000F039FB00BF9368002BDE
:1038400000F0FC802DE9F04FB1F90C300C469BB232
:10385000190783B0824690462BD522694AB313F0EC
:103860000202D8F8006033D000273D46D4F828B0D3
:10387000216ADFF8C492C5B14D452B463A4628BFB0
:103880004B465046D847002840F3CE80D8F8083041
:1038900007441B1A2D1AC8F80830002B00F0B3801B
:1038A000D4F828B0216A002DE6D1D6E90075083693
:1038B000E1E721465046FFF739FF002840F0378105
:1038C000B4F90C30D8F800609BB213F00202CBD1EF
:1038D00013F0010940F0B4804D46A7682068002D20
:1038E00055D09A0540F1C080AF42BB4600F2EE8051
:1038F00013F4906F2FD0D4E9041707EB4707A0EB20
:10390000010B07EBD777681C7F105844B8423A4642
:1039100084BF07463A465B0540F1F08011465046A9
:10392000FFF736FB002800F0FC805A462169019021
:10393000FEF752FDA289019B22F4906242F08002C0
:10394000A281A7EB0B0203EB0B006761AB462F468E
:1039500023612060A2605A46494600F0EFF82368D0
:10396000A2685B44AB460025D71BA7602360D8F84C
:103970000870D944A7EB0B07C8F80870002F42D095
:10398000B4F90C30A7689BB22068002DA9D1D6E904
:1039900000950836A3E70BF1080353F8047C9B4617
:1039A00053F8086C0833002FF7D03A460A21304606
:1039B000FEF7CCFC002854D00130A0EB06094B46A2
:1039C00020682169BB4228BF3B468842626903D90F
:1039D000A5681544AB421ADC9A4200F38180134675
:1039E000A56A3246216A5046A847051E1CDDB9EB80
:1039F00005096ED00120D8F808302E445B1B7F1BD0
:103A0000C8F8083013BB002003B0BDE8F08F314682
:103A10002A4600F093F8236821462B442360504641
:103A2000FEF76CFA0028E2D0B4F90C304FF0FF300A
:103A300043F04003A38103B0BDE8F08F002070473E
:103A400033469146104617464E469B46002FA2D05D
:103A50000028B4D13A460A213046FEF777FC002808
:103A6000AAD17B1C9946ABE72369834217D36269CD
:103A7000AA4214D82F4BA76A9D4294BF2B466FF0E1
:103A8000004393FBF2F3216A02FB03F350464A46DC
:103A9000B847B0F1000BC7DDA5EB0B0567E7AF42F8
:103AA00028BF2F4649463A4600F048F8A3682268E6
:103AB000DB1B3A44BB46A3602260002BECD12146BD
:103AC0005046FEF71BFA0028E6D0ADE72F46AB467E
:103AD00041E721465046FEF711FA00288BD0A3E7B4
:103AE0001A4631461D46019300F028F8A168226865
:103AF000019BC91A1344A160236078E7504600F087
:103B000083F8034600287FF41CAF21695046FFF775
:103B1000EBF90C22B4F90C30CAF8002023F0800332
:103B200084E70C22B4F90C30CAF800207EE74FF08D
:103B3000FF3069E7FEFFFF7F00FCFF7F8842F0B4A3
:103B40000DD98B1883420AD9841832B1224613F852
:103B5000014D994202F8014DF9D1F0BC70470F2A8E
:103B60000ED80346541E002AF7D001340C44013B02
:103B700011F8012BA14203F8012FF9D1F0BC7047D5
:103B800040EA01039B073AD1A2F110073F0901F176
:103B9000200606EB071601F1100300F1100453F89C
:103BA000105C103344F8105C53F81C5C103444F87B
:103BB0001C5C53F8185C44F8185C53F8145CB3426E
:103BC00044F8145CEBD17B1C1B0112F00C0F194460
:103BD00002F00F05034415D00E46043DAD0803EB7B
:103BE000850C1C1F56F8047B44F8047F6445F9D10A
:103BF0000135AD002B44294402F00302B2E7541E04
:103C00000346B2E72A46ADE709B3F8B51446CAB190
:103C100006460D4600F0DCF8A04202D32F46384697
:103C2000F8BD21463046FFF7B3F907460028F6D025
:103C300022462946FEF7D0FB30462946FFF754F9C5
:103C40003846F8BD2746FFF74FF93846F8BD11460C
:103C5000FFF79EB910B580210446FFF799F960641B
:103C600040B10022031F7C3043F8042F8342FBD174
:103C7000002010BD4FF0FF3010BD00BF436C0BB1F2
:103C800000207047E6E700BF1F2970B5054608D839
:103C9000436C16460C464BB153F8240043F824609D
:103CA00070BD16224FF0FF302A6070BDFFF7D2FFC3
:103CB00008B96B6CF0E74FF0FF3070BD1F2938B5C5
:103CC000054620D8426C0C466AB152F8213053B1F7
:103CD000012B16D0591C10D00025204642F8245044
:103CE0009847284638BD284600F070F8224601461D
:103CF0002846BDE8384000F055B8162301202B6057
:103D000038BD002038BD16234FF0FF302B6038BD82
:103D10001F2921D838B5436C05460C4683B153F8AA
:103D2000242003EB84034AB1511C10D0012A0CD08B
:103D3000002520461D609047284638BD012038BD2B
:103D4000FFF788FF28B96B6CE9E7032038BD022034
:103D500038BD4FF0FF3038BD4FF0FF30704700BF27
:103D6000024B01461868FFF7A9BF00BF0000002002
:103D7000024B0A4601461868FFF786BF0000002084
:103D8000034B1868436C0BB10020704762E700BF1B
:103D900000000020024B01461868FFF7B9BF00BFC2
:103DA0000000002070B50D460023074C0646114662
:103DB0002846236000F064F8431C00D070BD2368DF
:103DC000002BFBD0336070BDF005002000F050B830
:103DD00051F8043C181F002BBCBF0B58C01870478B
:103DE000F8B5C1F30A57A7F2FF34132C0B460D4662
:103DF00002461EDC002C0EDB1C49214101EA0300B7
:103E0000104313D04FF4002343FA04F4254425EA69
:103E10000105002608E0002601F00045013404BF3A
:103E200045F07F5545F4401532462B46104619465D
:103E3000F8BD332C07DDB4F5806FF7D100F0F2F850
:103E400002460B46F2E74FF0FF31A7F2134721FA83
:103E500007F73842EAD00123C4F1330403FA04F42B
:103E6000061928BFED1826EA0706DDE7FFFF0F0059
:103E70005822024B4FF0FF301A607047F0050020C7
:103E80005822024B4FF0FF301A607047F0050020B7
:103E9000044A05491368002B08BF0B4618441060FC
:103EA0001846704734020020F8050020FEE700BFE6
:103EB0004FF0FF0C1CEAD0521EBF1CEAD15392EA0D
:103EC0000C0F93EA0C0F6FD01A4480EA010C4002E9
:103ED00018BF5FEA41211ED04FF0006343EA501043
:103EE00043EA5111A0FB01310CF00040B1F5000F85
:103EF0003EBF490041EAD3715B0040EA010062F134
:103F00007F02FD2A1DD8B3F1004F40EBC25008BF1D
:103F100020F00100704790F0000F0CF0004C08BF3B
:103F200049024CEA502040EA51207F3AC2BFD2F108
:103F3000FF0340EAC250704740F400004FF0000316
:103F4000013A5DDC12F1190FDCBF00F00040704750
:103F5000C2F10002410021FA02F1C2F1200200FA8E
:103F600002FC5FEA310040F1000053EA4C0308BF55
:103F700020EADC70704792F0000F00F0004C02BFA6
:103F8000400010F4000F013AF9D040EA0C0093F021
:103F9000000F01F0004C02BF490011F4000F013B7B
:103FA000F9D041EA0C018FE70CEAD15392EA0C0FE9
:103FB00018BF93EA0C0F0AD030F0004C18BF31F054
:103FC000004CD8D180EA010000F00040704790F02A
:103FD000000F17BF90F0004F084691F0000F91F0CE
:103FE000004F14D092EA0C0F01D142020FD193EA94
:103FF0000C0F03D14B0218BF084608D180EA01001C
:1040000000F0004040F0FE4040F40000704740F0F7
:10401000FE4040F44000704781F0004102E000BFE4
:1040200083F0004330B54FEA41044FEA430594EA78
:10403000050F08BF90EA020F1FBF54EA000C55EAB3
:10404000020C7FEA645C7FEA655C00F0E2804FEA84
:104050005454D4EB5555B8BF6D420CDD2C4480EA66
:10406000020281EA030382EA000083EA010180EA96
:10407000020281EA0303362D88BF30BD11F0004FE4
:104080004FEA01314FF4801C4CEA113102D040421A
:1040900061EB410113F0004F4FEA03334CEA133355
:1040A00002D0524263EB430394EA050F00F0A7806D
:1040B000A4F10104D5F1200E0DDB02FA0EFC22FA68
:1040C00005F2801841F1000103FA0EF2801843FA5C
:1040D00005F359410EE0A5F120050EF1200E012A4D
:1040E00003FA0EFC28BF4CF0020C43FA05F3C0188B
:1040F00051EBE37101F0004507D54FF0000EDCF104
:10410000000C7EEB00006EEB0101B1F5801F1BD3AC
:10411000B1F5001F0CD349085FEA30004FEA3C0CB0
:1041200004F101044FEA445212F5800F80F09A80A6
:10413000BCF1004F08BF5FEA500C50F1000041EBAA
:10414000045141EA050130BD5FEA4C0C404141EBAE
:104150000101013C28BFB1F5801FE9D291F0000FA9
:1041600004BF01460020B1FA81F308BF2033A3F158
:104170000B03B3F120020CDA0C3208DD02F1140C4F
:10418000C2F10C0201FA0CF021FA02F10CE002F18A
:104190001402D8BFC2F1200C01FA02F120FA0CFC83
:1041A000DCBF41EA0C019040E41AA2BF01EB0451CC
:1041B000294330BD6FEA04041F3C1CDA0C340EDCCA
:1041C00004F11404C4F1200220FA04F001FA02F30D
:1041D00040EA030021FA04F345EA030130BDC4F1CB
:1041E0000C04C4F1200220FA02F001FA04F340EAC0
:1041F0000300294630BD21FA04F0294630BD94F071
:10420000000F83F4801306BF81F480110134013D57
:104210004EE77FEA645C18BF7FEA655C29D094EAC8
:10422000050F08BF90EA020F05D054EA000C04BF46
:104230001946104630BD91EA030F1EBF0021002031
:1042400030BD5FEA545C05D14000494128BF41F0D0
:10425000004130BD14F580043CBF01F5801130BD34
:1042600001F0004545F0FE4141F470014FF00000BF
:1042700030BD7FEA645C1ABF194610467FEA655C70
:104280001CBF0B46024650EA013406BF52EA033512
:1042900091EA030F41F4002130BD00BF90F0000F00
:1042A00004BF0021704730B54FF4806404F132043C
:1042B0004FF000054FF0000150E700BF90F0000FF5
:1042C00004BF0021704730B54FF4806404F132041C
:1042D00010F0004548BF40424FF000013EE700BFEC
:1042E00042004FEAE2014FEA31014FEA02701FBF7C
:1042F00012F07F4393F07F4F81F06051704732F0AE
:104300007F4208BF704793F07F4F04BF41F4002104
:10431000704730B54FF4607401F0004521F0004162
:104320001CE700BF50EA010208BF704730B54FF0EC
:1043300000050AE050EA010208BF704730B511F0ED
:10434000004502D5404261EB41014FF4806404F125
:1043500032045FEA915C3FF4D8AE4FF003025FEAAB
:10436000DC0C18BF03325FEADC0C18BF033202EB2F
:10437000DC02C2F1200300FA03FC20FA02F001FA89
:1043800003FE40EA0E0021FA02F11444BDE600BF2C
:1043900070B54FF0FF0C4CF4E06C1CEA11541DBFDB
:1043A0001CEA135594EA0C0F95EA0C0F00F0DEF8A6
:1043B0002C4481EA030621EA4C5123EA4C5350EA8B
:1043C000013518BF52EA033541F4801143F48013DC
:1043D00038D0A0FB02CE4FF00005E1FB02E506F06D
:1043E0000042E0FB03E54FF00006E1FB03569CF0C2
:1043F000000F18BF4EF0010EA4F1FF04B6F5007FC8
:1044000064F5407404D25FEA4E0E6D4146EB060639
:1044100042EAC62141EA55514FEAC52040EA5E50C2
:104420004FEACE2EB4F1FD0C88BFBCF5E06F1ED86C
:10443000BEF1004F08BF5FEA500E50F1000041EBA3
:10444000045170BD06F0004646EA010140EA020050
:1044500081EA0301B4EB5C04C2BFD4EB0C0541EA72
:10446000045170BD41F480114FF0000E013C00F387
:10447000AB8014F1360FDEBF002001F0004170BDAB
:10448000C4F10004203C35DA0C341BDC04F11404C4
:10449000C4F1200500FA05F320FA04F001FA05F250
:1044A00040EA020001F0004221F0004110EBD3701D
:1044B00021FA04F642EB06015EEA430E08BF20EA49
:1044C000D37070BDC4F10C04C4F1200500FA04F3EC
:1044D00020FA05F001FA04F240EA020001F000417E
:1044E00010EBD37041F100015EEA430E08BF20EAF1
:1044F000D37070BDC4F1200500FA05F24EEA020E39
:1045000020FA04F301FA05F243EA020321FA04F067
:1045100001F0004121FA04F220EA020000EBD3701E
:104520005EEA430E08BF20EAD37070BD94F0000F1E
:104530000FD101F00046400041EB010111F4801F52
:1045400008BF013CF7D041EA060195F0000F18BF03
:10455000704703F00046520043EB030313F4801F3F
:1045600008BF013DF7D043EA0603704794EA0C0FF9
:104570000CEA135518BF95EA0C0F0CD050EA41060F
:1045800018BF52EA4306D1D181EA030101F000418C
:104590004FF0000070BD50EA410606BF10461946B4
:1045A00052EA430619D094EA0C0F02D150EA0136C0
:1045B00013D195EA0C0F05D152EA03361CBF104601
:1045C00019460AD181EA030101F0004141F0FE41A0
:1045D00041F470014FF0000070BD41F0FE4141F424
:1045E000780170BD70B54FF0FF0C4CF4E06C1CEA24
:1045F00011541DBF1CEA135594EA0C0F95EA0C0FD9
:1046000000F0A7F8A4EB050481EA030E52EA033593
:104610004FEA013100F088804FEA03334FF08055B4
:1046200045EA131343EA12634FEA022245EA1115E1
:1046300045EA10654FEA00260EF000419D4208BF92
:10464000964244F1FD0404F5407402D25B084FEA3F
:104650003202B61A65EB03055B084FEA32024FF4EB
:1046600080104FF4002CB6EB020E75EB030E22BF48
:10467000B61A754640EA0C005B084FEA3202B6EB08
:10468000020E75EB030E22BFB61A754640EA5C00B7
:104690005B084FEA3202B6EB020E75EB030E22BF47
:1046A000B61A754640EA9C005B084FEA3202B6EB48
:1046B000020E75EB030E22BFB61A754640EADC0007
:1046C00055EA060E18D04FEA051545EA16754FEA69
:1046D00006164FEAC30343EA52734FEAC2025FEA87
:1046E0001C1CC0D111F4801F0BD141EA00014FF016
:1046F00000004FF0004CB6E711F4801F04BF0143E7
:104700000020B4F1FD0C88BFBCF5E06F3FF6AFAE02
:10471000B5EB030C04BFB6EB020C5FEA500C50F192
:10472000000041EB045170BD0EF0004E4EEA113115
:1047300014EB5C04C2BFD4EB0C0541EA045170BD1C
:1047400041F480114FF0000E013C90E645EA060E60
:104750008DE60CEA135594EA0C0F08BF95EA0C0F8E
:104760003FF43BAF94EA0C0F0AD150EA01347FF4D6
:1047700034AF95EA0C0F7FF425AF104619462CE7AD
:1047800095EA0C0F06D152EA03353FF4FDAE104610
:10479000194622E750EA410618BF52EA43067FF461
:1047A000C5AE50EA41047FF40DAF52EA43057FF4F1
:1047B000EBAE12E74FF0FF3C06E000BF4FF0010CFC
:1047C00002E000BF4FF0010C4DF804CD4FEA410C60
:1047D0007FEA6C5C4FEA430C18BF7FEA6C5C1BD02D
:1047E00001B050EA410C0CBF52EA430C91EA030FAE
:1047F00002BF90EA020F0020704710F1000F91EA0B
:10480000030F58BF994208BF90422CBFD8176FEAD8
:10481000E37040F0010070474FEA410C7FEA6C5CA6
:1048200002D150EA013C07D14FEA430C7FEA6C5CAD
:10483000D6D152EA033CD3D05DF8040B704700BFD9
:104840008446104662468C461946634600E000BF27
:1048500001B5FFF7B7FF002848BF10F1000F01BDF9
:104860004DF808EDFFF7F4FF0CBF012000205DF8C4
:1048700008FB00BF4DF808EDFFF7EAFF34BF012049
:1048800000205DF808FB00BF4DF808EDFFF7E0FFE2
:1048900094BF012000205DF808FB00BF4DF808ED33
:1048A000FFF7CEFF94BF012000205DF808FB00BF9A
:1048B0004DF808EDFFF7C4FF34BF012000205DF87C
:1048C00008FB00BF4FEA410C7FEA6C5C02D150EA62
:1048D000013C0AD14FEA430C7FEA6C5C02D152EAF8
:1048E000033C02D14FF0000070474FF001007047C9
:1048F0004FEA410212F5001215D211D56FF4787308
:10490000B3EB625212D94FEAC12343F0004343EAAA
:10491000505311F0004F23FA02F018BF4042704785
:104920004FF00000704750EA013005D111F000400F
:1049300008BF6FF0004070474FF00000704700BFA5
:104940004A0011D212F5001211D20DD56FF478730E
:10495000B3EB62520ED44FEAC12343F0004343EA63
:10496000505323FA02F070474FF00000704750EAAE
:10497000013002D14FF0FF3070474FF00000704718
:104980004FEA4102B2F1E04324BFB3F5001CDCF171
:10499000FE5C0DD901F0004C4FEAC0024CEA5070A9
:1049A000B2F1004F40EB830008BF20F001007047D8
:1049B00011F0804F21D113F13872BCBF01F00040DB
:1049C000704741F480114FEA5252C2F11802C2F10D
:1049D000200C10FA0CF320FA02F018BF40F001008E
:1049E0004FEAC1234FEAD32303FA0CFC40EA0C0040
:1049F00023FA02F34FEA4303CCE77FEA625307D17D
:104A000050EA01331EBF4FF0FE4040F440007047B3
:104A100001F0004040F0FE4040F40000704700BF4D
:104A200080F0004002E000BF81F0004142001FBF63
:104A30005FEA410392EA030F7FEA226C7FEA236C6C
:104A40006AD04FEA1262D2EB1363C1BFD218414061
:104A500048404140B8BF5B42192B88BF704710F0F7
:104A6000004F40F4000020F07F4018BF404211F09A
:104A7000004F41F4000121F07F4118BF494292EA02
:104A8000030F3FD0A2F1010241FA03FC10EB0C002E
:104A9000C3F1200301FA03F100F0004302D54942BB
:104AA00060EB4000B0F5000F13D3B0F1807F06D368
:104AB00040084FEA310102F10102FE2A51D2B1F160
:104AC000004F40EBC25008BF20F0010040EA030055
:104AD0007047490040EB0000013A28BFB0F5000FD5
:104AE000EDD2B0FA80FCACF1080CB2EB0C0200FA8B
:104AF0000CF0AABF00EBC25052421843BCBFD040DA
:104B00001843704792F0000F81F4000106BF80F453
:104B100000000132013BB5E74FEA41037FEA226C16
:104B200018BF7FEA236C21D092EA030F04D092F0E1
:104B3000000F08BF0846704790EA010F1CBF002015
:104B4000704712F07F4F04D1400028BF40F0004072
:104B5000704712F100723CBF00F50000704700F092
:104B6000004343F0FE4040F4000070477FEA2262B9
:104B700016BF08467FEA23630146420206BF5FEA8A
:104B8000412390EA010F40F4800070474FF000038A
:104B900004E000BF10F0004348BF40425FEA000C51
:104BA00008BF704743F0964301464FF000001CE0F9
:104BB00050EA010208BF70474FF000030AE000BF4F
:104BC00050EA010208BF704711F0004302D540428D
:104BD00061EB41015FEA010C02BF844601460020FF
:104BE00043F0B64308BFA3F18053A3F50003BCFA1A
:104BF0008CF2083AA3EBC25310DB01FA02FC6344C7
:104C000000FA02FCC2F12002BCF1004F20FA02F2CD
:104C100043EB020008BF20F00100704702F12002C0
:104C200001FA02FCC2F1200250EA4C0021FA02F221
:104C300043EB020008BF20EADC70704738B50F4B29
:104C4000834200D038BD0E4D0E4BD3E900232846D9
:104C500002F016FE0C4C0D4BD3E90023204602F067
:104C60000FFE284602F0F2FC204602F0EFFC284638
:104C700002F078FD204602F075FDE3E78C04002089
:104C8000A00200204802002058020020400200201C
:104C900008B51A4B1B78A3B9194B1B78162B03D1F7
:104CA000184B1B78162B17D001221549164802F015
:104CB0004DFC144B1978154A1170114A12781A706C
:104CC00008BD0E4B00221A700122114B1A700C49BC
:104CD0000D4802F03BFCECE70C4B1B78162BE3D1A4
:104CE000064B01221A700B4900230B604B608B604E
:104CF000CB601022044802F029FCDAE738020020D9
:104D00008C030020F0030020A40500209C03002059
:104D100050020020E402002072B6FEE700B591B018
:104D2000002309930B930C93019302930393049331
:104D30000593012106914FF48032079208930A915E
:104D400002230D930E924FF4E0130F9306A801F087
:104D500063F980B90F230193022102910023039389
:104D60004FF480620492059301A801F093FB20B9EF
:104D700011B05DF804FBFFF7CFFFFFF7CDFF000098
:104D80002DE9F04F8DB001F00DF9FFF7C7FF00F0EE
:104D900021F900F079F900F099F900F0CFF900F06D
:104DA000FFF900F0E9FA00F031FB01226D496E488D
:104DB00002F0CCFB6D4C6E4B08936E4B0793A3F542
:104DC000836306934FF00008DFF8FC91CDE9048976
:104DD0004FF0000ADFF8F4B1CDE902AB8023009375
:104DE000402322466449654802F0F6FC644B089370
:104DF000644B0793A3F61C030693CDE90489CDE920
:104E000002AB20230093102322465F495F4802F043
:104E1000E3FCDFF8BC810821404600F095FF0C213F
:104E2000404600F091FFD8F800300022DA631A649F
:104E30003C21574800F0F6FF3C21564800F0F2FFB5
:104E4000554800F07DFC01F0CBF8544B186001F0A0
:104E5000C7F8534B186028E001F0C2F8514B1B68AB
:104E6000C01AB0F5FA6F1CD9002200234E49D1E9CF
:104E70000001FFF7F5FC38B1002200234B49D1E9CE
:104E80000001FFF7EDFC60B9002200234649C1E9AB
:104E900000234649C1E9002301223249324802F089
:104EA00055FB434B1B78012B1ED0424B1B78002B2C
:104EB000D2D0414C414D22462946414802F07AFD6C
:104EC0003C4B00221A702868FFF70AFA364BC3E9F8
:104ED00000012068FFF704FA344BC3E9000101F038
:104EE0007FF8304B1860DCE701F07AF82B4B186044
:104EF0002B4B1B68C01A1428D7D9FFF7CFF9234BC7
:104F000093F82830F3B9214B18CBCDE90A341B4B69
:104F100093F82830F3B9194BD3E90067294CCDE950
:104F20000201CDE90067DDE90A23204602F016FD03
:104F3000202221460C4802F07BF8184B1A68184BC7
:104F40001A60B2E7114BD3E900230A9203F1004340
:104F50000B93DCE7094BD3E90023164603F1004726
:104F6000DCE700BF8C030020A4050020000C0140FA
:104F7000E80100203C080040A0030020A00200201F
:104F8000D0010020400800403803002058020020D3
:104F900044040020D40400208C04002024030020BA
:104FA00098020020F8030020400200204802002060
:104FB000000200205002002030030020F4030020F3
:104FC000E40200200403002000002E4000005940AD
:104FD000FC0300202DE9F04188B0002404940594DE
:104FE00006940794254B9A6942F010029A619A69D7
:104FF00002F010020092009A9A6942F020029A612F
:105000009A6902F020020192019A9A6942F0040220
:105010009A619A6902F004020292029A9A6942F035
:1050200008029A619B6903F008030393039BDFF86E
:10503000548022464FF40051404601F017FC104DB9
:105040002246F021284601F011FC4FF4005304934E
:105050000127059706940226079604A9404601F009
:10506000F5FAF023049305970694079604A92846B9
:1050700001F0ECFA08B0BDE8F08100BF001002407A
:10508000000C01400010014000B583B00E4B5A697E
:1050900042F001025A615B6903F001030193019B35
:1050A000002211460E2001F08FFD0E2001F0C0FD00
:1050B000002211460F2001F087FD0F2001F0B8FDFE
:1050C00003B05DF804FB00BF0010024000B587B0DC
:1050D00000230293039304930593009301931548CF
:1050E000154A026041F61F42426083606322C2603B
:1050F00003614361836100F053FC90B94FF4805326
:10510000029302A90B4800F0A0FD68B900230093A8
:1051100001936946074800F0E9FE40B907B05DF821
:1051200004FBFFF7F9FDE9E7FFF7F6FDEEE7FFF710
:10513000F3FDF3E78C040020002C014000B58DB096
:1051400000230193029315484FF0804202604360B0
:1051500083604FF6FF72C260036183610322039292
:1051600004930122059206930793089309920A93E8
:105170000B9303A900F06CFC50B900230193029338
:1051800001A9064800F0B2FE28B90DB05DF804FB95
:10519000FFF7C2FDF1E7FFF7BFFDF6E7D4040020FB
:1051A00000B58DB00023019302931548154A0260A3
:1051B000436083604FF6FF72C26003618361032224
:1051C0000392049301220592069307930893099290
:1051D0000A930B9303A900F03BFC50B90023019301
:1051E000029301A9064800F081FE28B90DB05DF8D0
:1051F00004FBFFF791FDF1E7FFF78EFDF6E700BF37
:1052000044040020000400400268124B9A4200D07F
:10521000704700B583B003F564439A6942F40062B5
:105220009A619B6903F400630193019B00220121B1
:10523000182001F0C9FC182001F0FAFC002201211D
:10524000192001F0C1FC192001F0F2FC03B05DF857
:1052500004FB00BF002C014000B589B0002304937B
:105260000593069307930368B3F1804F05D0204A56
:10527000934220D009B05DF804FB03F50433DA69EA
:1052800042F00102DA61DA6902F001020092009A4A
:105290009A6942F004029A619B6903F00403019346
:1052A000019B0323049300230593069304A911484B
:1052B00001F0CCF9DEE7104BDA6942F00202DA6164
:1052C000DA6902F002020292029A9A6942F004023A
:1052D0009A619B6903F004030393039BC023049327
:1052E00000230593069304A9024801F0AFF9C1E732
:1052F0000004004000080140001002400268094B11
:105300009A4200D0704782B003F50233DA6942F066
:105310000402DA61DB6903F004030193019B02B02C
:10532000704700BF0008004000B587B0002302931B
:1053300003930493059302680D4B9A4202D007B081
:105340005DF804FB03F502339A6942F008029A61A2
:105350009B6903F008030193019B4FF44073029390
:1053600002230393059302A9024801F06FF9E6E7CF
:1053700000080040000C014000B58BB000230893EA
:105380000993019302930393049305930693079360
:105390001C481D4A02604722426083606322C2604B
:1053A0000361836100F028FBF8B900230893099397
:1053B00008A9144800F09AFDD0B960230193002396
:1053C000029303930593082201A90E4800F0CAFB3B
:1053D00088B90C2201A90B4800F0C4FB70B9094838
:1053E000FFF7A2FF0BB05DF804FBFFF795FCDCE7CD
:1053F000FFF792FCE1E7FFF78FFCEAE7FFF78CFC91
:10540000EDE700BFFC0300200008004008B50A4893
:105410000A4B03604FF4E133436000238360C360B1
:1054200003610C2242618361C36101F0F3FC00B9A6
:1054300008BDFFF771FCFBE7A40500200038014020
:1054400070B586B00023029303930493059302681A
:10545000314B9A4201D006B070BD044603F5584363
:105460009A6942F480429A619A6902F480420092F9
:10547000009A9A6942F004029A619B6903F004035E
:105480000193019B4FF400730293022303930323C0
:105490000593224E02A9304601F0D8F84FF48063FC
:1054A000029300250395049502A9304601F0CEF839
:1054B0001B481C4B0360456085608023C360056109
:1054C00045618561C56101F0EDF9F0B9144BA36345
:1054D0005C621548154B0360102343600023836012
:1054E0008022C260036143618361C36101F0DAF924
:1054F00070B90D4B63635C6200221146252001F0F8
:1055000063FB252001F094FBA5E7FFF705FCDDE731
:10551000FFF702FCEDE700BF003801400008014042
:1055200060050020580002401C0500204400024095
:10553000FEE7FEE7FEE7FEE7FEE7704770477047CD
:1055400008B500F041FD08BD08B5024801F088FA31
:1055500008BD00BF1C05002008B5024801F080FA14
:1055600008BD00BF6005002008B5024800F020F922
:1055700008BD00BF8C04002008B5024800F018F9EF
:1055800008BD00BF8C04002008B5024801F064FE8D
:1055900008BD00BFA405002082B00E4B9A6942F0FE
:1055A00001029A619A6902F001020092009ADA6996
:1055B00042F08052DA61DB6903F080530193019B72
:1055C000054A536823F0E06343F08073536002B0F0
:1055D000704700BF001002400000014070B4036A31
:1055E00023F001030362036A4668826922F07302B2
:1055F0000C6844EA020523F002028B6813430D4C49
:10560000A04209D00B4CA0420DD0466085614A688B
:105610004263036270BC704723F00803CA681343F7
:1056200023F00403EEE726F440764A6932438E699C
:105630001643EAE7002C014030B4036A23F4807378
:105640000362036A4568C26922F073020C68224350
:1056500023F400738C6843EA04230F4CA04209D062
:105660000D4CA0420ED04560C2614A68C26303621D
:1056700030BC704723F40063CC6843EA042323F46E
:105680008063EDE725F440554C6945EA04158C69C3
:1056900045EA0415E7E700BF002C014030B4036A77
:1056A00023F480530362036A4468C26922F4E64229
:1056B0000D6842EA052223F400538D6843EA05335E
:1056C000074DA84206D04460C2614A680264036282
:1056D00030BC704724F480444D6944EA8514F2E7F5
:1056E000002C014030B4036A056A25F0010505620B
:1056F000846924F0F00444EA021423F00A030B4303
:105700008461036230BC704730B4056A25F010052F
:1057100005628469036A24F4704444EA023423F085
:10572000A00343EA01138461036230BC70478368BD
:1057300023F070030B4343F00703836070470000BE
:1057400090F83D30DBB2012B27D1022380F83D30A9
:105750000268D36843F00103D3600368114A93429F
:1057600010D0B3F1804F0DD0A2F59432934209D0FE
:1057700002F58062934205D01A6842F001021A6075
:10578000002070479A6802F00702062A07D01A68BC
:1057900042F001021A60002070470120704700208B
:1057A000704700BF002C014070477047704770473A
:1057B00010B5044603681A6912F0020F11D0DA68B6
:1057C00012F0020F0DD06FF002021A61012303776D
:1057D00003689B6913F0030F70D0FFF7E6FF002307
:1057E000237723681A6912F0040F12D0DA6812F0D6
:1057F000040F0ED06FF004021A610223237723688E
:105800009B6913F4407F5FD02046FFF7CEFF002353
:10581000237723681A6912F0080F12D0DA6812F0A1
:10582000080F0ED06FF008021A6104232377236853
:10583000DB6913F0030F4ED02046FFF7B6FF0023BD
:10584000237723681A6912F0100F12D0DA6812F069
:10585000100F0ED06FF010021A610823237723680F
:10586000DB6913F4407F3DD02046FFF79EFF002305
:10587000237723681A6912F0010F03D0DA6812F057
:10588000010F36D123681A6912F0800F03D0DA684D
:1058900012F0800F34D123681A6912F0400F03D040
:1058A000DA6812F0400F32D123681A6912F0200F23
:1058B00003D0DA6812F0200F30D110BDFFF774FF6B
:1058C0002046FFF773FF8AE72046FFF76DFF20466B
:1058D000FFF76CFF9BE72046FFF766FF2046FFF7C8
:1058E00065FFACE72046FFF75FFF2046FFF75EFF4E
:1058F000BDE76FF001021A612046FFF79FF9C1E78B
:105900006FF080021A61204600F025FBC3E76FF0BC
:1059100040021A612046FFF74AFFC5E76FF02002F8
:105920001A61204600F016FBC7E7000003681B4A17
:1059300090420AD0B0F1804F07D0A2F59432904245
:1059400003D002F58062904203D123F070034A68CD
:105950001343124A90420AD0B0F1804F07D0A2F50B
:105960009432904203D002F58062904203D123F436
:105970004073CA68134323F080034A6913430360EA
:105980008B68C3620B688362044B984202D0012388
:10599000436170470B690363F9E700BF002C0140C6
:1059A00040B310B5044690F83D30F3B1022384F8BB
:1059B0003D30214651F8040BFFF7B8FF012384F86E
:1059C000463084F83E3084F83F3084F8403084F824
:1059D000413084F8423084F8433084F8443084F80D
:1059E000453084F83D30002010BD80F83C30FFF792
:1059F0000BFCDBE70120704740B310B5044690F87C
:105A00003D30F3B1022384F83D30214651F8040BB8
:105A1000FFF78CFF012384F8463084F83E3084F889
:105A20003F3084F8403084F8413084F8423084F8C4
:105A3000433084F8443084F8453084F83D30002009
:105A400010BD80F83C30FFF759FCDBE701207047C0
:105A5000002853D0F8B50D46044690F83D30002B91
:105A600047D0022384F83D302268936823F48043B2
:105A700023F007039360214651F8040BFFF756FF0C
:105A800021688A688E690F6A2868104326F4407678
:105A900026F00306AA68AB6942EA0323334323F4E2
:105AA0007C4323F0FC03EE68EA6946EA02261E43C3
:105AB0002A6A13032A6943EA0213334327F02207B1
:105AC0006A686D6942EA05123A43886021688B6111
:105AD00023681A62012384F8463084F83E3084F843
