:020000040800F2
:1000000000500020653D0008ED170008EF170008BC
:10001000F1170008F3170008F517000800000000AA
:10002000000000000000000000000000F7170008BA
:10003000F917000800000000FB170008FD17000872
:10004000AD3D0008AD3D0008AD3D0008AD3D0008E8
:10005000AD3D0008AD3D0008AD3D0008AD3D0008D8
:10006000AD3D0008AD3D0008AD3D0008AD3D0008C8
:10007000AD3D0008AD3D0008051800081518000842
:10008000AD3D0008AD3D0008AD3D0008AD3D0008A8
:10009000AD3D0008AD3D0008AD3D0008AD3D000898
:1000A0002518000835180008AD3D0008AD3D0008D2
:1000B000AD3D0008AD3D0008AD3D0008AD3D000878
:1000C000AD3D0008AD3D0008AD3D0008AD3D000868
:1000D000AD3D000845180008AD3D0008AD3D0008E5
:1000E000AD3D0008AD3D0008AD3D0008000000003A
:1000F0000000000000000000000000000000000000
:0C01000000000000000000005FF808F1A3
:1001100010B5054C237833B9044B13B10448AFF341
:1001200000800123237010BD980200200000000011
:10013000BC4D000808B5034B1BB103490348AFF39E
:10014000008008BD000000009C020020BC4D00089B
:100150004FF0FF0C1CEAD0521EBF1CEAD15392EAAA
:100160000C0F93EA0C0F6FD01A4480EA010C400286
:1001700018BF5FEA41211ED04FF0006343EA5010E0
:1001800043EA5111A0FB01310CF00040B1F5000F22
:100190003EBF490041EAD3715B0040EA010062F1D1
:1001A0007F02FD2A1DD8B3F1004F40EBC25008BFBB
:1001B00020F00100704790F0000F0CF0004C08BFD9
:1001C00049024CEA502040EA51207F3AC2BFD2F1A6
:1001D000FF0340EAC250704740F400004FF00003B4
:1001E000013A5DDC12F1190FDCBF00F000407047EE
:1001F000C2F10002410021FA02F1C2F1200200FA2C
:1002000002FC5FEA310040F1000053EA4C0308BFF2
:1002100020EADC70704792F0000F00F0004C02BF43
:10022000400010F4000F013AF9D040EA0C0093F0BE
:10023000000F01F0004C02BF490011F4000F013B18
:10024000F9D041EA0C018FE70CEAD15392EA0C0F86
:1002500018BF93EA0C0F0AD030F0004C18BF31F0F1
:10026000004CD8D180EA010000F00040704790F0C7
:10027000000F17BF90F0004F084691F0000F91F06B
:10028000004F14D092EA0C0F01D142020FD193EA31
:100290000C0F03D14B0218BF084608D180EA0100B9
:1002A00000F0004040F0FE4040F40000704740F095
:1002B000FE4040F44000704781F0004102E000BF82
:1002C00083F0004330B54FEA41044FEA430594EA16
:1002D000050F08BF90EA020F1FBF54EA000C55EA51
:1002E000020C7FEA645C7FEA655C00F0E2804FEA22
:1002F0005454D4EB5555B8BF6D420CDD2C4480EA04
:10030000020281EA030382EA000083EA010180EA33
:10031000020281EA0303362D88BF30BD11F0004F81
:100320004FEA01314FF4801C4CEA113102D04042B7
:1003300061EB410113F0004F4FEA03334CEA1333F2
:1003400002D0524263EB430394EA050F00F0A7800A
:10035000A4F10104D5F1200E0DDB02FA0EFC22FA05
:1003600005F2801841F1000103FA0EF2801843FAF9
:1003700005F359410EE0A5F120050EF1200E012AEA
:1003800003FA0EFC28BF4CF0020C43FA05F3C01828
:1003900051EBE37101F0004507D54FF0000EDCF1A1
:1003A000000C7EEB00006EEB0101B1F5801F1BD34A
:1003B000B1F5001F0CD349085FEA30004FEA3C0C4E
:1003C00004F101044FEA445212F5800F80F09A8044
:1003D000BCF1004F08BF5FEA500C50F1000041EB48
:1003E000045141EA050130BD5FEA4C0C404141EB4C
:1003F0000101013C28BFB1F5801FE9D291F0000F47
:1004000004BF01460020B1FA81F308BF2033A3F1F5
:100410000B03B3F120020CDA0C3208DD02F1140CEC
:10042000C2F10C0201FA0CF021FA02F10CE002F127
:100430001402D8BFC2F1200C01FA02F120FA0CFC20
:10044000DCBF41EA0C019040E41AA2BF01EB045169
:10045000294330BD6FEA04041F3C1CDA0C340EDC67
:1004600004F11404C4F1200220FA04F001FA02F3AA
:1004700040EA030021FA04F345EA030130BDC4F168
:100480000C04C4F1200220FA02F001FA04F340EA5D
:100490000300294630BD21FA04F0294630BD94F00E
:1004A000000F83F4801306BF81F480110134013DF5
:1004B0004EE77FEA645C18BF7FEA655C29D094EA66
:1004C000050F08BF90EA020F05D054EA000C04BFE4
:1004D0001946104630BD91EA030F1EBF00210020CF
:1004E00030BD5FEA545C05D14000494128BF41F06E
:1004F000004130BD14F580043CBF01F5801130BDD2
:1005000001F0004545F0FE4141F470014FF000005C
:1005100030BD7FEA645C1ABF194610467FEA655C0D
:100520001CBF0B46024650EA013406BF52EA0335AF
:1005300091EA030F41F4002130BD00BF90F0000F9D
:1005400004BF0021704730B54FF4806404F13204D9
:100550004FF000054FF0000150E700BF90F0000F92
:1005600004BF0021704730B54FF4806404F13204B9
:1005700010F0004548BF40424FF000013EE700BF89
:1005800042004FEAE2014FEA31014FEA02701FBF19
:1005900012F07F4393F07F4F81F06051704732F04B
:1005A0007F4208BF704793F07F4F04BF41F40021A2
:1005B000704730B54FF4607401F0004521F0004100
:1005C0001CE700BF50EA010208BF704730B54FF08A
:1005D00000050AE050EA010208BF704730B511F08B
:1005E000004502D5404261EB41014FF4806404F1C3
:1005F00032045FEA915C3FF4D8AE4FF003025FEA49
:10060000DC0C18BF03325FEADC0C18BF033202EBCC
:10061000DC02C2F1200300FA03FC20FA02F001FA26
:1006200003FE40EA0E0021FA02F11444BDE600BFC9
:1006300070B54FF0FF0C4CF4E06C1CEA11541DBF78
:100640001CEA135594EA0C0F95EA0C0F00F0DEF843
:100650002C4481EA030621EA4C5123EA4C5350EA28
:10066000013518BF52EA033541F4801143F4801379
:1006700038D0A0FB02CE4FF00005E1FB02E506F00A
:100680000042E0FB03E54FF00006E1FB03569CF05F
:10069000000F18BF4EF0010EA4F1FF04B6F5007F65
:1006A00064F5407404D25FEA4E0E6D4146EB0606D7
:1006B00042EAC62141EA55514FEAC52040EA5E5060
:1006C0004FEACE2EB4F1FD0C88BFBCF5E06F1ED80A
:1006D000BEF1004F08BF5FEA500E50F1000041EB41
:1006E000045170BD06F0004646EA010140EA0200EE
:1006F00081EA0301B4EB5C04C2BFD4EB0C0541EA10
:10070000045170BD41F480114FF0000E013C00F324
:10071000AB8014F1360FDEBF002001F0004170BD48
:10072000C4F10004203C35DA0C341BDC04F1140461
:10073000C4F1200500FA05F320FA04F001FA05F2ED
:1007400040EA020001F0004221F0004110EBD370BA
:1007500021FA04F642EB06015EEA430E08BF20EAE6
:10076000D37070BDC4F10C04C4F1200500FA04F389
:1007700020FA05F001FA04F240EA020001F000411B
:1007800010EBD37041F100015EEA430E08BF20EA8E
:10079000D37070BDC4F1200500FA05F24EEA020ED6
:1007A00020FA04F301FA05F243EA020321FA04F005
:1007B00001F0004121FA04F220EA020000EBD370BC
:1007C0005EEA430E08BF20EAD37070BD94F0000FBC
:1007D0000FD101F00046400041EB010111F4801FF0
:1007E00008BF013CF7D041EA060195F0000F18BFA1
:1007F000704703F00046520043EB030313F4801FDD
:1008000008BF013DF7D043EA0603704794EA0C0F96
:100810000CEA135518BF95EA0C0F0CD050EA4106AC
:1008200018BF52EA4306D1D181EA030101F0004129
:100830004FF0000070BD50EA410606BF1046194651
:1008400052EA430619D094EA0C0F02D150EA01365D
:1008500013D195EA0C0F05D152EA03361CBF10469E
:1008600019460AD181EA030101F0004141F0FE413D
:1008700041F470014FF0000070BD41F0FE4141F4C1
:10088000780170BD70B54FF0FF0C4CF4E06C1CEAC1
:1008900011541DBF1CEA135594EA0C0F95EA0C0F76
:1008A00000F0A7F8A4EB050481EA030E52EA033531
:1008B0004FEA013100F088804FEA03334FF0805552
:1008C00045EA131343EA12634FEA022245EA11157F
:1008D00045EA10654FEA00260EF000419D4208BF30
:1008E000964244F1FD0404F5407402D25B084FEADD
:1008F0003202B61A65EB03055B084FEA32024FF489
:1009000080104FF4002CB6EB020E75EB030E22BFE5
:10091000B61A754640EA0C005B084FEA3202B6EBA5
:10092000020E75EB030E22BFB61A754640EA5C0054
:100930005B084FEA3202B6EB020E75EB030E22BFE4
:10094000B61A754640EA9C005B084FEA3202B6EBE5
:10095000020E75EB030E22BFB61A754640EADC00A4
:1009600055EA060E18D04FEA051545EA16754FEA06
:1009700006164FEAC30343EA52734FEAC2025FEA24
:100980001C1CC0D111F4801F0BD141EA00014FF0B3
:1009900000004FF0004CB6E711F4801F04BF014384
:1009A0000020B4F1FD0C88BFBCF5E06F3FF6AFAEA0
:1009B000B5EB030C04BFB6EB020C5FEA500C50F130
:1009C000000041EB045170BD0EF0004E4EEA1131B3
:1009D00014EB5C04C2BFD4EB0C0541EA045170BDBA
:1009E00041F480114FF0000E013C90E645EA060EFE
:1009F0008DE60CEA135594EA0C0F08BF95EA0C0F2C
:100A00003FF43BAF94EA0C0F0AD150EA01347FF473
:100A100034AF95EA0C0F7FF425AF104619462CE74A
:100A200095EA0C0F06D152EA03353FF4FDAE1046AD
:100A3000194622E750EA410618BF52EA43067FF4FE
:100A4000C5AE50EA41047FF40DAF52EA43057FF48E
:100A5000EBAE12E74FF0FF3C06E000BF4FF0010C99
:100A600002E000BF4FF0010C4DF804CD4FEA410CFD
:100A70007FEA6C5C4FEA430C18BF7FEA6C5C1BD0CA
:100A800001B050EA410C0CBF52EA430C91EA030F4B
:100A900002BF90EA020F0020704710F1000F91EAA8
:100AA000030F58BF994208BF90422CBFD8176FEA76
:100AB000E37040F0010070474FEA410C7FEA6C5C44
:100AC00002D150EA013C07D14FEA430C7FEA6C5C4B
:100AD000D6D152EA033CD3D05DF8040B704700BF77
:100AE0008446104662468C461946634600E000BFC5
:100AF00001B5FFF7B7FF002848BF10F1000F01BD97
:100B00004DF808EDFFF7F4FF0CBF012000205DF861
:100B100008FB00BF4DF808EDFFF7EAFF34BF0120E6
:100B200000205DF808FB00BF4DF808EDFFF7E0FF7F
:100B300094BF012000205DF808FB00BF4DF808EDD0
:100B4000FFF7CEFF94BF012000205DF808FB00BF37
:100B50004DF808EDFFF7C4FF34BF012000205DF819
:100B600008FB00BF4A0011D212F5001211D20DD5B8
:100B70006FF47873B3EB62520ED44FEAC12343F0A3
:100B8000004343EA505323FA02F070474FF000004D
:100B9000704750EA013002D14FF0FF3070474FF0FC
:100BA000000070474FEA4102B2F1E04324BFB3F5C1
:100BB000001CDCF1FE5C0DD901F0004C4FEAC002D4
:100BC0004CEA5070B2F1004F40EB830008BF20F0B8
:100BD0000100704711F0804F21D113F13872BCBF72
:100BE00001F00040704741F480114FEA5252C2F1C7
:100BF0001802C2F1200C10FA0CF320FA02F018BF10
:100C000040F001004FEAC1234FEAD32303FA0CFC62
:100C100040EA0C0023FA02F34FEA4303CCE77FEAF1
:100C2000625307D150EA01331EBF4FF0FE4040F43B
:100C30004000704701F0004040F0FE4040F40000EA
:100C4000704700BF80F0004002E000BF81F000412B
:100C500042001FBF5FEA410392EA030F7FEA226C62
:100C60007FEA236C6AD04FEA1262D2EB1363C1BFF2
:100C7000D218414048404140B8BF5B42192B88BF61
:100C8000704710F0004F40F4000020F07F4018BF84
:100C9000404211F0004F41F4000121F07F4118BFA4
:100CA000494292EA030F3FD0A2F1010241FA03FC4C
:100CB00010EB0C00C3F1200301FA03F100F0004334
:100CC00002D5494260EB4000B0F5000F13D3B0F1FC
:100CD000807F06D340084FEA310102F10102FE2A6B
:100CE00051D2B1F1004F40EBC25008BF20F00100DB
:100CF00040EA03007047490040EB0000013A28BF7A
:100D0000B0F5000FEDD2B0FA80FCACF1080CB2EBFC
:100D10000C0200FA0CF0AABF00EBC250524218437A
:100D2000BCBFD0401843704792F0000F81F400011F
:100D300006BF80F400000132013BB5E74FEA4103F2
:100D40007FEA226C18BF7FEA236C21D092EA030F5E
:100D500004D092F0000F08BF0846704790EA010FD8
:100D60001CBF0020704712F07F4F04D1400028BF05
:100D700040F00040704712F100723CBF00F50000E7
:100D8000704700F0004343F0FE4040F4000070471D
:100D90007FEA226216BF08467FEA236301464202C9
:100DA00006BF5FEA412390EA010F40F480007047DC
:100DB0004FF0000304E000BF10F0004348BF404282
:100DC0005FEA000C08BF704743F0964301464FF0BE
:100DD00000001CE050EA010208BF70474FF000031A
:100DE0000AE000BF50EA010208BF704711F000435B
:100DF00002D5404261EB41015FEA010C02BF84462B
:100E00000146002043F0B64308BFA3F18053A3F589
:100E10000003BCFA8CF2083AA3EBC25310DB01FAD0
:100E200002FC634400FA02FCC2F12002BCF1004F54
:100E300020FA02F243EB020008BF20F001007047E5
:100E400002F1200201FA02FCC2F1200250EA4C0039
:100E500021FA02F243EB020008BF20EADC7070477F
:100E60004FF0FF3C06E000BF4FF0010C02E000BF76
:100E70004FF0010C4DF804CD4FEA40024FEA410318
:100E80007FEA226C18BF7FEA236C11D001B052EACE
:100E9000530C18BF90EA010F58BFB2EB030088BF94
:100EA000C81738BF6FEAE17018BF40F00100704703
:100EB0007FEA226C02D15FEA402C05D17FEA236CE5
:100EC000E4D15FEA412CE1D05DF8040B704700BF2C
:100ED000844608466146FFE70FB5FFF7C9FF0028C3
:100EE00048BF10F1000F0FBD4DF808EDFFF7F4FFFC
:100EF0000CBF012000205DF808FB00BF4DF808ED95
:100F0000FFF7EAFF34BF012000205DF808FB00BFB7
:100F10004DF808EDFFF7E0FF94BF012000205DF8D9
:100F200008FB00BF4DF808EDFFF7D2FF94BF01208A
:100F300000205DF808FB00BF4DF808EDFFF7C8FF83
:100F400034BF012000205DF808FB00BF0F4B834237
:100F500000D0704710B50E4C0E4BD3E9002320464D
:100F600002F00EFE204602F0DDFC204602F070FD8D
:100F7000094C0A4BD3E90023204602F001FE20462B
:100F800002F0D0FC204602F063FD10BDF403002007
:100F900070030020D8020020F0020020C8020020C8
:100FA00008B51B4B1B78012B14D01A4B1B78162B42
:100FB00003D1194B1B78162B17D00122154917485E
:100FC00002F030FC144B1978154A1170114A12784E
:100FD0001A7008BD0122134B1A700D4B00211970B5
:100FE0000C490E4802F01EFCECE70D4B1B78162B4B
:100FF000E3D1074B01221A70064900230B604B60B6
:101000008B60CB601022054802F00CFCDAE700BFD1
:10101000D5020020E0020020D40200209C05002020
:10102000C0020020F003002072B6FEE700B591B0C8
:101030002822002106A802F0E5FE00230193029376
:10104000039304930593012206924FF48033079390
:101050000A9202220D920E934FF4E0130F9306A80A
:1010600001F03EF980B90F23019302210291002380
:1010700003934FF480620492059301A801F06EFB84
:1010800020B911B05DF804FBFFF7CEFFFFF7CCFFEE
:101090002DE9F0438BB001F0E9F8FFF7C7FF00F04E
:1010A000FFF800F057F900F077F900F0ADF900F023
:1010B000DDF900F0BFFA00F007FB5D4C204602F0BE
:1010C000EDFD01225B49204602F0ACFB5A4C5B4B24
:1010D00008935B4B0793A3F5836306934FF00008D7
:1010E000DFF86091CDE904890026574FCDE902670A
:1010F00080230093402322465449554802F0EBFCDC
:10110000544B0893544B0793A3F61C030693CDE965
:101110000489CDE9026720230093102322464F491A
:101120004F4802F0D8FC4F4C0821204600F06CFFDD
:101130000C21204600F068FF23680022DA631A645D
:101140003C21494800F0CEFF3C21484800F0CAFF4E
:10115000474800F053FC1FE0464BD3E900234649C3
:10116000D1E90001454CCDE900014549204602F096
:1011700017FF4FF4FA7221462D4802F0C5F8414B93
:101180001A68414B1A60414B1A68414B1A60414B37
:1011900000221A7001F088F83E4B1B78002BFBD020
:1011A000384C3A4D22462946224802F046FD2D6829
:1011B000266839493046FEF7CBFF4FF07C51FEF7E9
:1011C000C7FF044601462846FFF740FD3349FEF7B6
:1011D000BFFFFFF7D5F914A3D3E90023FFF752FBB4
:1011E000254BC3E9000121462846FFF731FD2B4975
:1011F000FEF7AEFFFFF7C4F90BA3D3E90023FFF717
:1012000041FB1C4BC3E90001214B19682846FFF73D
:101210006BFE0028A0D01C4B19683046FFF764FE17
:101220000028ACD198E700BFDCE14F3D5723CA3F0F
:101230009C050020E0020020000C0140100200206C
:101240003C0800400000244000005940B00300204A
:1012500070030020F8010020400800403003002007
:10126000F0020020CC040020840400203C04002074
:10127000F4030020D8020020C80200200000002053
:10128000D44D0008B4020020B8020020D002002093
:10129000BC020020F003002085EB513E00007042AC
:1012A0002DE9F04188B00024049405940694079435
:1012B000254B9A6942F010029A619A6902F0100275
:1012C0000092009A9A6942F020029A619A6902F0AB
:1012D00020020192019A9A6942F004029A619A6985
:1012E00002F004020292029A9A6942F008029A619C
:1012F0009B6903F008030393039BDFF850802246A9
:101300004FF40051404601F017FC114D2246F021E8
:10131000284601F011FC4FF4005304930127059770
:1013200006940226079604A9404601F0F3FAF0233A
:10133000049305970694079604A9284601F0EAFA53
:1013400008B0BDE8F08100BF00100240001001406D
:10135000000C014000B583B00E4B5A6942F0010207
:101360005A615B6903F001030193019B002211465E
:101370000E2001F08FFD0E2001F0C4FD0022114669
:101380000F2001F087FD0F2001F0BCFD03B05DF8D8
:1013900004FB00BF0010024000B587B00023029399
:1013A000039304930593009301931548154A026033
:1013B0004FF4E152426083606422C2600361436182
:1013C000836100F04BFC90B94FF48053029302A963
:1013D0000B4800F09DFD68B9002300930193694616
:1013E000074800F0E5FE40B907B05DF804FBFFF7E1
:1013F0001BFEE9E7FFF718FEEEE7FFF715FEF3E740
:10140000F4030020002C014000B58DB024220021FF
:1014100003A802F0F7FC00230193029312484FF057
:1014200080420260436083604FF6FF72C2600361D6
:1014300083610323039301230593099303A900F018
:1014400065FC50B900230193029301A9064800F0FE
:10145000AFFE28B90DB05DF804FBFFF7E5FDF1E73D
:10146000FFF7E2FDF6E700BF3C04002000B58DB0B9
:101470002422002103A802F0C5FC0023019302935B
:101480001148124A0260436083604FF6FF72C260E7
:10149000036183610323039301230593099303A944
:1014A00000F034FC50B900230193029301A90648CF
:1014B00000F07EFE28B90DB05DF804FBFFF7B4FD27
:1014C000F1E7FFF7B1FDF6E78404002000040040D7
:1014D0000268124B9A4200D0704700B583B003F502
:1014E00064439A6942F400629A619B6903F4006361
:1014F0000193019B00220121182001F0CBFC182050
:1015000001F000FD00220121192001F0C3FC192087
:1015100001F0F8FC03B05DF804FB00BF002C0140B3
:1015200000B589B0002304930593069307930368DD
:10153000B3F1804F05D01D4A93421DD009B05DF82C
:1015400004FB03F50433DA6942F00102DA61DA6977
:1015500002F001020092009A9A6942F004029A6134
:101560009B6903F004030193019B0323049304A9E3
:101570000F4801F0CFF9E1E70E4BDA6942F00202C1
:10158000DA61DA6902F002020292029A9A6942F082
:1015900004029A619B6903F004030393039BC02335
:1015A000049304A9024801F0B5F9C7E7000400401C
:1015B00000080140001002400268094B9A4200D026
:1015C000704782B003F50233DA6942F00402DA614F
:1015D000DB6903F004030193019B02B0704700BF75
:1015E0000008004000B587B00023029303930493E2
:1015F000059302680D4B9A4202D007B05DF804FBD8
:1016000003F502339A6942F008029A619B6903F07C
:1016100008030193019B4FF4407302930223039349
:10162000059302A9024801F075F9E6E700080040B9
:10163000000C014000B58BB000230893099301937F
:101640000293039304930593069307931C481D4A42
:1016500002604822426083606422C2600361836149
:1016600000F028FBF8B900230893099308A914484F
:1016700000F09EFDD0B960230193002302930393F1
:101680000593082201A90E4800F0CEFB88B90C2270
:1016900001A90B4800F0C8FB70B90948FFF7A2FF89
:1016A0000BB05DF804FBFFF7BFFCDCE7FFF7BCFC09
:1016B000E1E7FFF7B9FCEAE7FFF7B6FCEDE700BFAB
:1016C000CC0400200008004008B50A480A4B03601B
:1016D0004FF4E133436000238360C36003610C2255
:1016E00042618361C36101F001FD00B908BDFFF7EC
:1016F0009BFCFBE79C0500200038014070B586B0DC
:10170000002302930393049305930268314B9A429A
:1017100001D006B070BD044603F558439A6942F4FF
:1017200080429A619A6902F480420092009A9A6912
:1017300042F004029A619B6903F004030193019B48
:101740004FF4007302930223039303230593224E65
:1017500002A9304601F0DEF84FF4806302930025C1
:101760000395049502A9304601F0D4F81B481C4BA0
:101770000360456085608023C360056145618561C4
:10178000C56101F0F5F9F0B9144BA3635C6215482B
:10179000154B036010234360002383608022C260E6
:1017A000036143618361C36101F0E2F970B90D4BDC
:1017B00063635C6200221146252001F06BFB25204B
:1017C00001F0A0FBA5E7FFF72FFCDDE7FFF72CFCFE
:1017D000EDE700BF0038014000080140140500207B
:1017E000580002405805002044000240FEE7FEE792
:1017F000FEE7FEE7FEE770477047704708B500F068
:1018000047FD08BD08B5024801F090FA08BD00BFC9
:101810005805002008B5024801F088FA08BD00BF4D
:101820001405002008B5024800F020F908BD00BFEB
:10183000F403002008B5024800F018F908BD00BF05
:10184000F403002008B5024801F072FE08BD00BF95
:101850009C05002082B00E4B9A6942F001029A6109
:101860009A6902F001020092009ADA6942F080520D
:10187000DA61DB6903F080530193019B054A5368E9
:1018800023F0E06343F08073536002B0704700BF01
:10189000001002400000014070B4036A23F001030D
:1018A0000362036A4668826922F073020C6844EAA4
:1018B000020523F002028B6813430D4CA04209D0AD
:1018C0000B4CA0420DD0466085614A6842630362BA
:1018D00070BC704723F00803CA68134323F0040365
:1018E000EEE726F440764A6932438E691643EAE70A
:1018F000002C014030B4036A23F480730362036A4E
:101900004568C26922F073020C68224323F4007315
:101910008C6843EA04230F4CA04209D00D4CA0422E
:101920000ED04560C2614A68C263036230BC704732
:1019300023F40063CC6843EA042323F48063EDE7D7
:1019400025F440554C6945EA04158C6945EA0415AF
:10195000E7E700BF002C014030B4036A23F4805352
:101960000362036A4468C26922F4E6420D6842EAEF
:10197000052223F400538D6843EA0533074DA8423E
:1019800006D04460C2614A680264036230BC70479A
:1019900024F480444D6944EA8514F2E7002C0140A8
:1019A00010B4036A046A24F001040462846924F018
:1019B000F00C4CEA021223F00A030B43826103622B
:1019C00010BC704710B4046A24F0100404628469E7
:1019D000036A24F4704C4CEA023223F0A00343EA79
:1019E00001138261036210BC7047836823F07003A7
:1019F0000B4343F0070383607047000090F83D30CD
:101A0000DBB2012B27D1022380F83D300268D36876
:101A100043F00103D3600368114A934210D0B3F13D
:101A2000804F0DD0A2F59432934209D002F5806226
:101A3000934205D01A6842F001021A6000207047F4
:101A40009A6802F00702062A07D01A6842F00102DB
:101A50001A6000207047012070470020704700BFC7
:101A6000002C0140704770477047704710B504461E
:101A700003681A6912F0020F11D0DA6812F0020F2F
:101A80000DD06FF002021A610123037703689B698E
:101A900013F0030F70D0FFF7E6FF002323772368CE
:101AA0001A6912F0040F12D0DA6812F0040F0ED087
:101AB0006FF004021A610223237723689B6913F4F1
:101AC000407F5FD02046FFF7CEFF002323772368B7
:101AD0001A6912F0080F12D0DA6812F0080F0ED04F
:101AE0006FF008021A61042323772368DB6913F07F
:101AF000030F4ED02046FFF7B6FF0023237723685D
:101B00001A6912F0100F12D0DA6812F0100F0ED00E
:101B10006FF010021A61082323772368DB6913F43E
:101B2000407F3DD02046FFF79EFF002323772368A8
:101B30001A6912F0010F03D0DA6812F0010F36D1E2
:101B400023681A6912F0800F03D0DA6812F0800F50
:101B500034D123681A6912F0400F03D0DA6812F00A
:101B6000400F32D123681A6912F0200F03D0DA68CF
:101B700012F0200F30D110BDFFF774FF2046FFF7A1
:101B800073FF8AE72046FFF76DFF2046FFF76CFFE3
:101B90009BE72046FFF766FF2046FFF765FFACE7AF
:101BA0002046FFF75FFF2046FFF75EFFBDE76FF0BF
:101BB00001021A612046FFF7C9F9C1E76FF0800200
:101BC0001A61204600F02BFBC3E76FF040021A6158
:101BD0002046FFF74AFFC5E76FF020021A61204652
:101BE00000F01CFBC7E7000003681B4A90420AD0C4
:101BF000B0F1804F07D0A2F59432904203D002F5A5
:101C00008062904203D123F070034A681343124A62
:101C100090420AD0B0F1804F07D0A2F594329042A2
:101C200003D002F58062904203D123F44073CA6866
:101C3000134323F080034A69134303608B68C36234
:101C40000B688362044B984202D0012343617047C2
:101C50000B690363F9E700BF002C014040B310B5E6
:101C6000044690F83D30F3B1022384F83D3021461C
:101C700051F8040BFFF7B8FF012384F8463084F8CD
:101C80003E3084F83F3084F8403084F8413084F8A6
:101C9000423084F8433084F8443084F8453084F886
:101CA0003D30002010BD80F83C30FFF711FCDBE731
:101CB0000120704740B310B5044690F83D30F3B1B1
:101CC000022384F83D30214651F8040BFFF78CFFC6
:101CD000012384F8463084F83E3084F83F3084F89D
:101CE000403084F8413084F8423084F8433084F83E
:101CF000443084F8453084F83D30002010BD80F831
:101D00003C30FFF759FCDBE701207047002857D033
:101D100070B50D46044690F83D30002B4BD00223A1
:101D200084F83D302268936823F4804323F007034E
:101D30009360214651F8040BFFF756FF21688A682B
:101D40008B690E6A2868104323F4407C2CF0030C46
:101D5000AA68AB6942EA032343EA0C0323F47C43F9
:101D600023F0FC03EA69D5F80CC04CEA022C4CEADB
:101D7000030C2A6A13032A6943EA021343EA0C0399
:101D800026F022066A686D6942EA051232438860CD
:101D900021688B6123681A62012384F8463084F835
:101DA0003E3084F83F3084F8423084F8433084F881
:101DB0003D30002070BD80F83C30FFF7B1FBAEE74E
:101DC0000120704730B4036A23F010030362036AF2
:101DD0004468826922F4E6420D6842EA052223F053
:101DE00020038D6843EA05130E4DA84209D00D4D1E
:101DF000A8420ED0446082614A688263036230BCAC
:101E0000704723F08003CD6843EA051323F04003B5
:101E1000EDE724F440644D6944EA85048D6944EAA1
:101E20008504E7E7002C014038B590F83C30012BE1
:101E300060D004460D46012380F83C300C2A1AD8A5
:101E4000DFE802F0071919191D19191931191919A3
:101E500044000068FFF720FD2268936943F00803FF
:101E600093612268936923F0040393612268936964
:101E700029690B439361002084F83C0038BD006859
:101E8000FFF7A0FF2268936943F40063936122681F
:101E9000936923F48063936122689369296943EA13
:101EA00001239361E7E70068FFF724FD2268D36907
:101EB00043F00803D3612268D36923F00403D3619C
:101EC0002268D36929690B43D361D4E70068FFF71F
:101ED00043FD2268D36943F40063D3612268D36968
:101EE00023F48063D3612268D369296943EA01231B
:101EF000D361C0E70220C1E710B4846824F47F4CAA
:101F000042EA03220A4342EA0C02826010BC704794
:101F100090F83C30012B66D010B50446012380F8C0
:101F20003C30022380F83D300268936823F47F43FD
:101F300023F0770393600B68602B40D022D8402BAE
:101F400047D00BD9502B0ED1CA6849680068FFF7FB
:101F500027FD50212068FFF748FD04E0202B0CD01E
:101F600008D9302B09D0012384F83D30002084F8B3
:101F70003C0010BD0BB1102BF5D119462068FFF7BE
:101F800034FDF0E7702B0ED0B3F5005FEBD1CB68DA
:101F90004A6889680068FFF7AFFF2268936843F4D6
:101FA00080439360DFE7CB684A6889680068FFF781
:101FB000A3FF2268936843F077039360D3E7CA686E
:101FC00049680068FFF7FEFC60212068FFF70DFDFF
:101FD000C9E7CA6849680068FFF7E2FC4021206849
:101FE000FFF703FDBFE70220704701F01F01012347
:101FF00003FA01FC036A23EA0C030362036A02FA90
:1020000001F10B430362704710B50446084651BB0B
:1020100094F83E30DBB2013B18BF0123002B5BD1AB
:10202000002839D1022384F83E300122014620687D
:10203000FFF7DBFF23682A4A93423DD02368284AF2
:1020400093423ED0B3F1804F3BD0A2F594329342FD
:1020500037D002F58062934233D01A6842F0010211
:102060001A60002039E0042908D008290DD094F81E
:102070004130DBB2013B18BF0123CFE794F83F307A
:10208000DBB2013B18BF0123C8E794F84030DBB254
:10209000013B18BF0123C1E7042805D0082807D059
:1020A000022384F84130C0E7022384F83F30BCE7C4
:1020B000022384F84030B8E75A6C42F400425A6474
:1020C000BCE79A6802F00702062A07D01A6842F0B5
:1020D00001021A60002000E0012010BD0020FCE792
:1020E000002C014038B5044690F83E00C0B294F888
:1020F0003F3094F84220D2B294F843C00D46B1B9B3
:10210000012849D1012A48D1022384F83E3084F8BD
:1021100042307DB3042D39D0012200212068FFF721
:1021200064FF012204212068FFF75FFF27E0DBB294
:102130005FFA8CFC042912D0012833D1012B2CD159
:10214000012A31D1BCF1010F30D1022384F83E3095
:1021500084F83F3084F8423084F84330D9E7012BCB
:102160001CD1BCF1010F1BD1022384F83F3084F84D
:102170004330CEE7012200212068FFF736FF2268B6
:10218000136843F001031360002006E001220421DC
:102190002068FFF72AFFF2E7012038BD0120FCE7A5
:1021A0001846FAE70120F8E71846F6E71046F4E784
:1021B00090F83C30012B2CD010B4012380F83C3037
:1021C000022380F83D3003685A689C6822F0700C46
:1021D0000A6842EA0C025A6003680F4A93420AD026
:1021E000B3F1804F07D0A2F59432934203D002F5A9
:1021F0008062934204D124F080044A6814439C60B6
:10220000012380F83D30002380F83C30184610BC94
:1022100070470220704700BF002C01407047704794
:1022200010B504460E4B18784FF47A73B3FBF0F3F5
:102230000C4A1068B0FBF3F000F072FE68B90F2C86
:1022400001D901200AE0002221464FF0FF3000F0C2
:1022500021FE054B1C60002000E0012010BD00BFE6
:1022600028020020300200202C02002008B5074A76
:10227000136843F010031360032000F0F9FD002001
:10228000FFF7CEFFFFF7E6FA002008BD002002406E
:10229000034A1168034B1B780B441360704700BF5F
:1022A000E005002028020020014B1868704700BF9D
:1022B000E005002082B0084B1B68084AA2FB0323FC
:1022C0005B0A00FB03F3019300BF019B5A1E0192BE
:1022D000002BF9D102B0704730020020D34D6210BC
:1022E000002800F0F18170B582B00446036813F055
:1022F000010F2CD0994B5B6803F00C03042B1DD00D
:10230000964B5B6803F00C03082B12D06368B3F59F
:10231000803F41D0002B55D103F1804303F50433B6
:102320001A6822F480321A601A6822F480221A6035
:1023300037E08A4B5B6813F4803FE7D0874B1B681C
:1023400013F4003F03D06368002B00F0BF812368C3
:1023500013F0020F75D0814B5B6813F00C0F5FD048
:102360007E4B5B6803F00C03082B54D02369002BD1
:1023700000F08A807A4B01221A60FFF795FF05462C
:10238000764B1B6813F0020F75D1FFF78DFF401BD2
:102390000228F5D903209EE1704A136843F4803384
:1023A0001360636843B3FFF77FFF05466B4B1B6801
:1023B00013F4003FCBD1FFF777FF401B6428F5D91A
:1023C000032088E1B3F5A02F09D0644B1A6822F4EA
:1023D00080321A601A6822F480221A60E1E703F161
:1023E0008043A3F53C331A6842F480221A601A68CD
:1023F00042F480321A60D4E7FFF756FF0546574B88
:102400001B6813F4003FA2D0FFF74EFF401B642867
:10241000F5D903205FE1514B5B6813F4803FA5D1F0
:102420004E4B1B6813F0020F03D02369012B40F0C1
:102430004F814A4A136823F0F803616943EAC103F4
:102440001360236813F0080F33D0A369002B5CD00E
:10245000434B0122C3F88024FFF726FF05463F4B7C
:102460005B6A13F0020F21D1FFF71EFF401B022809
:10247000F5D903202FE1394A136823F0F803616985
:1024800043EAC1031360DCE7354B00221A60FFF713
:102490000BFF0546314B1B6813F0020FD1D0FFF73D
:1024A00003FF401B0228F5D9032014E10120FFF7A8
:1024B00001FF236813F0040F00F09680274BDB69BF
:1024C00013F0805F34D1254BDA6942F08052DA6133
:1024D000DB6903F080530193019B0125214B1B68AD
:1024E00013F4807F26D0E368012B3DD0002B53D11D
:1024F00003F1804303F504331A6A22F001021A62E1
:102500001A6A22F004021A6233E0154B0022C3F863
:102510008024FFF7C9FE0546104B5B6A13F0020FDB
:10252000C7D0FFF7C1FE401B0228F5D90320D2E037
:102530000025D3E70B4A136843F480731360FFF759
:10254000B3FE0646074B1B6813F4807FCBD1FFF721
:10255000ABFE801B6428F5D90320BCE000100240CC
:1025600000004242007000405F4A136A43F00103DA
:102570001362E36833B3FFF797FE06465A4B1B6AB4
:1025800013F0020F2FD1FFF78FFE801B41F288332B
:102590009842F3D903209EE0052B09D0524B1A6ACA
:1025A00022F001021A621A6A22F004021A62E0E7BB
:1025B0004D4B1A6A42F004021A621A6A42F0010292
:1025C0001A62D6E7FFF770FE0646474B1B6A13F008
:1025D000020F08D0FFF768FE801B41F28833984253
:1025E000F3D9032077E0E5B9E369002B72D03E4AC6
:1025F000526802F00C02082A56D0022B17D03B4B2F
:1026000000221A66FFF750FE0446374B1B6813F092
:10261000007F47D0FFF748FE001B0228F5D90320B2
:1026200059E0314AD36923F08053D361DCE72F4B63
:1026300000221A66FFF738FE05462B4B1B6813F085
:10264000007F06D0FFF730FE401B0228F5D903209B
:1026500041E0236AB3F5803F1AD023494B6823F445
:102660007413226A606A024313434B601F4B0122BA
:102670001A66FFF719FE04461B4B1B6813F0007F18
:102680000ED1FFF711FE001B0228F5D9032022E02E
:10269000154A536823F40033A1680B435360DCE709
:1026A000002018E0002016E0012B16D00E4B5B68CE
:1026B00003F48031226A914211D103F47013626AEB
:1026C00093420ED1002006E001207047012002E075
:1026D000012000E0002002B070BD0120FBE70120D6
:1026E000F9E70120F7E700BF001002400000424276
:1026F00086B0164B0FCB0DF1180C0CE90F0040F211
:102700000123ADF80430124B5B6803F00C02082A79
:1027100002D0104806B07047C3F38342624412F8F7
:10272000100C13F4803F0CD0094B5B68C3F340439B
:10273000634413F8143C074A02FB00F0B0FBF3F0CB
:10274000E8E7054B03FB00F0E4E700BFE84D0008B5
:102750000010024000127A0000093D00002800F03D
:10276000A08070B50D460446524B1B6803F007036A
:102770008B420BD24F4A136823F007030B431360BD
:10278000136803F007038B4240F08D80236813F039
:10279000020F17D013F0040F04D0474A536843F4D4
:1027A000E0635360236813F0080F04D0424A536873
:1027B00043F460535360404A536823F0F003A16828
:1027C0000B435360236813F0010F31D06368012B72
:1027D00020D0022B25D0384A126812F0020F64D0A4
:1027E00035494A6822F0030213434B60FFF75CFD52
:1027F0000646314B5B6803F00C036268B3EB820F53
:1028000016D0FFF751FD801B41F288339842F0D972
:10281000032045E0284A126812F4003FE0D101206D
:102820003EE0254A126812F0007FD9D1012037E03E
:10283000204B1B6803F00703AB420AD91D4A1368FB
:1028400023F007032B431360136803F00703AB4225
:102850002DD1236813F0040F06D0174A536823F4D0
:10286000E063E1680B435360236813F0080F07D05F
:10287000114A536823F46053216943EAC10353604A
:10288000FFF736FF0C4B5B68C3F303130B4AD35CB3
:10289000D8400B4B18600B4B1868FFF7C1FC0020A9
:1028A00070BD012070470120FAE70120F8E7012000
:1028B000F6E700BF0020024000100240FC4D000877
:1028C000300200202C020020014B1868704700BF26
:1028D0003002002008B5FFF7F7FF044B5B68C3F335
:1028E0000223034AD35CD84008BD00BF0010024059
:1028F0000C4E000808B5FFF7E7FF044B5B68C3F315
:10290000C223034AD35CD84008BD00BF0010024078
:102910000C4E000870B582B00024A446A6E0804D9D
:10292000AA4210D007D97F4DAA420CD005F58035B8
:10293000AA4208D013E0A5F58015AA4203D005F5F8
:102940007025AA4207D18A68002A58D0012A51D09E
:102950004361082403E0A5F58015AA42F3D0BEF137
:10296000FF0F4ED80646BEF1FF0F4CD84FEA8C023F
:1029700033680F25954023EA050304FA02F2134356
:1029800033604B6813F0805F6ED0674B9A6942F0FA
:1029900001029A619B6903F001030193019B4FEAD5
:1029A0009C02951C614B53F825600CF003039D00BD
:1029B0000F23AB4026EA03065D4B984229D003F56E
:1029C0008063984200F08E8003F58063984200F0A7
:1029D0008B8003F58063984219D004231AE0CC68F9
:1029E000BDE7CC680434BAE7CC680834B7E7CC68F4
:1029F0000C34B4E703610824B1E70024AFE70424F2
:102A0000ADE7061DAFE7ACF108029200B0E7032383
:102A100000E00023AB4033430232444D45F82230FE
:102A20004B6813F4803F61D0424A136843EA0E03B7
:102A300013604B6813F4003F5ED03E4A536843EA8C
:102A40000E0353604B6813F4801F5BD0394A9368C0
:102A500043EA0E0393604B6813F4001F58D0354AC5
:102A6000D36843EA0E03D3600CF1010C0A6832FA12
:102A70000CF353D0012303FA0CF302EA030E33EAFA
:102A80000202F1D14A68122A3FF649AF122A3FF6F4
:102A900066AF01A555F822F047290008DF29000894
:102AA000E9290008FB2900085F2900085F290008C0
:102AB0005F2900085F2900085F2900085F290008D6
:102AC0005F2900085F2900085F2900085F290008C6
:102AD0005F2900085F2900085F290008E329000832
:102AE000EF290008012395E7022393E7114A1368B1
:102AF00023EA0E0313609CE70E4A536823EA0E0391
:102B000053609FE70B4A936823EA0E039360A2E7A2
:102B1000084AD36823EA0E03D360A5E702B070BD6C
:102B2000000022100000311000100240000001409F
:102B300000080140000401400AB101617047090426
:102B40000161704730B40124056CAC40C56B6C600A
:102B5000046863604368102B05D0036899600368BC
:102B6000DA6030BC704703689A600368D960F8E7A0
:102B700060B310B402460168154B0B441548A0FB26
:102B800003031B099B001364134BD363022382F8D6
:102B90002130086820F47F5020F03000536894689A
:102BA0002343D4682343146923435469234394691A
:102BB0002343D469234303430B6000209063012324
:102BC00082F8213082F8200010BC70470120704745
:102BD000F8FFFDBFCDCCCCCC0000024038B5044698
:102BE00090F82000012831D0012084F8200094F8CA
:102BF0002100012804D0002384F82030022038BDB1
:102C0000022084F821000020A0632568286820F0B5
:102C1000010028602046FFF795FFE36A5BB1226858
:102C2000136843F00E0313602268136843F0010336
:102C300013600020E3E72268136823F004031360A5
:102C40002268136843F00A031360EDE70220D6E719
:102C500090F82130022B06D004238363002380F8F0
:102C60002030012070470268136823F00E031360C0
:102C70000268136823F001031360036CC16B012227
:102C800002FA03F34B6080F82120002380F8203003
:102C90001846704708B590F82130022B03D0042362
:102CA0008363012008BD0268136823F00E031360DC
:102CB0000268136823F0010313600368194A934202
:102CC00014D0143293421FD0143293421ED01432C7
:102CD00093421ED0143293421ED01432934202D03B
:102CE0004FF0807203E04FF4801200E001220E4B9F
:102CF0005A60012380F82130002380F82030436B94
:102D00006BB198470020CDE71022F0E74FF48072B6
:102D1000EDE74FF48052EAE74FF48032E7E7002016
:102D2000C0E700BF080002400000024038B5C36B96
:102D30001A6804682568016C04238B40134235D05F
:102D400015F0040F32D0236813F0200F03D123684D
:102D500023F0040323600368434A934214D01432DF
:102D6000934218D01432934217D01432934217D0A2
:102D70001432934217D01432934202D04FF0806243
:102D800003E04FF4800200E00422384B5A60C36A2B
:102D900003B1984738BD4022F7E74FF48062F4E76B
:102DA0004FF48042F1E74FF48022EEE702238B409C
:102DB00013423CD015F0020F39D0236813F0200FD6
:102DC00006D1236823F00A032360012380F8213011
:102DD0000368254A934214D0143293421CD0143213
:102DE00093421BD0143293421BD0143293421BD017
:102DF0001432934202D04FF0007203E04FF40012FD
:102E000000E00222194B5A60002380F82030836AC8
:102E1000002BBFD09847BDE72022F3E74FF40072A4
:102E2000F0E74FF40052EDE74FF40032EAE70823F1
:102E300003FA01F11142ADD015F0080FAAD02368B2
:102E400023F00E032360026CC16B012303FA02F22C
:102E50004A60836380F82130002380F82030036BC0
:102E6000002B97D0984795E70800024000000240E9
:102E7000074AD36823F4E0631B041B0C000200F430
:102E8000E060034343F0BF6343F40033D360704713
:102E900000ED00E000B5194BDB68C3F30223C3F17A
:102EA000070CBCF1040F28BF4FF0040C03F1040E13
:102EB000BEF1060F18D9033B4FF0FF3E0EFA0CFC93
:102EC00021EA0C0199400EFA03F322EA03031943A5
:102ED00000280BDB0901C9B200F1604000F5614038
:102EE00080F800135DF804FB0023E5E700F00F0015
:102EF0000901C9B2024B1954F4E700BF00ED00E02C
:102F000014ED00E0002807DB00F01F024009012358
:102F10009340024A42F82030704700BF00E100E0D1
:102F20000138B0F1807F0BD24FF0E0235861054AA1
:102F3000F02182F823100020986107221A6170475F
:102F40000120704700ED00E00268D36823F0C00361
:102F5000D360202380F83D3070470268D36823F4A3
:102F60009073D3600268536923F001035361036BCC
:102F7000012B05D0202380F83E30002303637047E7
:102F80000268D36823F01003D360F3E790F83D3074
:102F9000DBB2212B01D0022070478368B3F5805F3C
:102FA00017D0036A5A1C02621A7803685A60C38CED
:102FB0009BB2013B9BB2C3844BB90268D36823F038
:102FC0008003D3600268D36843F04003D3600020DD
:102FD00070470369002BE4D1036A1B880268C3F3BE
:102FE00008035360036A02330362E0E710B5044646
:102FF0000268136923F44053C1680B43136183686B
:103000000269134342691A430168CB6823F4B05341
:1030100023F00C031343CB600268536923F440731D
:1030200081690B4353610268134B9A4220D0FFF72A
:1030300051FC024602EB820202EB820263689B00B3
:10304000B2FBF3F20D48A0FB02314909642303FBF4
:1030500011231B013233A0FB03235B0903F0F002B1
:1030600002EB011203F00F03216813448B6010BDC3
:10307000FFF740FC0246DDE7003801401F85EB51B9
:103080002DE9F84305460F4616469946DDF820809F
:103090002C68246837EA04030CBF4FF0010C4FF092
:1030A000000CB4451FD1B8F1FF3FF1D0B8F1000FCB
:1030B00005D0FFF7F9F8A0EB09004045E8D92A68E8
:1030C000D36823F4D073D3602A68536923F00103D3
:1030D0005361202385F83D3085F83E30002385F884
:1030E0003C30032000E00020BDE8F88358B310B561
:1030F000044690F83D300BB3242384F83D30226819
:10310000D36823F40053D3602046FFF76FFF226893
:10311000136923F4904313612268536923F02A034F
:1031200053612268D36843F40053D36000202064C5
:10313000202384F83D3084F83E3010BD80F83C30C8
:10314000FEF7DCFAD8E7012070472DE9F04182B0A4
:103150001E4690F83D30DBB2202B54D104460D467C
:103160009046002953D0002A53D090F83C30012BD0
:1031700051D0012380F83C3000230364212380F8E0
:103180003D30FFF791F80746A4F82480A4F8268084
:10319000A368B3F5805F05D04FF00008002384F8E2
:1031A0003C3012E0236913B14FF00008F6E7A8465F
:1031B0000025F3E738F8023B2268C3F308035360A5
:1031C000E28C92B2013A92B2E284E38C9BB273B188
:1031D00000963B46002280212046FFF751FFE0B9D0
:1031E000002DE7D015F8012B23685A60E8E7009618
:1031F0003B46002240212046FFF742FF78B92023BA
:1032000084F83D3000E0022002B0BDE8F0810120EA
:10321000FAE70120F8E70220F6E70320F4E70320AD
:10322000F2E72DE9F04182B01E4690F83E30DBB265
:10323000202B5CD104460D46904600295BD0002A25
:103240005BD090F83C30012B59D0012380F83C3002
:1032500000230364222280F83E200363FFF724F852
:103260000746A4F82C80A4F82E80A368B3F5805FED
:1032700005D04FF00008002384F83C3017E02369A4
:1032800013B14FF00008F6E7A8460025F3E72368DE
:103290005B68C3F3080328F8023B03E023685B681C
:1032A0002B700135E28D92B2013A92B2E285E38D44
:1032B0009BB2BBB100963B46002220212046FFF77F
:1032C000DFFEF0B9002DE2D0A368B3F5805FE5D052
:1032D00013B92369002BE1D023685B6803F07F03F7
:1032E0002B70DEE7202384F83E30002000E002202F
:1032F00002B0BDE8F0810120FAE70120F8E70220E2
:10330000F6E70320F4E7000038B590F83D30DBB273
:10331000202B31D10446002930D0002A30D090F83B
:103320003C30012B2ED0012380F83C300162828496
:10333000C28400250564212380F83D30436B124888
:103340009862636B1148D862636B11481863636BB2
:103350005D6320681346021D606BFFF73FFC236826
:103360006FF040021A6084F83C502268536943F0C1
:1033700080035361284600E0022038BD0120FCE7AD
:103380000120FAE70220F8E797330008E33300084A
:10339000F1330008704708B50346406A1B681B6894
:1033A00013F0200F0CD10023C3840268536923F06B
:1033B000800353610268D36843F04003D36008BDC3
:1033C000FFF7E8FFFBE708B50168CA6822F0400292
:1033D000CA60202280F83D20FFF7DCFF002008BDF6
:1033E000704708B5406AFFF7FBFF08BD704770479C
:1033F00010B5446A23685A6994F83D30DBB2212B3A
:1034000010D023685A6902F0400294F83E30DBB2D3
:10341000222B11D0236C43F0100323642046FFF7C6
:10342000E6FF10BD02F08002002AEAD00023E38408
:103430002046FFF789FDE4E7002AEBD00023E3856F
:103440002046FFF78AFDE5E708B5406A0023C385FB
:10345000C384FFF7CCFF08BD704790F83E30DBB265
:10346000222B60D18368B3F5805F46D0826AB3F5C2
:10347000805F04D0002B4DD10369002B4AD1036833
:103480005B681370836A01338362C38D9BB2013B17
:103490009BB2C385002B48D100B583B00268D368C6
:1034A00023F02003D3600268D36823F48073D360D1
:1034B0000268536923F001035361202380F83E30F2
:1034C000036B012B2CD1002303630268D36823F024
:1034D0001003D36003681A6812F0100F06D00022A0
:1034E00001921A6801925B680193019B818DFFF73D
:1034F000B3FF002003B05DF804FB0269002AB5D1D8
:10350000826A03685B68C3F308031380836A02332B
:103510008362BAE703685B6803F07F031370B1E767
:10352000FDF73EFDE5E702207047002070470000F0
:1035300030B583B0044602681368D068516913F04F
:103540000F0505D113F0200F02D010F0200F19D174
:103550002DB111F0010119D110F4907F16D1216B1A
:10356000012975D013F0800F03D010F0800F40F0C8
:10357000D78013F0400F03D010F0400F40F0D480FC
:1035800003B030BD2046FFF768FFF9E713F0010FE5
:1035900006D010F4807F03D0226C42F00102226436
:1035A00013F0040F04D019B1226C42F0020222641D
:1035B00013F0020F04D019B1226C42F0040222640D
:1035C00013F0080F07D010F0200F00D119B1226CB2
:1035D00042F008022264226C002AD1D013F0200F9E
:1035E00002D010F0200F21D123685B6903F0400363
:1035F000226C12F0080F00D123B32046FFF7ADFC78
:1036000023685A6912F0400F18D05A6922F040021C
:103610005A61A36B73B1464A5A63A06BFFF73AFB3A
:103620000028ADD0A06B436B9847A9E72046FFF771
:1036300014FFD9E72046FFF7DAFEA1E72046FFF79F
:10364000D6FE9DE72046FFF7D2FE0023236497E7CE
:1036500013F0100F86D010F0100F83D000230193C9
:103660001368019353680193019B536913F0400F52
:1036700032D0A16B0B685B689BB2002B80D0A08D11
:1036800098427FF67DAFE3858B69202B08D1A18D11
:10369000E38D9BB2C91A89B22046FFF7DDFE6FE7C2
:1036A000D36823F48073D3602268536923F0010345
:1036B00053612268536923F040035361202384F847
:1036C0003E30002323632268D36823F01003D360C5
:1036D000A06BFFF7BDFADAE7A18DE38D9BB2C91AA3
:1036E00089B2E38D9BB2002B3FF44AAF00293FF42F
:1036F00047AFD36823F49073D3602268536923F0F3
:1037000001035361202384F83E30002323632268A1
:10371000D36823F01003D3602046FFF79DFE2FE708
:103720002046FFF733FC2BE72046FFF74CFE27E748
:103730004934000808B5406A036B012B02D0FFF73B
:1037400055FE08BD818D4908FFF786FEF9E708B5EB
:103750000346406A1B681B6813F0200F16D1002334
:10376000C3850268D36823F48073D3600268536909
:1037700023F0010353610268536923F0400353614E
:10378000202380F83E30036B012B05D0036B012B07
:1037900008D0FDF705FC08BD0268D36823F01003CC
:1037A000D360F3E7818DFFF757FEF4E730B583B0C0
:1037B000044613468162828500250564222280F832
:1037C0003E20826B14489062A26B1448D062A26BB8
:1037D00013481063A26B556320680A46011DA06B55
:1037E000FFF7FCF9019523681A6801925A68019263
:1037F000019A84F83C50DA6842F48072DA602268F8
:10380000536943F0010353612268536943F0400355
:103810005361284603B030BD4F37000835370008E4
:10382000F133000808B590F83E30DBB2202B0DD103
:1038300071B17AB190F83C30012B0DD0012380F8A2
:103840003C3000230363FFF7B1FF00E0022008BD16
:103850000120FCE70120FAE70220F8E70000000061
:10386000D0B50446D0E904670846FDF7A1FA0C4933
:10387000FCF76EFCFCF784FE02460B4630463946E8
:10388000FDF700F804A3D3E90023FCF7D1FEC4E957
:103890000001D0BDAFF3008000000000004CED40FF
:1038A0000000484470B5064614461D460022002319
:1038B00020462946FDF742F928B1012386F8283031
:1038C000C6E9024570BD002386F82830224605F17E
:1038D0000043C6E90223F5E710B5034600F10801ED
:1038E000D1E900011C6BD3E90023FCF7E9FCC4E932
:1038F000060110BDF8B506460F4614461D46FDF7F5
:1039000027F948B9DDE9062330463946FDF702F9C3
:1039100028B1DDE9060101E020462946F8BD304620
:103920003946FBE72DE9F04F87B00546046BD4E933
:103930000C89CDE90489D4E90E67D4E90623D4E9DA
:103940000001FCF775FE02460B463F49C1E9002322
:1039500042464B46D1E90001FDF7DCF8002869D06A
:10396000394BD3E9002340464946FCF7A9FCFDF753
:1039700019F9029032463B463349D1E90001FDF77F
:10398000E7F8002859D0304BD3E9002330463946B8
:10399000FCF796FCFDF706F98346D4E90489D4E9DF
:1039A0000601D4E90823FCF78DFC02460B4640468D
:1039B0004946FCF73DFE02460B46DFF890A0DAE9E7
:1039C0000001FCF77FFCCAE90001DAE900890298EE
:1039D000FCF7D6FDCDE902015846FCF7D1FDCDE953
:1039E0000001DDE9022340464946FFF783FFCAE9AB
:1039F0000001154BD3E90001DAE90023FCF762FC72
:103A0000CDE90067DDE90423FFF774FF07460E46A2
:103A10000022002338463146FDF77CF880B93A464B
:103A20003346C5E90823D4E90623C4E9082307B0CF
:103A3000BDE8F08F002302939CE74FF0000BACE74A
:103A400006F10046EBE700BFF0050020E805002086
:103A500010B50446836B00221A6090F82830012BC1
:103A600019D00122418D406BFFF766F80022A18D2D
:103A7000606BFFF761F800220023D4E90201FDF733
:103A80003FF890B9D4E9080101F03EF9A46BFDF7C5
:103A900069F8206010BD418D406BFFF74DF80122A1
:103AA000A18D606BFFF748F8E5E70022618D606B40
:103AB000FFF742F80022A18D606BFFF73DF8E9E7C0
:103AC000C0E90023DDE90023C0E90423DDE9022386
:103AD000C0E9022370472DE9F04184B004460D4649
:103AE00090461F46129E40220021284600F08AF987
:103AF0002563C4F834806785BDF82830A385012389
:103B000084F82830109BE363119BA363DDE90C2349
:103B1000C5E90C23DDE90E23C5E90E23D6E904230C
:103B2000CDE90223D6E90223CDE90023D6E900231B
:103B30002846FFF7C5FF04B0BDE8F0812DE9F84342
:103B400006460F46DDE9088940464946FCF770FD08
:103B500004460D4642464B4600200749FCF7B0FBA1
:103B600032463B46FCF764FD02460B46204629469A
:103B7000FCF7A8FBBDE8F8830000F03F0000000060
:103B80002DE9F04F83B0044690469946C36BD3F8B5
:103B900000B0FEF789FB0546A369B0EB030A01D12B
:103BA0004FF00A0AE06983452DD9ABEB0000FCF722
:103BB000C5FC06460F460022194B30463946FCF735
:103BC000C7FF08B1D4E9046713A3D3E90023CDE903
:103BD0000023D4E9042330463946FFF7AFFFC4E998
:103BE000040151462046FFF73BFE42464B46204625
:103BF000FFF758FE2046FFF76FFEA561C4F81CB022
:103C000003B0BDE8F08FA0EB0B00FCF797FC064675
:103C10000F46D0E7AFF30080333333333333D33F32
:103C20000000494001460223002003E0CA5C104422
:103C30000133DBB2092BF9D970472DE9F0410F466A
:103C40001646827AC57A2D0445EA0265027B45EA6A
:103C50000225427B15438278C478240444EA026436
:103C6000027944EA022442791443827990F807C029
:103C70004FEA0C4C4CEA026C027A4CEA022C90F8A7
:103C800009804CEA0808FFF7CDFF854201D0BDE866
:103C9000F0813C60C6F80080F9E7000008B5054BEC
:103CA0001860054B1868002302221946806800F04E
:103CB000B1F808BDF80500203402002010B5013825
:103CC00001280AD814464FF0FF3392B20748006823
:103CD000FFF73BFA40B9204610BD00F069F8092310
:103CE00003604FF0FF30F7E70520F5E7F805002007
:103CF000022801D80020704708B500F059F80923C0
:103D000003604FF0FF3008BD08B500F051F80923FB
:103D100003604FF0FF3008BD08B548B94FF0FF33DE
:103D2000012208480068FFF77CFA40B9012008BD6D
:103D300000F03EF8092303604FF0FF30F7E705205D
:103D4000F5E700BFF805002008B5022804D84FF4B5
:103D500000534B60002008BD00F02AF809230360DF
:103D6000F8E770470C480D490D4A002302E0D4588B
:103D7000C4500433C4188C42F9D30A4A0A4C0023B5
:103D800001E013600432A242FBD3FFF7EAFF00F028
:103D900015F8FDF77DF9704700000020980200201B
:103DA000B44E00089802002010060020FEE7000034
:103DB000014B1868704700BF3402002070B5002620
:103DC0000C4D0D4C641BA410A64209D100F0F6FF67
:103DD00000260A4D0A4C641BA410A64205D170BDF2
:103DE00055F8043B98470136EEE755F8043B9847F1
:103DF0000136F2E7AC4E0008AC4E0008AC4E0008AD
:103E0000B04E000803460244934200D1704703F8C5
:103E1000011BF9E72DE9F7431D465D4B04461F687A
:103E20000E46904627B1BB6913B9384600F0EEF94B
:103E3000584B9C4267D17C68B8F1020F06D0B8F1AC
:103E4000010F00F29F80002DC0F29C80636EDB07A3
:103E500005D4A389980502D4A06D00F075FA214617
:103E6000384600F03FF9616B41B104F144039942D7
:103E700002D0384600F098FA002363630023A36160
:103E80006360A389190603D53846216900F08CFACE
:103E9000A389B8F1020F23F44A6323F00303A3813B
:103EA0006CD001AB6A462146384600F04FFAA38930
:103EB0001843A081002D30D1009D284600F06CFAF7
:103EC0000646002855D1DDF80090A9454AD14FF0AB
:103ED000FF350022A26004F1470222602261012224
:103EE000B4F90C306261626E43F00203D207A38121
:103EF00005D413F4007F02D1A06D00F026FA284605
:103F000003B0BDE8F083244B9C4201D1BC6893E729
:103F1000224B9C4208BFFC688EE7002ECDD0BB69C7
:103F200013B9384600F072F9B8F1010F08BFA38940
:103F3000C4E9046504BF43F00103A381A28926609C
:103F400012F008031CD0D30741BF00236D42A360C9
:103F5000A56158BFA560656E15F0010515D112F475
:103F6000007FC8E7484600F017FA06460028AED0A2
:103F70004D46A38943F08003A381D0E70025A8E73D
:103F8000A360E8E74FF0FF35B9E70025B7E700BFCA
:103F900034020020384E0008584E0008184E000821
:103FA0000EB46FF0004100B59CB01DAB02900690BE
:103FB000079104910848094953F8042B05910068BA
:103FC00002A9019300F0EEFA0022029B1A701CB0C5
:103FD0005DF804EB03B07047340200200802FFFFD5
:103FE0008A89F8B5054610070C4657D44B68002B54
:103FF00004DC0B6C002B01DC0020F8BDE66A002E0F
:10400000FAD0002312F480522F682B6032D0606DFA
:10401000A3895A0705D56368C01A636B0BB1236C7B
:10402000C01A00230246E66A2846216AB047431CAC
:10403000A38906D129681D292CD8294ACA40D60748
:1040400028D5002262602269D904226004D5421C6E
:1040500001D12B6803B96065616B2F600029CBD05B
:1040600004F14403994202D0284600F09DF9002053
:104070006063C2E7216A01232846B047411CC7D1CB
:104080002B68002BC4D01D2B01D0162B01D12F6023
:10409000B2E7A38943F04003A381AEE70F69002F85
:1040A000AAD0930718BF00230E6808BF4B69F61B00
:1040B0000F608B60002E9FDD33463A462846216A0A
:1040C000D4F828C0E047002806DCA3894FF0FF3071
:1040D00043F04003A38190E70744361AEAE700BFA4
:1040E0000100402038B50B6905460C4613B9002580
:1040F000284638BD18B183690BB900F087F8144B16
:104100009C421BD16C68B4F90C30002BEFD0626E6E
:10411000D00704D4990502D4A06D00F015F9284603
:104120002146FFF75DFF636E0546DA07E0D4A389F9
:104130009B05DDD4A06D00F008F9D9E7054B9C4242
:1041400001D1AC68DFE7044B9C4208BFEC68DAE7BA
:10415000384E0008584E0008184E0008002310B5CD
:104160000446C0E90033C0E90433836081814366BB
:10417000C2818361194608225C30FFF743FE054B7C
:1041800024626362044BA362044BE362044B236327
:1041900010BD00BFF14A0008134B00084B4B00084C
:1041A0006F4B0008014900F0AFB800BFE5400008C0
:1041B000682270B54D1E55430E4605F1740100F09E
:1041C0003BF9044640B10021C0E900160C30A06064
:1041D00005F16802FFF716FE204670BD014800F0A9
:1041E000B3B800BFFD050020014800F0AEB800BF25
:1041F000FD050020014800F0A7B800BFFE05002023
:10420000014800F0A2B800BFFE05002010B504462A
:10421000FFF7F0FFA3691BB1BDE81040FFF7F0BF47
:10422000C4E912332365134B134A1B68A262A342ED
:1042300008BF0123204608BFA36100F01FF860609B
:10424000204600F01BF8A060204600F017F800227E
:104250000421E0606068FFF781FF01220921A06866
:10426000FFF77CFF02221221E068FFF777FF0123AE
:10427000A361D1E7144E0008A5410008F8B5074630
:10428000FFF7ACFF1E4B1E68B36913B93046FFF74A
:10429000BDFF4836D6E90134013B03D533680BB383
:1042A0003668F7E7B4F90C50D5B9164B04F158004D
:1042B000E360656600F047F8FFF796FF082229469D
:1042C000C4E90155C4E904552560A56104F15C0009
:1042D000FFF798FDC4E90D55C4E912552046F8BD15
:1042E0006834D9E704213846FFF762FF044630609E
:1042F0000028D5D1FFF778FF0C233B60EEE700BF25
:10430000144E00080100FFFF2DE9F84306468846D9
:10431000002700F14804D4E90195B9F1010905D558
:104320002468002CF7D13846BDE8F883AB89012B0F
:1043300007D9B5F90E30013303D029463046C047BE
:1043400007436835E9E770477047704770B50E4618
:10435000B1F90E10144600291D4696B008DA002265
:10436000B6F90C302A601A0610D44FF480630EE0C0
:104370006A4600F023FC0028F1DB019A02F4704247
:10438000A2F500535A425A412A60EEE7402300202A
:10439000236016B070BD0000024B0146186800F0A3
:1043A0004BB800BF3402002038B50546002940D084
:1043B00051F8043C0C1F002BB8BFE41800F058FC67
:1043C0001C4A136833B9636014602846BDE838405E
:1043D00000F054BCA34208D9206821188B4201BFC9
:1043E00019685B6809182160EDE71A465B680BB134
:1043F000A342FAD911685018A0420BD12068014499
:10440000501883421160E0D118685B680144116064
:104410005360DAE702D90C232B60D6E72068211815
:104420008B4201BF19685B680918216063605460A2
:10443000CBE738BD00060020F8B5CD1C25F00305FC
:1044400008350C2D38BF0C25002D064601DBA9428E
:1044500003D90C2333600020F8BD00F009FC21498A
:104460000A6814469CB9204F3B6823B92146304660
:1044700000F02EFB38602946304600F029FB431C33
:1044800023D10C233046336000F0F8FBE3E72368C8
:104490005B1B17D40B2B03D923601C44256004E05D
:1044A0006368A2420CBF0B605360304600F0E6FB2D
:1044B00004F10B00231D20F00700C21ACCD01B1AF8
:1044C000A350C9E722466468CCE7C41C24F0030467
:1044D000A042E3D0211A304600F0FAFA0130DDD1D3
:1044E000CFE700BF00060020040600202DE9F047BA
:1044F0008E6882469E420C4690461F4638D88A896E
:1045000012F4906F32D0256809690133A5EB0109D7
:1045100065694B4405EB450505EBD5756D109D426E
:1045200038BF1D46530531D52946FFF785FF06469E
:1045300050B90C234FF0FF30CAF80030A38943F084
:104540004003A381BDE8F0874A46216900F068FB7B
:10455000A38923F4906343F08003A38126614E4432
:1045600026603E466561A5EB0905A560BE4200D9FF
:104570003E4632464146206800F060FBA3680020BA
:104580009B1BA360236833442360DBE72A4600F0CB
:104590007BFB06460028E1D150462169FFF704FF66
:1045A000C7E700002DE9F04F98468B8907461B06A8
:1045B0000D4614469DB00ED50B6963B94021FFF737
:1045C0003BFF2860286120B90C233B604FF0FF308F
:1045D000D1E040236B610023099320238DF829301B
:1045E00030234FF00109CDF80C80DFF8A4818DF85D
:1045F0002A3023469A4613F8012B0AB1252AF9D10D
:10460000BAEB040B0BD05B46224629463846FFF72F
:104610006DFF013000F0AA80099A5A4409929AF875
:104620000030002B00F0A28000234FF0FF32CDE9D4
:1046300005230AF1010A049307938DF853301A9366
:104640005446052214F8011B514800F0DBFA049A85
:10465000D8B9D00644BF20238DF85330110744BF8A
:104660002B238DF853309AF800302A2B15D054465E
:1046700000204FF00A0C079A214611F8013B303B0D
:10468000092B4ED9B0B1079214E0A0EB080309FA48
:1046900003F31343A2460493D2E7039B191D1B683F
:1046A0000391002BBBBF5B4242F0020207930793CA
:1046B000B8BF049223782E2B0CD163782A2B35D1E6
:1046C000039B02341A1D1B680392002BB8BF4FF0E6
:1046D000FF330593DFF8BCA003225046217800F099
:1046E00091FA40B14023A0EB0A0003FA00F0049BCA
:1046F00001340343049314F8011B062226488DF865
:10470000281000F07FFA002838D0244B1BBB039BF5
:10471000073323F0070308330393099B33440993BA
:1047200067E70C4601200CFB0232A5E700234FF09F
:104730000A0C194601340593204610F8012B303A33
:10474000092A03D9002BC5D00591C3E704460123EC
:104750000CFB0121F0E703AB00932A463846104BCF
:1047600004A9AFF30080421C0646D6D1AB895B0694
:104770003FF52CAF09981DB0BDE8F08F03AB009357
:104780002A463846064B04A900F07CF8EBE700BF48
:10479000784E00087E4E0008824E0008000000009F
:1047A000ED4400082DE9F047164699468A680B69E2
:1047B00007469342B8BF1346336091F843200C4636
:1047C000DDF820800AB1013333602368990642BFC7
:1047D000336802333360256815F0060506D104F10D
:1047E000190AE36832689B1AAB4228DC94F843202C
:1047F000131E226818BF012392062DD4494638465D
:1048000004F14302C047013020D02368E56803F07B
:104810000603042B18BF002532684FF00006A3687A
:1048200008BFAD1A226908BF25EAE5759342C4BFE7
:104830009B1AED181A34B5421AD1002008E0012362
:10484000524649463846C047013003D14FF0FF3049
:10485000BDE8F0870135C4E73020E11881F8430056
:104860005A1C94F845102244023382F84310C5E7DD
:104870000123224649463846C0470130E6D001367A
:10488000D9E700002DE9FF470F7E9146782F80463B
:104890000C469A460C9D01F1430207D8622F0AD8B4
:1048A000002F00F0D980582F00F0A48004F14205B9
:1048B00084F842703AE0A7F16303152BF6D801A102
:1048C00051F823F01D49000831490008AD4800089F
:1048D000AD480008AD480008AD480008314900085F
:1048E000AD480008AD480008AD480008AD480008D4
:1048F0003F4A000861490008214A0008AD48000805
:10490000AD480008614A0008AD4800086149000848
:10491000AD480008AD480008294A00082B681A1D58
:104920001B682A6004F1420584F842300123A4E0A8
:1049300020682968060601F104030AD50E682B6079
:10494000002E03DA2D23764284F843300A235E4892
:1049500019E00E6810F0400F2B6018BF36B2EFE779
:104960002B682068191D2960010601D51E6802E028
:104970004606FBD51E886F2F0CBF08230A2352481A
:10498000002184F843106568002DA8BF2168A56048
:10499000A4BF21F0040121600EB9002D4DD01546B1
:1049A000B6FBF3F103FB1167C75D05F8017D3746E0
:1049B000BB420E46F4D9082B0BD12368DE0708D57D
:1049C000236961689942DEBF302305F8013C05F197
:1049D000FF35521B22614B4621464046CDF800A0D0
:1049E00003AAFFF7DFFE01304CD14FF0FF3004B0D7
:1049F000BDE8F087344881F845702968236851F88C
:104A0000046B29601D0614D5DF0744BF43F0200363
:104A100023601EB9236823F0200323601023AFE72F
:104A2000236843F0200323607823284884F8453026
:104A3000E3E7590648BFB6B2E6E71546BBE72B6881
:104A40002668181D6169286035061B6801D5196044
:104A500002E07006FBD51980002315462361BAE7F2
:104A60002B6800211A1D2A601D686268284600F024
:104A7000C9F808B1401B606063682361002384F8B3
:104A80004330A8E72A46494640462369D0470130CB
:104A9000ABD023689B0713D4E068039B9842B8BF50
:104AA0001846A4E70123324649464046D047013024
:104AB0009BD00135E36803995B1AAB42F2DCEBE76C
:104AC000002504F11906F5E7894E00089A4E000802
:104AD00038B50023054D044608462B6000F060F908
:104AE000431C02D12B6803B1236038BD08060020A7
:104AF00010B50C46B1F90E1000F0ECF80028ABBF71
:104B0000636DA3891B1823F48053ACBF6365A38135
:104B100010BD2DE9F0411F468B890546DB050C468B
:104B2000164605D502230022B1F90E1000F058F800
:104B3000A389324623F48053A38128463B46B4F927
:104B40000E10BDE8F04100F017B810B50C46B1F9F1
:104B50000E1000F045F8431CA38915BF606523F4CF
:104B6000805343F48053A38118BFA38110BDB1F9D2
:104B70000E1000F013B8000038B504460846114680
:104B80000022054D2A601A46FFF798F8431C02D10F
:104B90002B6803B1236038BD0806002038B5002318
:104BA000054D044608462B60FFF7A2F8431C02D1CE
:104BB0002B6803B1236038BD0806002038B50023F8
:104BC000064D0446084611462B60FFF7BDF8431C0E
:104BD00002D12B6803B1236038BD00BF0806002056
:104BE00038B50446084611460022054D2A601A468B
:104BF000FFF78AF8431C02D12B6803B1236038BD4C
:104C000008060020034610B5C9B202449342184674
:104C100001D1002003E0047801338C42F6D110BDAD
:104C20000A44914200F1FF3300D1704710B511F8EA
:104C3000014B914203F8014FF9D110BD884210B5E4
:104C400001EB020402D98442234607D8431EA14245
:104C500008D011F8012B03F8012FF8E701460244B0
:104C60008A4200D110BD13F8014D02F8014DF7E75B
:104C70000148FFF769BB00BFFC0500200148FFF7B2
:104C800064BB00BFFC050020F8B5074614460E467D
:104C900021B91146BDE8F840FFF7CEBB22B9FFF7B6
:104CA00083FB25462846F8BD00F026F8A0420FD227
:104CB00021463846FFF7C0FB05460028F2D03146B2
:104CC0002246FFF7ADFF31463846FFF76DFBE9E7B7
:104CD0003546E7E738B50446084611460022054D3B
:104CE0002A601A46FFF718F8431C02D12B6803B15B
:104CF000236038BD0806002051F8043C181F002B23
:104D0000BCBF0B58C018704738B5C1F30A55A5F29F
:104D1000FF32132A0B4684468E46044620DC002AC6
:104D20000EDB1E49114103EA0100204315D04FF468
:104D3000002343FA02F2964400242EEA010E0AE010
:104D4000013214BF0024002401F0004E04BF4EF0D5
:104D50007F5E4EF4401E7346A4466046194638BD39
:104D6000332A08DDB2F5806FF7D10246FBF7AAFAC5
:104D700084460B46F1E74FF0FF31A5F2134521FAC7
:104D800005F52842E9D00123C2F1330203FA02F209
:104D9000841828BF9E4424EA0504DCE7FFFF0F00C7
:104DA000044A05491368002B08BF0B4618441060DD
:104DB000184670470C06002010060020F8B500BF0A
:104DC000F8BC08BC9E467047F8B500BFF8BC08BCEC
:044DD0009E46704744
:104DD400523A20252E3566207C204C3A20252E354B
:104DE40066200A0002030405060708090A0B0C0DD5
:104DF4000E0F101000000000000000000000000072
:104E0400010203040607080900000000010203046C
:104E14003802002000000000000000000000000034
:104E2400000000000000000000000000000000007E
:104E3400000000000000000000000000000000006E
:104E4400000000000000000000000000000000005E
:104E5400000000000000000000000000000000004E
:104E6400000000000000000000000000000000003E
:104E740000000000232D302B2000686C4C00656678
:104E84006745464700303132333435363738394197
:104E940042434445460030313233343536373839AD
:084EA4006162636465660000B1
:044EAC0035010008C4
:044EB00011010008E4
:104EB400496E69740000000000000000000000005A
:104EC40000000000000000000000000000000000DE
:104ED40000000000000000000000000000000000CE
:104EE40000000000000000000000000000000000BE
:104EF40000000000000000000000000000000000AE
:104F0400000000000000000000000000000000009D
:104F1400000000000000000000000000000000008D
:104F2400000000000000000000000000000000007D
:104F3400000000000000000000000000000000006D
:104F4400000000000000000000000000000000005D
:104F5400000000000000000000000000000000004D
:104F6400000000000000000000000000000000003D
:104F7400000000000000000000000000000000002D
:104F8400000000000000000000000000000000001D
:104F9400000000000000000000000000000000000D
:104FA40000000000000000000000000000000000FD
:104FB40000000000000000000000000000000000ED
:104FC40000000000000000000000000000000000DD
:104FD40000000000000000000000000000000000CD
:104FE40000000000000000000000000000000000BD
:104FF40000000000000000000000000000000000AD
:10500400000000000000000000000000000000009C
:10501400000000000000000000000000000000008C
:10502400000000000000000000000000000000007C
:10503400000000000000000000000000000000006C
:10504400000000000000000000000000000000005C
:10505400000000000000000000000000000000004C
:10506400000000000000000000000000000000003C
:10507400000000000000000000000000000000002C
:10508400000000000000000000000000000000001C
:10509400000000000000000000000000000000000C
:1050A400000000000000000000000000000030408C
:1050B400000000000000E03F0000000000000000CD
:1050C4000000000000003040000000000000E03F4D
:1050D40000000000000000000100000010000000BB
:1050E4000024F4003802002000000000384E0008BC
:1050F400584E0008184E0008000000000000000090
:10510400000000000000000000000000000000009B
:10511400000000000000000000000000000000008B
:10512400000000000000000000000000000000007B
:10513400000000000000000000000000000000006B
:08514400000000000000000063
:0400000508003D654D
:00000001FF
