:020000040800F2
:1000000000500020C53B0008AD170008AF170008DE
:10001000B1170008B3170008B5170008000000006A
:10002000000000000000000000000000B7170008FA
:10003000B917000800000000BB170008BD17000832
:100040000D3C00080D3C00080D3C00080D3C00086C
:100050000D3C00080D3C00080D3C00080D3C00085C
:100060000D3C00080D3C00080D3C00080D3C00084C
:100070000D3C00080D3C0008C5170008D517000806
:100080000D3C00080D3C00080D3C00080D3C00082C
:100090000D3C00080D3C00080D3C00080D3C00081C
:1000A000E5170008F51700080D3C00080D3C000896
:1000B0000D3C00080D3C00080D3C00080D3C0008FC
:1000C0000D3C00080D3C00080D3C00080D3C0008EC
:1000D0000D3C0008051800080D3C00080D3C000808
:1000E0000D3C00080D3C00080D3C0008000000001D
:1000F0000000000000000000000000000000000000
:0C01000000000000000000005FF808F1A3
:1001100010B5054C237833B9044B13B10448AFF341
:1001200000800123237010BDF801002000000000B2
:100130007068000808B5034B1BB103490348AFF3CF
:10014000008008BD00000000FC010020706800086D
:10015000034613F8012B002AFBD1181A0138704707
:100160004FF0FF0C1CEAD0521EBF1CEAD15392EA9A
:100170000C0F93EA0C0F6FD01A4480EA010C400276
:1001800018BF5FEA41211ED04FF0006343EA5010D0
:1001900043EA5111A0FB01310CF00040B1F5000F12
:1001A0003EBF490041EAD3715B0040EA010062F1C1
:1001B0007F02FD2A1DD8B3F1004F40EBC25008BFAB
:1001C00020F00100704790F0000F0CF0004C08BFC9
:1001D00049024CEA502040EA51207F3AC2BFD2F196
:1001E000FF0340EAC250704740F400004FF00003A4
:1001F000013A5DDC12F1190FDCBF00F000407047DE
:10020000C2F10002410021FA02F1C2F1200200FA1B
:1002100002FC5FEA310040F1000053EA4C0308BFE2
:1002200020EADC70704792F0000F00F0004C02BF33
:10023000400010F4000F013AF9D040EA0C0093F0AE
:10024000000F01F0004C02BF490011F4000F013B08
:10025000F9D041EA0C018FE70CEAD15392EA0C0F76
:1002600018BF93EA0C0F0AD030F0004C18BF31F0E1
:10027000004CD8D180EA010000F00040704790F0B7
:10028000000F17BF90F0004F084691F0000F91F05B
:10029000004F14D092EA0C0F01D142020FD193EA21
:1002A0000C0F03D14B0218BF084608D180EA0100A9
:1002B00000F0004040F0FE4040F40000704740F085
:1002C000FE4040F44000704781F0004102E000BF72
:1002D00083F0004330B54FEA41044FEA430594EA06
:1002E000050F08BF90EA020F1FBF54EA000C55EA41
:1002F000020C7FEA645C7FEA655C00F0E2804FEA12
:100300005454D4EB5555B8BF6D420CDD2C4480EAF3
:10031000020281EA030382EA000083EA010180EA23
:10032000020281EA0303362D88BF30BD11F0004F71
:100330004FEA01314FF4801C4CEA113102D04042A7
:1003400061EB410113F0004F4FEA03334CEA1333E2
:1003500002D0524263EB430394EA050F00F0A780FA
:10036000A4F10104D5F1200E0DDB02FA0EFC22FAF5
:1003700005F2801841F1000103FA0EF2801843FAE9
:1003800005F359410EE0A5F120050EF1200E012ADA
:1003900003FA0EFC28BF4CF0020C43FA05F3C01818
:1003A00051EBE37101F0004507D54FF0000EDCF191
:1003B000000C7EEB00006EEB0101B1F5801F1BD33A
:1003C000B1F5001F0CD349085FEA30004FEA3C0C3E
:1003D00004F101044FEA445212F5800F80F09A8034
:1003E000BCF1004F08BF5FEA500C50F1000041EB38
:1003F000045141EA050130BD5FEA4C0C404141EB3C
:100400000101013C28BFB1F5801FE9D291F0000F36
:1004100004BF01460020B1FA81F308BF2033A3F1E5
:100420000B03B3F120020CDA0C3208DD02F1140CDC
:10043000C2F10C0201FA0CF021FA02F10CE002F117
:100440001402D8BFC2F1200C01FA02F120FA0CFC10
:10045000DCBF41EA0C019040E41AA2BF01EB045159
:10046000294330BD6FEA04041F3C1CDA0C340EDC57
:1004700004F11404C4F1200220FA04F001FA02F39A
:1004800040EA030021FA04F345EA030130BDC4F158
:100490000C04C4F1200220FA02F001FA04F340EA4D
:1004A0000300294630BD21FA04F0294630BD94F0FE
:1004B000000F83F4801306BF81F480110134013DE5
:1004C0004EE77FEA645C18BF7FEA655C29D094EA56
:1004D000050F08BF90EA020F05D054EA000C04BFD4
:1004E0001946104630BD91EA030F1EBF00210020BF
:1004F00030BD5FEA545C05D14000494128BF41F05E
:10050000004130BD14F580043CBF01F5801130BDC1
:1005100001F0004545F0FE4141F470014FF000004C
:1005200030BD7FEA645C1ABF194610467FEA655CFD
:100530001CBF0B46024650EA013406BF52EA03359F
:1005400091EA030F41F4002130BD00BF90F0000F8D
:1005500004BF0021704730B54FF4806404F13204C9
:100560004FF000054FF0000150E700BF90F0000F82
:1005700004BF0021704730B54FF4806404F13204A9
:1005800010F0004548BF40424FF000013EE700BF79
:1005900042004FEAE2014FEA31014FEA02701FBF09
:1005A00012F07F4393F07F4F81F06051704732F03B
:1005B0007F4208BF704793F07F4F04BF41F4002192
:1005C000704730B54FF4607401F0004521F00041F0
:1005D0001CE700BF50EA010208BF704730B54FF07A
:1005E00000050AE050EA010208BF704730B511F07B
:1005F000004502D5404261EB41014FF4806404F1B3
:1006000032045FEA915C3FF4D8AE4FF003025FEA38
:10061000DC0C18BF03325FEADC0C18BF033202EBBC
:10062000DC02C2F1200300FA03FC20FA02F001FA16
:1006300003FE40EA0E0021FA02F11444BDE600BFB9
:1006400070B54FF0FF0C4CF4E06C1CEA11541DBF68
:100650001CEA135594EA0C0F95EA0C0F00F0DEF833
:100660002C4481EA030621EA4C5123EA4C5350EA18
:10067000013518BF52EA033541F4801143F4801369
:1006800038D0A0FB02CE4FF00005E1FB02E506F0FA
:100690000042E0FB03E54FF00006E1FB03569CF04F
:1006A000000F18BF4EF0010EA4F1FF04B6F5007F55
:1006B00064F5407404D25FEA4E0E6D4146EB0606C7
:1006C00042EAC62141EA55514FEAC52040EA5E5050
:1006D0004FEACE2EB4F1FD0C88BFBCF5E06F1ED8FA
:1006E000BEF1004F08BF5FEA500E50F1000041EB31
:1006F000045170BD06F0004646EA010140EA0200DE
:1007000081EA0301B4EB5C04C2BFD4EB0C0541EAFF
:10071000045170BD41F480114FF0000E013C00F314
:10072000AB8014F1360FDEBF002001F0004170BD38
:10073000C4F10004203C35DA0C341BDC04F1140451
:10074000C4F1200500FA05F320FA04F001FA05F2DD
:1007500040EA020001F0004221F0004110EBD370AA
:1007600021FA04F642EB06015EEA430E08BF20EAD6
:10077000D37070BDC4F10C04C4F1200500FA04F379
:1007800020FA05F001FA04F240EA020001F000410B
:1007900010EBD37041F100015EEA430E08BF20EA7E
:1007A000D37070BDC4F1200500FA05F24EEA020EC6
:1007B00020FA04F301FA05F243EA020321FA04F0F5
:1007C00001F0004121FA04F220EA020000EBD370AC
:1007D0005EEA430E08BF20EAD37070BD94F0000FAC
:1007E0000FD101F00046400041EB010111F4801FE0
:1007F00008BF013CF7D041EA060195F0000F18BF91
:10080000704703F00046520043EB030313F4801FCC
:1008100008BF013DF7D043EA0603704794EA0C0F86
:100820000CEA135518BF95EA0C0F0CD050EA41069C
:1008300018BF52EA4306D1D181EA030101F0004119
:100840004FF0000070BD50EA410606BF1046194641
:1008500052EA430619D094EA0C0F02D150EA01364D
:1008600013D195EA0C0F05D152EA03361CBF10468E
:1008700019460AD181EA030101F0004141F0FE412D
:1008800041F470014FF0000070BD41F0FE4141F4B1
:10089000780170BD70B54FF0FF0C4CF4E06C1CEAB1
:1008A00011541DBF1CEA135594EA0C0F95EA0C0F66
:1008B00000F0A7F8A4EB050481EA030E52EA033521
:1008C0004FEA013100F088804FEA03334FF0805542
:1008D00045EA131343EA12634FEA022245EA11156F
:1008E00045EA10654FEA00260EF000419D4208BF20
:1008F000964244F1FD0404F5407402D25B084FEACD
:100900003202B61A65EB03055B084FEA32024FF478
:1009100080104FF4002CB6EB020E75EB030E22BFD5
:10092000B61A754640EA0C005B084FEA3202B6EB95
:10093000020E75EB030E22BFB61A754640EA5C0044
:100940005B084FEA3202B6EB020E75EB030E22BFD4
:10095000B61A754640EA9C005B084FEA3202B6EBD5
:10096000020E75EB030E22BFB61A754640EADC0094
:1009700055EA060E18D04FEA051545EA16754FEAF6
:1009800006164FEAC30343EA52734FEAC2025FEA14
:100990001C1CC0D111F4801F0BD141EA00014FF0A3
:1009A00000004FF0004CB6E711F4801F04BF014374
:1009B0000020B4F1FD0C88BFBCF5E06F3FF6AFAE90
:1009C000B5EB030C04BFB6EB020C5FEA500C50F120
:1009D000000041EB045170BD0EF0004E4EEA1131A3
:1009E00014EB5C04C2BFD4EB0C0541EA045170BDAA
:1009F00041F480114FF0000E013C90E645EA060EEE
:100A00008DE60CEA135594EA0C0F08BF95EA0C0F1B
:100A10003FF43BAF94EA0C0F0AD150EA01347FF463
:100A200034AF95EA0C0F7FF425AF104619462CE73A
:100A300095EA0C0F06D152EA03353FF4FDAE10469D
:100A4000194622E750EA410618BF52EA43067FF4EE
:100A5000C5AE50EA41047FF40DAF52EA43057FF47E
:100A6000EBAE12E74FF0FF3C06E000BF4FF0010C89
:100A700002E000BF4FF0010C4DF804CD4FEA410CED
:100A80007FEA6C5C4FEA430C18BF7FEA6C5C1BD0BA
:100A900001B050EA410C0CBF52EA430C91EA030F3B
:100AA00002BF90EA020F0020704710F1000F91EA98
:100AB000030F58BF994208BF90422CBFD8176FEA66
:100AC000E37040F0010070474FEA410C7FEA6C5C34
:100AD00002D150EA013C07D14FEA430C7FEA6C5C3B
:100AE000D6D152EA033CD3D05DF8040B704700BF67
:100AF0008446104662468C461946634600E000BFB5
:100B000001B5FFF7B7FF002848BF10F1000F01BD86
:100B10004DF808EDFFF7F4FF0CBF012000205DF851
:100B200008FB00BF4DF808EDFFF7EAFF34BF0120D6
:100B300000205DF808FB00BF4DF808EDFFF7E0FF6F
:100B400094BF012000205DF808FB00BF4DF808EDC0
:100B5000FFF7CEFF94BF012000205DF808FB00BF27
:100B60004DF808EDFFF7C4FF34BF012000205DF809
:100B700008FB00BF4FEA410C7FEA6C5C02D150EAEF
:100B8000013C0AD14FEA430C7FEA6C5C02D152EA85
:100B9000033C02D14FF0000070474FF00100704756
:100BA0004FEA410212F5001215D211D56FF4787395
:100BB000B3EB625212D94FEAC12343F0004343EA38
:100BC000505311F0004F23FA02F018BF4042704713
:100BD0004FF00000704750EA013005D111F000409D
:100BE00008BF6FF0004070474FF00000704700BF33
:100BF0004A0011D212F5001211D20DD56FF478739C
:100C0000B3EB62520ED44FEAC12343F0004343EAF0
:100C1000505323FA02F070474FF00000704750EA3B
:100C2000013002D14FF0FF3070474FF000007047A5
:100C300080F0004002E000BF81F0004142001FBF91
:100C40005FEA410392EA030F7FEA226C7FEA236C9A
:100C50006AD04FEA1262D2EB1363C1BFD21841408F
:100C600048404140B8BF5B42192B88BF704710F025
:100C7000004F40F4000020F07F4018BF404211F0C8
:100C8000004F41F4000121F07F4118BF494292EA30
:100C9000030F3FD0A2F1010241FA03FC10EB0C005C
:100CA000C3F1200301FA03F100F0004302D54942E9
:100CB00060EB4000B0F5000F13D3B0F1807F06D396
:100CC00040084FEA310102F10102FE2A51D2B1F18E
:100CD000004F40EBC25008BF20F0010040EA030083
:100CE0007047490040EB0000013A28BFB0F5000F03
:100CF000EDD2B0FA80FCACF1080CB2EB0C0200FAB9
:100D00000CF0AABF00EBC25052421843BCBFD04007
:100D10001843704792F0000F81F4000106BF80F481
:100D200000000132013BB5E74FEA41037FEA226C44
:100D300018BF7FEA236C21D092EA030F04D092F00F
:100D4000000F08BF0846704790EA010F1CBF002043
:100D5000704712F07F4F04D1400028BF40F00040A0
:100D6000704712F100723CBF00F50000704700F0C0
:100D7000004343F0FE4040F4000070477FEA2262E7
:100D800016BF08467FEA23630146420206BF5FEAB8
:100D9000412390EA010F40F4800070474FF00003B8
:100DA00004E000BF10F0004348BF40425FEA000C7F
:100DB00008BF704743F0964301464FF000001CE027
:100DC00050EA010208BF70474FF000030AE000BF7D
:100DD00050EA010208BF704711F0004302D54042BB
:100DE00061EB41015FEA010C02BF8446014600202D
:100DF00043F0B64308BFA3F18053A3F50003BCFA48
:100E00008CF2083AA3EBC25310DB01FA02FC6344F4
:100E100000FA02FCC2F12002BCF1004F20FA02F2FB
:100E200043EB020008BF20F00100704702F12002EE
:100E300001FA02FCC2F1200250EA4C0021FA02F24F
:100E400043EB020008BF20EADC7070474FF0FF3C24
:100E500006E000BF4FF0010C02E000BF4FF0010CB4
:100E60004DF804CD4FEA40024FEA41037FEA226C7D
:100E700018BF7FEA236C11D001B052EA530C18BF9F
:100E800090EA010F58BFB2EB030088BFC81738BF04
:100E90006FEAE17018BF40F0010070477FEA226CF2
:100EA00002D15FEA402C05D17FEA236CE4D15FEAEE
:100EB000412CE1D05DF8040B704700BF8446084622
:100EC0006146FFE70FB5FFF7C9FF002848BF10F1E3
:100ED000000F0FBD4DF808EDFFF7F4FF0CBF012028
:100EE00000205DF808FB00BF4DF808EDFFF7EAFFB2
:100EF00034BF012000205DF808FB00BF4DF808ED6D
:100F0000FFF7E0FF94BF012000205DF808FB00BF61
:100F10004DF808EDFFF7D2FF94BF012000205DF8E7
:100F200008FB00BF4DF808EDFFF7C8FF34BF0120F4
:100F300000205DF808FB00BF38B50F4B834200D09E
:100F400038BD0E4D0E4BD3E90023284602F040FD7C
:100F50000C4C0D4BD3E90023204602F039FD284606
:100F600002F058FC204602F055FC284602F0A2FC94
:100F7000204602F09FFCE3E78C030020F8020020EB
:100F800050020020680200204002002008B51B4BE0
:100F90001B78012B14D01A4B1B78162B03D1194B3D
:100FA0001B78162B17D001221549174802F0B4FB05
:100FB000144B1978154A1170114A12781A7008BD2D
:100FC0000122134B1A700D4B002119700C490E4869
:100FD00002F0A2FBECE70D4B1B78162BE3D1074B7D
:100FE00001221A70064900230B604B608B60CB60B6
:100FF0001022054802F090FBDAE700BF4D02002006
:10100000580200204C02002034050020200200205D
:101010008803002072B6FEE700B591B028220021B7
:1010200006A802F01FFE002301930293039304938A
:101030000593012206924FF4803307930A9202220D
:101040000D920E934FF4E0130F9306A801F028F9C8
:1010500080B90F23019302210291002303934FF4DF
:1010600080620492059301A801F058FB20B911B0E9
:101070005DF804FBFFF7CEFFFFF7CCFF0000000098
:101080002DE9F0438BB001F0D1F8FFF7C5FF00F078
:10109000E7F800F03FF900F05FF900F095F900F093
:1010A000C5F900F0A7FA00F0EFFA534C204602F021
:1010B00019FD01225149204602F02EFB504C514BA4
:1010C0000893514B0793A3F5836306934FF00008F1
:1010D000DFF83891CDE9048900264D4FCDE902674C
:1010E00080230093402322464A494B4802F01CFCCF
:1010F0004A4B08934A4B0793A3F61C030693CDE98A
:101100000489CDE902672023009310232246454934
:10111000454802F009FC454C0821204600F054FFE8
:101120000C21204600F050FF23680022DA631A6485
:101130003C213F4800F0B6FF3C213E4800F0B2FFA2
:101140003D4800F03BFC36E03C493D4B1868FFF75A
:1011500007F84FF07C51FFF703F80546014620469B
:10116000FFF76AFD3749FEF7FBFFFFF711FA20A3EF
:10117000D3E90023FFF78EFB334BC3E90001294677
:101180002046FFF75BFD2F49FEF7EAFFFFF700FA65
:1011900017A3D3E90023FFF77DFB2C4BC3E9000124
:1011A000274B1A682A4B1A602A4B1C602A4B0022D4
:1011B0001A7001F059F8284B1B78002BFBD0274CF4
:1011C0001F4A21460D4802F05CFC2468214B196837
:1011D0002046FFF77FFE0028B6D01D4B1968184B3C
:1011E0001868FFF777FE0028DAD1ADE7AFF300808B
:1011F000DCE14F3D5723CA3F340500205802002050
:10120000000C0140000000203C08004000002E407F
:101210000000594038030020F80200202802002076
:1012200040080040A802002068020020640400205A
:101230001C040020D40300208C03002085EB513EC9
:1012400014020020000070424002002050020020E2
:10125000180200201C020020880300204802002001
:101260002DE9F04188B00024049405940694079475
:10127000254B9A6942F010029A619A6902F01002B5
:101280000092009A9A6942F020029A619A6902F0EB
:1012900020020192019A9A6942F004029A619A69C5
:1012A00002F004020292029A9A6942F008029A61DC
:1012B0009B6903F008030393039BDFF850802246E9
:1012C0004FF40051404601F017FC114D2246F02129
:1012D000284601F011FC4FF40053049301270597B1
:1012E00006940226079604A9404601F0F3FAF0237B
:1012F000049305970694079604A9284601F0EAFA94
:1013000008B0BDE8F08100BF0010024000100140AD
:10131000000C014000B583B00E4B5A6942F0010247
:101320005A615B6903F001030193019B002211469E
:101330000E2001F08FFD0E2001F0C4FD00221146A9
:101340000F2001F087FD0F2001F0BCFD03B05DF818
:1013500004FB00BF0010024000B587B000230293D9
:10136000039304930593009301931548154A026073
:101370004FF4E152426083606422C26003614361C2
:10138000836100F04BFC90B94FF48053029302A9A3
:101390000B4800F09DFD68B9002300930193694656
:1013A000074800F0E5FE40B907B05DF804FBFFF721
:1013B00031FEE9E7FFF72EFEEEE7FFF72BFEF3E73E
:1013C0008C030020002C014000B58DB024220021A8
:1013D00003A802F047FC00230193029312484FF048
:1013E00080420260436083604FF6FF72C260036117
:1013F00083610323039301230593099303A900F059
:1014000065FC50B900230193029301A9064800F03E
:10141000AFFE28B90DB05DF804FBFFF7FBFDF1E767
:10142000FFF7F8FDF6E700BFD403002000B58DB04C
:101430002422002103A802F015FC0023019302934B
:101440001148124A0260436083604FF6FF72C26027
:10145000036183610323039301230593099303A984
:1014600000F034FC50B900230193029301A906480F
:1014700000F07EFE28B90DB05DF804FBFFF7CAFD51
:10148000F1E7FFF7C7FDF6E71C0400200004004069
:101490000268124B9A4200D0704700B583B003F542
:1014A00064439A6942F400629A619B6903F40063A1
:1014B0000193019B00220121182001F0CBFC182090
:1014C00001F000FD00220121192001F0C3FC1920C8
:1014D00001F0F8FC03B05DF804FB00BF002C0140F4
:1014E00000B589B00023049305930693079303681E
:1014F000B3F1804F05D01D4A93421DD009B05DF86D
:1015000004FB03F50433DA6942F00102DA61DA69B7
:1015100002F001020092009A9A6942F004029A6174
:101520009B6903F004030193019B0323049304A923
:101530000F4801F0CFF9E1E70E4BDA6942F0020201
:10154000DA61DA6902F002020292029A9A6942F0C2
:1015500004029A619B6903F004030393039BC02375
:10156000049304A9024801F0B5F9C7E7000400405C
:1015700000080140001002400268094B9A4200D066
:10158000704782B003F50233DA6942F00402DA618F
:10159000DB6903F004030193019B02B0704700BFB5
:1015A0000008004000B587B0002302930393049322
:1015B000059302680D4B9A4202D007B05DF804FB18
:1015C00003F502339A6942F008029A619B6903F0BD
:1015D00008030193019B4FF440730293022303938A
:1015E000059302A9024801F075F9E6E700080040FA
:1015F000000C014000B58BB00023089309930193C0
:101600000293039304930593069307931C481D4A82
:1016100002604822426083606422C2600361836189
:1016200000F028FBF8B900230893099308A914488F
:1016300000F09EFDD0B96023019300230293039331
:101640000593082201A90E4800F0CEFB88B90C22B0
:1016500001A90B4800F0C8FB70B90948FFF7A2FFC9
:101660000BB05DF804FBFFF7D5FCDCE7FFF7D2FC1D
:10167000E1E7FFF7CFFCEAE7FFF7CCFCEDE700BFBF
:10168000640400200008004008B50A480A4B0360C3
:101690004FF4E133436000238360C36003610C2295
:1016A00042618361C36101F001FD00B908BDFFF72C
:1016B000B1FCFBE7340500200038014070B586B06E
:1016C000002302930393049305930268314B9A42DB
:1016D00001D006B070BD044603F558439A6942F440
:1016E00080429A619A6902F480420092009A9A6953
:1016F00042F004029A619B6903F004030193019B89
:101700004FF4007302930223039303230593224EA5
:1017100002A9304601F0DEF84FF480630293002501
:101720000395049502A9304601F0D4F81B481C4BE0
:101730000360456085608023C36005614561856104
:10174000C56101F0F5F9F0B9144BA3635C6215486B
:10175000154B036010234360002383608022C26026
:10176000036143618361C36101F0E2F970B90D4B1C
:1017700063635C6200221146252001F06BFB25208B
:1017800001F0A0FBA5E7FFF745FCDDE7FFF742FC12
:10179000EDE700BF0038014000080140AC04002024
:1017A00058000240F004002044000240FEE7FEE73B
:1017B000FEE7FEE7FEE770477047704708B500F0A8
:1017C00047FD08BD08B5024801F090FA08BD00BF0A
:1017D000F004002008B5024801F088FA08BD00BFF7
:1017E000AC04002008B5024800F020F908BD00BF95
:1017F0008C03002008B5024800F018F908BD00BFAE
:101800008C03002008B5024801F00CFE08BD00BFA3
:101810003405002082B00E4B9A6942F001029A61B1
:101820009A6902F001020092009ADA6942F080524D
:10183000DA61DB6903F080530193019B054A536829
:1018400023F0E06343F08073536002B0704700BF41
:10185000001002400000014070B4036A23F001034D
:101860000362036A4668826922F073020C6844EAE4
:10187000020523F002028B6813430D4CA04209D0ED
:101880000B4CA0420DD0466085614A6842630362FA
:1018900070BC704723F00803CA68134323F00403A5
:1018A000EEE726F440764A6932438E691643EAE74A
:1018B000002C014030B4036A23F480730362036A8E
:1018C0004568C26922F073020C68224323F4007356
:1018D0008C6843EA04230F4CA04209D00D4CA0426F
:1018E0000ED04560C2614A68C263036230BC704773
:1018F00023F40063CC6843EA042323F48063EDE718
:1019000025F440554C6945EA04158C6945EA0415EF
:10191000E7E700BF002C014030B4036A23F4805392
:101920000362036A4468C26922F4E6420D6842EA2F
:10193000052223F400538D6843EA0533074DA8427E
:1019400006D04460C2614A680264036230BC7047DA
:1019500024F480444D6944EA8514F2E7002C0140E8
:1019600010B4036A046A24F001040462846924F058
:10197000F00C4CEA021223F00A030B43826103626B
:1019800010BC704710B4046A24F010040462846927
:10199000036A24F4704C4CEA023223F0A00343EAB9
:1019A00001138261036210BC7047836823F07003E7
:1019B0000B4343F0070383607047000090F83D300D
:1019C000DBB2012B27D1022380F83D300268D368B7
:1019D00043F00103D3600368114A934210D0B3F17E
:1019E000804F0DD0A2F59432934209D002F5806267
:1019F000934205D01A6842F001021A600020704735
:101A00009A6802F00702062A07D01A6842F001021B
:101A10001A6000207047012070470020704700BF07
:101A2000002C0140704770477047704710B504465E
:101A300003681A6912F0020F11D0DA6812F0020F6F
:101A40000DD06FF002021A610123037703689B69CE
:101A500013F0030F70D0FFF7E6FF0023237723680E
:101A60001A6912F0040F12D0DA6812F0040F0ED0C7
:101A70006FF004021A610223237723689B6913F431
:101A8000407F5FD02046FFF7CEFF002323772368F7
:101A90001A6912F0080F12D0DA6812F0080F0ED08F
:101AA0006FF008021A61042323772368DB6913F0BF
:101AB000030F4ED02046FFF7B6FF0023237723689D
:101AC0001A6912F0100F12D0DA6812F0100F0ED04F
:101AD0006FF010021A61082323772368DB6913F47F
:101AE000407F3DD02046FFF79EFF002323772368E9
:101AF0001A6912F0010F03D0DA6812F0010F36D123
:101B000023681A6912F0800F03D0DA6812F0800F90
:101B100034D123681A6912F0400F03D0DA6812F04A
:101B2000400F32D123681A6912F0200F03D0DA680F
:101B300012F0200F30D110BDFFF774FF2046FFF7E1
:101B400073FF8AE72046FFF76DFF2046FFF76CFF23
:101B50009BE72046FFF766FF2046FFF765FFACE7EF
:101B60002046FFF75FFF2046FFF75EFFBDE76FF0FF
:101B700001021A612046FFF7DFF9C1E76FF080022A
:101B80001A61204600F02BFBC3E76FF040021A6198
:101B90002046FFF74AFFC5E76FF020021A61204692
:101BA00000F01CFBC7E7000003681B4A90420AD004
:101BB000B0F1804F07D0A2F59432904203D002F5E5
:101BC0008062904203D123F070034A681343124AA3
:101BD00090420AD0B0F1804F07D0A2F594329042E3
:101BE00003D002F58062904203D123F44073CA68A7
:101BF000134323F080034A69134303608B68C36275
:101C00000B688362044B984202D001234361704702
:101C10000B690363F9E700BF002C014040B310B526
:101C2000044690F83D30F3B1022384F83D3021465C
:101C300051F8040BFFF7B8FF012384F8463084F80D
:101C40003E3084F83F3084F8403084F8413084F8E6
:101C5000423084F8433084F8443084F8453084F8C6
:101C60003D30002010BD80F83C30FFF711FCDBE771
:101C70000120704740B310B5044690F83D30F3B1F1
:101C8000022384F83D30214651F8040BFFF78CFF06
:101C9000012384F8463084F83E3084F83F3084F8DD
:101CA000403084F8413084F8423084F8433084F87E
:101CB000443084F8453084F83D30002010BD80F871
:101CC0003C30FFF759FCDBE701207047002857D074
:101CD00070B50D46044690F83D30002B4BD00223E2
:101CE00084F83D302268936823F4804323F007038F
:101CF0009360214651F8040BFFF756FF21688A686C
:101D00008B690E6A2868104323F4407C2CF0030C86
:101D1000AA68AB6942EA032343EA0C0323F47C4339
:101D200023F0FC03EA69D5F80CC04CEA022C4CEA1B
:101D3000030C2A6A13032A6943EA021343EA0C03D9
:101D400026F022066A686D6942EA0512324388600D
:101D500021688B6123681A62012384F8463084F875
:101D60003E3084F83F3084F8423084F8433084F8C1
:101D70003D30002070BD80F83C30FFF7B1FBAEE78E
:101D80000120704730B4036A23F010030362036A32
:101D90004468826922F4E6420D6842EA052223F093
:101DA00020038D6843EA05130E4DA84209D00D4D5E
:101DB000A8420ED0446082614A688263036230BCEC
:101DC000704723F08003CD6843EA051323F04003F6
:101DD000EDE724F440644D6944EA85048D6944EAE2
:101DE0008504E7E7002C014038B590F83C30012B22
:101DF00060D004460D46012380F83C300C2A1AD8E6
:101E0000DFE802F0071919191D19191931191919E3
:101E100044000068FFF720FD2268936943F008033F
:101E200093612268936923F00403936122689369A4
:101E300029690B439361002084F83C0038BD006899
:101E4000FFF7A0FF2268936943F40063936122685F
:101E5000936923F48063936122689369296943EA53
:101E600001239361E7E70068FFF724FD2268D36947
:101E700043F00803D3612268D36923F00403D361DC
:101E80002268D36929690B43D361D4E70068FFF75F
:101E900043FD2268D36943F40063D3612268D369A8
:101EA00023F48063D3612268D369296943EA01235B
:101EB000D361C0E70220C1E710B4846824F47F4CEA
:101EC00042EA03220A4342EA0C02826010BC7047D5
:101ED00090F83C30012B66D010B50446012380F801
:101EE0003C30022380F83D300268936823F47F433E
:101EF00023F0770393600B68602B40D022D8402BEF
:101F000047D00BD9502B0ED1CA6849680068FFF73B
:101F100027FD50212068FFF748FD04E0202B0CD05E
:101F200008D9302B09D0012384F83D30002084F8F3
:101F30003C0010BD0BB1102BF5D119462068FFF7FE
:101F400034FDF0E7702B0ED0B3F5005FEBD1CB681A
:101F50004A6889680068FFF7AFFF2268936843F416
:101F600080439360DFE7CB684A6889680068FFF7C1
:101F7000A3FF2268936843F077039360D3E7CA68AE
:101F800049680068FFF7FEFC60212068FFF70DFD3F
:101F9000C9E7CA6849680068FFF7E2FC4021206889
:101FA000FFF703FDBFE70220704701F01F01012387
:101FB00003FA01FC036A23EA0C030362036A02FAD0
:101FC00001F10B430362704710B50446084651BB4C
:101FD00094F83E30DBB2013B18BF0123002B5BD1EC
:101FE000002839D1022384F83E30012201462068BE
:101FF000FFF7DBFF23682A4A93423DD02368284A33
:1020000093423ED0B3F1804F3BD0A2F5943293423D
:1020100037D002F58062934233D01A6842F0010251
:102020001A60002039E0042908D008290DD094F85E
:102030004130DBB2013B18BF0123CFE794F83F30BA
:10204000DBB2013B18BF0123C8E794F84030DBB294
:10205000013B18BF0123C1E7042805D0082807D099
:10206000022384F84130C0E7022384F83F30BCE704
:10207000022384F84030B8E75A6C42F400425A64B4
:10208000BCE79A6802F00702062A07D01A6842F0F5
:1020900001021A60002000E0012010BD0020FCE7D2
:1020A000002C014038B5044690F83E00C0B294F8C8
:1020B0003F3094F84220D2B294F843C00D46B1B9F3
:1020C000012849D1012A48D1022384F83E3084F8FE
:1020D00042307DB3042D39D0012200212068FFF762
:1020E00064FF012204212068FFF75FFF27E0DBB2D5
:1020F0005FFA8CFC042912D0012833D1012B2CD19A
:10210000012A31D1BCF1010F30D1022384F83E30D5
:1021100084F83F3084F8423084F84330D9E7012B0B
:102120001CD1BCF1010F1BD1022384F83F3084F88D
:102130004330CEE7012200212068FFF736FF2268F6
:10214000136843F001031360002006E0012204211C
:102150002068FFF72AFFF2E7012038BD0120FCE7E5
:102160001846FAE70120F8E71846F6E71046F4E7C4
:1021700090F83C30012B2CD010B4012380F83C3077
:10218000022380F83D3003685A689C6822F0700C86
:102190000A6842EA0C025A6003680F4A93420AD066
:1021A000B3F1804F07D0A2F59432934203D002F5E9
:1021B0008062934204D124F080044A6814439C60F6
:1021C000012380F83D30002380F83C30184610BCD5
:1021D00070470220704700BF002C014070477047D5
:1021E00010B504460E4B18784FF47A73B3FBF0F336
:1021F0000C4A1068B0FBF3F000F072FE68B90F2CC7
:1022000001D901200AE0002221464FF0FF3000F002
:1022100021FE054B1C60002000E0012010BD00BF26
:1022200018000020200000201C00002008B5074AEC
:10223000136843F010031360032000F0F9FD002041
:10224000FFF7CEFFFFF7E6FA002008BD00200240AE
:10225000034A1168034B1B780B441360704700BF9F
:102260007805002018000020014B1868704700BF57
:102270007805002082B0084B1B68084AA2FB0323A4
:102280005B0A00FB03F3019300BF019B5A1E0192FE
:10229000002BF9D102B0704720000020D34D62100E
:1022A000002800F0F18170B582B00446036813F095
:1022B000010F2CD0994B5B6803F00C03042B1DD04D
:1022C000964B5B6803F00C03082B12D06368B3F5E0
:1022D000803F41D0002B55D103F1804303F50433F7
:1022E0001A6822F480321A601A6822F480221A6076
:1022F00037E08A4B5B6813F4803FE7D0874B1B685D
:1023000013F4003F03D06368002B00F0BF81236803
:1023100013F0020F75D0814B5B6813F00C0F5FD088
:102320007E4B5B6803F00C03082B54D02369002B11
:1023300000F08A807A4B01221A60FFF795FF05466C
:10234000764B1B6813F0020F75D1FFF78DFF401B12
:102350000228F5D903209EE1704A136843F48033C4
:102360001360636843B3FFF77FFF05466B4B1B6841
:1023700013F4003FCBD1FFF777FF401B6428F5D95A
:10238000032088E1B3F5A02F09D0644B1A6822F42A
:1023900080321A601A6822F480221A60E1E703F1A1
:1023A0008043A3F53C331A6842F480221A601A680D
:1023B00042F480321A60D4E7FFF756FF0546574BC8
:1023C0001B6813F4003FA2D0FFF74EFF401B6428A8
:1023D000F5D903205FE1514B5B6813F4803FA5D131
:1023E0004E4B1B6813F0020F03D02369012B40F002
:1023F0004F814A4A136823F0F803616943EAC10335
:102400001360236813F0080F33D0A369002B5CD04E
:10241000434B0122C3F88024FFF726FF05463F4BBC
:102420005B6A13F0020F21D1FFF71EFF401B022849
:10243000F5D903202FE1394A136823F0F8036169C5
:1024400043EAC1031360DCE7354B00221A60FFF753
:102450000BFF0546314B1B6813F0020FD1D0FFF77D
:1024600003FF401B0228F5D9032014E10120FFF7E8
:1024700001FF236813F0040F00F09680274BDB69FF
:1024800013F0805F34D1254BDA6942F08052DA6173
:10249000DB6903F080530193019B0125214B1B68ED
:1024A00013F4807F26D0E368012B3DD0002B53D15D
:1024B00003F1804303F504331A6A22F001021A6221
:1024C0001A6A22F004021A6233E0154B0022C3F8A4
:1024D0008024FFF7C9FE0546104B5B6A13F0020F1C
:1024E000C7D0FFF7C1FE401B0228F5D90320D2E078
:1024F0000025D3E70B4A136843F480731360FFF79A
:10250000B3FE0646074B1B6813F4807FCBD1FFF761
:10251000ABFE801B6428F5D90320BCE0001002400C
:1025200000004242007000405F4A136A43F001031A
:102530001362E36833B3FFF797FE06465A4B1B6AF4
:1025400013F0020F2FD1FFF78FFE801B41F288336B
:102550009842F3D903209EE0052B09D0524B1A6A0A
:1025600022F001021A621A6A22F004021A62E0E7FB
:102570004D4B1A6A42F004021A621A6A42F00102D2
:102580001A62D6E7FFF770FE0646474B1B6A13F048
:10259000020F08D0FFF768FE801B41F28833984293
:1025A000F3D9032077E0E5B9E369002B72D03E4A06
:1025B000526802F00C02082A56D0022B17D03B4B6F
:1025C00000221A66FFF750FE0446374B1B6813F0D3
:1025D000007F47D0FFF748FE001B0228F5D90320F3
:1025E00059E0314AD36923F08053D361DCE72F4BA4
:1025F00000221A66FFF738FE05462B4B1B6813F0C6
:10260000007F06D0FFF730FE401B0228F5D90320DB
:1026100041E0236AB3F5803F1AD023494B6823F485
:102620007413226A606A024313434B601F4B0122FA
:102630001A66FFF719FE04461B4B1B6813F0007F58
:102640000ED1FFF711FE001B0228F5D9032022E06E
:10265000154A536823F40033A1680B435360DCE749
:10266000002018E0002016E0012B16D00E4B5B680E
:1026700003F48031226A914211D103F47013626A2B
:1026800093420ED1002006E001207047012002E0B5
:10269000012000E0002002B070BD0120FBE7012016
:1026A000F9E70120F7E700BF0010024000004242B6
:1026B00086B0164B0FCB0DF1180C0CE90F0040F251
:1026C0000123ADF80430124B5B6803F00C02082ABA
:1026D00002D0104806B07047C3F38342624412F838
:1026E000100C13F4803F0CD0094B5B68C3F34043DC
:1026F000634413F8143C074A02FB00F0B0FBF3F00C
:10270000E8E7054B03FB00F0E4E700BF886800083A
:102710000010024000127A0000093D00002800F07D
:10272000A08070B50D460446524B1B6803F00703AA
:102730008B420BD24F4A136823F007030B431360FD
:10274000136803F007038B4240F08D80236813F079
:10275000020F17D013F0040F04D0474A536843F414
:10276000E0635360236813F0080F04D0424A5368B3
:1027700043F460535360404A536823F0F003A16868
:102780000B435360236813F0010F31D06368012BB2
:1027900020D0022B25D0384A126812F0020F64D0E4
:1027A00035494A6822F0030213434B60FFF75CFD92
:1027B0000646314B5B6803F00C036268B3EB820F93
:1027C00016D0FFF751FD801B41F288339842F0D9B3
:1027D000032045E0284A126812F4003FE0D10120AE
:1027E0003EE0254A126812F0007FD9D1012037E07F
:1027F000204B1B6803F00703AB420AD91D4A13683C
:1028000023F007032B431360136803F00703AB4265
:102810002DD1236813F0040F06D0174A536823F410
:10282000E063E1680B435360236813F0080F07D09F
:10283000114A536823F46053216943EAC10353608A
:10284000FFF736FF0C4B5B68C3F303130B4AD35CF3
:10285000D8400B4B18600B4B1868FFF7C1FC0020E9
:1028600070BD012070470120FAE70120F8E7012040
:10287000F6E700BF00200240001002409C680008FC
:10288000200000201C000020014B1868704700BF8A
:102890002000002008B5FFF7F7FF044B5B68C3F387
:1028A0000223034AD35CD84008BD00BF0010024099
:1028B000AC68000808B5FFF7E7FF044B5B68C3F39B
:1028C000C223034AD35CD84008BD00BF00100240B9
:1028D000AC68000870B582B00024A446A6E0804D24
:1028E000AA4210D007D97F4DAA420CD005F58035F9
:1028F000AA4208D013E0A5F58015AA4203D005F539
:102900007025AA4207D18A68002A58D0012A51D0DE
:102910004361082403E0A5F58015AA42F3D0BEF177
:10292000FF0F4ED80646BEF1FF0F4CD84FEA8C027F
:1029300033680F25954023EA050304FA02F2134396
:1029400033604B6813F0805F6ED0674B9A6942F03A
:1029500001029A619B6903F001030193019B4FEA15
:102960009C02951C614B53F825600CF003039D00FD
:102970000F23AB4026EA03065D4B984229D003F5AE
:102980008063984200F08E8003F58063984200F0E7
:102990008B8003F58063984219D004231AE0CC6839
:1029A000BDE7CC680434BAE7CC680834B7E7CC6834
:1029B0000C34B4E703610824B1E70024AFE7042432
:1029C000ADE7061DAFE7ACF108029200B0E70323C4
:1029D00000E00023AB4033430232444D45F822303F
:1029E0004B6813F4803F61D0424A136843EA0E03F8
:1029F00013604B6813F4003F5ED03E4A536843EACD
:102A00000E0353604B6813F4801F5BD0394A936800
:102A100043EA0E0393604B6813F4001F58D0354A05
:102A2000D36843EA0E03D3600CF1010C0A6832FA52
:102A30000CF353D0012303FA0CF302EA030E33EA3A
:102A40000202F1D14A68122A3FF649AF122A3FF634
:102A500066AF01A555F822F0072900089F29000854
:102A6000A9290008BB2900081F2900081F29000800
:102A70001F2900081F2900081F2900081F29000816
:102A80001F2900081F2900081F2900081F29000806
:102A90001F2900081F2900081F290008A329000872
:102AA000AF290008012395E7022393E7114A136831
:102AB00023EA0E0313609CE70E4A536823EA0E03D1
:102AC00053609FE70B4A936823EA0E039360A2E7E3
:102AD000084AD36823EA0E03D360A5E702B070BDAD
:102AE00000002210000031100010024000000140E0
:102AF00000080140000401400AB101617047090467
:102B00000161704730B40124056CAC40C56B6C604A
:102B1000046863604368102B05D0036899600368FC
:102B2000DA6030BC704703689A600368D960F8E7E0
:102B300060B310B402460168154B0B441548A0FB66
:102B400003031B099B001364134BD363022382F816
:102B50002130086820F47F5020F0300053689468DA
:102B60002343D4682343146923435469234394695A
:102B70002343D469234303430B6000209063012364
:102B800082F8213082F8200010BC70470120704785
:102B9000F8FFFDBFCDCCCCCC0000024038B50446D8
:102BA00090F82000012831D0012084F8200094F80A
:102BB0002100012804D0002384F82030022038BDF1
:102BC000022084F821000020A0632568286820F0F6
:102BD000010028602046FFF795FFE36A5BB1226899
:102BE000136843F00E0313602268136843F0010377
:102BF00013600020E3E72268136823F004031360E6
:102C00002268136843F00A031360EDE70220D6E759
:102C100090F82130022B06D004238363002380F830
:102C20002030012070470268136823F00E03136000
:102C30000268136823F001031360036CC16B012267
:102C400002FA03F34B6080F82120002380F8203043
:102C50001846704708B590F82130022B03D00423A2
:102C60008363012008BD0268136823F00E0313601C
:102C70000268136823F0010313600368194A934242
:102C800014D0143293421FD0143293421ED0143207
:102C900093421ED0143293421ED01432934202D07B
:102CA0004FF0807203E04FF4801200E001220E4BDF
:102CB0005A60012380F82130002380F82030436BD4
:102CC0006BB198470020CDE71022F0E74FF48072F7
:102CD000EDE74FF48052EAE74FF48032E7E7002057
:102CE000C0E700BF080002400000024038B5C36BD7
:102CF0001A6804682568016C04238B40134235D0A0
:102D000015F0040F32D0236813F0200F03D123688D
:102D100023F0040323600368434A934214D014321F
:102D2000934218D01432934217D01432934217D0E2
:102D30001432934217D01432934202D04FF0806283
:102D400003E04FF4800200E00422384B5A60C36A6B
:102D500003B1984738BD4022F7E74FF48062F4E7AB
:102D60004FF48042F1E74FF48022EEE702238B40DC
:102D700013423CD015F0020F39D0236813F0200F16
:102D800006D1236823F00A032360012380F8213051
:102D90000368254A934214D0143293421CD0143253
:102DA00093421BD0143293421BD0143293421BD057
:102DB0001432934202D04FF0007203E04FF400123D
:102DC00000E00222194B5A60002380F82030836A09
:102DD000002BBFD09847BDE72022F3E74FF40072E5
:102DE000F0E74FF40052EDE74FF40032EAE7082332
:102DF00003FA01F11142ADD015F0080FAAD02368F3
:102E000023F00E032360026CC16B012303FA02F26C
:102E10004A60836380F82130002380F82030036B00
:102E2000002B97D0984795E7080002400000024029
:102E3000074AD36823F4E0631B041B0C000200F470
:102E4000E060034343F0BF6343F40033D360704753
:102E500000ED00E000B5194BDB68C3F30223C3F1BA
:102E6000070CBCF1040F28BF4FF0040C03F1040E53
:102E7000BEF1060F18D9033B4FF0FF3E0EFA0CFCD3
:102E800021EA0C0199400EFA03F322EA03031943E5
:102E900000280BDB0901C9B200F1604000F5614078
:102EA00080F800135DF804FB0023E5E700F00F0055
:102EB0000901C9B2024B1954F4E700BF00ED00E06C
:102EC00014ED00E0002807DB00F01F024009012399
:102ED0009340024A42F82030704700BF00E100E012
:102EE0000138B0F1807F0BD24FF0E0235861054AE2
:102EF000F02182F823100020986107221A617047A0
:102F00000120704700ED00E00268D36823F0C003A1
:102F1000D360202380F83D3070470268D36823F4E3
:102F20009073D3600268536923F001035361036B0C
:102F3000012B05D0202380F83E3000230363704727
:102F40000268D36823F01003D360F3E790F83D30B4
:102F5000DBB2212B01D0022070478368B3F5805F7C
:102F600017D0036A5A1C02621A7803685A60C38C2D
:102F70009BB2013B9BB2C3844BB90268D36823F078
:102F80008003D3600268D36843F04003D36000201D
:102F900070470369002BE4D1036A1B880268C3F3FE
:102FA00008035360036A02330362E0E710B5044686
:102FB0000268136923F44053C1680B4313618368AB
:102FC0000269134342691A430168CB6823F4B05382
:102FD00023F00C031343CB600268536923F440735E
:102FE00081690B4353610268134B9A4220D0FFF76B
:102FF00051FC024602EB820202EB820263689B00F4
:10300000B2FBF3F20D48A0FB02314909642303FB34
:1030100011231B013233A0FB03235B0903F0F002F1
:1030200002EB011203F00F03216813448B6010BD03
:10303000FFF740FC0246DDE7003801401F85EB51F9
:103040002DE9F84305460F4616469946DDF82080DF
:103050002C68246837EA04030CBF4FF0010C4FF0D2
:10306000000CB4451FD1B8F1FF3FF1D0B8F1000F0B
:1030700005D0FFF7F9F8A0EB09004045E8D92A6828
:10308000D36823F4D073D3602A68536923F0010313
:103090005361202385F83D3085F83E30002385F8C4
:1030A0003C30032000E00020BDE8F88358B310B5A1
:1030B000044690F83D300BB3242384F83D30226859
:1030C000D36823F40053D3602046FFF76FFF2268D4
:1030D000136923F4904313612268536923F02A0390
:1030E00053612268D36843F40053D3600020206406
:1030F000202384F83D3084F83E3010BD80F83C3009
:10310000FEF7DCFAD8E7012070472DE9F04182B0E4
:103110001E4690F83D30DBB2202B54D104460D46BC
:103120009046002953D0002A53D090F83C30012B10
:1031300051D0012380F83C3000230364212380F820
:103140003D30FFF791F80746A4F82480A4F82680C4
:10315000A368B3F5805F05D04FF00008002384F822
:103160003C3012E0236913B14FF00008F6E7A8469F
:103170000025F3E738F8023B2268C3F308035360E5
:10318000E28C92B2013A92B2E284E38C9BB273B1C8
:1031900000963B46002280212046FFF751FFE0B910
:1031A000002DE7D015F8012B23685A60E8E7009658
:1031B0003B46002240212046FFF742FF78B92023FA
:1031C00084F83D3000E0022002B0BDE8F08101202B
:1031D000FAE70120F8E70220F6E70320F4E70320EE
:1031E000F2E72DE9F04182B01E4690F83E30DBB2A6
:1031F000202B5CD104460D46904600295BD0002A66
:103200005BD090F83C30012B59D0012380F83C3042
:1032100000230364222280F83E200363FFF724F892
:103220000746A4F82C80A4F82E80A368B3F5805F2D
:1032300005D04FF00008002384F83C3017E02369E4
:1032400013B14FF00008F6E7A8460025F3E723681E
:103250005B68C3F3080328F8023B03E023685B685C
:103260002B700135E28D92B2013A92B2E285E38D84
:103270009BB2BBB100963B46002220212046FFF7BF
:10328000DFFEF0B9002DE2D0A368B3F5805FE5D092
:1032900013B92369002BE1D023685B6803F07F0337
:1032A0002B70DEE7202384F83E30002000E002206F
:1032B00002B0BDE8F0810120FAE70120F8E7022022
:1032C000F6E70320F4E7704708B50168CA6822F002
:1032D0004002CA60202280F83D20FFF7F4FF002062
:1032E00008BD7047704710B5446A23685A6994F85E
:1032F0003D30DBB2212B10D023685A6902F0400226
:1033000094F83E30DBB2222B11D0236C43F0100333
:1033100023642046FFF7E6FF10BD02F08002002A7A
:10332000EAD00023E3842046FFF7EEFDE4E7002A1D
:10333000EBD00023E3852046FFF7EFFDE5E708B576
:10334000406A0023C385C384FFF7CCFF08BD7047E4
:1033500090F83E30DBB2222B60D18368B3F5805FFA
:1033600046D0826AB3F5805F04D0002B4DD103694B
:10337000002B4AD103685B681370836A0133836250
:10338000C38D9BB2013B9BB2C385002B48D100B5D6
:1033900083B00268D36823F02003D3600268D36847
:1033A00023F48073D3600268536923F001035361EF
:1033B000202380F83E30036B012B2CD100230363C4
:1033C0000268D36823F01003D36003681A6812F010
:1033D000100F06D0002201921A6801925B680193D7
:1033E000019B818DFFF7B3FF002003B05DF804FB64
:1033F0000269002AB5D1826A03685B68C3F30803D7
:103400001380836A02338362BAE703685B6803F060
:103410007F031370B1E7FDF7B9FDE5E702207047C0
:103420000020704730B583B0044602681368D06846
:10343000516913F00F0505D113F0200F02D010F0E1
:10344000200F19D12DB111F0010119D110F4907F85
:1034500016D1216B012975D013F0800F03D010F025
:10346000800F40F0D78013F0400F03D010F0400FD2
:1034700040F0D48003B030BD2046FFF769FFF9E784
:1034800013F0010F06D010F4807F03D0226C42F0BD
:103490000102226413F0040F04D019B1226C42F02F
:1034A0000202226413F0020F04D019B1226C42F020
:1034B0000402226413F0080F07D010F0200F00D18F
:1034C00019B1226C42F008022264226C002AD1D089
:1034D00013F0200F02D010F0200F21D123685B6978
:1034E00003F04003226C12F0080F00D123B32046F2
:1034F000FFF713FD23685A6912F0400F18D05A697C
:1035000022F040025A61A36B73B1464A5A63A06B22
:10351000FFF7A0FB0028ADD0A06B436B9847A9E74D
:103520002046FFF715FFD9E72046FFF7DBFEA1E7AE
:103530002046FFF7D7FE9DE72046FFF7D3FE002386
:10354000236497E713F0100F86D010F0100F83D08C
:10355000002301931368019353680193019B5369FE
:1035600013F0400F32D0A16B0B685B689BB2002B4D
:1035700080D0A08D98427FF67DAFE3858B69202BAC
:1035800008D1A18DE38D9BB2C91A89B22046FFF7FD
:10359000DEFE6FE7D36823F48073D360226853693B
:1035A00023F0010353612268536923F04003536100
:1035B000202384F83E30002323632268D36823F05D
:1035C0001003D360A06BFFF723FBDAE7A18DE38D37
:1035D0009BB2C91A89B2E38D9BB2002B3FF44AAF6C
:1035E00000293FF447AFD36823F49073D360226877
:1035F000536923F001035361202384F83E300023F4
:1036000023632268D36823F01003D3602046FFF7BA
:103610009EFE2FE72046FFF799FC2BE72046FFF799
:1036200053FE27E73F33000808B5406A036B012BC0
:1036300002D0FFF756FE08BD818D4908FFF787FECF
:10364000F9E708B50346406A1B681B6813F0200FB2
:1036500016D10023C3850268D36823F48073D36036
:103660000268536923F0010353610268536923F030
:1036700040035361202380F83E30036B012B05D0BB
:10368000036B012B08D0FDF781FC08BD0268D368ED
:1036900023F01003D360F3E7818DFFF758FEF4E7C2
:1036A00030B583B0044613468162828500250564E7
:1036B000222280F83E20826B14489062A26B14484C
:1036C000D062A26B13481063A26B556320680A4650
:1036D000011DA06BFFF762FA019523681A68019239
:1036E0005A680192019A84F83C50DA6842F4807278
:1036F000DA602268536943F0010353612268536919
:1037000043F040035361284603B030BD4336000800
:1037100029360008E732000808B590F83E30DBB2E1
:10372000202B0DD171B17AB190F83C30012B0DD026
:10373000012380F83C3000230363FFF7B1FF00E072
:10374000022008BD0120FCE70120FAE70220F8E78B
:10375000D0B50446D0E904670846FDF71FFB0C49C5
:10376000FCF7FEFCFCF714FF02460B4630463946D8
:10377000FDF790F804A3D3E90023FCF761FFC4E947
:103780000001D0BDAFF3008000000000004CED4010
:103790000000484470B5064614461D46002200232A
:1037A00020462946FDF7D2F928B1012386F82830B2
:1037B000C6E9024570BD002386F82830224605F18F
:1037C0000043C6E90223F5E710B5034600F10801FE
:1037D000D1E900011C6BD3E90023FCF779FDC4E9B2
:1037E000060110BDF8B506460F4614461D46FDF706
:1037F000B7F948B9DDE9062330463946FDF792F9B5
:1038000028B1DDE9060101E020462946F8BD304631
:103810003946FBE72DE9F04F87B00546046BD4E944
:1038200010ABD4E91289D4E90623D4E90001FCF7EE
:1038300007FFCDE90401D4E90C67D4E90423CDE9FD
:103840000223D4E90601D4E90823FCF743FD02462C
:103850000B46DDE90201FCF7F3FE02460B4630465B
:103860003946FCF737FD06460F4602460B46DDE9B2
:103870000401FCF72FFDCDE9008952465B46FFF7B6
:10388000B1FF814688460022002348464146FDF7A5
:1038900049F960B94A464346C5E90823D4E90623F5
:1038A000C4E90823C4E90C6707B0BDE8F08F08F14C
:1038B0000048EFE710B5044690F82830012B19D0E6
:1038C0000122418D406BFFF717F90022A18D606B3B
:1038D000FFF712F900220023D4E90201FDF718F9DD
:1038E00098B9D4E9080102F057FFA46BFDF780F9FD
:1038F000206010BD0022418D406BFFF7FDF80122D2
:10390000A18D606BFFF7F8F8E4E7A36B00221A6063
:10391000EFE7C0E90023DDE90023C0E90423DDE986
:103920000223C0E9022370472DE9F04184B0044628
:103930000D4690461F46129E50220021284600F058
:1039400091F92563C4F834806785BDF82830A385D4
:10395000012384F82830109BE363119BA363DDE906
:103960000C23C5E91023DDE90E23C5E91223D6E9AE
:103970000423CDE90223D6E90223CDE90023D6E9C9
:1039800000232846FFF7C5FF04B0BDE8F081000022
:103990002DE9F84306460F46DDE9088940464946C9
:1039A000FCF74EFE04460D4642464B4600200749B2
:1039B000FCF78EFC32463B46FCF742FE02460B46C5
:1039C00020462946FCF786FCBDE8F8830000F03F5E
:1039D0002DE9F04F83B0044690469946C36BD3F867
:1039E00000B0FEF741FC0546A369B0EB030A01D124
:1039F0004FF00A0AE06983452CD9ABEB0000FCF7D5
:103A0000A5FD06460F460022164B30463946FDF707
:103A1000A7F808B1D4E904670022134BCDE90023CD
:103A2000D4E9042330463946FFF7B2FFC4E9040164
:103A300051462046FFF78CFE42464B462046FFF794
:103A4000A9FE2046FFF7C0FEA561C4F81CB003B074
:103A5000BDE8F08FA0EB0B00FCF778FD06460F46A3
:103A6000D1E700BF000049400000E03F01460223CB
:103A7000002003E0CA5C10440133DBB2092BF9D902
:103A800070472DE9F0410F461646827AC57A2D041B
:103A900045EA0265027B45EA0225427B15438278AE
:103AA000C478240444EA0264027944EA0224427994
:103AB0001443827990F807C04FEA0C4C4CEA026C30
:103AC000027A4CEA022C90F809804CEA0808FFF7C9
:103AD000CDFF854201D0BDE8F0813C60C6F8008092
:103AE000F9E7000008B5054B1860054B186800237E
:103AF00002221946806800F01DFD08BD7C050020EB
:103B000024000020022801D80120704708B500F0E9
:103B10007FF809230360002008BD000010B50138BC
:103B200001280AD814464FF0FF3392B207480068C4
:103B3000FFF7EBFA40B9204610BD00F069F8092301
:103B400003604FF0FF30F7E70520F5E77C05002024
:103B5000022801D80020704708B500F059F8092361
:103B600003604FF0FF3008BD08B500F051F809239D
:103B700003604FF0FF3008BD08B548B94FF0FF3380
:103B8000012208480068FFF72CFB40B9012008BD5E
:103B900000F03EF8092303604FF0FF30F7E70520FF
:103BA000F5E700BF7C05002008B5022804D84FF4D3
:103BB00000534B60002008BD00F02AF80923036081
:103BC000F8E770470C480D490D4A002302E0D4582D
:103BD000C4500433C4188C42F9D30A4A0A4C002357
:103BE00001E013600432A242FBD3FFF7EAFF00F0CA
:103BF00015F8FDF745FA704700000020F401002099
:103C0000DC6C0008F801002094050020FEE70000AD
:103C1000014B1868704700BF2400002070B50026D3
:103C20000C4D0D4C641BA410A64209D102F020FEDD
:103C300000260A4D0A4C641BA410A64205D170BD93
:103C400055F8043B98470136EEE755F8043B984792
:103C50000136F2E7D46C0008D46C0008D46C00087C
:103C6000D86C000803460244934200D1704703F821
:103C7000011BF9E7002B2DE9F0471F46BBBF03F1FD
:103C800000431F4600232D2388B01446129A109D2E
:103C90001370149BDDF84CA023F02008B8F1460FF8
:103CA00005D0B8F1450F00D10135022300E0032310
:103CB00007AA049206AACDE902A2CDE90035224660
:103CC0003B4600F089FDB8F1470F064602D1119B33
:103CD000DB0722D5B8F1460F06EB050910D1337882
:103CE000302B0AD10022002320463946FCF710FF72
:103CF00018B9C5F10105CAF80050DAF80030994446
:103D00000022002320463946FCF702FF08B1CDF817
:103D10001C903022079B4B4507D33046079B159AD2
:103D20009B1B136008B0BDE8F087591C07911A70FF
:103D3000F0E70346F7B5002903F8022BB6BF2D22A2
:103D40002B224942092942702BDD0DF10704A446BC
:103D50000A2791FBF7F60A46A64607FB1615632AC3
:103D600005F13005314604F1FF340EF8015CF0DC5A
:103D70003031AEF1020504F8011C2946441C6145AE
:103D80000AD30DF10902A2EB0E02654588BF00229D
:103D90001344181A03B0F0BD11F8012B04F8012FD9
:103DA000EDE7302330318370C170031DF1E700006F
:103DB0002DE9F04F91B00C46DDF8688016461F469D
:103DC000054601F0ABFC036818460993FCF7C0F9FF
:103DD00000230E93D8F800300A90073323F007032E
:103DE00003F1080294F81890D4F800B0C8F8002045
:103DF000D3E90023C4E91223D4E9128A2AF000434C
:103E00000B934FF0FF3240469C4B0B99FCF7B2FEF0
:103E100070BB4FF0FF324046984B0B99FCF78CFE7D
:103E200030BB0022002340465146FCF77BFE10B118
:103E30002D2384F84330924B9248B9F1470F94BF39
:103E40009846804603234FF0000A23612BF00403B9
:103E5000236033462146284600970FAA00F0D4F984
:103E6000013040F090804FF0FF3011B0BDE8F08F8E
:103E70004246534640465146FCF77CFE48B1BAF1F3
:103E8000000FB8BF2D238048B8BF84F843307F4B64
:103E9000D3E7636809F0DF015A1C42D1062363604F
:103EA000002206920EAACDE904920DAA4BF480637B
:103EB00003920DF13302CDE901322360636842467B
:103EC0000093284653460B91FFF7D4FE0B9980468A
:103ED00047290D9908D1C81C02DB6368994240DD6F
:103EE000A9F102095FFA89F9B9F1650F1FD84A46AD
:103EF000013904F150000D91FFF71BFF0E9A824625
:103F00001318012A236102DC2268D20701D501338C
:103F100023619DF83330002B9BD02D2384F8433050
:103F200097E74729BCD1002BBAD10123B7E7B9F1F4
:103F3000660F18D1002963680BDD216113B922686F
:103F4000D00702D501330B4423614FF0000AA1656D
:103F5000DFE713B92268D20701D50233F4E7012362
:103F6000F2E74FF067090E9B994205DB2368216158
:103F7000D807EAD54B1CE7E70029CCBF0122C1F1E5
:103F800002021344E0E723685A0507D42369424636
:103F900031462846B84701302BD164E7B9F1650FA7
:103FA00040F2DD80D4E9120100220023FCF7B0FDCD
:103FB000002833D0012331462846354AB84701301E
:103FC0003FF451AFDDE90D239A4202DB2368D807A5
:103FD0000FD5DDE9092331462846B84701303FF4C3
:103FE00042AF4FF0000804F11A090E9B013B434514
:103FF00009DC23689B0700F10281E0680F9B98426F
:10400000B8BF184631E701234A4631462846B8472B
:1040100001303FF428AF08F10108E6E70D9B002BC3
:1040200038DC012331462846194AB84701303FF4AD
:104030001AAFDDE90D23134302D12368D907D8D580
:10404000DDE9092331462846B84701303FF40BAF7C
:104050004FF0000904F11A0A0D9B5B424B4501DC4D
:104060000E9B94E70123524631462846B84701305B
:104070003FF4F9AE09F10109EEE700BFFFFFEF7F62
:10408000B8680008BC680008C4680008C068000878
:10409000C86800080E9AA36D9A42A8BF1A46002A63
:1040A000914637DC4FF0000B29EAE97904F11A0256
:1040B000D4F858A0AAEB09035B4533DCDDE90D23F6
:1040C0009A423BDB2368DA0738D40E9B0D99A3EBA9
:1040D0000A02A3EB01099145A8BF9146B9F1000F6F
:1040E00034DC4FF0000829EAE97904F11A0ADDE925
:1040F0000D239B1AA3EB090343457FF77AAF0123F6
:10410000524631462846B84701303FF4ACAE08F17C
:104110000108ECE71346314642462846B8470130CD
:10412000C0D1A0E60123314628460B92B8470130A2
:104130003FF499AE0B9A0BF1010BB9E73146DDE97B
:1041400009232846B8470130BFD18CE64B4631469B
:10415000284608EB0A02B8470130C2D183E60E9A1E
:10416000012A01DCDB0737D50123424631462846C8
:10417000B84701303FF477AEDDE9092331462846E0
:10418000B84701303FF46FAED4E91201002200239A
:10419000FCF7BEFCD8B90E9B08F10102013B314689
:1041A0002846B84701300ED15DE601234A46314624
:1041B0002846B84701303FF456AE08F101080E9B7F
:1041C000013B4345F1DC534604F15002E0E64FF079
:1041D000000804F11A09F2E701234246DFE7012350
:1041E0004A4631462846B84701303FF43CAE08F114
:1041F0000108E3680F995B1A4345F0DCFDE64FF0D8
:10420000000804F11909F4E72DE9F047164699462C
:104210008A680B6907469342B8BF1346336091F82A
:1042200043200C46DDF820800AB101333360236857
:10423000990642BF336802333360256815F00605DE
:1042400006D104F1190AE36832689B1AAB4228DCF4
:1042500094F84320131E226818BF012392062DD420
:104260004946384604F14302C047013020D0236854
:10427000E56803F00603042B18BF002532684FF0F1
:104280000006A36808BFAD1A226908BF25EAE575D4
:104290009342C4BF9B1AED181A34B5421AD10020BC
:1042A00008E00123524649463846C047013003D151
:1042B0004FF0FF30BDE8F0870135C4E73020E1184A
:1042C00081F843005A1C94F845102244023382F8C6
:1042D0004310C5E70123224649463846C04701300E
:1042E000E6D00136D9E700002DE9FF470F7E914661
:1042F000782F80460C469A460C9D01F1430207D860
:10430000622F0AD8002F00F0D980582F00F0A48027
:1043100004F1420584F842703AE0A7F16303152BDB
:10432000F6D801A151F823F0814300089543000815
:10433000114300081143000811430008114300080D
:104340009543000811430008114300081143000879
:1043500011430008A3440008C54300088544000831
:104360001143000811430008C54400081143000828
:10437000C543000811430008114300088D4400089C
:104380002B681A1D1B682A6004F1420584F842302C
:104390000123A4E020682968060601F104030AD578
:1043A0000E682B60002E03DA2D23764284F843300A
:1043B0000A235E4819E00E6810F0400F2B6018BF0A
:1043C00036B2EFE72B682068191D2960010601D578
:1043D0001E6802E04606FBD51E886F2F0CBF08231F
:1043E0000A235248002184F843106568002DA8BFB5
:1043F0002168A560A4BF21F0040121600EB9002D41
:104400004DD01546B6FBF3F103FB1167C75D05F808
:10441000017D3746BB420E46F4D9082B0BD12368E9
:10442000DE0708D5236961689942DEBF302305F8AD
:10443000013C05F1FF35521B22614B4621464046A7
:10444000CDF800A003AAFFF7DFFE01304CD14FF0FA
:10445000FF3004B0BDE8F087344881F84570296822
:10446000236851F8046B29601D0614D5DF0744BF8B
:1044700043F0200323601EB9236823F02003236048
:104480001023AFE7236843F02003236078232848F4
:1044900084F84530E3E7590648BFB6B2E6E715466B
:1044A000BBE72B682668181D6169286035061B6804
:1044B00001D5196002E07006FBD51980002315466E
:1044C0002361BAE72B6800211A1D2A601D68626803
:1044D000284601F097F908B1401B606063682361CA
:1044E000002384F84330A8E72A464946404623691A
:1044F000D0470130ABD023689B0713D4E068039BFF
:104500009842B8BF1846A4E70123324649464046C0
:10451000D04701309BD00135E36803995B1AAB4269
:10452000F2DCEBE7002504F11906F5E7CA6800089C
:10453000DB6800082DE9F7431D465D4B04461F6804
:104540000E46904627B1BB6913B9384601F048F8CA
:10455000584B9C4267D17C68B8F1020F06D0B8F185
:10456000010F00F29F80002DC0F29C80636EDB077C
:1045700005D4A389980502D4A06D01F0D4F8214692
:10458000384600F099FF616B41B104F14403994250
:1045900002D0384601F0E2FC002363630023A361EC
:1045A0006360A389190603D53846216901F0D6FC5A
:1045B000A389B8F1020F23F44A6323F00303A38114
:1045C0006CD001AB6A462146384601F0AEF8A389AB
:1045D0001843A081002D30D1009D284601F00AF932
:1045E0000646002855D1DDF80090A9454AD14FF084
:1045F000FF350022A26004F14702226022610122FD
:10460000B4F90C306261626E43F00203D207A381F9
:1046100005D413F4007F02D1A06D01F085F828467F
:1046200003B0BDE8F083244B9C4201D1BC6893E702
:10463000224B9C4208BFFC688EE7002ECDD0BB69A0
:1046400013B9384600F0CCFFB8F1010F08BFA389B9
:10465000C4E9046504BF43F00103A381A289266075
:1046600012F008031CD0D30741BF00236D42A360A2
:10467000A56158BFA560656E15F0010515D112F44E
:10468000007FC8E7484601F0B5F806460028AED0DE
:104690004D46A38943F08003A381D0E70025A8E716
:1046A000A360E8E74FF0FF35B9E70025B7E700BFA3
:1046B00024000020C0690008E0690008A069000823
:1046C0002DE9F74F03690C690746A342C0F28280C7
:1046D000013C00F1140501F1140805EB840301937A
:1046E00058F8243055F8242001339A42B2FBF3F6EF
:1046F0004FEA840B08EB840931D34FF0000E40469B
:10470000AC46F24650F8042B93B206FB03E3120CBE
:104710004FEA134E9BB206FB02E2AAEB0303DCF85E
:1047200000A04FEA124E1FFA8AFA5344DCF800A0A8
:1047300092B2C2EB1A4202EB23429BB243EA02431B
:1047400081454FEA224A4CF8043BDBD255F80B3046
:104750002BB9019B043B9D421A462FD33C6138463E
:1047600001F0EAFA002825DB28464FF0000C01365C
:1047700058F8041BD0F800E08BB2ACEB03031FFA2F
:104780008EF213440A0CC2EB1E4202EB23429BB290
:1047900043EA0243C1454FEA224C40F8043BE7D2CA
:1047A00055F8242005EB840322B9043B9D421A46A8
:1047B0000AD33C61304603B0BDE8F08F1268043B79
:1047C000002ACBD1013CC6E71268043B002AF0D195
:1047D000013CEBE70020EEE72DE9F04F16461F46BF
:1047E000446A99B00546CDE90467DDF8948074B950
:1047F000102000F0FFFF0246686220B9EA21A84BB2
:10480000A84801F0B3FCC0E901440460C4606B6ACD
:10481000196851B15A68012393404A608B60284659
:1048200001F04CF800226B6A1A603B1EAFBF0023F8
:10483000012223F000430593A8BFC8F80030DDF83B
:104840001490994BB8BFC8F8002033EA090319D176
:1048500042F20F73249A1360C9F31303334300F039
:104860007F85269B53B9914B22E0914B03930833EC
:10487000269A1360039819B0BDE8F08F8B4B039311
:104880000333F5E7DDE90434CDE90C34DDE90C014F
:1048900000220023FCF73CF9804658B10123249AFA
:1048A0001360269B002B00F0588582481860431E39
:1048B0000393DFE716AB019317AB00932846DDE9BE
:1048C0000C2301F0E1FAC9F30A548346002C7FD08F
:1048D000DDE90C010D9BA4F2FF34C3F3130343F095
:1048E0007F5141F44011CDF84C800022724BFBF710
:1048F000EFFC65A3D3E90023FBF7A2FE64A3D3E991
:104900000023FBF7E7FC064620460F46FBF72EFE8A
:1049100061A3D3E90023FBF793FE02460B46304622
:104920003946FBF7D7FC06460F46FCF739F900225B
:104930008246002330463946FCF7F4F848B1504629
:10494000FBF714FE32463B46FCF7E2F808B90AF1E1
:10495000FF3ABAF1160F58D8DDE90C01574B03EBBB
:10496000CA03D3E90023FCF7DDF800284FD0002369
:104970000AF1FF3A0F93169B1C1B631E099349BF54
:10498000C4F1010300230693002354BF0693099347
:10499000BAF1000F3DDB099BCDF838A053440993D1
:1049A00000230A93229B092B00F28C80052BC4BFA5
:1049B000043B2293229BC8BF0024A3F10203D8BF6B
:1049C0000124032B00F28A80DFE803F02D4F4D5BBA
:1049D000DDE916431C4404F23243202BC3BFC3F16C
:1049E000400304F2124009FA03F3C3F12003C6BFE7
:1049F00026FA00F0184306FA03F0FBF7A7FD01239F
:104A0000A1F1F871013C13936FE70123B2E70F9016
:104A1000B1E7069BA3EB0A030693CAF100030A93CE
:104A200000230E93BEE700230B93239B002B58DC3F
:104A30004FF001094B46CDF82090CDF88C90002224
:104A4000686A4260042202F114069E4241684ED90F
:104A5000284600F0F3FE039000284CD102464FF4A4
:104A6000D571174BCCE60123DEE700230B93239B84
:104A70000AEB030909F10103012B0893B8BF0123D5
:104A8000DDE70123F2E700BF61436F63A787D23FF1
:104A9000B3C8608B288AC63FFB799F501344D33F2D
:104AA000F9680008106900080000F07FF568000848
:104AB000EC680008C96800080000F83FA86A000810
:104AC0008D690008012400230B9422934FF0FF39D5
:104AD00000221223CDF820902392B0E701230B93FC
:104AE000F4E7DDF88C904B46CDF82090A7E7013134
:104AF00041605200A7E76B6A039A1A60089B0E2B6D
:104B000000F2A880002C00F0A580BAF1000F34DD7F
:104B10009A4A0AF00F0302EBC3031AF4807FD3E929
:104B20000034CDE910344FEA2A1416D0DDE90C0127
:104B3000934B0327D3E90823FBF7ACFECDE904012F
:104B400004F00F048E4E54B9DDE91023DDE90401B1
:104B5000FBF7A0FECDE9040129E00227F2E7E10717
:104B600008D5DDE91001D6E90023FBF769FDCDE9A1
:104B70001001013764100836E5E700F0A580DDE993
:104B80000C01CAF100047D4B04F00F0203EBC203D9
:104B9000D3E90023FBF754FD02270023CDE90401EC
:104BA000774E2411002C40F08480002BD2D10F9B33
:104BB000002B00F08B80DDE90434CDE91034DDE911
:104BC000100100226F4BFBF7ADFF00287ED0089B41
:104BD000002B7BD0B9F1000F38DDDDE91001002298
:104BE000694BFBF72DFD4C46CDE904010AF1FF3876
:104BF00001373846FBF7BAFCDDE90423FBF720FD5B
:104C00000022624BFBF766FBA1F15076CDE9100163
:104C10001196002C5DD1DDE9040100225C4BFBF70D
:104C200057FB02460B46CDE904233346109AFBF7A7
:104C300097FF002840F09C82DDE90401109A06F1FC
:104C40000043FBF76FFF002840F09082DDE90C3451
:104C5000CDE90434179B002BC0F25281BAF10E0F3C
:104C600000F34E81454B03EBCA03D3E90034CDE991
:104C70000634239B002B80F2DB80089B002B00F383
:104C8000D78040F07282DDE906010022404BFBF73D
:104C9000D7FCDDE90423FBF759FF089C26460028D2
:104CA00040F048823123039F0AF1010A07F8013BD3
:104CB00044E2E20705D5D6E90023FBF7C1FC012356
:104CC0000137641008366DE7022770E7D046089C6C
:104CD0008FE70399294B214412910B9903EBC403ED
:104CE000DDE9106753E90223002955D00020294946
:104CF000FBF7D0FD3B463246FBF7EAFACDE910015F
:104D0000039FDDE90401FBF74BFF0446FBF72EFC94
:104D100002460B46DDE90401FBF7DAFA02460B46D0
:104D20003034CDE90423DDE9102307F8014BFBF70C
:104D3000F9FE002874D1DDE9042300201149FBF7B6
:104D4000C7FADDE91023FBF7EDFE002840F0B7803D
:104D5000129B9F423FF47AAFDDE9100100220A4B1B
:104D6000FBF76EFC0022CDE91001DDE90401064BE2
:104D7000FBF766FCCDE90401C3E700BFA86A0008A1
:104D8000806A00080000F03F0000244000001C4042
:104D9000000014400000E03F30463946FBF750FC6D
:104DA000129BCDE91001039C1493DDE90401FBF78C
:104DB000F7FE1590FBF7DAFB02460B46DDE904012E
:104DC000FBF786FA159B0646303304F8013B129B2D
:104DD0000F469C424FF0000224D1DDE91001B04B98
:104DE000FBF778FA02460B4630463946FBF7B8FE29
:104DF000002863D1DDE910230020A949FBF768FAF8
:104E000002460B4630463946FBF78CFE00283FF43D
:104E10001DAF149F7B1E149317F8013C302BF8D064
:104E2000C2463BE09F4BFBF70BFCCDE90401BCE71E
:104E3000039FDDE90489DDE9062340464946FBF787
:104E400029FDFBF7ADFE0446FBF790FBDDE90623E9
:104E5000FBF7F6FB02460B4640464946FBF738FA9D
:104E600004F1300607F8016B039EDDF820C0BE1B7D
:104E7000B44502460B4636D1FBF72CFADDE9062392
:104E800080468946FBF76CFE58BBDDE906234046A9
:104E90004946FBF73DFE08B1E10722D428465946B2
:104EA00000F00CFD00233B70249B0AF10100186008
:104EB000269B002B3FF4DEAC1F60DBE427463B461D
:104EC0001F4613F8012D392A07D1039A9A42F7D1C8
:104ED0003022039908F101080A701A7801321A7019
:104EE0009EE7D046EBE700226E4BFBF7A9FB0022C2
:104EF000002380468946FBF70BFE00289BD0CDE7B8
:104F00000B9A002A00F0D080229A012A00F3AE808A
:104F1000139A002A00F0A68003F233430A9C069FEE
:104F2000069A01211A440692099A28461A440992BF
:104F300000F07AFD0646002F0CDD099B002B09DDF1
:104F4000BB42A8BF3B46069AFF1AD21A0692099A9C
:104F5000D31A09930A9BF3B10B9B002B00F0A88096
:104F6000002C10DD31462246284600F01BFE5A4632
:104F700001460646284600F06DFD80465946284603
:104F800000F09CFCC3460A9B1A1B04D059462846D5
:104F900000F008FE83460121284600F045FD0E9BE7
:104FA0000446002B40F386801A460146284600F04E
:104FB000F9FD229B0446012B7FDD4FF00008236999
:104FC00004EB8303186900F0E1FCC0F12000099BA9
:104FD000184410F01F0000F09280C0F12003042B51
:104FE00040F38A80C0F11C00069B074403440693EB
:104FF000099B03440993069B002B05DD59461A467D
:10500000284600F029FE8346099B002B05DD21463A
:105010001A46284600F020FE04460F9B002B70D055
:105020002146584600F088FE00286ADA00235946D7
:105030000A22284600F064FC0B9B83460AF1FF3AE3
:10504000002B00F09481314600230A22284600F00C
:1050500057FCB9F1000F064600F39380229B022B08
:1050600057DC8EE0169BC3F1360357E7089B5C1EA6
:105070000A9BA342B7BF0A9B1C1BE21A0E9BBEBF32
:105080000A949B180E93089BB8BF0024002BBBBF4B
:10509000069B089A069F9F1AACBF089B00233FE718
:1050A0000000E03F000024400A9C069F0B9E42E760
:1050B0000A9A6BE7229B012B19DC049BBBB9059B69
:1050C000C3F313039BB9059B23F000431B0D1B0582
:1050D00083B14FF00108069B01330693099B01330E
:1050E00009930E9B002B7FF46AAF01206FE74FF00E
:1050F0000008F6E79846F4E73FF47DAF18461C3009
:1051000072E7089B002B36DC229B022B33DDDDF897
:105110002090B9F1000F0DD121464B4605222846BB
:1051200000F0EEFB01460446584600F005FE00285C
:105130003FF7B8AD239B039F6FEA030A4FF00008C7
:105140002146284600F0BAFB002E3FF4A7AEB8F186
:10515000000F05D0B04503D04146284600F0AEFB15
:105160003146284600F0AAFB98E600242646E1E7EF
:10517000C246264696E50B9BDDF82090002B00F0FA
:10518000FD80002F05DD31463A46284600F064FDDB
:105190000646B8F1000F5CD02846716800F04EFB5F
:1051A000074628B9024640F2EA217F4BFFF728BBA9
:1051B000326906F10C01023292000C3000F030FB33
:1051C00001223946284600F047FDB0460646039BBB
:1051D00001330893039B4B440A93049B03F00103A0
:1051E0000993089B2146013B58460493FFF768FA50
:1051F000034641463033069058460B9300F09CFD21
:10520000324681462146284600F0B2FDC268074674
:105210000B9B02BB0146584600F08EFD02460B9BDD
:1052200039462846CDE90B3200F048FB229B0C9A08
:10523000089F43EA0201099B0B430B9B0DD1392BBD
:1052400029D0B9F1000F01DD069B3133049A1370A8
:1052500076E73046B9E70122E2E7B9F1000F06DB55
:10526000229941EA0909099959EA010120D1002A44
:10527000ECDD594601222846089300F0EDFC21465A
:10528000834600F059FD0028089B02DCDED1DA07D6
:10529000DCD5392BD8D13923049A13703B461F46ED
:1052A00017F8012C013B392A50D001321A7047E718
:1052B000002A03DD392BEED00133C7E7089A0A999B
:1052C00002F8013C8A422AD0594600230A22284685
:1052D00000F016FBB04583464FF000034FF00A0282
:1052E0004146284607D100F00BFB80460646089B46
:1052F0000133089375E700F003FB31468046002335
:105300000A22284600F0FCFA0646F0E7B9F1000F41
:10531000CCBF4F4601274FF00008039A1744594667
:1053200001222846089300F097FC2146834600F0AE
:1053300003FD0028B2DC02D1089BDB07AED43B465C
:105340001F4613F8012D302AFAD0F9E6039A9A4243
:10535000A5D131230AF1010A79E7144BFFF7A8BA66
:10536000269B002B7FF481AA114BFFF7A1BAB9F15C
:10537000000F03DC229B022B3FF7CBAE039F21469D
:105380005846FFF79DF9039A00F1300307F8013BF7
:10539000BA1A9145BADD594600230A22284600F080
:1053A000AFFA8346EBE700BF8D690008C8680008C4
:1053B000EC6800088A89F8B5054610070C4657D4F2
:1053C0004B68002B04DC0B6C002B01DC0020F8BDCB
:1053D000E66A002EFAD0002312F480522F682B6068
:1053E00032D0606DA3895A0705D56368C01A636B14
:1053F0000BB1236CC01A00230246E66A2846216AD4
:10540000B047431CA38906D129681D292CD8294AF5
:10541000CA40D60728D5002262602269D9042260DA
:1054200004D5421C01D12B6803B96065616B2F6004
:105430000029CBD004F14403994202D0284600F061
:105440008DFD00206063C2E7216A01232846B04732
:10545000411CC7D12B68002BC4D01D2B01D0162BAB
:1054600001D12F60B2E7A38943F04003A381AEE7E7
:105470000F69002FAAD0930718BF00230E6808BF3A
:105480004B69F61B0F608B60002E9FDD33463A465A
:105490002846216AD4F828C0E047002806DCA38902
:1054A0004FF0FF3043F04003A38190E70744361AE2
:1054B000EAE700BF0100402038B50B6905460C46FD
:1054C00013B90025284638BD18B183690BB900F01F
:1054D00087F8144B9C421BD16C68B4F90C30002B3C
:1054E000EFD0626ED00704D4990502D4A06D00F00D
:1054F0001AF928462146FFF75DFF636E0546DA0775
:10550000E0D4A3899B05DDD4A06D00F00DF9D9E7A7
:10551000054B9C4201D1AC68DFE7044B9C4208BFBD
:10552000EC68DAE7C0690008E0690008A0690008D3
:10553000002310B50446C0E90033C0E9043383609A
:1055400081814366C2818361194608225C30FEF77F
:1055500089FB054B24626362044BA362044BE36244
:10556000044B236310BD00BFC1600008E360000866
:105570001B6100083F610008014900F0AFB800BF9F
:10558000B9540008682270B54D1E55430E4605F10A
:10559000740100F02BFD044640B10021C0E9001663
:1055A0000C30A06005F16802FEF75CFB204670BD80
:1055B000014800F0B8B800BF81050020014800F0A4
:1055C000B3B800BF81050020014800F0ACB800BFAF
:1055D00082050020014800F0A7B800BF8205002026
:1055E00010B50446FFF7F0FFA3691BB1BDE81040FA
:1055F000FFF7F0BFC4E912332365134B134A1B684E
:10560000A262A34208BF0123204608BFA36100F0A5
:105610001FF86060204600F01BF8A060204600F0F4
:1056200017F800220421E0606068FFF781FF012283
:105630000921A068FFF77CFF02221221E068FFF732
:1056400077FF0123A361D1E7B4680008795500080A
:10565000F8B50746FFF7ACFF1E4B1E68B36913B9D8
:105660003046FFF7BDFF4836D6E90134013B03D58C
:1056700033680BB33668F7E7B4F90C50D5B9164B5D
:1056800004F15800E360656600F04CF8FFF796FF00
:1056900008222946C4E90155C4E904552560A561DD
:1056A00004F15C00FEF7DEFAC4E90D55C4E91255B9
:1056B0002046F8BD6834D9E704213846FFF762FF79
:1056C000044630600028D5D1FFF778FF0C233B60FB
:1056D000EEE700BFB46800080100FFFF2DE9F843C2
:1056E00006468846002700F14804D4E90195B9F13F
:1056F000010905D52468002CF7D13846BDE8F883A8
:10570000AB89012B07D9B5F90E30013303D02946F7
:105710003046C04707436835E9E700000048704756
:105720007801002070477047704770B50E46B1F998
:105730000E10144600291D4696B008DA0022B6F96C
:105740000C302A601A0610D44FF480630EE06A46CB
:1057500000F04CFD0028F1DB019A02F47042A2F542
:1057600000535A425A412A60EEE74023002023604A
:1057700016B070BD8B8973B59D0706460C4607D5DC
:1057800004F14703236023610123636102B070BD0C
:105790006A4601ABFFF7C9FF00990546304600F0A5
:1057A00025FC48B9B4F90C309A05EFD423F0030373
:1057B00043F00203A381E3E70D4BB362A3892060AA
:1057C00043F08003A381009B20616361019B5BB177
:1057D0003046B4F90E1000F01BFD28B1A38923F068
:1057E000030343F00103A381A0890543A581CDE70D
:1057F00079550008024B0146186800F0F7BB00BF5E
:1058000024000020034610B5C9B202449342184652
:1058100001D1002003E0047801338C42F6D110BDA1
:105820000A44914200F1FF3300D1704710B511F8DE
:10583000014B914203F8014FF9D110BD70B5466A92
:1058400004460D4676B91020FFF7D4FF0246606289
:1058500020B96621174B184800F088FCC0E90166A2
:105860000660C660666AF36883B1636ADB6853F8F2
:105870002500B8B9012101FA05F6721D20469200F3
:1058800000F05EFB60B1C0E901560EE02122042168
:10589000204600F055FB636AF060DB68002BE4D122
:1058A000002070BD026843F825200023C0E90333BF
:1058B000F7E700BFF9680008006A000870B5466A9B
:1058C00005460C4676B91020FFF794FF0246686241
:1058D00020B98A21084B094800F048FCC0E901665C
:1058E0000660C6603CB16B6A6268DB6853F82210E0
:1058F000216043F8224070BDF9680008006A000882
:105900002DE9F04107460C461E4600200D6901F1C5
:10591000140CDCF80030013099B202FB01611E0C5E
:105920000B0C02FB063389B201EB034185424FEABF
:1059300013464CF8041BECDC0EB3A368AB4219DC35
:10594000616838460131FFF779FF804628B9024681
:10595000B5210C4B0C4800F009FC226904F10C0144
:10596000023292000C30FFF75BFF21463846FFF70A
:10597000A5FF444604EB850301355E6125612046A1
:10598000BDE8F0818D690008006A0008020C12046D
:105990000346CAB90304102013F07F4F04BF1B0253
:1059A000083013F0704F04BF1B01043013F0404F58
:1059B00004BF9B000230002B05DB13F0804F00F189
:1059C000010008BF202070470020E5E70368024679
:1059D00013F007000BD0D90721D4980749BF5B0803
:1059E0009B08012013605CBF02201360704799B2CE
:1059F00009B910201B0CD9B209B908301B0A1907C4
:105A000004BF1B090430990704BF9B080230D90763
:105A100003D45B0800F1010003D01360704700203D
:105A2000704720207047000010B50C460121FFF799
:105A300005FF024628B94FF4A071044B044800F05A
:105A400095FB01234461036110BD00BF8D6900080F
:105A5000006A00082DE9F04F91460A69D9F8103024
:105A60000C469A42BEBF0B464C4699462769D9F868
:105A700010A0A368616807EB0A06B34285B0B8BFFF
:105A80000131FFF7DBFE30B9024640F25D11434BB6
:105A9000434800F06BFB00F114052B46002205EB98
:105AA0008608434521D304F1140303EB870709F16A
:105AB000140303EB8A0202923A1B153A22F0030206
:105AC000043204F115018F4238BF04220192029A78
:105AD00003939A420CD8002E03DD58F8043D002BA6
