:020000040800F2
:1000000000500020094000083D1A00083F1A00086F
:10001000411A0008431A0008451A000800000000B1
:10002000000000000000000000000000471A000867
:10003000491A0008000000004B1A00084D1A000879
:10004000514000085140000851400008514000084C
:10005000514000085140000851400008514000083C
:10006000514000085140000851400008514000082C
:100070005140000851400008551A0008651A000850
:10008000514000085140000851400008514000080C
:1000900051400008514000085140000851400008FC
:1000A000751A0008851A00085140000851400008E0
:1000B00051400008514000085140000851400008DC
:1000C00051400008514000085140000851400008CC
:1000D00051400008951A000851400008514000089E
:1000E0005140000851400008514000080000000045
:1000F0000000000000000000000000000000000000
:0C01000000000000000000005FF808F1A3
:1001100010B5054C237833B9044B13B10448AFF341
:1001200000800123237010BD100200200000000099
:10013000B86C000808B5034B1BB103490348AFF383
:10014000008008BD0000000014020020B86C000808
:10015000034613F8012B002AFBD1181A0138704707
:1001600081F0004102E000BF83F0004330B54FEA68
:1001700041044FEA430594EA050F08BF90EA020FD5
:100180001FBF54EA000C55EA020C7FEA645C7FEA68
:10019000655C00F0E2804FEA5454D4EB5555B8BF8B
:1001A0006D420CDD2C4480EA020281EA030382EAFC
:1001B000000083EA010180EA020281EA0303362D8E
:1001C00088BF30BD11F0004F4FEA01314FF4801C61
:1001D0004CEA113102D0404261EB410113F0004F73
:1001E0004FEA03334CEA133302D0524263EB43032A
:1001F00094EA050F00F0A780A4F10104D5F1200EC8
:100200000DDB02FA0EFC22FA05F2801841F1000122
:1002100003FA0EF2801843FA05F359410EE0A5F1F6
:1002200020050EF1200E012A03FA0EFC28BF4CF027
:10023000020C43FA05F3C01851EBE37101F00045DD
:1002400007D54FF0000EDCF1000C7EEB00006EEBEA
:100250000101B1F5801F1BD3B1F5001F0CD3490874
:100260005FEA30004FEA3C0C04F101044FEA4452CB
:1002700012F5800F80F09A80BCF1004F08BF5FEA52
:10028000500C50F1000041EB045141EA050130BD32
:100290005FEA4C0C404141EB0101013C28BFB1F544
:1002A000801FE9D291F0000F04BF01460020B1FA8F
:1002B00081F308BF2033A3F10B03B3F120020CDA62
:1002C0000C3208DD02F1140CC2F10C0201FA0CF040
:1002D00021FA02F10CE002F11402D8BFC2F1200CA5
:1002E00001FA02F120FA0CFCDCBF41EA0C0190405B
:1002F000E41AA2BF01EB0451294330BD6FEA0404A4
:100300001F3C1CDA0C340EDC04F11404C4F120028E
:1003100020FA04F001FA02F340EA030021FA04F3A0
:1003200045EA030130BDC4F10C04C4F1200220FAF7
:1003300002F001FA04F340EA0300294630BD21FA35
:1003400004F0294630BD94F0000F83F4801306BFFB
:1003500081F480110134013D4EE77FEA645C18BFEF
:100360007FEA655C29D094EA050F08BF90EA020F86
:1003700005D054EA000C04BF1946104630BD91EA7E
:10038000030F1EBF0021002030BD5FEA545C05D181
:100390004000494128BF41F0004130BD14F58004C0
:1003A0003CBF01F5801130BD01F0004545F0FE4134
:1003B00041F470014FF0000030BD7FEA645C1ABF69
:1003C000194610467FEA655C1CBF0B46024650EAA0
:1003D000013406BF52EA033591EA030F41F40021CC
:1003E00030BD00BF90F0000F04BF0021704730B552
:1003F0004FF4806404F132044FF000054FF0000127
:1004000050E700BF90F0000F04BF0021704730B5E7
:100410004FF4806404F1320410F0004548BF4042BC
:100420004FF000013EE700BF42004FEAE2014FEA11
:1004300031014FEA02701FBF12F07F4393F07F4FEC
:1004400081F06051704732F07F4208BF704793F0EF
:100450007F4F04BF41F40021704730B54FF4607402
:1004600001F0004521F000411CE700BF50EA010205
:1004700008BF704730B54FF000050AE050EA0102AE
:1004800008BF704730B511F0004502D5404261EB1E
:1004900041014FF4806404F132045FEA915C3FF45F
:1004A000D8AE4FF003025FEADC0C18BF03325FEAFC
:1004B000DC0C18BF033202EBDC02C2F1200300FAAD
:1004C00003FC20FA02F001FA03FE40EA0E0021FAD2
:1004D00002F11444BDE600BF70B54FF0FF0C4CF4C0
:1004E000E06C1CEA11541DBF1CEA135594EA0C0F72
:1004F00095EA0C0F00F0DEF82C4481EA030621EAAD
:100500004C5123EA4C5350EA013518BF52EA0335E7
:1005100041F4801143F4801338D0A0FB02CE4FF099
:100520000005E1FB02E506F00042E0FB03E54FF0C9
:100530000006E1FB03569CF0000F18BF4EF0010EC1
:10054000A4F1FF04B6F5007F64F5407404D25FEABD
:100550004E0E6D4146EB060642EAC62141EA555170
:100560004FEAC52040EA5E504FEACE2EB4F1FD0CB2
:1005700088BFBCF5E06F1ED8BEF1004F08BF5FEA30
:10058000500E50F1000041EB045170BD06F00046E2
:1005900046EA010140EA020081EA0301B4EB5C048F
:1005A000C2BFD4EB0C0541EA045170BD41F4801187
:1005B0004FF0000E013C00F3AB8014F1360FDEBFAC
:1005C000002001F0004170BDC4F10004203C35DA88
:1005D0000C341BDC04F11404C4F1200500FA05F30B
:1005E00020FA04F001FA05F240EA020001F00042AC
:1005F00021F0004110EBD37021FA04F642EB060122
:100600005EEA430E08BF20EAD37070BDC4F10C044B
:10061000C4F1200500FA04F320FA05F001FA04F20F
:1006200040EA020001F0004110EBD37041F10001FB
:100630005EEA430E08BF20EAD37070BDC4F1200506
:1006400000FA05F24EEA020E20FA04F301FA05F26E
:1006500043EA020321FA04F001F0004121FA04F216
:1006600020EA020000EBD3705EEA430E08BF20EAE6
:10067000D37070BD94F0000F0FD101F00046400020
:1006800041EB010111F4801F08BF013CF7D041EAA2
:10069000060195F0000F18BF704703F000465200A6
:1006A00043EB030313F4801F08BF013DF7D043EA77
:1006B0000603704794EA0C0F0CEA135518BF95EA2D
:1006C0000C0F0CD050EA410618BF52EA4306D1D1B4
:1006D00081EA030101F000414FF0000070BD50EAD3
:1006E000410606BF1046194652EA430619D094EA5D
:1006F0000C0F02D150EA013613D195EA0C0F05D147
:1007000052EA03361CBF104619460AD181EA03019A
:1007100001F0004141F0FE4141F470014FF0000052
:1007200070BD41F0FE4141F4780170BD70B54FF0ED
:10073000FF0C4CF4E06C1CEA11541DBF1CEA13556D
:1007400094EA0C0F95EA0C0F00F0A7F8A4EB05044F
:1007500081EA030E52EA03354FEA013100F0888046
:100760004FEA03334FF0805545EA131343EA12630F
:100770004FEA022245EA111545EA10654FEA0026C4
:100780000EF000419D4208BF964244F1FD0404F57D
:10079000407402D25B084FEA3202B61A65EB0305D9
:1007A0005B084FEA32024FF480104FF4002CB6EB96
:1007B000020E75EB030E22BFB61A754640EA0C0016
:1007C0005B084FEA3202B6EB020E75EB030E22BF56
:1007D000B61A754640EA5C005B084FEA3202B6EB97
:1007E000020E75EB030E22BFB61A754640EA9C0056
:1007F0005B084FEA3202B6EB020E75EB030E22BF26
:10080000B61A754640EADC0055EA060E18D04FEAE3
:10081000051545EA16754FEA06164FEAC30343EA83
:1008200052734FEAC2025FEA1C1CC0D111F4801F50
:100830000BD141EA00014FF000004FF0004CB6E749
:1008400011F4801F04BF01430020B4F1FD0C88BFE8
:10085000BCF5E06F3FF6AFAEB5EB030C04BFB6EBF3
:10086000020C5FEA500C50F1000041EB045170BDE6
:100870000EF0004E4EEA113114EB5C04C2BFD4EB13
:100880000C0541EA045170BD41F480114FF0000E97
:10089000013C90E645EA060E8DE60CEA135594EA13
:1008A0000C0F08BF95EA0C0F3FF43BAF94EA0C0F16
:1008B0000AD150EA01347FF434AF95EA0C0F7FF48B
:1008C00025AF104619462CE795EA0C0F06D152EADF
:1008D00003353FF4FDAE1046194622E750EA4106C3
:1008E00018BF52EA43067FF4C5AE50EA41047FF4D4
:1008F0000DAF52EA43057FF4EBAE12E74FF0FF3C39
:1009000006E000BF4FF0010C02E000BF4FF0010C09
:100910004DF804CD4FEA410C7FEA6C5C4FEA430C82
:1009200018BF7FEA6C5C1BD001B050EA410C0CBFD1
:1009300052EA430C91EA030F02BF90EA020F002033
:10094000704710F1000F91EA030F58BF994208BF9A
:1009500090422CBFD8176FEAE37040F00100704757
:100960004FEA410C7FEA6C5C02D150EA013C07D1AE
:100970004FEA430C7FEA6C5CD6D152EA033CD3D0F9
:100980005DF8040B704700BF8446104662468C46F3
:100990001946634600E000BF01B5FFF7B7FF002826
:1009A00048BF10F1000F01BD4DF808EDFFF7F4FF4F
:1009B0000CBF012000205DF808FB00BF4DF808EDDA
:1009C000FFF7EAFF34BF012000205DF808FB00BFFD
:1009D0004DF808EDFFF7E0FF94BF012000205DF81F
:1009E00008FB00BF4DF808EDFFF7CEFF94BF0120D4
:1009F00000205DF808FB00BF4DF808EDFFF7C4FFCD
:100A000034BF012000205DF808FB00BF4FEA410C15
:100A10007FEA6C5C02D150EA013C0AD14FEA430CF8
:100A20007FEA6C5C02D152EA033C02D14FF0000035
:100A300070474FF0010070474FEA410212F5001273
:100A400015D211D56FF47873B3EB625212D94FEA15
:100A5000C12343F0004343EA505311F0004F23FAFF
:100A600002F018BF404270474FF00000704750EA54
:100A7000013005D111F0004008BF6FF00040704711
:100A80004FF00000704700BF4A0011D212F500126B
:100A900011D20DD56FF47873B3EB62520ED44FEAD6
:100AA000C12343F0004343EA505323FA02F0704756
:100AB0004FF00000704750EA013002D14FF0FF3094
:100AC00070474FF0000070474FEA4102B2F1E04337
:100AD00024BFB3F5001CDCF1FE5C0DD901F0004C25
:100AE0004FEAC0024CEA5070B2F1004F40EB830075
:100AF00008BF20F00100704711F0804F21D113F1A1
:100B00003872BCBF01F00040704741F480114FEAD9
:100B10005252C2F11802C2F1200C10FA0CF320FA62
:100B200002F018BF40F001004FEAC1234FEAD3237F
:100B300003FA0CFC40EA0C0023FA02F34FEA4303E9
:100B4000CCE77FEA625307D150EA01331EBF4FF072
:100B5000FE4040F44000704701F0004040F0FE408D
:100B600040F40000704700BF80F0004002E000BF8A
:100B700081F0004142001FBF5FEA410392EA030F88
:100B80007FEA226C7FEA236C6AD04FEA1262D2EBD2
:100B90001363C1BFD218414048404140B8BF5B42D7
:100BA000192B88BF704710F0004F40F4000020F070
:100BB0007F4018BF404211F0004F41F4000121F086
:100BC0007F4118BF494292EA030F3FD0A2F10102D0
:100BD00041FA03FC10EB0C00C3F1200301FA03F10E
:100BE00000F0004302D5494260EB4000B0F5000F31
:100BF00013D3B0F1807F06D340084FEA310102F1F0
:100C00000102FE2A51D2B1F1004F40EBC25008BFA1
:100C100020F0010040EA03007047490040EB00006B
:100C2000013A28BFB0F5000FEDD2B0FA80FCACF16C
:100C3000080CB2EB0C0200FA0CF0AABF00EBC25099
:100C400052421843BCBFD0401843704792F0000F87
:100C500081F4000106BF80F400000132013BB5E7DA
:100C60004FEA41037FEA226C18BF7FEA236C21D050
:100C700092EA030F04D092F0000F08BF08467047B5
:100C800090EA010F1CBF0020704712F07F4F04D183
:100C9000400028BF40F00040704712F100723CBF96
:100CA00000F50000704700F0004343F0FE4040F4C0
:100CB000000070477FEA226216BF08467FEA23637E
:100CC0000146420206BF5FEA412390EA010F40F469
:100CD000800070474FF0000304E000BF10F00043B5
:100CE00048BF40425FEA000C08BF704743F096439C
:100CF00001464FF000001CE050EA010208BF7047B7
:100D00004FF000030AE000BF50EA010208BF70473D
:100D100011F0004302D5404261EB41015FEA010C52
:100D200002BF84460146002043F0B64308BFA3F14A
:100D30008053A3F50003BCFA8CF2083AA3EBC2532C
:100D400010DB01FA02FC634400FA02FCC2F120024B
:100D5000BCF1004F20FA02F243EB020008BF20F082
:100D60000100704702F1200201FA02FCC2F12002E8
:100D700050EA4C0021FA02F243EB020008BF20EADD
:100D8000DC7070474FF0FF0C1CEAD0521EBF1CEA0B
:100D9000D15392EA0C0F93EA0C0F6FD01A4480EAF9
:100DA000010C400218BF5FEA41211ED04FF00063E2
:100DB00043EA501043EA5111A0FB01310CF000400E
:100DC000B1F5000F3EBF490041EAD3715B0040EA34
:100DD000010062F17F02FD2A1DD8B3F1004F40EB04
:100DE000C25008BF20F00100704790F0000F0CF0D7
:100DF000004C08BF49024CEA502040EA51207F3A9B
:100E0000C2BFD2F1FF0340EAC250704740F4000075
:100E10004FF00003013A5DDC12F1190FDCBF00F066
:100E200000407047C2F10002410021FA02F1C2F114
:100E3000200200FA02FC5FEA310040F1000053EAB0
:100E40004C0308BF20EADC70704792F0000F00F0FE
:100E5000004C02BF400010F4000F013AF9D040EA04
:100E60000C0093F0000F01F0004C02BF490011F498
:100E7000000F013BF9D041EA0C018FE70CEAD15396
:100E800092EA0C0F18BF93EA0C0F0AD030F0004C16
:100E900018BF31F0004CD8D180EA010000F00040CA
:100EA000704790F0000F17BF90F0004F084691F088
:100EB000000F91F0004F14D092EA0C0F01D14202C2
:100EC0000FD193EA0C0F03D14B0218BF084608D18B
:100ED00080EA010000F0004040F0FE4040F40000D5
:100EE000704740F0FE4040F4400070474FF0FF0C68
:100EF0001CEAD0521EBF1CEAD15392EA0C0F93EAAF
:100F00000C0F69D0A2EB030280EA010C49024FEA00
:100F1000402037D04FF0805343EA111143EA1013B9
:100F20000CF000408B4238BF5B0042F17D024FF471
:100F3000000C8B4224BF5B1A40EA0C00B3EB510F4C
:100F400024BFA3EB510340EA5C00B3EB910F24BF35
:100F5000A3EB910340EA9C00B3EBD10F24BFA3EBBA
:100F6000D10340EADC001B0118BF5FEA1C1CE0D182
:100F7000FD2A3FF650AF8B4240EBC25008BF20F035
:100F8000010070470CF0004C4CEA50207F32C2BF89
:100F9000D2F1FF0340EAC250704740F400004FF026
:100FA0000003013A37E792F0000F00F0004C02BF57
:100FB000400010F4000F013AF9D040EA0C0093F021
:100FC000000F01F0004C02BF490011F4000F013B7B
:100FD000F9D041EA0C0195E70CEAD15392EA0C0FE3
:100FE00008D142027FF47DAF93EA0C0F7FF470AF1B
:100FF000084676E793EA0C0F04D14B023FF44CAF5E
:1010000008466EE730F0004C18BF31F0004CCAD1F2
:1010100030F000427FF45CAF31F000437FF43CAF2E
:101020005FE700BF4FF0FF3C06E000BF4FF0010C50
:1010300002E000BF4FF0010C4DF804CD4FEA400232
:101040004FEA41037FEA226C18BF7FEA236C11D07C
:1010500001B052EA530C18BF90EA010F58BFB2EB2F
:10106000030088BFC81738BF6FEAE17018BF40F0AF
:10107000010070477FEA226C02D15FEA402C05D163
:101080007FEA236CE4D15FEA412CE1D05DF8040BE8
:10109000704700BF844608466146FFE70FB5FFF77B
:1010A000C9FF002848BF10F1000F0FBD4DF808ED33
:1010B000FFF7F4FF0CBF012000205DF808FB00BF24
:1010C0004DF808EDFFF7EAFF34BF012000205DF87E
:1010D00008FB00BF4DF808EDFFF7E0FF94BF0120CB
:1010E00000205DF808FB00BF4DF808EDFFF7D2FFC8
:1010F00094BF012000205DF808FB00BF4DF808ED0B
:10110000FFF7C8FF34BF012000205DF808FB00BFD7
:1011100038B50F4B834200D038BD0E4D0E4BD3E98E
:101120000023284602F034FE0C4C0D4BD3E900237B
:10113000204602F02DFE284602F010FD204602F067
:101140000DFD284602F096FD204602F093FDE3E7F0
:1011500050040020F8020020500200206802002005
:101160004002002008B51B4B1B78012B14D01A4BF2
:101170001B78162B03D1194B1B78162B17D0012285
:101180001549174802F068FC144B1978154A11707C
:10119000114A12781A7008BD0122134B1A700D4BB8
:1011A000002119700C490E4802F056FCECE70D4B7B
:1011B0001B78162BE3D1074B01221A700649002336
:1011C0000B604B608B60CB601022054802F044FC42
:1011D000DAE700BF4D020020580200204C02002038
:1011E0006805002038020020AC03002072B6FEE73C
:1011F00000B591B02822002106A802F055FF002377
:1012000001930293039304930593012206924FF4F2
:10121000803307930A9202220D920E934FF4E0134B
:101220000F9306A801F07EF980B90F2301930221E4
:101230000291002303934FF480620492059301A866
:1012400001F0AEFB20B911B05DF804FBFFF7CEFF53
:10125000FFF7CCFF000000002DE9F0438BB001F058
:1012600027F9FFF7C5FF00F03BF900F093F900F014
:10127000B3F900F0E9F900F019FA00F003FB00F00F
:101280004BFB794C204602F04FFE01227749204665
:1012900002F0E2FB764C774B0893774B0793A3F56C
:1012A000836306934FF00008DFF8D091CDE90489FD
:1012B0000026734FCDE90267802300934023224626
:1012C0007049714802F010FD704B0893704B079302
:1012D000A3F61C030693CDE90489CDE90267202318
:1012E0000093102322466B496B4802F0FDFC6B4CC7
:1012F0000821204600F0AEFF0C21204600F0AAFF96
:1013000023680022DA631A643C21654801F010F872
:101310003C21644801F00CF8634800F097FC01F0B0
:10132000E5F8624B186001F0E1F8614B1860614B21
:101330001B78002B3CD101F0D9F85C4B18605C4B5A
:101340001B68C01AC828F2D9FFF7C4FC5A49FFF736
:10135000CDFDFFF769F804460D463BA3D3E9002312
:10136000FFF7BAF806460F4639A3D3E90023204613
:101370002946FFF7B1F88046894637A3D3E9002311
:1013800020462946FFF7A8F84C4CCDE90201CDE9EB
:10139000008932463B46204602F067FD2022214666
:1013A000314802F0CBF8414B1A68414B1A60BEE756
:1013B000434C444A21462D4802F083FD2468424BA9
:1013C00019682046FFF772FE30B1404B19683D4B5B
:1013D0001868FFF76BFE58BB3D493A4B1868FFF79A
:1013E000D1FC4FF07C51FFF7CDFC0546014620466D
:1013F000FFF7BEFB3749FFF7C5FCFFF715F818A349
:10140000D3E90023FFF792F9334BC3E900012946E2
:101410002046FFF7AFFB2F49FFF7B4FCFFF704F8B6
:101420000FA3D3E90023FFF781F92C4BC3E9000197
:10143000244B1A68254B1A60234B1C601D4B00225D
:101440001A7078E7AFF30080C4983CD6B72FC93F35
:10145000672ED3312755A23F000000803D0AC73FC9
:10146000DCE14F3D5723CA3F6805002058020020A9
:10147000000C0140180000203C08004000002E40F5
:101480000000594038030020F8020020000000202E
:1014900040080040A802002068020020C00300208D
:1014A0000804002098040020500400208803002035
:1014B0003C020020AC03002000007A448C03002092
:1014C000480200202C0200203402002030020020BC
:1014D00085EB513E00007042400200205002002087
:1014E0002DE9F04188B000240494059406940794F3
:1014F000254B9A6942F010029A619A6902F0100233
:101500000092009A9A6942F020029A619A6902F068
:1015100020020192019A9A6942F004029A619A6942
:1015200002F004020292029A9A6942F008029A6159
:101530009B6903F008030393039BDFF85480224662
:101540004FF40051404601F017FC104D2246F021A7
:10155000284601F011FC4FF400530493012705972E
:1015600006940226079604A9404601F0F5FAF023F6
:10157000049305970694079604A9284601F0ECFA0F
:1015800008B0BDE8F08100BF00100240000C01402F
:101590000010014000B583B00E4B5A6942F00102C1
:1015A0005A615B6903F001030193019B002211461C
:1015B0000E2001F08FFD0E2001F0C0FD002211462B
:1015C0000F2001F087FD0F2001F0B8FD03B05DF89A
:1015D00004FB00BF0010024000B587B00023029357
:1015E000039304930593009301931548154A0260F1
:1015F0004FF4E152426083606422C2600361436140
:10160000836100F053FC90B94FF48053029302A918
:101610000B4800F0A0FD68B90023009301936946D0
:10162000074800F0E9FE40B907B05DF804FBFFF79A
:10163000DDFDE9E7FFF7DAFDEEE7FFF7D7FDF3E7BA
:1016400050040020002C014000B58DB00023019310
:10165000029315484FF080420260436083604FF66A
:10166000FF72C2600361836103220392049301222B
:10167000059206930793089309920A930B9303A983
:1016800000F06CFC50B900230193029301A90648B5
:1016900000F0B2FE28B90DB05DF804FBFFF7A6FD1F
:1016A000F1E7FFF7A3FDF6E79804002000B58DB041
:1016B0000023019302931548154A0260436083603A
:1016C0004FF6FF72C26003618361032203920493A9
:1016D0000122059206930793089309920A930B93AC
:1016E00003A900F03BFC50B900230193029301A928
:1016F000064800F081FE28B90DB05DF804FBFFF745
:1017000075FDF1E7FFF772FDF6E700BF0804002062
:10171000000400400268124B9A4200D0704700B5A6
:1017200083B003F564439A6942F400629A619B694D
:1017300003F400630193019B00220121182001F0B2
:10174000C9FC182001F0FAFC00220121192001F047
:10175000C1FC192001F0F2FC03B05DF804FB00BFEE
:10176000002C014000B589B0002304930593069333
:1017700007930368B3F1804F05D0204A934220D0ED
:1017800009B05DF804FB03F50433DA6942F00102A5
:10179000DA61DA6902F001020092009A9A6942F075
:1017A00004029A619B6903F004030193019B0323E4
:1017B000049300230593069304A9114801F0CCF982
:1017C000DEE7104BDA6942F00202DA61DA6902F010
:1017D00002020292029A9A6942F004029A619B699B
:1017E00003F004030393039BC02304930023059396
:1017F000069304A9024801F0AFF9C1E700040040D4
:1018000000080140001002400268094B9A4200D0D3
:10181000704782B003F50233DA6942F00402DA61FC
:10182000DB6903F004030193019B02B0704700BF22
:101830000008004000B587B000230293039304938F
:10184000059302680D4B9A4202D007B05DF804FB85
:1018500003F502339A6942F008029A619B6903F02A
:1018600008030193019B4FF44073029302230393F7
:10187000059302A9024801F06FF9E6E7000800406D
:10188000000C014000B58BB000230893099301932D
:101890000293039304930593069307931C481D4AF0
:1018A00002604822426083606422C26003618361F7
:1018B00000F028FBF8B900230893099308A91448FD
:1018C00000F09AFDD0B960230193002302930393A3
:1018D0000593082201A90E4800F0CAFB88B90C2222
:1018E00001A90B4800F0C4FB70B90948FFF7A2FF3B
:1018F0000BB05DF804FBFFF779FCDCE7FFF776FC43
:10190000E1E7FFF773FCEAE7FFF770FCEDE700BFE4
:10191000C00300200008004008B50A480A4B0360D5
:101920004FF4E133436000238360C36003610C2202
:1019300042618361C36101F0F3FC00B908BDFFF7A8
:1019400055FCFBE7680500200038014070B586B003
:10195000002302930393049305930268314B9A4248
:1019600001D006B070BD044603F558439A6942F4AD
:1019700080429A619A6902F480420092009A9A69C0
:1019800042F004029A619B6903F004030193019BF6
:101990004FF4007302930223039303230593224E13
:1019A00002A9304601F0D8F84FF480630293002575
:1019B0000395049502A9304601F0CEF81B481C4B54
:1019C0000360456085608023C36005614561856172
:1019D000C56101F0EDF9F0B9144BA3635C621548E1
:1019E000154B036010234360002383608022C26094
:1019F000036143618361C36101F0DAF970B90D4B92
:101A000063635C6200221146252001F063FB252000
:101A100001F094FBA5E7FFF7E9FBDDE7FFF7E6FB45
:101A2000EDE700BF00380140000801402405002018
:101A300058000240E004002044000240FEE7FEE7B8
:101A4000FEE7FEE7FEE770477047704708B500F015
:101A500041FD08BD08B5024801F088FA08BD00BF85
:101A6000E004002008B5024801F080FA08BD00BF7C
:101A70002405002008B5024800F020F908BD00BF89
:101A80005004002008B5024800F018F908BD00BF56
:101A90005004002008B5024801F064FE08BD00BFF4
:101AA0006805002082B00E4B9A6942F001029A61EB
:101AB0009A6902F001020092009ADA6942F08052BB
:101AC000DA61DB6903F080530193019B054A536897
:101AD00023F0E06343F08073536002B0704700BFAF
:101AE000001002400000014070B4036A23F00103BB
:101AF0000362036A4668826922F073020C6844EA52
:101B0000020523F002028B6813430D4CA04209D05A
:101B10000B4CA0420DD0466085614A684263036267
:101B200070BC704723F00803CA68134323F0040312
:101B3000EEE726F440764A6932438E691643EAE7B7
:101B4000002C014030B4036A23F480730362036AFB
:101B50004568C26922F073020C68224323F40073C3
:101B60008C6843EA04230F4CA04209D00D4CA042DC
:101B70000ED04560C2614A68C263036230BC7047E0
:101B800023F40063CC6843EA042323F48063EDE785
:101B900025F440554C6945EA04158C6945EA04155D
:101BA000E7E700BF002C014030B4036A23F4805300
:101BB0000362036A4468C26922F4E6420D6842EA9D
:101BC000052223F400538D6843EA0533074DA842EC
:101BD00006D04460C2614A680264036230BC704748
:101BE00024F480444D6944EA8514F2E7002C014056
:101BF00030B4036A056A25F001050562846924F0A2
:101C0000F00444EA021423F00A030B4384610362E4
:101C100030BC704730B4056A25F010050562846950
:101C2000036A24F4704444EA023423F0A00343EA34
:101C300001138461036230BC7047836823F0700332
:101C40000B4343F0070383607047000090F83D307A
:101C5000DBB2012B27D1022380F83D300268D36824
:101C600043F00103D3600368114A934210D0B3F1EB
:101C7000804F0DD0A2F59432934209D002F58062D4
:101C8000934205D01A6842F001021A6000207047A2
:101C90009A6802F00702062A07D01A6842F0010289
:101CA0001A6000207047012070470020704700BF75
:101CB000002C0140704770477047704710B50446CC
:101CC00003681A6912F0020F11D0DA6812F0020FDD
:101CD0000DD06FF002021A610123037703689B693C
:101CE00013F0030F70D0FFF7E6FF0023237723687C
:101CF0001A6912F0040F12D0DA6812F0040F0ED035
:101D00006FF004021A610223237723689B6913F49E
:101D1000407F5FD02046FFF7CEFF00232377236864
:101D20001A6912F0080F12D0DA6812F0080F0ED0FC
:101D30006FF008021A61042323772368DB6913F02C
:101D4000030F4ED02046FFF7B6FF0023237723680A
:101D50001A6912F0100F12D0DA6812F0100F0ED0BC
:101D60006FF010021A61082323772368DB6913F4EC
:101D7000407F3DD02046FFF79EFF00232377236856
:101D80001A6912F0010F03D0DA6812F0010F36D190
:101D900023681A6912F0800F03D0DA6812F0800FFE
:101DA00034D123681A6912F0400F03D0DA6812F0B8
:101DB000400F32D123681A6912F0200F03D0DA687D
:101DC00012F0200F30D110BDFFF774FF2046FFF74F
:101DD00073FF8AE72046FFF76DFF2046FFF76CFF91
:101DE0009BE72046FFF766FF2046FFF765FFACE75D
:101DF0002046FFF75FFF2046FFF75EFFBDE76FF06D
:101E000001021A612046FFF783F9C1E76FF08002F3
:101E10001A61204600F025FBC3E76FF040021A610B
:101E20002046FFF74AFFC5E76FF020021A612046FF
:101E300000F016FBC7E7000003681B4A90420AD077
:101E4000B0F1804F07D0A2F59432904203D002F552
:101E50008062904203D123F070034A681343124A10
:101E600090420AD0B0F1804F07D0A2F59432904250
:101E700003D002F58062904203D123F44073CA6814
:101E8000134323F080034A69134303608B68C362E2
:101E90000B688362044B984202D001234361704770
:101EA0000B690363F9E700BF002C014040B310B594
:101EB000044690F83D30F3B1022384F83D302146CA
:101EC00051F8040BFFF7B8FF012384F8463084F87B
:101ED0003E3084F83F3084F8403084F8413084F854
:101EE000423084F8433084F8443084F8453084F834
:101EF0003D30002010BD80F83C30FFF70BFCDBE7E5
:101F00000120704740B310B5044690F83D30F3B15E
:101F1000022384F83D30214651F8040BFFF78CFF73
:101F2000012384F8463084F83E3084F83F3084F84A
:101F3000403084F8413084F8423084F8433084F8EB
:101F4000443084F8453084F83D30002010BD80F8DE
:101F50003C30FFF759FCDBE701207047002853D0E5
:101F6000F8B50D46044690F83D30002B47D00223CB
:101F700084F83D302268936823F4804323F00703FC
:101F80009360214651F8040BFFF756FF21688A68D9
:101F90008E690F6A2868104326F4407626F00306FF
:101FA000AA68AB6942EA0323334323F47C4323F05A
:101FB000FC03EE68EA6946EA02261E432A6A130316
:101FC0002A6943EA0213334327F022076A686D69DE
:101FD00042EA05123A43886021688B6123681A62DD
:101FE000012384F8463084F83E3084F83F3084F88A
:101FF000423084F8433084F83D300020F8BD80F84A
:102000003C30FFF7AFFBB2E70120704730B4036A02
:1020100023F010030362036A4468826922F4E642F3
:102020000D6842EA052223F020038D6843EA051378
:102030000E4DA84209D00D4DA8420ED044608261D9
:102040004A688263036230BC704723F08003CD6826
:1020500043EA051323F04003EDE724F440644D699F
:1020600044EA85048D6944EA8504E7E7002C0140D1
:1020700038B590F83C30012B60D004460D46012362
:1020800080F83C300C2A1AD8DFE802F00719191939
:102090001D1919193119191944000068FFF724FD99
:1020A0002268936943F0080393612268936923F0DF
:1020B000040393612268936929690B4393610020AB
:1020C00084F83C0038BD0068FFF7A0FF22689369E0
:1020D00043F4006393612268936923F480639361FE
:1020E00022689369296943EA01239361E7E700685D
:1020F000FFF728FD2268D36943F00803D361226803
:10210000D36923F00403D3612268D36929690B439F
:10211000D361D4E70068FFF747FD2268D36943F431
:102120000063D3612268D36923F48063D36122689A
:10213000D369296943EA0123D361C0E70220C1E7DB
:1021400010B4846824F47F4442EA03220A43224301
:10215000826010BC704790F83C30012B66D010B5FF
:102160000446012380F83C30022380F83D300268A9
:10217000936823F47F4323F0770393600B68602B0D
:1021800040D022D8402B47D00BD9502B0ED1CA6853
:1021900049680068FFF72CFD50212068FFF74DFDCE
:1021A00004E0202B0CD008D9302B09D0012384F86F
:1021B0003D30002084F83C0010BD0BB1102BF5D150
:1021C00019462068FFF739FDF0E7702B0ED0B3F504
:1021D000005FEBD1CB684A6889680068FFF7B0FF01
:1021E0002268936843F480439360DFE7CB684A68D2
:1021F00089680068FFF7A4FF2268936843F07703BB
:102200009360D3E7CA6849680068FFF703FD60215F
:102210002068FFF712FDC9E7CA6849680068FFF740
:10222000E7FC40212068FFF708FDBFE70220704768
:1022300010B401F01F01012303FA01F4036A23EA39
:1022400004030362036A02FA01F10B43036210BC48
:102250007047000010B50446084651BB94F83E3064
:10226000DBB2013B18BF0123002B5BD1002839D121
:10227000022384F83E30012201462068FFF7D8FF90
:1022800023682A4A93423DD02368284A93423ED08D
:10229000B3F1804F3BD0A2F59432934237D002F590
:1022A0008062934233D01A6842F001021A60002023
:1022B00039E0042908D008290DD094F84130DBB268
:1022C000013B18BF0123CFE794F83F30DBB2013B5D
:1022D00018BF0123C8E794F84030DBB2013B18BFB8
:1022E0000123C1E7042805D0082807D0022384F879
:1022F0004130C0E7022384F83F30BCE7022384F872
:102300004030B8E75A6C42F400425A64BCE79A681D
:1023100002F00702062A07D01A6842F001021A608A
:10232000002000E0012010BD0020FCE7002C01404F
:1023300070B5044690F83E00C0B294F83F3094F86F
:102340004220D2B294F843500E46B1B9012846D18A
:10235000012A45D1022384F83E3084F8423066B326
:10236000042E36D0012200212068FFF761FF0122F0
:1023700004212068FFF75CFF24E0DBB2EDB2042902
:1023800011D0012831D1012B2AD1012A2FD1012DC1
:102390002FD1022384F83E3084F83F3084F8423055
:1023A00084F84330DBE7012B1BD1012D1BD1022325
:1023B00084F83F3084F84330D1E7012200212068BF
:1023C000FFF736FF2268136843F001031360002013
:1023D00006E0012204212068FFF72AFFF2E701202E
:1023E00070BD0120FCE71846FAE70120F8E718461F
:1023F000F6E71046F4E7000090F83C30012B2BD0B4
:1024000030B4012380F83C30022380F83D3003686B
:102410005C689D6824F070040A6822435A6003686F
:102420000E4A93420AD0B3F1804F07D0A2F59432FE
:10243000934203D002F58062934204D125F08005D7
:102440004A6815439D60012380F83D30002380F8E1
:102450003C30184630BC704702207047002C0140C9
:102460007047704710B504460E4B18784FF47A73D6
:10247000B3FBF0F30C4A1068B0FBF3F000F06CFE15
:1024800068B90F2C01D901200AE0002221464FF043
:10249000FF3000F01FFE054B1C60002000E0012013
:1024A00010BD00BF300000203800002034000020A4
:1024B00008B5074A136843F010031360032000F0C7
:1024C000F7FD0020FFF7CEFFFFF7ECFA002008BD74
:1024D00000200240034A1168034B1B780B44136031
:1024E000704700BFAC05002030000020014B186889
:1024F000704700BFAC05002082B0084B1B68084A3B
:10250000A2FB03235B0A00FB03F3019300BF019BC3
:102510005A1E0192002BF9D102B0704738000020FA
:10252000D34D6210002800F0F18170B582B00446EE
:10253000036813F0010F2CD0AA4B5B6803F00C0367
:10254000042B1DD0A74B5B6803F00C03082B12D0A3
:102550006368B3F5803F41D0002B55D103F1804330
:1025600003F504331A6822F480321A601A6822F4E0
:1025700080221A6037E09B4B5B6813F4803FE7D002
:10258000984B1B6813F4003F03D06368002B00F0E6
:10259000BF81236813F0020F75D0924B5B6813F074
:1025A0000C0F5FD08F4B5B6803F00C03082B54D0EB
:1025B0002369002B00F089808B4B01221A60FFF702
:1025C00095FF0546874B1B6813F0020F74D1FFF788
:1025D0008DFF401B0228F5D903209EE1814A136834
:1025E00043F480331360636843B3FFF77FFF05460E
:1025F0007C4B1B6813F4003FCBD1FFF777FF401BE8
:102600006428F5D9032088E1B3F5A02F09D0754BD4
:102610001A6822F480321A601A6822F480221A6042
:10262000E1E703F18043A3F53C331A6842F48022CA
:102630001A601A6842F480321A60D4E7FFF756FF36
:102640000546684B1B6813F4003FA2D0FFF74EFF0E
:10265000401B6428F5D903205FE1624B5B6813F4EB
:10266000803FA5D15F4B1B6813F0020F03D0236995
:10267000012B40F04F815B4A136823F0F803616936
:1026800043EAC1031360236813F0080F32D0A36933
:10269000002B45D0554B01221A60FFF727FF054656
:1026A000504B5B6A13F0020F21D1FFF71FFF401B55
:1026B0000228F5D9032030E14A4A136823F0F803D1
:1026C000616943EAC1031360DDE7474B00221A60EA
:1026D000FFF70CFF0546434B1B6813F0020FD2D0E7
:1026E000FFF704FF401B0228F5D9032015E1012064
:1026F000FFF702FF236813F0040F00F09780394BB7
:10270000DB6913F0805F1DD1364BDA6942F08052ED
:10271000DA61DB6903F080530193019B012512E02C
:10272000324B00221A60FFF7E1FE05462D4B5B6A33
:1027300013F0020FDED0FFF7D9FE401B0228F5D9B7
:102740000320EAE000252A4B1B6813F4807F11D098
:10275000E368012B22D0002B38D103F1804303F52D
:1027600004331A6A22F001021A621A6A22F0040281
:102770001A6218E01E4A136843F480731360FFF76F
:10278000B5FE06461A4B1B6813F4807FE0D1FFF7B5
:10279000ADFE801B6428F5D90320BEE0114A136A00
:1027A00043F001031362E36873B3FFF79FFE06462D
:1027B0000C4B1B6A13F0020F37D1FFF797FE801BFB
:1027C00041F288339842F3D90320A6E0052B11D0BB
:1027D000044B1A6A22F001021A621A6A22F00402F9
:1027E0001A62E0E7001002400000424280044242C8
:1027F000007000404D4B1A6A42F004021A621A6AD5
:1028000042F001021A62CEE7FFF770FE0646474B20
:102810001B6A13F0020F08D0FFF768FE801B41F21D
:1028200088339842F3D9032077E0E5B9E369002BB8
:1028300072D03E4A526802F00C02082A56D0022B8F
:1028400017D03B4B00221A60FFF750FE0446374B6F
:102850001B6813F0007F47D0FFF748FE001B0228DB
:10286000F5D9032059E0314AD36923F08053D3616D
:10287000DCE72F4B00221A60FFF738FE05462B4B92
:102880001B6813F0007F06D0FFF730FE401B0228C4
:10289000F5D9032041E0236AB3F5803F1AD02349DC
:1028A0004B6823F47413226A606A024313434B603B
:1028B0001F4B01221A60FFF719FE04461B4B1B68D1
:1028C00013F0007F0ED1FFF711FE001B0228F5D98F
:1028D000032022E0154A536823F40033A1680B4318
:1028E0005360DCE7002018E0002016E0012B16D032
:1028F0000E4B5B6803F48031226A914211D103F4DC
:102900007013626A93420ED1002006E001207047E6
:10291000012002E0012000E0002002B070BD012093
:10292000FBE70120F9E70120F7E700BF00100240B4
:102930006000424286B0164B0FCB0DF1180C0CE92B
:102940000F0040F20123ADF80430124B5B6803F036
:102950000C02082A02D0104806B07047C3F3834225
:10296000624412F8102C13F4803F0CD0094B5B68C2
:10297000C3F34043634413F8143C074800FB02F0E0
:10298000B0FBF3F0E8E7054800FB02F0E4E700BF26
:10299000D06C00080010024000127A0000093D00CF
:1029A000002800F0A08070B50D460446524B1B680D
:1029B00003F007038B420BD24F4A136823F007033F
:1029C0000B431360136803F007038B4240F08D80C4
:1029D000236813F0020F17D013F0040F04D0474AF6
:1029E000536843F4E0635360236813F0080F04D086
:1029F000424A536843F460535360404A536823F09B
:102A0000F003A1680B435360236813F0010F31D02A
:102A10006368012B20D0022B25D0384A126812F0AF
:102A2000020F64D035494A6822F0030213434B6019
:102A3000FFF75CFD0646314B5B6803F00C036268F0
:102A4000B3EB820F16D0FFF751FD801B41F28833A4
:102A50009842F0D9032045E0284A126812F4003F5A
:102A6000E0D101203EE0254A126812F0007FD9D162
:102A7000012037E0204B1B6803F00703AB420AD963
:102A80001D4A136823F007032B431360136803F0F8
:102A90000703AB422DD1236813F0040F06D0174A69
:102AA000536823F4E063E1680B435360236813F039
:102AB000080F07D0114A536823F46053216943EA91
:102AC000C1035360FFF736FF0C4B5B68C3F303137E
:102AD0000B4AD35CD8400B4B18600B4B1868FFF7C0
:102AE000C1FC002070BD012070470120FAE70120E1
:102AF000F8E70120F6E700BF002002400010024086
:102B0000E46C00083800002034000020014B1868F5
:102B1000704700BF3800002008B5FFF7F7FF044BEF
:102B20005B68C3F30223034AD35CD84008BD00BFEF
:102B300000100240F46C000808B5FFF7E7FF044BF3
:102B40005B68C3F3C223034AD35CD84008BD00BF0F
:102B500000100240F46C0008F0B482B000252C464E
:102B6000A3E07F4FBB4210D007D97E4FBB420CD0B1
:102B700007F58037BB4208D013E0A7F58017BB42AA
:102B800003D007F57027BB4207D18B68002B58D0C4
:102B9000012B51D04261082503E0A7F58017BB4205
:102BA000F3D0FF2E4FD88446FF2E4FD8A200DCF87A
:102BB00000300F27974023EA070305FA02F2134378
:102BC000CCF800304B6813F0805F6DD0664B9A698B
:102BD00042F001029A619B6903F001030193019B9A
:102BE000A208971C614B53F8273004F00307BF007D
:102BF0004FF00F0C0CFA07FC23EA0C0C5C4B9842CC
:102C00002AD003F58063984200F08A8003F5806340
:102C1000984200F0878003F5806398421AD004231D
:102C20001BE0CD68BDE7CD680435BAE7CD6808354F
:102C3000B7E7CD680C35B4E702610825B1E7002598
:102C4000AFE70425ADE700F1040CADE7A4F10802FD
:102C50009200ACE7032300E00023BB4043EA0C03EF
:102C60000232424F47F822304B6813F4803F5BD06A
:102C7000404A1368334313604B6813F4003F59D044
:102C80003C4A5368334353604B6813F4801F57D05A
:102C9000384A9368334393604B6813F4001F55D050
:102CA000344AD3681E43D66001340B6833FA04F209
:102CB00052D00122A24003EA020632EA0303F3D112
:102CC0004B68122B3FF64DAF122B3FF66AAF01A7B0
:102CD00057F823F08B2B0008232C00082D2C00081C
:102CE0003F2C0008A32B0008A32B0008A32B0008EF
:102CF000A32B0008A32B0008A32B0008A32B00087C
:102D0000A32B0008A32B0008A32B0008A32B00086B
:102D1000A32B0008A32B0008272C0008332C000845
:102D200001239AE7022398E7124A136823EA06036D
:102D30001360A1E70F4A536823EA06035360A3E731
:102D40000C4A936823EA06039360A5E7094AD3680F
:102D500023EA0606D660A7E702B0F0BC704700BFC2
:102D6000000022100000311000100240000001405D
:102D700000080140000401400AB1016170470904E4
:102D80000161704770B4066CC56B0124B4406C607F
:102D9000046863604368102B05D00368996003687A
:102DA000DA6070BC704703689A600368D960F8E71E
:102DB00060B310B402460168154B0B441548A0FBE4
:102DC00003031B099B001364134BD363022382F894
:102DD0002130086820F47F5020F030005368946858
:102DE0002343D468234314692343546923439469D8
:102DF0002343D469234303430B60002090630123E2
:102E000082F8213082F8200010BC70470120704702
:102E1000F8FFFDBFCDCCCCCC0000024038B5044655
:102E200090F82000012831D0012084F8200094F887
:102E30002100012804D0002384F82030022038BD6E
:102E4000022084F821000020A0632568286820F073
:102E5000010028602046FFF795FFE36A5BB1226816
:102E6000136843F00E0313602268136843F00103F4
:102E700013600020E3E72268136823F00403136063
:102E80002268136843F00A031360EDE70220D6E7D7
:102E900090F82130022B06D004238363002380F8AE
:102EA0002030012070470268136823F00E0313607E
:102EB0000268136823F001031360036CC16B0122E5
:102EC00002FA03F34B6080F82120002380F82030C1
:102ED0001846704708B590F82130022B03D0042320
:102EE0008363012008BD0268136823F00E0313609A
:102EF0000268136823F0010313600368194A9342C0
:102F000014D0143293421FD0143293421ED0143284
:102F100093421ED0143293421ED01432934202D0F8
:102F20004FF0807203E04FF4801200E001220E4B5C
:102F30005A60012380F82130002380F82030436B51
:102F40006BB198470020CDE71022F0E74FF4807274
:102F5000EDE74FF48052EAE74FF48032E7E70020D4
:102F6000C0E700BF080002400000024038B5C36B54
:102F70001A6804682568016C04238B40134235D01D
:102F800015F0040F32D0236813F0200F03D123680B
:102F900023F0040323600368434A934214D014329D
:102FA000934218D01432934217D01432934217D060
:102FB0001432934217D01432934202D04FF0806201
:102FC00003E04FF4800200E00422384B5A60C36AE9
:102FD00003B1984738BD4022F7E74FF48062F4E729
:102FE0004FF48042F1E74FF48022EEE702238B405A
:102FF00013423CD015F0020F39D0236813F0200F94
:1030000006D1236823F00A032360012380F82130CE
:103010000368254A934214D0143293421CD01432D0
:1030200093421BD0143293421BD0143293421BD0D4
:103030001432934202D04FF0007203E04FF40012BA
:1030400000E00222194B5A60002380F82030836A86
:10305000002BBFD09847BDE72022F3E74FF4007262
:10306000F0E74FF40052EDE74FF40032EAE70823AF
:1030700003FA01F11142ADD015F0080FAAD0236870
:1030800023F00E032360026CC16B012303FA02F2EA
:103090004A60836380F82130002380F82030036B7E
:1030A000002B97D0984795E70800024000000240A7
:1030B000074AD36823F4E0631B041B0C000200F4EE
:1030C000E060034343F0BF6343F40033D3607047D1
:1030D00000ED00E030B4174BDB68C3F30223C3F10B
:1030E0000704042C28BF04241D1D062D18D9033BFA
:1030F0004FF0FF3505FA04F421EA0401994005FA7E
:1031000003F322EA0303194300280BDB0901C9B2C8
:1031100000F1604000F5614080F8001330BC70475A
:103120000023E5E700F00F000901C9B2024B195472
:10313000F4E700BF00ED00E014ED00E0002807DB3D
:1031400000F01F02400901239340024A42F8203058
:10315000704700BF00E100E00138B0F1807F0AD283
:10316000064B5860064AF02182F823100020986030
:1031700007221A6070470120704700BF10E000E08E
:1031800000ED00E00268D36823F0C003D360202381
:1031900080F83D3070470268D36823F49073D360A1
:1031A0000268536923F001035361036B012B05D0BF
:1031B000202380F83E300023036370470268D36801
:1031C00023F01003D360F3E790F83D30DBB2212BFE
:1031D00001D0022070478368B3F5805F17D0036A7F
:1031E0005A1C02621A7803685A60C38C9BB2013B76
:1031F0009BB2C3844BB90268D36823F08003D360C9
:103200000268D36843F04003D3600020704703692D
:10321000002BE4D1036A1B880268C3F308035360E0
:10322000036A02330362E0E710B5044602681369DB
:1032300023F44053C1680B4313618368026913434D
:1032400042691A430168CB6823F4B05323F00C039E
:103250001343CB600268536923F4407381690B43C5
:1032600053610268124B9A421FD0FFF755FC00EBE6
:10327000800303EB830362689200B3FBF2F20D4814
:10328000A0FB02314909642303FB11231B013233E4
:10329000A0FB03235B0903F0F00202EB011203F031
:1032A0000F03216813448B6010BDFFF745FCDEE778
:1032B000003801401F85EB512DE9F84305460F46C4
:1032C00016469946DDF820802C68246837EA040306
:1032D0000CBF01240024B4421FD1B8F1FF3FF3D04A
:1032E000B8F1000F05D0FFF701F9A0EB0900404548
:1032F000EAD92A68D36823F4D073D3602A68536963
:1033000023F001035361202385F83D3085F83E30DA
:10331000002385F83C30032000E00020BDE8F8835E
:1033200058B310B5044690F83D300BB3242384F80D
:103330003D302268D36823F40053D3602046FFF762
:1033400073FF2268136923F4904313612268536961
:1033500023F02A0353612268D36843F40053D360F7
:1033600000202064202384F83D3084F83E3010BDD6
:1033700080F83C30FEF7EAFAD8E7012070472DE9E3
:10338000F04182B01E4690F83D30DBB2202B54D184
:1033900004460D469046002953D0002A53D090F899
:1033A0003C30012B51D0012380F83C3000230364D2
:1033B000212380F83D30FFF799F80746A4F82480D0
:1033C000A4F82680A368B3F5805F05D04FF000080D
:1033D000002384F83C3012E0236913B14FF0000859
:1033E000F6E7A8460025F3E738F8023B2268C3F366
:1033F00008035360E28C92B2013A92B2E284E38C09
:103400009BB273B100963B46002280212046FFF715
:1034100053FFE0B9002DE7D015F8012B23685A605F
:10342000E8E700963B46002240212046FFF744FF94
:1034300078B9202384F83D3000E0022002B0BDE8D6
:10344000F0810120FAE70120F8E70220F6E70320E7
:10345000F4E70320F2E72DE9F04182B01E4690F830
:103460003E30DBB2202B5CD104460D46904600294D
:103470005BD0002A5BD090F83C30012B59D001235F
:1034800080F83C3000230364222280F83E2003634E
:10349000FFF72CF80746A4F82C80A4F82E80A36828
:1034A000B3F5805F05D04FF00008002384F83C306E
:1034B00017E0236913B14FF00008F6E7A84600258E
:1034C000F3E723685B68C3F3080328F8023B03E0D3
:1034D00023685B682B700135E28D92B2013A92B29B
:1034E000E285E38D9BB2BBB100963B4600222021D2
:1034F0002046FFF7E1FEF0B9002DE2D0A368B3F556
:10350000805FE5D013B92369002BE1D023685B68A5
:1035100003F07F032B70DEE7202384F83E30002089
:1035200000E0022002B0BDE8F0810120FAE70120AE
:10353000F8E70220F6E70320F4E7000038B590F83A
:103540003D30DBB2202B31D10446002930D0002A97
:1035500030D090F83C30012B2ED0012380F83C3045
:1035600001628284C28400250564212380F83D30F5
:10357000436B12489862636B1148D862636B1148C1
:103580001863636B5D6320681346021D606BFFF771
:1035900045FC23686FF040021A6084F83C502268B2
:1035A000536943F080035361284600E0022038BD90
:1035B0000120FCE70120FAE70220F8E7CB350008FC
:1035C0001736000825360008704708B50346406ADC
:1035D0001B681B6813F0200F0CD10023C384026802
:1035E000536923F0800353610268D36843F04003BA
:1035F000D36008BDFFF7E8FFFBE708B50168CA68BC
:1036000022F04002CA60202280F83D20FFF7DCFF54
:10361000002008BD704708B5406AFFF7FBFF08BDF2
:103620007047704710B5446A23685A6994F83D3072
:10363000DBB2212B10D023685A6902F0400294F8C3
:103640003E30DBB2222B11D0236C43F010032364F5
:103650002046FFF7E6FF10BD02F08002002AEAD004
:103660000023E3842046FFF78DFDE4E7002AEBD03A
:103670000023E3852046FFF78EFDE5E708B5406AA5
:103680000023C385C384FFF7CCFF08BD704790F8C3
:103690003E30DBB2222B60D18368B3F5805F46D029
:1036A000826AB3F5805F04D0002B4DD10369002BF3
:1036B0004AD103685B681370836A01338362C38DE8
:1036C0009BB2013B9BB2C385002B48D100B583B0B0
:1036D0000268D36823F02003D3600268D36823F420
:1036E0008073D3600268536923F001035361202380
:1036F00080F83E30036B012B2CD10023036302685A
:10370000D36823F01003D36003681A6812F0100F17
:1037100006D0002201921A6801925B680193019B16
:10372000818DFFF7B3FF002003B05DF804FB026951
:10373000002AB5D1826A03685B68C3F3080313806B
:10374000836A02338362BAE703685B6803F07F032E
:103750001370B1E7FDF706FDE5E702207047002092
:103760007047000030B583B0044602681368D06823
:10377000516913F00F0505D113F0200F02D010F09E
:10378000200F19D12DB111F0010119D110F4907F42
:1037900016D1216B012975D013F0800F03D010F0E2
:1037A000800F40F0D78013F0400F03D010F0400F8F
:1037B00040F0D48003B030BD2046FFF768FFF9E742
:1037C00013F0010F06D010F4807F03D0226C42F07A
:1037D0000102226413F0040F04D019B1226C42F0EC
:1037E0000202226413F0020F04D019B1226C42F0DD
:1037F0000402226413F0080F07D010F0200F00D14C
:1038000019B1226C42F008022264226C002AD1D045
:1038100013F0200F02D010F0200F21D123685B6934
:1038200003F04003226C12F0080F00D123B32046AE
:10383000FFF7B1FC23685A6912F0400F18D05A699B
:1038400022F040025A61A36B73B1464A5A63A06BDF
:10385000FFF740FB0028ADD0A06B436B9847A9E76A
:103860002046FFF714FFD9E72046FFF7DAFEA1E76D
:103870002046FFF7D6FE9DE72046FFF7D2FE002345
:10388000236497E713F0100F86D010F0100F83D049
:10389000002301931368019353680193019B5369BB
:1038A00013F0400F32D0A16B0B685B689BB2002B0A
:1038B00080D0A08D98427FF67DAFE3858B69202B69
:1038C00008D1A18DE38D9BB2C91A89B22046FFF7BA
:1038D000DDFE6FE7D36823F48073D36022685369F9
:1038E00023F0010353612268536923F040035361BD
:1038F000202384F83E30002323632268D36823F01A
:103900001003D360A06BFFF7C3FADAE7A18DE38D54
:103910009BB2C91A89B2E38D9BB2002B3FF44AAF28
:1039200000293FF447AFD36823F49073D360226833
:10393000536923F001035361202384F83E300023B0
:1039400023632268D36823F01003D3602046FFF777
:103950009DFE2FE72046FFF737FC2BE72046FFF7B9
:103960004CFE27E77D36000808B5406A036B012B43
:1039700002D0FFF755FE08BD818D4908FFF786FE8E
:10398000F9E708B50346406A1B681B6813F0200F6F
:1039900016D10023C3850268D36823F48073D360F3
:1039A0000268536923F0010353610268536923F0ED
:1039B00040035361202380F83E30036B012B05D078
:1039C000036B012B08D0FDF7CDFB08BD0268D3685F
:1039D00023F01003D360F3E7818DFFF757FEF4E780
:1039E00030B583B0044613468162828500250564A4
:1039F000222280F83E20826B14489062A26B144809
:103A0000D062A26B13481063A26B556320680A460C
:103A1000011DA06BFFF702FA019523681A68019255
:103A20005A680192019A84F83C50DA6842F4807234
:103A3000DA602268536943F00103536122685369D5
:103A400043F040035361284603B030BD833900087A
:103A5000693900082536000808B590F83E30DBB219
:103A6000202B0DD171B17AB190F83C30012B0DD0E3
:103A7000012380F83C3000230363FFF7B1FF00E02F
:103A8000022008BD0120FCE70120FAE70220F8E748
:103A90007047000000000000D0B50446D0E904677C
:103AA0000846FDF717F90C49FDF76CF9FCF7BCFC6B
:103AB00002460B4630463946FCF738FE04A3D3E9EC
:103AC0000023FCF709FDC4E90001D0BDAFF300807D
:103AD00000000000004CED400000484470B5064670
:103AE00014461D460022002320462946FCF77AFF93
:103AF00028B1012386F82830C6E9024570BD0023AD
:103B000086F82830224605F10043C6E90223F5E78E
:103B100010B5034600F10801D1E900011C6BD3E99F
:103B20000023FCF721FBC4E9060110BDF8B50646E9
:103B30000F4614461D46FCF75FFF48B9DDE9062332
:103B400030463946FCF73AFF28B1DDE9060101E0CD
:103B500020462946F8BD30463946FBE72DE9F04FAF
:103B600089B00546046BD4E91067CDE90667D4E94E
:103B70001289D4E90623D4E90001FCF7ADFC8246A2
:103B80008B4602460B4630463946FCF735FF002887
:103B900067D052465B4630463946FCF7E5FAFCF7FB
:103BA00093FF049052465B4640464946FCF706FFA9
:103BB000002859D052465B4640464946FCF7D4FAA5
:103BC000FCF782FF0590D4E90C23CDE90223D4E968
:103BD0000467D4E90601D4E90823FCF7C7FA0246D2
:103BE0000B4630463946FCF777FC02460B46DDE9CA
:103BF0000201FCF7BBFA06460F460498FCF714FCDA
:103C0000CDE902010598FCF70FFCCDE90001DDE9E3
:103C1000022330463946FFF789FF06460F46024623
:103C20000B4650465946FCF7A1FACDE90089DDE97B
:103C30000623FFF77BFF8146884600220023484683
:103C40004146FCF7BBFE90B94A464346C5E9082306
:103C5000D4E90623C4E90823C4E90C6709B0BDE828
:103C6000F08F002304939DE700230593ABE708F151
:103C70000048E9E710B5044690F82830012B19D028
:103C80000122418D406BFFF777F80022A18D606B18
:103C9000FFF772F800220023D4E90201FCF784FE4A
:103CA00098B9D4E9080102F09BFFA46BFCF7ECFE85
:103CB000206010BD0022418D406BFFF75DF80122AE
:103CC000A18D606BFFF758F8E4E7A36B00221A6040
:103CD000EFE7C0E90023DDE90023C0E90423DDE9C3
:103CE0000223C0E9022370472DE9F04184B0044665
:103CF0000D4690461F46129E50220021284600F095
:103D0000D3F92563C4F834806785BDF82830A385CE
:103D1000012384F82830109BE363119BA363DDE942
:103D20000C23C5E91023DDE90E23C5E91223D6E9EA
:103D30000423CDE90223D6E90223CDE90023D6E905
:103D400000232846FFF7C5FF04B0BDE8F08100005E
:103D50002DE9F84306460F46DDE908894046494605
:103D6000FCF7BAFB04460D4642464B460020074985
:103D7000FCF7FAF932463B46FCF7AEFB02460B462F
:103D800020462946FCF7F2F9BDE8F8830000F03F31
:103D90002DE9F04F83B0044690469946C36BD3F8A3
:103DA00000B0FEF7A3FB0546A369B0EB030A01D1FF
:103DB0004FF00A0AE06983452CD9ABEB0000FCF711
:103DC00011FB06460F460022164B30463946FCF7DB
:103DD00013FE08B1D4E904670022134BCDE9002398
:103DE000D4E9042330463946FFF7B2FFC4E90401A1
:103DF00051462046FFF750FE42464B462046FFF70D
:103E00006DFE2046FFF784FEA561C4F81CB003B028
:103E1000BDE8F08FA0EB0B00FCF7E4FA06460F4676
:103E2000D1E700BF000049400000E03F82B0D0E988
:103E30000023CDE90023002308E0C3F1070202A814
:103E4000024412F8082CCA540133DBB2072BF4D910
:103E500002B070478446002004E01CF8013018448A
:103E60000131C9B29142F8D3704730B583B00446EE
:103E7000CDE9002301230370022545700822411972
:103E80006846FFF7D3FF082204F10A0106A8FFF7EE
:103E9000CDFF082204F1120108A8FFF7C7FF1A227C
:103EA00029462046FFF7D6FF030EA376030CE376E0
:103EB000030A237760770D23A3770A23E37703B000
:103EC00030BD2DE9F0410F461646827AC57A2D04A1
:103ED00045EA0265027B45EA0225427B154382786A
:103EE000C478240444EA0264027944EA0224427950
:103EF0001443827990F807C04FEA0C4C4CEA026CEC
:103F0000027A4CEA022C90F809804CEA08080A224E
:103F10000221FFF79FFF854201D0BDE8F0813C60A0
:103F2000C6F80080F9E7000008B5054B1860054B9E
:103F30001868002302221946806800F01DFD08BDA4
:103F4000B00500203C000020022801D80120704765
:103F500008B500F07FF809230360002008BD0000C9
:103F600010B5013801280AD814464FF0FF3392B239
:103F700007480068FFF703FA40B9204610BD00F07B
:103F800069F8092303604FF0FF30F7E70520F5E7F4
:103F9000B0050020022801D80020704708B500F0C5
:103FA00059F8092303604FF0FF3008BD08B500F051
:103FB00051F8092303604FF0FF3008BD08B548B938
:103FC0004FF0FF33012208480068FFF744FA40B978
:103FD000012008BD00F03EF8092303604FF0FF30D8
:103FE000F7E70520F5E700BFB005002008B5022877
:103FF00004D84FF400534B60002008BD00F02AF8AD
:1040000009230360F8E700000C480D490D4A00231E
:1040100002E0D458C4500433C4188C42F9D30A4A7D
:104020000A4C002301E013600432A242FBD3FFF7E5
:104030002FFD00F015F8FDF70FF970470000002084
:104040000C0200202471000810020020B40500209A
:10405000FEE70000014B1868704700BF3C000020DD
:1040600070B500260C4D0D4C641BA410A64209D15E
:1040700002F022FE00260A4D0A4C641BA410A64240
:1040800005D170BD55F8043B98470136EEE755F869
:10409000043B98470136F2E71C7100081C710008C8
:1040A0001C7100082071000803460244934200D1AD
:1040B000704703F8011BF9E7002B2DE9F0471F4675
:1040C000BBBF03F100431F4600232D2388B01446D5
:1040D000129A109D1370149BDDF84CA023F0200859
:1040E000B8F1460F05D0B8F1450F00D101350223D4
:1040F00000E0032307AA049206AACDE902A2CDE9B3
:10410000003522463B4600F08BFDB8F1470F0646CE
:1041100002D1119BDB0722D5B8F1460F06EB05094A
:1041200010D13378302B0AD10022002320463946A3
:10413000FCF73AFC18B9C5F10105CAF80050DAF8E5
:10414000003099440022002320463946FCF72CFC1D
:1041500008B1CDF81C903022079B4B4507D3304661
:10416000079B159A9B1B136008B0BDE8F087591C8C
:1041700007911A70F0E70346F7B5002903F8022B00
:10418000B6BF2D222B224942092942702BDD0DF1A9
:104190000704A4460A2791FBF7F60A46A64607FB42
:1041A0001615632A05F13005314604F1FF340EF887
:1041B000015CF0DC3031AEF1020504F8011C294647
:1041C000441C61450AD30DF10902A2EB0E026545BC
:1041D00088BF00221344181A03B0F0BD11F8012B58
:1041E00004F8012FEDE7302330318370C170031DD7
:1041F000F1E700002DE9F04F91B00C46DDF8688042
:1042000016461F46054601F0ADFC036818460993A3
:10421000FBF79EFF00230E93D8F800300A90073377
:1042200023F0070303F1080294F81890D4F800B0C3
:10423000C8F80020D3E90023C4E91223D4E9128A84
:104240002AF000430B934FF0FF3240469C4B0B99F2
:10425000FCF7DCFB70BB4FF0FF324046984B0B99EC
:10426000FCF7B6FB30BB0022002340465146FCF76A
:10427000A5FB10B12D2384F84330924B9248B9F13D
:10428000470F94BF9846804603234FF0000A2361EE
:104290002BF00403236033462146284600970FAADB
:1042A00000F0D4F9013040F090804FF0FF3011B0B1
:1042B000BDE8F08F4246534640465146FCF7A6FB08
:1042C00048B1BAF1000FB8BF2D238048B8BF84F8B9
:1042D00043307F4BD3E7636809F0DF015A1C42D1BA
:1042E00006236360002206920EAACDE904920DAA6D
:1042F0004BF4806303920DF13302CDE90132236068
:10430000636842460093284653460B91FFF7D4FE5C
:104310000B99804647290D9908D1C81C02DB6368B8
:10432000994240DDA9F102095FFA89F9B9F1650FF7
:104330001FD84A46013904F150000D91FFF71BFFC9
:104340000E9A82461318012A236102DC2268D207E2
:1043500001D5013323619DF83330002B9BD02D23F1
:1043600084F8433097E74729BCD1002BBAD1012309
:10437000B7E7B9F1660F18D1002963680BDD216139
:1043800013B92268D00702D501330B4423614FF0E3
:10439000000AA165DFE713B92268D20701D502330D
:1043A000F4E70123F2E74FF067090E9B994205DB22
:1043B00023682161D807EAD54B1CE7E70029CCBF69
:1043C0000122C1F102021344E0E723685A0507D431
:1043D0002369424631462846B84701302BD164E76D
:1043E000B9F1650F40F2DD80D4E91201002200230B
:1043F000FCF7DAFA002833D0012331462846354A43
:10440000B84701303FF451AFDDE90D239A4202DB9A
:104410002368D8070FD5DDE9092331462846B84778
:1044200001303FF442AF4FF0000804F11A090E9B2F
:10443000013B434509DC23689B0700F10281E068EA
:104440000F9B9842B8BF184631E701234A463146D0
:104450002846B84701303FF428AF08F10108E6E7E5
:104460000D9B002B38DC012331462846194AB847FA
:1044700001303FF41AAFDDE90D23134302D1236865
:10448000D907D8D5DDE9092331462846B847013098
:104490003FF40BAF4FF0000904F11A0A0D9B5B4289
:1044A0004B4501DC0E9B94E70123524631462846DA
:1044B000B84701303FF4F9AE09F10109EEE700BF5A
:1044C000FFFFEF7F006D0008046D00080C6D000811
:1044D000086D0008106D00080E9AA36D9A42A8BFDF
:1044E0001A46002A914637DC4FF0000B29EAE97999
:1044F00004F11A02D4F858A0AAEB09035B4533DC97
:10450000DDE90D239A423BDB2368DA0738D40E9BA2
:104510000D99A3EB0A02A3EB01099145A8BF9146AF
:10452000B9F1000F34DC4FF0000829EAE97904F111
:104530001A0ADDE90D239B1AA3EB090343457FF714
:104540007AAF0123524631462846B84701303FF43E
:10455000ACAE08F10108ECE7134631464246284666
:10456000B8470130C0D1A0E60123314628460B925E
:10457000B84701303FF499AE0B9A0BF1010BB9E744
:104580003146DDE909232846B8470130BFD18CE622
:104590004B463146284608EB0A02B8470130C2D1E3
:1045A00083E60E9A012A01DCDB0737D50123424658
:1045B00031462846B84701303FF477AEDDE909239C
:1045C00031462846B84701303FF46FAED4E91201B6
:1045D00000220023FCF7E8F9D8B90E9B08F101028C
:1045E000013B31462846B84701300ED15DE6012334
:1045F0004A4631462846B84701303FF456AE08F1E6
:1046000001080E9B013B4345F1DC534604F1500287
:10461000E0E64FF0000804F11A09F2E701234246F0
:10462000DFE701234A4631462846B84701303FF4C8
:104630003CAE08F10108E3680F995B1A4345F0DCD2
:10464000FDE64FF0000804F11909F4E72DE9F04701
:10465000164699468A680B6907469342B8BF1346C7
:10466000336091F843200C46DDF820800AB1013315
:1046700033602368990642BF33680233336025688C
:1046800015F0060506D104F1190AE36832689B1A91
:10469000AB4228DC94F84320131E226818BF012384
:1046A00092062DD44946384604F14302C0470130F2
:1046B00020D02368E56803F00603042B18BF00250B
:1046C00032684FF00006A36808BFAD1A226908BF20
:1046D00025EAE5759342C4BF9B1AED181A34B5421A
:1046E0001AD1002008E00123524649463846C04707
:1046F000013003D14FF0FF30BDE8F0870135C4E74A
:104700003020E11881F843005A1C94F845102244E7
:10471000023382F84310C5E7012322464946384652
:10472000C0470130E6D00136D9E700002DE9FF4748
:104730000F7E9146782F80460C469A460C9D01F1DB
:10474000430207D8622F0AD8002F00F0D980582FD3
:1047500000F0A48004F1420584F842703AE0A7F129
:104760006303152BF6D801A151F823F0C5470008C3
:10477000D947000855470008554700085547000825
:1047800055470008D9470008554700085547000815
:104790005547000855470008E74800080948000841
:1047A000C94800085547000855470008094900084E
:1047B00055470008094800085547000855470008B4
:1047C000D14800082B681A1D1B682A6004F14205B5
:1047D00084F842300123A4E020682968060601F12C
:1047E00004030AD50E682B60002E03DA2D237642CF
:1047F00084F843300A235E4819E00E6810F0400F39
:104800002B6018BF36B2EFE72B682068191D2960AE
:10481000010601D51E6802E04606FBD51E886F2FF3
:104820000CBF08230A235248002184F8431065680E
:10483000002DA8BF2168A560A4BF21F0040121605C
:104840000EB9002D4DD01546B6FBF3F103FB1167F1
:10485000C75D05F8017D3746BB420E46F4D9082BEB
:104860000BD12368DE0708D5236961689942DEBF52
:10487000302305F8013C05F1FF35521B22614B4600
:1048800021464046CDF800A003AAFFF7DFFE013025
:104890004CD14FF0FF3004B0BDE8F087344881F8C8
:1048A00045702968236851F8046B29601D0614D5EA
:1048B000DF0744BF43F0200323601EB9236823F0C1
:1048C000200323601023AFE7236843F02003236015
:1048D0007823284884F84530E3E7590648BFB6B244
:1048E000E6E71546BBE72B682668181D6169286056
:1048F00035061B6801D5196002E07006FBD51980EA
:10490000002315462361BAE72B6800211A1D2A608F
:104910001D686268284601F099F908B1401B606083
:1049200063682361002384F84330A8E72A46494698
:1049300040462369D0470130ABD023689B0713D48E
:10494000E068039B9842B8BF1846A4E701233246AB
:1049500049464046D04701309BD00135E368039972
:104960005B1AAB42F2DCEBE7002504F11906F5E730
:10497000126D0008236D00082DE9F7431D465D4BBD
:1049800004461F680E46904627B1BB6913B93846E6
:1049900001F04AF8584B9C4267D17C68B8F1020F8D
:1049A00006D0B8F1010F00F29F80002DC0F29C806C
:1049B000636EDB0705D4A389980502D4A06D01F0CE
:1049C000D6F82146384600F09BFF616B41B104F1F7
:1049D0004403994202D0384601F0E4FC00236363AB
:1049E0000023A3616360A389190603D538462169B2
:1049F00001F0D8FCA389B8F1020F23F44A6323F035
:104A00000303A3816CD001AB6A462146384601F00E
:104A1000B0F8A3891843A081002D30D1009D28460D
:104A200001F00CF90646002855D1DDF80090A945A3
:104A30004AD14FF0FF350022A26004F14702226004
:104A400022610122B4F90C306261626E43F002030C
:104A5000D207A38105D413F4007F02D1A06D01F029
:104A600087F8284603B0BDE8F083244B9C4201D16F
:104A7000BC6893E7224B9C4208BFFC688EE7002E7F
:104A8000CDD0BB6913B9384600F0CEFFB8F1010FA5
:104A900008BFA389C4E9046504BF43F00103A381EF
:104AA000A289266012F008031CD0D30741BF00235F
:104AB0006D42A360A56158BFA560656E15F0010544
:104AC00015D112F4007FC8E7484601F0B7F8064652
:104AD0000028AED04D46A38943F08003A381D0E7E0
:104AE0000025A8E7A360E8E74FF0FF35B9E7002508
:104AF000B7E700BF3C000020086E0008286E0008E1
:104B0000E86D00082DE9F74F03690C690746A342D9
:104B1000C0F28280013C00F1140501F1140805EB9C
:104B20008403019358F8243055F8242001339A4225
:104B3000B2FBF3F64FEA840B08EB840931D34FF054
:104B4000000E4046AC46F24650F8042B93B206FBEA
:104B500003E3120C4FEA134E9BB206FB02E2AAEBF0
:104B60000303DCF800A04FEA124E1FFA8AFA5344FE
:104B7000DCF800A092B2C2EB1A4202EB23429BB2D5
:104B800043EA024381454FEA224A4CF8043BDBD218
:104B900055F80B302BB9019B043B9D421A462FD38D
:104BA0003C61384601F0ECFA002825DB28464FF03E
:104BB000000C013658F8041BD0F800E08BB2ACEBC7
:104BC00003031FFA8EF213440A0CC2EB1E4202EBDF
:104BD00023429BB243EA0243C1454FEA224C40F8CC
:104BE000043BE7D255F8242005EB840322B9043BAB
:104BF0009D421A460AD33C61304603B0BDE8F08FAF
:104C00001268043B002ACBD1013CC6E71268043B82
:104C1000002AF0D1013CEBE70020EEE700000000A5
:104C20002DE9F04F16461F46446A99B00546CDE976
:104C30000467DDF8948074B9102000F0FFFF02468D
:104C4000686220B9EA21A84BA84801F0B3FCC0E98A
:104C500001440460C4606B6A196851B15A68012349
:104C600093404A608B60284601F04CF800226B6A42
:104C70001A603B1EAFBF0023012223F000430593BF
:104C8000A8BFC8F80030DDF81490994BB8BFC8F839
:104C9000002033EA090319D142F20F73249A1360FA
:104CA000C9F31303334300F07F85269B53B9914B1F
:104CB00022E0914B03930833269A1360039819B0AE
:104CC000BDE8F08F8B4B03930333F5E7DDE9043444
:104CD000CDE90C34DDE90C0100220023FBF764FE72
:104CE000804658B10123249A1360269B002B00F0C4
:104CF000588582481860431E0393DFE716AB019383
:104D000017AB00932846DDE90C2301F0E1FAC9F363
:104D10000A548346002C7FD0DDE90C010D9BA4F2E0
:104D2000FF34C3F3130343F07F5141F44011CDF836
:104D30004C800022724BFBF717FA65A3D3E90023DE
:104D4000FBF7CAFB64A3D3E90023FBF70FFA06467F
:104D500020460F46FBF756FB61A3D3E90023FBF780
:104D6000BBFB02460B4630463946FBF7FFF90646C9
:104D70000F46FBF761FE002282460023304639468B
:104D8000FBF71CFE48B15046FBF73CFB32463B4666
:104D9000FBF70AFE08B90AF1FF3ABAF1160F58D824
:104DA000DDE90C01574B03EBCA03D3E90023FBF702
:104DB00005FE00284FD000230AF1FF3A0F93169BFF
:104DC0001C1B631E099349BFC4F101030023069312
:104DD000002354BF06930993BAF1000F3DDB099BF2
:104DE000CDF838A05344099300230A93229B092B42
:104DF00000F28C80052BC4BF043B2293229BC8BFCA
:104E00000024A3F10203D8BF0124032B00F28A80FF
:104E1000DFE803F02D4F4D5BDDE916431C4404F23F
:104E20003243202BC3BFC3F1400304F2124009FAFE
:104E300003F3C3F12003C6BF26FA00F0184306FAB5
:104E400003F0FBF7CFFA0123A1F1F871013C1393B2
:104E50006FE70123B2E70F90B1E7069BA3EB0A03CC
:104E60000693CAF100030A9300230E93BEE70023C2
:104E70000B93239B002B58DC4FF001094B46CDF8D8
:104E80002090CDF88C900022686A4260042202F1E2
:104E900014069E4241684ED9284600F0F3FE039066
:104EA00000284CD102464FF4D571174BCCE60123B4
:104EB000DEE700230B93239B0AEB030909F10103AF
:104EC000012B0893B8BF0123DDE70123F2E700BF00
:104ED00061436F63A787D23FB3C8608B288AC63F00
:104EE000FB799F501344D33F416D0008586D000873
:104EF0000000F07F3D6D0008346D0008116D000862
:104F00000000F83FF06E0008D56D00080124002372
:104F10000B9422934FF0FF3900221223CDF82090FA
:104F20002392B0E701230B93F4E7DDF88C904B4616
:104F3000CDF82090A7E7013141605200A7E76B6AE6
:104F4000039A1A60089B0E2B00F2A880002C00F038
:104F5000A580BAF1000F34DD9A4A0AF00F0302EB84
:104F6000C3031AF4807FD3E90034CDE910344FEA4B
:104F70002A1416D0DDE90C01934B0327D3E908234B
:104F8000FBF7D4FBCDE9040104F00F048E4E54B9B5
:104F9000DDE91023DDE90401FBF7C8FBCDE90401DD
:104FA00029E00227F2E7E10708D5DDE91001D6E99B
:104FB0000023FBF791FACDE91001013764100836A0
:104FC000E5E700F0A580DDE90C01CAF100047D4BA6
:104FD00004F00F0203EBC203D3E90023FBF77CFAD2
:104FE00002270023CDE90401774E2411002C40F064
:104FF0008480002BD2D10F9B002B00F08B80DDE949
:105000000434CDE91034DDE9100100226F4BFBF7C9
:10501000D5FC00287ED0089B002B7BD0B9F1000F77
:1050200038DDDDE910010022694BFBF755FA4C46EB
:10503000CDE904010AF1FF3801373846FBF7E2F900
:10504000DDE90423FBF748FA0022624BFBF78EF8F8
:10505000A1F15076CDE910011196002C5DD1DDE96A
:10506000040100225C4BFBF77FF802460B46CDE9BA
:1050700004233346109AFBF7BFFC002840F09C82C3
:10508000DDE90401109A06F10043FBF797FC0028C4
:1050900040F09082DDE90C34CDE90434179B002BFD
:1050A000C0F25281BAF10E0F00F34E81454B03EB73
:1050B000CA03D3E90034CDE90634239B002B80F2E8
:1050C000DB80089B002B00F3D78040F07282DDE983
:1050D00006010022404BFBF7FFF9DDE90423FBF753
:1050E00081FC089C2646002840F048823123039F1B
:1050F0000AF1010A07F8013B44E2E20705D5D6E9C7
:105100000023FBF7E9F901230137641008366DE746
:10511000022770E7D046089C8FE70399294B21446A
:1051200012910B9903EBC403DDE9106753E90223E5
:10513000002955D000202949FBF7F8FA3B463246B2
:10514000FBF712F8CDE91001039FDDE90401FBF73D
:1051500073FC0446FBF756F902460B46DDE90401F1
:10516000FBF702F802460B463034CDE90423DDE9B3
:10517000102307F8014BFBF721FC002874D1DDE96F
:10518000042300201149FAF7EFFFDDE91023FBF7B4
:1051900015FC002840F0B780129B9F423FF47AAF85
:1051A000DDE9100100220A4BFBF796F90022CDE958
:1051B0001001DDE90401064BFBF78EF9CDE904018E
:1051C000C3E700BFF06E0008C86E00080000F03FA3
:1051D0000000244000001C40000014400000E03F9C
:1051E00030463946FBF778F9129BCDE91001039C54
:1051F0001493DDE90401FBF71FFC1590FBF702F99E
:1052000002460B46DDE90401FAF7AEFF159B0646A0
:10521000303304F8013B129B0F469C424FF00002D2
:1052200024D1DDE91001B04BFAF7A0FF02460B468E
:1052300030463946FBF7E0FB002863D1DDE9102357
:105240000020A949FAF790FF02460B46304639463E
:10525000FBF7B4FB00283FF41DAF149F7B1E149393
:1052600017F8013C302BF8D0C2463BE09F4BFBF7D0
:1052700033F9CDE90401BCE7039FDDE90489DDE9E9
:10528000062340464946FBF751FAFBF7D5FB044697
:10529000FBF7B8F8DDE90623FBF71EF902460B46DB
:1052A00040464946FAF760FF04F1300607F8016B03
:1052B000039EDDF820C0BE1BB44502460B4636D126
:1052C000FAF754FFDDE9062380468946FBF794FB95
:1052D00058BBDDE9062340464946FBF765FB08B1AC
:1052E000E10722D42846594600F00CFD00233B700C
:1052F000249B0AF101001860269B002B3FF4DEACD2
:105300001F60DBE427463B461F4613F8012D392A70
:1053100007D1039A9A42F7D13022039908F1010884
:105320000A701A7801321A709EE7D046EBE7002225
:105330006E4BFBF7D1F80022002380468946FBF72D
:1053400033FB00289BD0CDE70B9A002A00F0D080D9
:10535000229A012A00F3AE80139A002A00F0A68058
:1053600003F233430A9C069F069A01211A440692CF
:10537000099A28461A44099200F07AFD0646002F41
:105380000CDD099B002B09DDBB42A8BF3B46069AFA
:10539000FF1AD21A0692099AD31A09930A9BF3B1FB
:1053A0000B9B002B00F0A880002C10DD314622461C
:1053B000284600F01BFE5A4601460646284600F0E5
:1053C0006DFD80465946284600F09CFCC3460A9B6A
:1053D0001A1B04D05946284600F008FE83460121D6
:1053E000284600F045FD0E9B0446002B40F38680C6
:1053F0001A460146284600F0F9FD229B0446012B7F
:105400007FDD4FF00008236904EB8303186900F087
:10541000E1FCC0F12000099B184410F01F0000F0CF
:105420009280C0F12003042B40F38A80C0F11C005D
:10543000069B074403440693099B03440993069B78
:10544000002B05DD59461A46284600F029FE834602
:10545000099B002B05DD21461A46284600F020FE58
:1054600004460F9B002B70D02146584600F088FE62
:1054700000286ADA002359460A22284600F064FC14
:105480000B9B83460AF1FF3A002B00F094813146D2
:1054900000230A22284600F057FCB9F1000F064607
:1054A00000F39380229B022B57DC8EE0169BC3F106
:1054B000360357E7089B5C1E0A9BA342B7BF0A9BB3
:1054C0001C1BE21A0E9BBEBF0A949B180E93089BEE
:1054D000B8BF0024002BBBBF069B089A069F9F1AEB
:1054E000ACBF089B00233FE70000E03F00002440E2
:1054F0000A9C069F0B9E42E70A9A6BE7229B012BB0
:1055000019DC049BBBB9059BC3F313039BB9059B33
:1055100023F000431B0D1B0583B14FF00108069BD0
:1055200001330693099B013309930E9B002B7FF4F3
:105530006AAF01206FE74FF00008F6E79846F4E7FE
:105540003FF47DAF18461C3072E7089B002B36DC19
:10555000229B022B33DDDDF82090B9F1000F0DD135
:1055600021464B460522284600F0EEFB0146044644
:10557000584600F005FE00283FF7B8AD239B039F77
:105580006FEA030A4FF000082146284600F0BAFBF4
:10559000002E3FF4A7AEB8F1000F05D0B04503D000
:1055A0004146284600F0AEFB3146284600F0AAFBF3
:1055B00098E600242646E1E7C246264696E50B9B80
:1055C000DDF82090002B00F0FD80002F05DD314636
:1055D0003A46284600F064FD0646B8F1000F5CD05C
:1055E0002846716800F04EFB074628B9024640F293
:1055F000EA217F4BFFF728BB326906F10C0102322A
:1056000092000C3000F030FB01223946284600F0B1
:1056100047FDB0460646039B01330893039B4B446A
:105620000A93049B03F001030993089B2146013B65
:1056300058460493FFF766FA034641463033069016
:1056400058460B9300F09CFD324681462146284681
:1056500000F0B2FDC26807460B9B02BB01465846EC
:1056600000F08EFD02460B9B39462846CDE90B32F1
:1056700000F048FB229B0C9A089F43EA0201099B19
:105680000B430B9B0DD1392B29D0B9F1000F01DD54
:10569000069B3133049A137076E73046B9E701224E
:1056A000E2E7B9F1000F06DB229941EA09090999FD
:1056B00059EA010120D1002AECDD59460122284691
:1056C000089300F0EDFC2146834600F059FD0028C8
:1056D000089B02DCDED1DA07DCD5392BD8D139239F
:1056E000049A13703B461F4617F8012C013B392AD8
:1056F00050D001321A7047E7002A03DD392BEED073
:105700000133C7E7089A0A9902F8013C8A422AD075
:10571000594600230A22284600F016FBB04583466E
:105720004FF000034FF00A024146284607D100F02F
:105730000BFB80460646089B0133089375E700F093
:1057400003FB3146804600230A22284600F0FCFA7B
:105750000646F0E7B9F1000FCCBF4F4601274FF0E6
:105760000008039A1744594601222846089300F07E
:1057700097FC2146834600F003FD0028B2DC02D1ED
:10578000089BDB07AED43B461F4613F8012D302A99
:10579000FAD0F9E6039A9A42A5D131230AF1010A17
:1057A00079E7144BFFF7A8BA269B002B7FF481AA58
:1057B000114BFFF7A1BAB9F1000F03DC229B022BBA
:1057C0003FF7CBAE039F21465846FFF79BF9039A5C
:1057D00000F1300307F8013BBA1A9145BADD59468A
:1057E00000230A22284600F0AFFA8346EBE700BF09
:1057F000D56D0008106D0008346D00088A89F8B571
:10580000054610070C4657D44B68002B04DC0B6C84
:10581000002B01DC0020F8BDE66A002EFAD0002340
:1058200012F480522F682B6032D0606DA3895A0722
:1058300005D56368C01A636B0BB1236CC01A0023D3
:105840000246E66A2846216AB047431CA38906D16E
:1058500029681D292CD8294ACA40D60728D50022F4
:1058600062602269D904226004D5421C01D12B68F0
:1058700003B96065616B2F600029CBD004F144034C
:10588000994202D0284600F08DFD00206063C2E7F7
:10589000216A01232846B047411CC7D12B68002B41
:1058A000C4D01D2B01D0162B01D12F60B2E7A389E4
:1058B00043F04003A381AEE70F69002FAAD09307FE
:1058C00018BF00230E6808BF4B69F61B0F608B6082
:1058D000002E9FDD33463A462846216AD4F828C078
:1058E000E047002806DCA3894FF0FF3043F0400377
:1058F000A38190E70744361AEAE700BF0100402081
:1059000038B50B6905460C4613B90025284638BD45
:1059100018B183690BB900F087F8144B9C421BD176
:105920006C68B4F90C30002BEFD0626ED00704D451
:10593000990502D4A06D00F01AF928462146FFF718
:105940005DFF636E0546DA07E0D4A3899B05DDD4CD
:10595000A06D00F00DF9D9E7054B9C4201D1AC6870
:10596000DFE7044B9C4208BFEC68DAE7086E0008EA
:10597000286E0008E86D0008002310B50446C0E951
:105980000033C0E90433836081814366C28183614F
:10599000194608225C30FEF787FB054B24626362E0
:1059A000044BA362044BE362044B236310BD00BFAE
:1059B000096500082B650008636500088765000815
:1059C000014900F0AFB800BF01590008682270B566
:1059D0004D1E55430E4605F1740100F02BFD0446A3
:1059E00040B10021C0E900160C30A06005F168024A
:1059F000FEF75AFB204670BD014800F0B8B800BF62
:105A0000AE030020014800F0B3B800BFAE03002091
:105A1000014800F0ACB800BFAF030020014800F01F
:105A2000A7B800BFAF03002010B50446FFF7F0FF92
:105A3000A3691BB1BDE81040FFF7F0BFC4E9123302
:105A40002365134B134A1B68A262A34208BF0123BC
:105A5000204608BFA36100F01FF86060204600F0F8
:105A60001BF8A060204600F017F800220421E06037
:105A70006068FFF781FF01220921A068FFF77CFF22
:105A800002221221E068FFF777FF0123A361D1E72B
:105A9000FC6C0008C1590008F8B50746FFF7ACFFD9
:105AA0001E4B1E68B36913B93046FFF7BDFF483679
:105AB000D6E90134013B03D533680BB33668F7E709
:105AC000B4F90C50D5B9164B04F15800E360656683
:105AD00000F04CF8FFF796FF08222946C4E901556B
