:020000040800F2
:1000000000000220E53A0008B5100008B71000080B
:10001000B9100008BB100008BD1000080000000067
:10002000000000000000000000000000BF100008F9
:10003000C110000800000000C3100008C51000082F
:10004000353B0008353B0008353B0008353B0008D0
:10005000353B0008353B0008353B0008353B0008C0
:10006000353B0008353B0008353B0008353B0008B0
:10007000353B0008353B0008353B0008353B0008A0
:10008000353B0008353B0008353B0008353B000890
:10009000353B0008353B0008353B0008353B000880
:1000A000353B0008353B0008353B0008353B000870
:1000B000353B0008CD100008DD100008353B000876
:1000C000353B0008353B0008353B0008353B000850
:1000D000353B0008ED100008353B0008353B0008B3
:1000E000353B0008353B0008353B0008353B000830
:1000F000353B0008353B0008353B0008353B000820
:10010000353B0008353B0008FD100008353B000872
:10011000353B0008353B0008353B0008353B0008FF
:10012000353B0008353B00080D110008353B000841
:10013000353B0008353B0008353B0008353B0008DF
:10014000353B0008353B0008353B0008353B0008CF
:10015000353B0008353B00081D110008353B000801
:10016000353B0008353B0008353B0008353B0008AF
:10017000353B0008353B0008353B00080000000017
:08018000353B0008353B000887
:1001900010B5054C237833B9044B13B10448AFF3C1
:1001A00000800123237010BDA0000020000000008B
:1001B000A044000808B5034B1BB103490348AFF343
:1001C000008008BD00000000A4000020A04400083A
:1001D00001F0FF01102A2BDB10F0070F08D010F8F8
:1001E000013B013A8B422DD010F0070F42B3F6D1FC
:1001F000F0B441EA012141EA014122F007047FF015
:1002000000070023F0E80256083C85EA010586EA6B
:10021000010685FA47F5A3FA87F586FA47F6A5FAA7
:1002200087F68EB9EED1F0BC01F0FF0102F00702B3
:1002300032B110F8013B013A83EA010313B1F8D15E
:100240000020704701387047002D06BF354603383F
:10025000073815F0010F07D1013015F4807F02BF78
:10026000013015F4C03F0130F0BC0138704700BFC9
:1002700081F0004102E000BF83F0004330B54FEA57
:1002800041044FEA430594EA050F08BF90EA020FC4
:100290001FBF54EA000C55EA020C7FEA645C7FEA57
:1002A000655C00F0E2804FEA5454D4EB5555B8BF7A
:1002B0006D420CDD2C4480EA020281EA030382EAEB
:1002C000000083EA010180EA020281EA0303362D7D
:1002D00088BF30BD11F0004F4FEA01314FF4801C50
:1002E0004CEA113102D0404261EB410113F0004F62
:1002F0004FEA03334CEA133302D0524263EB430319
:1003000094EA050F00F0A780A4F10104D5F1200EB6
:100310000DDB02FA0EFC22FA05F2801841F1000111
:1003200003FA0EF2801843FA05F359410EE0A5F1E5
:1003300020050EF1200E012A03FA0EFC28BF4CF016
:10034000020C43FA05F3C01851EBE37101F00045CC
:1003500007D54FF0000EDCF1000C7EEB00006EEBD9
:100360000101B1F5801F1BD3B1F5001F0CD3490863
:100370005FEA30004FEA3C0C04F101044FEA4452BA
:1003800012F5800F80F09A80BCF1004F08BF5FEA41
:10039000500C50F1000041EB045141EA050130BD21
:1003A0005FEA4C0C404141EB0101013C28BFB1F533
:1003B000801FE9D291F0000F04BF01460020B1FA7E
:1003C00081F308BF2033A3F10B03B3F120020CDA51
:1003D0000C3208DD02F1140CC2F10C0201FA0CF02F
:1003E00021FA02F10CE002F11402D8BFC2F1200C94
:1003F00001FA02F120FA0CFCDCBF41EA0C0190404A
:10040000E41AA2BF01EB0451294330BD6FEA040492
:100410001F3C1CDA0C340EDC04F11404C4F120027D
:1004200020FA04F001FA02F340EA030021FA04F38F
:1004300045EA030130BDC4F10C04C4F1200220FAE6
:1004400002F001FA04F340EA0300294630BD21FA24
:1004500004F0294630BD94F0000F83F4801306BFEA
:1004600081F480110134013D4EE77FEA645C18BFDE
:100470007FEA655C29D094EA050F08BF90EA020F75
:1004800005D054EA000C04BF1946104630BD91EA6D
:10049000030F1EBF0021002030BD5FEA545C05D170
:1004A0004000494128BF41F0004130BD14F58004AF
:1004B0003CBF01F5801130BD01F0004545F0FE4123
:1004C00041F470014FF0000030BD7FEA645C1ABF58
:1004D000194610467FEA655C1CBF0B46024650EA8F
:1004E000013406BF52EA033591EA030F41F40021BB
:1004F00030BD00BF90F0000F04BF0021704730B541
:100500004FF4806404F132044FF000054FF0000115
:1005100050E700BF90F0000F04BF0021704730B5D6
:100520004FF4806404F1320410F0004548BF4042AB
:100530004FF000013EE700BF42004FEAE2014FEA00
:1005400031014FEA02701FBF12F07F4393F07F4FDB
:1005500081F06051704732F07F4208BF704793F0DE
:100560007F4F04BF41F40021704730B54FF46074F1
:1005700001F0004521F000411CE700BF50EA0102F4
:1005800008BF704730B54FF000050AE050EA01029D
:1005900008BF704730B511F0004502D5404261EB0D
:1005A00041014FF4806404F132045FEA915C3FF44E
:1005B000D8AE4FF003025FEADC0C18BF03325FEAEB
:1005C000DC0C18BF033202EBDC02C2F1200300FA9C
:1005D00003FC20FA02F001FA03FE40EA0E0021FAC1
:1005E00002F11444BDE600BF70B54FF0FF0C4CF4AF
:1005F000E06C1CEA11541DBF1CEA135594EA0C0F61
:1006000095EA0C0F00F0DEF82C4481EA030621EA9B
:100610004C5123EA4C5350EA013518BF52EA0335D6
:1006200041F4801143F4801338D0A0FB02CE4FF088
:100630000005E1FB02E506F00042E0FB03E54FF0B8
:100640000006E1FB03569CF0000F18BF4EF0010EB0
:10065000A4F1FF04B6F5007F64F5407404D25FEAAC
:100660004E0E6D4146EB060642EAC62141EA55515F
:100670004FEAC52040EA5E504FEACE2EB4F1FD0CA1
:1006800088BFBCF5E06F1ED8BEF1004F08BF5FEA1F
:10069000500E50F1000041EB045170BD06F00046D1
:1006A00046EA010140EA020081EA0301B4EB5C047E
:1006B000C2BFD4EB0C0541EA045170BD41F4801176
:1006C0004FF0000E013C00F3AB8014F1360FDEBF9B
:1006D000002001F0004170BDC4F10004203C35DA77
:1006E0000C341BDC04F11404C4F1200500FA05F3FA
:1006F00020FA04F001FA05F240EA020001F000429B
:1007000021F0004110EBD37021FA04F642EB060110
:100710005EEA430E08BF20EAD37070BDC4F10C043A
:10072000C4F1200500FA04F320FA05F001FA04F2FE
:1007300040EA020001F0004110EBD37041F10001EA
:100740005EEA430E08BF20EAD37070BDC4F12005F5
:1007500000FA05F24EEA020E20FA04F301FA05F25D
:1007600043EA020321FA04F001F0004121FA04F205
:1007700020EA020000EBD3705EEA430E08BF20EAD5
:10078000D37070BD94F0000F0FD101F0004640000F
:1007900041EB010111F4801F08BF013CF7D041EA91
:1007A000060195F0000F18BF704703F00046520095
:1007B00043EB030313F4801F08BF013DF7D043EA66
:1007C0000603704794EA0C0F0CEA135518BF95EA1C
:1007D0000C0F0CD050EA410618BF52EA4306D1D1A3
:1007E00081EA030101F000414FF0000070BD50EAC2
:1007F000410606BF1046194652EA430619D094EA4C
:100800000C0F02D150EA013613D195EA0C0F05D135
:1008100052EA03361CBF104619460AD181EA030189
:1008200001F0004141F0FE4141F470014FF0000041
:1008300070BD41F0FE4141F4780170BD70B54FF0DC
:10084000FF0C4CF4E06C1CEA11541DBF1CEA13555C
:1008500094EA0C0F95EA0C0F00F0A7F8A4EB05043E
:1008600081EA030E52EA03354FEA013100F0888035
:100870004FEA03334FF0805545EA131343EA1263FE
:100880004FEA022245EA111545EA10654FEA0026B3
:100890000EF000419D4208BF964244F1FD0404F56C
:1008A000407402D25B084FEA3202B61A65EB0305C8
:1008B0005B084FEA32024FF480104FF4002CB6EB85
:1008C000020E75EB030E22BFB61A754640EA0C0005
:1008D0005B084FEA3202B6EB020E75EB030E22BF45
:1008E000B61A754640EA5C005B084FEA3202B6EB86
:1008F000020E75EB030E22BFB61A754640EA9C0045
:100900005B084FEA3202B6EB020E75EB030E22BF14
:10091000B61A754640EADC0055EA060E18D04FEAD2
:10092000051545EA16754FEA06164FEAC30343EA72
:1009300052734FEAC2025FEA1C1CC0D111F4801F3F
:100940000BD141EA00014FF000004FF0004CB6E738
:1009500011F4801F04BF01430020B4F1FD0C88BFD7
:10096000BCF5E06F3FF6AFAEB5EB030C04BFB6EBE2
:10097000020C5FEA500C50F1000041EB045170BDD5
:100980000EF0004E4EEA113114EB5C04C2BFD4EB02
:100990000C0541EA045170BD41F480114FF0000E86
:1009A000013C90E645EA060E8DE60CEA135594EA02
:1009B0000C0F08BF95EA0C0F3FF43BAF94EA0C0F05
:1009C0000AD150EA01347FF434AF95EA0C0F7FF47A
:1009D00025AF104619462CE795EA0C0F06D152EACE
:1009E00003353FF4FDAE1046194622E750EA4106B2
:1009F00018BF52EA43067FF4C5AE50EA41047FF4C3
:100A00000DAF52EA43057FF4EBAE12E74FF0FF3C27
:100A100006E000BF4FF0010C02E000BF4FF0010CF8
:100A20004DF804CD4FEA410C7FEA6C5C4FEA430C71
:100A300018BF7FEA6C5C1BD001B050EA410C0CBFC0
:100A400052EA430C91EA030F02BF90EA020F002022
:100A5000704710F1000F91EA030F58BF994208BF89
:100A600090422CBFD8176FEAE37040F00100704746
:100A70004FEA410C7FEA6C5C02D150EA013C07D19D
:100A80004FEA430C7FEA6C5CD6D152EA033CD3D0E8
:100A90005DF8040B704700BF8446104662468C46E2
:100AA0001946634600E000BF01B5FFF7B7FF002815
:100AB00048BF10F1000F01BD4DF808EDFFF7F4FF3E
:100AC0000CBF012000205DF808FB00BF4DF808EDC9
:100AD000FFF7EAFF34BF012000205DF808FB00BFEC
:100AE0004DF808EDFFF7E0FF94BF012000205DF80E
:100AF00008FB00BF4DF808EDFFF7CEFF94BF0120C3
:100B000000205DF808FB00BF4DF808EDFFF7C4FFBB
:100B100034BF012000205DF808FB00BF4A0011D25D
:100B200012F5001211D20DD56FF47873B3EB625247
:100B30000ED44FEAC12343F0004343EA505323FA53
:100B400002F070474FF00000704750EA013002D1C8
:100B50004FF0FF3070474FF0000070474FEA4102FE
:100B6000B2F1E04324BFB3F5001CDCF1FE5C0DD90B
:100B700001F0004C4FEAC0024CEA5070B2F1004F55
:100B800040EB830008BF20F00100704711F0804F58
:100B900021D113F13872BCBF01F00040704741F41D
:100BA00080114FEA5252C2F11802C2F1200C10FA21
:100BB0000CF320FA02F018BF40F001004FEAC12305
:100BC0004FEAD32303FA0CFC40EA0C0023FA02F3A9
:100BD0004FEA4303CCE77FEA625307D150EA01337F
:100BE0001EBF4FF0FE4040F44000704701F000404F
:100BF00040F0FE4040F40000704700BF53B94AB9CE
:100C0000002908BF00281CBF4FF0FF314FF0FF3014
:100C100000F074B9ADF1080C6DE904CE00F006F8EF
:100C2000DDF804E0DDE9022304B070472DE9F04768
:100C3000089D04468E46002B4DD18A42944669D9C0
:100C4000B2FA82F252B101FA02F3C2F1200120FAA3
:100C500001F10CFA02FC41EA030E94404FEA1C48F1
:100C6000210CBEFBF8F61FFA8CF708FB16E341EAED
:100C7000034306FB07F199420AD91CEB030306F173
:100C8000FF3080F01F81994240F21C81023E634494
:100C90005B1AA4B2B3FBF8F008FB103344EA034438
:100CA00000FB07F7A7420AD91CEB040400F1FF334D
:100CB00080F00A81A74240F207816444023840EA8A
:100CC0000640E41B00261DB1D4400023C5E90043C3
:100CD0003146BDE8F0878B4209D9002D00F0EF8046
:100CE0000026C5E9000130463146BDE8F087B3FA79
:100CF00083F6002E4AD18B4202D3824200F2F98061
:100D0000841A61EB030301209E46002DE0D0C5E963
:100D1000004EDDE702B9FFDEB2FA82F2002A40F0AF
:100D20009280A1EB0C014FEA1C471FFA8CFE0126B2
:100D3000200CB1FBF7F307FB131140EA01410EFB56
:100D400003F0884208D91CEB010103F1FF3802D2FD
:100D5000884200F2CB804346091AA4B2B1FBF7F0F7
:100D600007FB101144EA01440EFB00FEA64508D91A
:100D70001CEB040400F1FF3102D2A64500F2BB8057
:100D80000846A4EB0E0440EA03409CE7C6F12007A6
:100D9000B34022FA07FC4CEA030C20FA07F401FAEC
:100DA00006F31C43F9404FEA1C4900FA06F3B1FB75
:100DB000F9F8200C1FFA8CFE09FB181140EA0141DA
:100DC00008FB0EF0884202FA06F20BD91CEB010177
:100DD00008F1FF3A80F08880884240F28580A8F1CF
:100DE00002086144091AA4B2B1FBF9F009FB101121
:100DF00044EA014100FB0EFE8E4508D91CEB0101BF
:100E000000F1FF346CD28E456AD90238614440EA61
:100E10000840A0FB0294A1EB0E01A142C846A646E1
:100E200056D353D05DB1B3EB080261EB0E0101FA6A
:100E300007F722FA06F3F1401F43C5E900710026C7
:100E40003146BDE8F087C2F12003D8400CFA02FC1D
:100E500021FA03F3914001434FEA1C471FFA8CFE2D
:100E6000B3FBF7F007FB10360B0C43EA064300FB1D
:100E70000EF69E4204FA02F408D91CEB030300F1BB
:100E8000FF382FD29E422DD9023863449B1B89B272
:100E9000B3FBF7F607FB163341EA034106FB0EF3FB
:100EA0008B4208D91CEB010106F1FF3816D28B42A8
:100EB00014D9023E6144C91A46EA004638E72E4674
:100EC000284605E70646E3E61846F8E64B45A9D26C
:100ED000B9EB020864EB0C0E0138A3E74646EAE7DB
:100EE000204694E74046D1E7D0467BE7023B614489
:100EF00032E7304609E76444023842E7704700BFF2
:100F0000094B834200D0704710B5084C084B93ED55
:100F1000000B204602F098FD204602F055FC2046CA
:100F200002F0ECFC10BD00BFFC020020D00000204D
:100F3000C800002038B5094D0A222946084802F0A9
:100F400027FE084C0A220849204600F051FF0A22D9
:100F50002946204601F0CEF938BD00BFBC00002074
:100F600000000020280200205801002072B6FEE791
:100F700000B595B03022002108A802F001FE002340
:100F8000039304930593069307930193204A116CEE
:100F900041F080511164126C02F080520192019A6A
:100FA00002931C4B1A6842F480421A601B6803F4D7
:100FB00080430293029B012308934FF480330993EB
:100FC00002220E924FF480030F9304231093A82162
:100FD00011911292139308A801F0A8F998B90F2360
:100FE000039302230493002305934FF4A053069325
:100FF0004FF480530793052103A801F0FDFB20B9AE
:1010000015B05DF804FBFFF7B1FFFFF7AFFF00BFBE
:10101000003802400070004000B583B002F0B2F822
:10102000FFF7A6FF02F0E4F802F048F902F068F9D1
:1010300002F010FB02F0FCF902F030FA164B0193BB
:10104000A3F5836300939FED101B9FED110BC0234D
:10105000124A1349134802F09BFC134C0821204606
:1010600000F08CFC0C21204600F088FC2368002254
:10107000DA631A643C210D4800F002FD0C4800F0D0
:1010800035F9FEE7AFF300800000000000002440C7
:1010900000000000000059403C08004000000240F1
:1010A00018010020D0000020B40200206C020020B3
:1010B000FC020020FEE7FEE7FEE7FEE7FEE77047E2
:1010C0007047704708B502F077F808BD08B50248C8
:1010D00000F055F908BD00BF6C02002008B50248B9
:1010E00000F04DF908BD00BFB402002008B5024869
:1010F00000F084FF08BD00BF2802002008B50248A8
:1011000000F03DF908BD00BFFC02002008B5024810
:1011100001F0B8FE08BD00BF6801002008B5024814
:1011200001F0B0FE08BD00BFC801002082B0002160
:1011300000910B4B5A6C42F480425A645A6C02F490
:1011400080420092009A01911A6C42F080521A6417
:101150001B6C03F080530193019B02B0704700BFEA
:101160000038024030B4036A23F001030362036ACB
:101170004268846924F073040D682C4323F0020C48
:101180008B6843EA0C03104DA84203D005F5806537
:10119000A84205D123F00803CD682B4323F00403B4
:1011A000094DA84203D005F58065A84205D122F477
:1011B00040724D692A438D692A43426084614A68BE
:1011C0004263036230BC70470000014030B4036AE0
:1011D00023F480730362036A4268C46924F0730CC9
:1011E0000C6844EA0C0523F400738C6843EA04237A
:1011F000114CA04203D004F58064A04206D123F430
:101200000063CC6843EA042323F480630A4CA042C1
:1012100003D004F58064A04207D122F440524C6907
:1012200042EA04128C6942EA04124260C5614A68CB
:10123000C263036230BC70470000014030B4036AEF
:1012400023F480530362036A4468C26922F4E642CD
:101250000D6842EA052223F400538D6843EA053302
:10126000094DA84203D005F58065A84204D124F4B5
:1012700080444D6944EA85144460C2614A6802644E
:10128000036230BC704700BF0000014010B4036A25
:10129000046A24F001040462846924F0F00C4CEA2E
:1012A000021223F00A030B43826103625DF8044BD0
:1012B000704710B4046A24F0100404628469036A5D
:1012C00024F4704C4CEA023223F0A00343EA0113E9
:1012D000826103625DF8044B7047836823F07003FA
:1012E0000B4343F0070383607047000090F83D30E4
:1012F000DBB2012B37D1022380F83D300268D3687E
:1013000043F00103D3600368194A934220D0B3F13C
:10131000804F1DD0A2F57C42934219D002F5806225
:10132000934215D002F58062934211D002F57842C3
:1013300093420DD002F57052934209D0A2F5943237
:10134000934205D01A6842F001021A6000207047EB
:101350009A6802F00702062A07D01A6842F00102D2
:101360001A6000207047012070470020704700BFBE
:10137000000001407047704770477047704710B5D4
:10138000044603681A6912F0020F11D0DA6812F0ED
:10139000020F0DD06FF002021A6101230377036878
:1013A0009B6913F0030F70D0FFF7E6FF002323774C
:1013B00023681A6912F0040F12D0DA6812F0040FD1
:1013C0000ED06FF004021A610223237723689B6911
:1013D00013F4407F5FD02046FFF7CEFF0023237732
:1013E00023681A6912F0080F12D0DA6812F0080F99
:1013F0000ED06FF008021A61042323772368DB699B
:1014000013F0030F4ED02046FFF7B6FF00232377DB
:1014100023681A6912F0100F12D0DA6812F0100F58
:101420000ED06FF010021A61082323772368DB695E
:1014300013F4407F3DD02046FFF79EFF0023237723
:1014400023681A6912F0010F03D0DA6812F0010F55
:1014500036D123681A6912F0800F03D0DA6812F0CF
:10146000800F34D123681A6912F0400F03D0DA6874
:1014700012F0400F32D123681A6912F0200F03D006
:10148000DA6812F0200F30D110BDFFF774FF20464C
:10149000FFF773FF8AE72046FFF76DFF2046FFF74F
:1014A0006CFF9BE72046FFF766FF2046FFF765FFCE
:1014B000ACE72046FFF75FFF2046FFF75EFFBDE782
:1014C0006FF001021A612046FFF71AFDC1E76FF0C5
:1014D00080021A61204600F080FBC3E76FF04002F3
:1014E0001A612046FFF74AFFC5E76FF020021A6134
:1014F000204600F071FBC7E70368304A904212D0E3
:10150000B0F1804F0FD0A2F57C4290420BD002F593
:101510008062904207D002F58062904203D002F5CB
:101520007842904203D123F070034A681343234A60
:1015300090422AD0B0F1804F27D0A2F57C42904251
:1015400023D002F5806290421FD002F58062904263
:101550001BD002F57842904217D002F570529042AB
:1015600013D002F5806290420FD002F58062904263
:101570000BD0A2F59832904207D002F580629042DB
:1015800003D002F58062904203D123F44073CA680D
:10159000134323F080034A69134303608B68C362DB
:1015A0000B688362054B984203D003F58063984231
:1015B00001D10B69036301234361704700000140BF
:1015C00040B310B5044690F83D30F3B1022384F8DF
:1015D0003D30214651F8040BFFF78EFF012384F8BC
:1015E000463084F83E3084F83F3084F8403084F848
:1015F000413084F8423084F8433084F8443084F831
:10160000453084F83D30002010BD80F83C3001F0BA
:10161000BBFFDBE70120704740B310B5044690F8EC
:101620003D30F3B1022384F83D30214651F8040BDC
:10163000FFF762FF012384F8463084F83E3084F8D7
:101640003F3084F8403084F8413084F8423084F8E8
:10165000433084F8443084F8453084F83D3000202D
:1016600010BD80F83C30FFF785FEDBE701207047B6
:10167000002856D0F8B50D46044690F83D30002BB2
:101680004AD0022384F83D302268936823F48043D3
:1016900023F007039360214651F8040BFFF72CFF5A
:1016A00021688A688B690E6A2868104323F4407C9D
:1016B0002CF0030CAA68AB6942EA032343EA0C034B
:1016C00023F47C4323F0FC03EA69EF6847EA022C29
:1016D0004CEA030C2A6A13032A6943EA021343EA19
:1016E0000C0326F0AA066A686D6942EA05123243C5
:1016F000886021688B6123681A62012384F8463070
:1017000084F83E3084F83F3084F8423084F8433027
:1017100084F83D300020F8BD80F83C3001F0F6FE42
:10172000AFE701207047000030B4036A23F01003D4
:101730000362036A4468826922F4E6420D6842EA61
:10174000052223F020038D6843EA0513114DA842BA
:1017500003D005F58065A84206D123F08003CD684B
:1017600043EA051323F040030A4DA84203D005F5D0
:101770008065A84207D124F440644D6944EA850499
:101780008D6944EA8504446082614A688263036229
:1017900030BC70470000014038B590F83C30012B58
:1017A00060D004460D46012380F83C300C2A1AD83C
:1017B000DFE802F0071919191D191919311919193A
:1017C00044000068FFF7CEFC2268936943F00803E9
:1017D00093612268936923F00403936122689369FB
:1017E00029690B439361002084F83C0038BD0068F0
:1017F000FFF79AFF2268936943F4006393612268BC
:10180000936923F48063936122689369296943EAA9
:1018100001239361E7E70068FFF7D8FC2268D369EA
:1018200043F00803D3612268D36923F00403D36132
:101830002268D36929690B43D361D4E70068FFF7B5
:10184000FDFC2268D36943F40063D3612268D36945
:1018500023F48063D3612268D369296943EA0123B1
:10186000D361C0E70220C1E710B4846824F47F4C40
:1018700042EA03220A4342EA0C0282605DF8044B0A
:10188000704790F83C30012B66D010B50446012318
:1018900080F83C30022380F83D300268936823F4DE
:1018A0007F4323F0770393600B68602B40D022D8EE
:1018B000402B47D00BD9502B0ED1CA68496800681D
:1018C000FFF7E4FC50212068FFF707FD04E0202B20
:1018D0000CD008D9302B09D0012384F83D300020EA
:1018E00084F83C0010BD0BB1102BF5D119462068CF
:1018F000FFF7F3FCF0E7702B0ED0B3F5005FEBD1F0
:10190000CB684A6889680068FFF7AEFF2268936871
:1019100043F480439360DFE7CB684A6889680068D6
:10192000FFF7A2FF2268936843F077039360D3E741
:10193000CA6849680068FFF7BCFC60212068FFF7AF
:10194000CCFCC9E7CA6849680068FFF79FFC4021E2
:101950002068FFF7C2FCBFE70220704701F01F01BB
:10196000012303FA01FC036A23EA0C030362036AFE
:1019700002FA01F10B4303627047000010B5044600
:101980000846002942D194F83E30DBB2013B18BF33
:101990000123002B6ED1002851D1022384F83E3060
:1019A000012201462068FFF7D9FF2368334A93429A
:1019B00003D002F58062934203D15A6C42F4004294
:1019C0005A6423682D4A934249D0B3F1804F46D0E0
:1019D000A2F57C42934242D002F5806293423ED00F
:1019E00002F5806293423AD002F57842934236D0B3
:1019F00002F57052934232D0A2F5943293422ED027
:101A00001A6842F001021A60002032E0042908D06E
:101A100008290DD094F84130DBB2013B18BF0123F7
:101A2000B7E794F83F30DBB2013B18BF0123B0E7C2
:101A300094F84030DBB2013B18BF0123A9E704282A
:101A400005D0082807D0022384F84130A8E70223F4
:101A500084F83F30A4E7022384F84030A0E79A6876
:101A600002F00702062A07D01A6842F001021A6043
:101A7000002010BD0120FCE70020FAE70000014033
:101A800038B5044690F83E00C0B294F83F3094F860
:101A90004220D2B294F843C00D46B1B9012849D1D1
:101AA000012A48D1022384F83E3084F842307DB3C5
:101AB000042D39D0012200212068FFF74FFF0122B9
:101AC00004212068FFF74AFF27E0DBB25FFA8CFCB5
:101AD000042912D0012833D1012B2CD1012A31D174
:101AE000BCF1010F30D1022384F83E3084F83F303E
:101AF00084F8423084F84330D9E7012B1CD1BCF183
:101B0000010F1BD1022384F83F3084F84330CEE725
:101B1000012200212068FFF721FF2268136843F0AB
:101B200001031360002006E0012204212068FFF772
:101B300015FFF2E7012038BD0120FCE71846FAE75F
:101B40000120F8E71846F6E71046F4E790F83C3035
:101B5000012B3DD010B4012380F83C30022380F8E3
:101B60003D3003685A689C6822F0700C0A6842EAAB
:101B70000C025A600368174A93421AD0B3F1804F9F
:101B800017D0A2F57C42934213D002F580629342B3
:101B90000FD002F5806293420BD002F57842934257
:101BA00007D002F57052934203D0A2F594329342CB
:101BB00004D124F080044A6814439C60012380F817
:101BC0003D30002380F83C3018465DF8044B7047E8
:101BD0000220704700000140704770470268D368D8
:101BE00023F0C003D360202380F83D3070470268A3
:101BF000D36823F49073D3600268536923F0010320
:101C00005361036B012B05D0202380F83E30002365
:101C1000036370470268D36823F01003D360F3E7CF
:101C200090F83D30DBB2212B01D002207047836851
:101C3000B3F5805F17D0036A5A1C02621A780368F2
:101C40005A60C38C9BB2013B9BB2C3844BB9026800
:101C5000D36823F08003D3600268D36843F0400365
:101C6000D360002070470369002BE4D1036A1B880E
:101C70000268C3F308035360036A02330362E0E7B8
:101C800038B504460268136923F44053C1680B4316
:101C9000136183680269134342691343C2691A439B
:101CA0000168CB6823F4164323F00C031343CB6085
:101CB0000268536923F4407381690B4353610368DD
:101CC000314A934206D002F58062934202D000F07E
:101CD00049FE01E000F056FEE369B3F5004F29D05C
:101CE0000021031849411B1841F10001C90041EAD4
:101CF0005371DB00181863684FEA83024FEA93734D
:101D000041F10001FEF77AFF204DA5FB0032510999
:101D1000642303FB11031B013233A5FB03235B097F
:101D200003F0F00202EB011203F00F0321681344E9
:101D30008B6038BD0023021843EB0301121841F1F8
:101D40000001C90041EA5271D200101841F10001AE
:101D5000626892185B41FEF751FF0C4DA5FB003203
:101D60005109642303FB1103DB003233A5FB03237A
:101D70005B095A0002F4F87202EB011203F0070348
:101D8000216813448B60D4E7001001401F85EB519C
:101D900058B310B5044690F83D300BB3242384F8B3
:101DA0003D302268D36823F40053D3602046FFF708
:101DB00067FF2268136923F4904313612268536913
:101DC00023F02A0353612268D36843F40053D3609D
:101DD00000202064202384F83D3084F83E3010BD7C
:101DE00080F83C3001F0A6FAD8E7012070470000E7
:101DF00038B590F83D30DBB2202B31D104460029B4
:101E000030D0002A30D090F83C30012B2ED0012366
:101E100080F83C3001628284C2840025056421235D
:101E200080F83D30436B1248D863636B11481864E7
:101E3000636B1148D864636B1D6520681346021DEF
:101E4000606B00F08DFF23686FF040021A6084F829
:101E50003C502268536943F080035361284600E0F8
:101E6000022038BD0120FCE70120FAE70220F8E754
:101E70007F1E0008CB1E0008D91E0008704708B559
:101E80000346806B1B681B6813F4807F0CD1002312
:101E9000C3840268536923F0800353610268D368E6
:101EA00043F04003D36008BDFFF7E8FFFBE708B548
:101EB0000168CA6822F04002CA60202280F83D20F2
:101EC000FFF7DCFF002008BD704708B5806BFFF707
:101ED000FBFF08BD7047704710B5846B23685A69D3
:101EE00094F83D30DBB2212B10D023685A6902F000
:101EF000400294F83E30DBB2222B11D0236C43F029
:101F0000100323642046FFF7E6FF10BD02F08002B5
:101F1000002AEAD00023E3842046FFF75FFEE4E7CF
:101F2000002AEBD00023E3852046FFF760FEE5E7BB
:101F300008B5806B0023C385C384FFF7CCFF08BDC1
:101F4000704790F83E30DBB2222B53D110B50446D7
:101F50008368B3F5805F30D0A26AB3F5805F04D0A8
:101F6000002B37D12369002B34D123685B681370B1
:101F7000A36A0133A362E38D9BB2013B9BB2E3856D
:101F8000002B39D12268D36823F02003D360226864
:101F9000D36823F48073D3602268536923F001036C
:101FA0005361202384F83E30236B012B18D0204648
:101FB000FEF7C0FF0020206310BD0269002ACBD1CC
:101FC000826A03685B68C3F308031380836A023381
:101FD0008362D0E723685B6803F07F031370C7E771
:101FE0002268D36823F01003D360A18D2046FFF749
:101FF000A7FFDFE7022070470020DDE730B583B0A0
:10200000044602681368D068516913F00F0505D1C2
:1020100013F0200F02D010F0200F19D12DB111F0C4
:10202000010119D110F4907F16D1216B012975D0CF
:1020300013F0800F03D010F0800F40F0D88013F021
:10204000400F03D010F0400F40F0D58003B030BDFA
:102050002046FFF776FFF9E713F0010F06D010F4E2
:10206000807F03D0226C42F00102226413F0040F3F
:1020700004D019B1226C42F00202226413F0020F64
:1020800004D019B1226C42F00402226413F0080F4C
:1020900007D010F0200F00D119B1226C42F00802D5
:1020A0002264226C002AD1D013F0200F02D010F04D
:1020B000200F21D123685B6903F04003226C12F0EA
:1020C000080F00D123B32046FFF791FD23685A691A
:1020D00012F0400F18D05A6922F040025A61A36BE7
:1020E00073B1474A1A65A06B00F0B9FE0028ADD065
:1020F000A06B036D9847A9E72046FFF722FFD9E7B9
:102100002046FFF7E8FEA1E72046FFF7E4FE9DE743
:102110002046FFF7E0FE0023236497E713F0100F3B
:1021200086D010F0100F83D0002301931368019321
:1021300053680193019B536913F0400F33D0A16B97
:102140000B685B689BB2002B80D0A08D98427FF615
:102150007DAFE385CB69B3F5807F08D1A18DE38D99
:102160009BB2C91A89B22046FFF7EAFE6EE7D36830
:1021700023F48073D3602268536923F00103536111
:102180002268536923F040035361202384F83E30D2
:10219000002323632268D36823F01003D360A06B6D
:1021A00000F013FEDAE7A18DE38D9BB2C91A89B264
:1021B000E38D9BB2002B3FF449AF00293FF446AFBB
:1021C000D36823F49073D3602268536923F001032A
:1021D0005361202384F83E30002323632268D368B0
:1021E00023F01003D3602046FFF7AAFE2EE7204617
:1021F000FFF716FD2AE72046FFF759FE26E700BF46
:10220000311F000808B5806B036B012B02D0FFF76C
:1022100061FE08BD818D4908FFF792FEF9E708B518
:102220000346806B1B681B6813F4807F16D1002364
:10223000C3850268D36823F48073D360026853694E
:1022400023F0010353610268536923F04003536193
:10225000202380F83E30036B012B05D0036B012B4C
:1022600008D0FEF767FE08BD0268D36823F01003AC
:10227000D360F3E7818DFFF763FEF4E730B583B0F9
:10228000044613468162828500250564222280F877
:102290003E20826B1448D063A26B14481064A26B7A
:1022A0001348D064A26B156520680A46011DA06B17
:1022B00000F056FD019523681A6801925A68019250
:1022C000019A84F83C50DA6842F48072DA6022683D
:1022D000536943F0010353612268536943F040039B
:1022E0005361284603B030BD1F22000805220008B4
:1022F000D91E000808B590F83E30DBB2202B0DD176
:1023000071B17AB190F83C30012B0DD0012380F8E7
:102310003C3000230363FFF7B1FF00E0022008BD5B
:102320000120FCE70120FAE70220F8E7002800F08E
:10233000E08170B582B00446036813F0010F3BD012
:102340009F4B9B6803F00C03042B2CD09C4B9B6889
:1023500003F00C03082B21D06368B3F5803F4FD006
:10236000B3F5A02F52D0964B1A6822F480321A602F
:102370001A6822F480221A606368002B50D000F0A3
:1023800027FF05468E4B1B6813F4003F14D100F065
:102390001FFF401B6428F5D90320B1E1884B5B681F
:1023A00013F4800FD8D0864B1B6813F4003F03D082
:1023B0006368002B00F09F81236813F0020F54D054
:1023C0007F4B9B6813F00C0F3ED07D4B9B6803F056
:1023D0000C03082B33D0E368002B68D0794B012223
:1023E0001A6000F0F5FE0546754B1B6813F0020FEE
:1023F00054D100F0EDFE401B0228F5D903207FE107
:102400006F4A136843F480331360B5E76C4B1A6866
:1024100042F480221A601A6842F480321A60ABE7F4
:1024200000F0D6FE0546664B1B6813F4003FC3D090
:1024300000F0CEFE401B6428F5D9032060E1604B1C
:102440005B6813F4800FC6D15D4B1B6813F0020F5D
:1024500003D0E368012B40F05081594A136823F000
:10246000F803216943EAC1031360236813F0080FDE
:1024700042D063696BB3534B0122C3F8802E00F046
:10248000A7FE05464E4B5B6F13F0020F34D100F0F0
:102490009FFE401B0228F5D9032031E1484A13680A
:1024A00023F0F803216943EAC1031360DDE7454BDC
:1024B00000221A6000F08CFE0546414B1B6813F0A9
:1024C000020FD2D000F084FE401B0228F5D9032071
:1024D00016E13C4B0022C3F8802E00F079FE054641
:1024E000374B5B6F13F0020F06D000F071FE401BFC
:1024F0000228F5D9032003E1236813F0040F77D0F5
:102500002F4B1B6C13F0805F33D1002301932C4BB6
:102510001A6C42F080521A641B6C03F080530193D2
:10252000019B0125284B1B6813F4807F23D0A368EF
:10253000012B34D0052B38D0214B1A6F22F0010229
:102540001A671A6F22F004021A67A368002B3DD0A5
:1025500000F03EFE06461A4B1B6F13F0020F46D1E9
:1025600000F036FE801B41F288339842F3D90320F5
:10257000C6E00025D6E7144A136843F4807313605D
:1025800000F026FE0646104B1B6813F4807FCED168
:1025900000F01EFE801B0228F5D90320B0E0084A97
:1025A000136F43F001031367CFE7054B1A6F42F037
:1025B00004021A671A6F42F001021A67C5E700BFEA
:1025C00000380240000047420070004000F000FE6A
:1025D0000646524B1B6F13F0020F08D000F0F8FDB7
:1025E000801B41F288339842F3D9032088E0EDB98B
:1025F000A369002B00F08380484A926802F00C0225
:10260000082A51D0022B17D0454B00221A6600F041
:10261000DFFD0446414B1B6813F0007F42D000F001
:10262000D7FD001B0228F5D9032069E03B4A136C53
:1026300023F080531364DBE7394B00221A6600F065
:10264000C7FD0546354B1B6813F0007F06D000F030
:10265000BFFD401B0228F5D9032051E0E369226A3F
:102660001343626A43EA8213A26A5208013A43EAB8
:102670000243E26A43EA0263284A5360284B01227C
:102680001A6600F0A5FD0446244B1B6813F0007F7A
:1026900006D100F09DFD001B0228F5D903202FE094
:1026A00000202DE000202BE0012B2BD01B4B5B6882
:1026B00003F48001E269914226D103F03F02216ACE
:1026C0008A4223D1616A47F6C0721A40B2EB811F79
:1026D0001ED103F44031A26A5208013AB1EB024F15
:1026E00018D103F07063E26AB3EB026F14D10020DB
:1026F00006E001207047012002E0012000E00020F8
:1027000002B070BD0120FBE70120F9E70120F7E7E7
:102710000120F5E70120F3E70120F1E7003802404E
:102720000000474208B5314B9B6803F00C03042BB3
:1027300057D0082B57D12D4B5A6802F03F025B68E7
:1027400013F4800F2AD0294B5968C1F3881C4FEA33
:102750004C11B1EB0C006EEB0E0E4FEA8E1343EAF8
:1027600090638101091A63EB0E03DB0043EA5173A6
:10277000C90011EB0C0C43F10003590200234FEA8E
:102780004C2041EADC51FEF739FA184B5B68C3F381
:10279000014301335B00B0FBF3F025E0134B5968B4
:1027A000C1F3881C4FEA4C11B1EB0C006EEB0E0E1E
:1027B0004FEA8E1343EA90638101091A63EB0E031B
:1027C000DB0043EA5173C90011EB0C0C43F1000329
:1027D000990200234FEA8C2041EA9C51FEF70EFA41
:1027E000D3E7034800E0034808BD00BF00380240BB
:1027F00000127A000024F400002800F09B8070B5DD
:102800000D4604464F4B1B6803F007038B4208D26A
:10281000CBB24C4A1370136803F007038B4240F0AD
:102820008B80236813F0020F17D013F0040F04D02D
:10283000454A936843F4E0539360236813F0080F0C
:1028400004D0414A936843F4604393603E4A9368DE
:1028500023F0F003A1680B439360236813F0010F8A
:1028600032D06368012B21D09A1E012A25D9364A1D
:10287000126812F0020F61D033498A6822F0030215
:1028800013438B6000F0A4FC06462F4B9B6803F0BB
:102890000C036268B3EB820F16D000F099FC801B2A
:1028A00041F288339842F0D9032042E0264A126868
:1028B00012F4003FE0D101203BE0234A126812F0FD
:1028C000007FD9D1012034E01E4B1B6803F00703C1
:1028D000AB4207D9EAB21B4B1A701B6803F007031F
:1028E000AB422DD1236813F0040F06D0164A93682B
:1028F00023F4E053E1680B439360236813F0080F5F
:1029000007D0114A936823F46043216943EAC10365
:102910009360FFF707FF0C4B9B68C3F303130B4A4D
:10292000D35CD8400A4B18600A4B186800F004FCCE
:10293000002070BD012070470120FAE70120F8E770
:102940000120F6E7003C024000380240C044000885
:102950003800002034000020014B1868704700BF89
:102960003800002008B5FFF7F7FF044B9B68C3F35E
:102970008223034AD35CD84008BD00BF0038024020
:10298000D044000808B5FFF7E7FF044B9B68C3F38A
:102990004233034AD35CD84008BD00BF0038024030
:1029A000D044000800230F2B00F2E48070B582B001
:1029B00060E085685E000324B44025EA0405CC6825
:1029C000B4402C438460456825EA02054C68C4F392
:1029D00000129A402A4342605AE0DC08083450F85A
:1029E000246003F0070295000F22AA4026EA020E97
:1029F0000A69AA4042EA0E0240F824205CE007225D
:102A000000E0002202FA0EF22A4302345A4D45F841
:102A100024205A4A14686FEA0C0224EA0C054E6816
:102A200016F4803F01D04CEA0405544C25606468DC
:102A300002EA04054E6816F4003F01D04CEA040592
:102A40004E4C6560A46802EA04054E6816F4801FC7
:102A500001D04CEA0405494CA560E46822404D6869
:102A600015F4001F01D04CEA0402444CE26001332B
:102A70000F2B7DD801229A400C6804EA020C32EA3E
:102A80000404F4D14C6804F00304013C012C90D9F7
:102A90004A6802F00302032A09D0C4685D000322D9
:102AA000AA4024EA02048A68AA402243C2604A6813
:102AB00002F00302022A90D004684FEA430E032278
:102AC00002FA0EF224EA02044A6802F0030202FA51
:102AD0000EF2224302604A6812F0805FC7D00022E3
:102AE0000192274A546C44F480445464526C02F4BA
:102AF00080420192019A9C08A51C1F4A52F8255059
:102B000003F003024FEA820E0F2202FA0EF225EAC8
:102B100002051C4A90423FF474AF02F58062904275
:102B20001AD002F58062904218D002F5806290427D
:102B300016D002F58062904214D002F58062904275
:102B400012D002F58062904210D002F5806290426D
:102B50003FF455AF082255E7012253E7022251E71F
:102B600003224FE704224DE705224BE7062249E7FF
:102B700002B070BD704700BF00380140003C01400A
:102B800000380240000002400AB181617047090428
:102B90008161704730B405682C6824F480242C606F
:102BA000046863608368402B05D0036899600368FC
:102BB000DA6030BC704703689A600368D960F8E750
:102BC00010B40368D9B210390C4AA2FB01421209B1
:102BD0000B4CA25CC2655F2909D923F47F7323F0F3
:102BE000030304338365806D5DF8044B704723F461
:102BF0007F7323F003038365F5E700BFABAAAAAA9E
:102C0000B8440008836A826992B9012B0AD0022B6A
:102C100002D00BB100207047C36A13F0807F28D127
:102C200000207047C36AB3F1C07F24D000207047F2
:102C3000B2F5005F09D0022B25D9032B25D1C36A39
:102C400013F0807F23D100207047032B03D8DFE8E7
:102C500003F01404140A00207047C36A13F0807F45
:102C60000DD100207047C36AB3F1C07F09D00020A6
:102C700070470120704701207047012070470120F4
:102C800070470120704701207047002070470120E5
:102C90007047000070B5044600F09AFA002C5BD033
:102CA0000546002384F83430022384F83530226846
:102CB000136823F00103136023681A6812F0010FF0
:102CC0000AD000F085FA431B052BF5D92023636554
:102CD000032084F8350070BD1A68204810406168F0
:102CE000A2680A43E1680A4321690A4361690A4309
:102CF000A1690A43E1690A43216A0A430243616AFE
:102D000004291ED01A602668756925F00705636AD4
:102D10001D43042B07D1A36A1D43E36A1BB1204660
:102D2000FFF770FF90B975612046FFF749FFE26D2C
:102D30003F239340836000206065012384F8353091
:102D4000C9E7E16A206B01430A43DBE7402363657F
:102D5000012084F83500BEE70120BCE73F8010F079
:102D600038B50446856D90F8340001282BD0012039
:102D700084F8340094F83500C0B2012804D0002350
:102D800084F83430022038BD022084F83500002059
:102D900060652046FFF7FEFEE26D3F239340AB6087
:102DA0002268136843F016031360236C23B1226872
:102DB000136843F0080313602268136843F00103AB
:102DC00013600020DFE70220DDE770B50446866D62
:102DD00000F0FEF994F83530DBB2022B06D08023E8
:102DE0006365002384F83430012070BD05462268F5
:102DF000136823F0160313602268536923F08003DD
:102E00005361236CE3B12268136823F00803136055
:102E10002268136823F00103136023681B6813F012
:102E2000010F11D000F0D4F9431B052BF5D9202355
:102E30006365002384F83430032084F83500D4E738
:102E4000A36C002BDFD1E3E7E26D3F239340B36037
:102E5000002084F83400012384F83530C5E790F869
:102E60003530DBB2022B03D080234365012070474D
:102E7000052380F835300268136823F001031360DE
:102E800000207047F0B583B0044600230193724BD5
:102E90001D68724BA3FB0535AD0A876D3E68C26D98
:102EA00008239340334210D003681A6812F0040FCD
:102EB0000BD01A6822F004021A60C26D08239340F6
:102EC000BB60436D43F001034365E26D0123934012
:102ED000334209D02268526912F0800F04D0BB60DF
:102EE000636D43F002036365E26D04239340334254
:102EF00009D02268126812F0020F04D0BB60636D23
:102F000043F004036365E26D10239340334224D001
:102F10002268126812F0080F1FD0BB6023681A687D
:102F200012F4802F0DD01B6813F4002F04D1236CF2
:102F30009BB12046984710E0A36C73B12046984798
:102F40000BE01A6812F4807F03D11A6822F008029D
:102F50001A60236C0BB120469847E26D2023934002
:102F6000334255D02268126812F0100F50D0BB6067
:102F700094F83530DBB2052B0ED023681A6812F4B2
:102F8000802F33D01B6813F4002F2AD1636C002BE1
:102F90003ED0204698473BE02268136823F0160392
:102FA00013602268536923F080035361236CA3B13B
:102FB0002268136823F008031360E26D3F239340F7
:102FC000BB60002384F83430012384F83530236D4E
:102FD000002B3FD0204698473CE0A36C002BE7D164
:102FE000EBE7E36BA3B12046984711E01A6812F4AF
:102FF000807F09D11A6822F010021A60002384F839
:103000003430012384F83530E36B0BB12046984708
:10301000636DFBB1636D13F0010F17D0052384F8C6
:1030200035302268136823F001031360019B0133DC
:103030000193AB4204D823681B6813F0010FF5D14C
:10304000002384F83430012384F83530E36C0BB16D
:103050002046984703B0F0BD38000020B5814E1BD4
:10306000074AD36823F4E0631B041B0C000200F43E
:10307000E060034343F0BF6343F40033D360704721
:1030800000ED00E000B5194BDB68C3F30223C3F188
:10309000070CBCF1040F28BF4FF0040C03F1040E21
:1030A000BEF1060F18D9033B4FF0FF3E0EFA0CFCA1
:1030B00021EA0C0199400EFA03F322EA03031943B3
:1030C00000280BDB0901C9B200F1604000F5614046
:1030D00080F800135DF804FB0023E5E700F00F0023
:1030E0000901C9B2024B1954F4E700BF00ED00E03A
:1030F00014ED00E0002807DB00F01F024009012367
:103100009340024A42F82030704700BF00E100E0DF
:103110000138B0F1807F0BD24FF0E0235861054AAF
:10312000F02182F823100020986107221A6170476D
:103130000120704700ED00E010B504460E4B1878F2
:103140004FF47A73B3FBF0F30C4A1068B0FBF3F062
:10315000FFF7DEFF68B90F2C01D901200AE0002239
:1031600021464FF0FF30FFF78DFF054B1C6000201C
:1031700000E0012010BD00BF320000203800002018
:103180003400002008B50B4B1A6842F400721A6034
:103190001A6842F480621A601A6842F480721A60F7
:1031A0000320FFF75DFF0020FFF7C6FFFDF7BEFF1E
:1031B000002008BD003C0240034A1168034B1B7805
:1031C0000B441360704700BF6401002032000020F0
:1031D000014B1868704700BF64010020034AD2F811
:1031E000883043F47003C2F88830704700ED00E087
:1031F0002DE9F0418AB000240594069407940894C0
:1032000009940194294B1A6B42F004021A631A6B59
:1032100002F004020192019A02941A6B42F08002B9
:103220001A631A6B02F080020292029A03941A6BDC
:1032300042F001021A631A6B02F001020392039A30
:1032400004941A6B42F002021A631B6B03F0020330
:103250000493049BDFF860802246C0214046FFF7BC
:1032600093FC134F2246E0213846FFF78DFCC02621
:103270000596012506950794089405A94046FFF791
:1032800091FBE0230593069507950323089305A971
:103290003846FFF787FB059606940795089405A91D
:1032A0000448FFF77FFB0AB0BDE8F0810038024018
:1032B00000040240000802400000024010B582B045
:1032C000002401940D4B1A6B42F480021A631B6BAD
:1032D00003F480030193019B224621463A20FFF725
:1032E000D1FE3A20FFF706FF224621464620FFF78F
:1032F000C9FE4620FFF7FEFE02B010BD00380240B6
:1033000008B50A480A4B03604FF4E13343600023D9
:103310008360C36003610C2242618361C361FEF775
:1033200037FD00B908BDFDF721FEFBE728020020AC
:103330000010014030B589B0002303930493059336
:1033400006930793026803F1804303F588339A429A
:1033500001D009B030BD04460025019503F5943332
:103360005A6C42F010025A645A6C02F01002019238
:10337000019A02951A6B42F001021A631B6B03F06B
:1033800001030293029B4FF4C0630393022304934F
:10339000032306930723079303A92048FFF702FBA3
:1033A0001F48204B03604FF0006343608560C56099
:1033B0004FF48063036145618561C56105624562C3
:1033C000FFF768FC18BB164BA3639C631648174BAA
:1033D00003604FF000634360402383600023C360B9
:1033E0004FF48062026143618361C361036243629F
:1033F000FFF750FC70B90C4B63639C6300221146CD
:103400002520FFF73FFE2520FFF774FEA1E7FDF71B
:10341000ADFDD8E7FDF7AAFDEDE700BF00000240D3
:103420006801002040640240C8010020B8640240E6
:1034300000B58DB02422002103A800F0A1FB0023D9
:10344000019302931348144A0260436083604FF073
:10345000FF32C2600361836103230393012205925B
:103460000A23079309920B9303A9FEF701F950B9B8
:1034700000230193029301A90648FEF767FB28B9D0
:103480000DB05DF804FBFDF771FDF1E7FDF76EFD92
:10349000F6E700BF6C0200200004004000B587B0D2
:1034A000002302930393049305930093019315481B
:1034B000154A026042F2D002426083606422C26018
:1034C00003618361FEF77CF890B94FF48053029357
:1034D00002A90C48FEF7D5F968B9002300930193BF
:1034E00069460848FEF732FB40B907B05DF804FBB7
:1034F000FDF73CFDE9E7FDF739FDEEE7FDF736FDA9
:10350000F3E700BFFC020020000C004010B588B0BB
:103510000023039304930593069307930268184BC3
:103520009A4201D008B010BD0024019403F50D3378
:103530001A6C42F002021A641A6C02F00202019242
:10354000019A02941A6B42F004021A631B6B03F097
:1035500004030293029BC0230393022304930122DA
:103560000592079303A90748FFF71CFA2246214654
:103570001D20FFF787FD1D20FFF7BCFDD2E700BF30
:10358000000400400008024000B583B00368184AF8
:10359000934205D0174A934216D003B05DF804FB5E
:1035A00000210091144B1A6C42F004021A641B6C47
:1035B00003F004030093009B0A461E20FFF762FD00
:1035C0001E20FFF797FDE8E7002101910A4B1A6CD6
:1035D00042F008021A641B6C03F008030193019B7C
:1035E0000A463220FFF74EFD3220FFF783FDD4E775
:1035F00000080040000C00400038024000B587B0D1
:1036000000230193029303930493059302680E4BE6
:103610009A4202D007B05DF804FB002300930B4BE5
:103620001A6B42F002021A631B6B03F00203009351
:10363000009B4FF44073019302230293059301A969
:103640000348FFF7AFF9E5E7000800400038024003
:103650000004024000B58FB000230A930B930C9333
:103660000D93089309930193029303930493059395
:10367000069307932548264A0260542242608360DD
:103680006422C26003618361FDF79AFF58BB4FF467
:1036900080530A930AA91D48FEF7F3F830BB1B4874
:1036A000FDF7BAFF28BB00230893099308A9174820
:1036B000FEF74CFA00BB60230193002302930393AF
:1036C0000593082201A91148FEF766F8B8B90C2243
:1036D00001A90E48FEF760F8A0B90C48FFF78EFF6D
:1036E0000FB05DF804FBFDF741FCD0E7FDF73EFCB1
:1036F000D5E7FDF73BFCD6E7FDF738FCDBE7FDF748
:1037000035FCE4E7FDF732FCE7E700BFB402002038
:103710000008004000000000D0B5044607EE901AF3
:10372000D0E90467F8EE677A9FED0D7A67EE877A45
:1037300017EE900AFCF700FF02460B46304639466A
:10374000FDF77CF804A3D3E90023FCF74DFFC4E99F
:103750000001D0BDAFF3008000000000004CED4040
:103760000000484480ED020B704710B50346D0E9D5
:1037700002015C6BD3E90023FCF77EFDC4E906017E
:1037800010BD2DE9F84357EC106B55EC114B59EC7B
:10379000128B11EE102A2B4610EE100A3946FDF757
:1037A000B3F948B942464B4630463946FDF78EF9E3
:1037B00030B149EC108B01E045EC104BBDE8F883CB
:1037C00047EC106BFAE700002DE9F84F2DED068B62
:1037D0000546446BD4E90C8994ED0E9BD4E906238D
:1037E000D4E90001FCF700FF424EC6E90001424661
:1037F0004B46D6E90001FDF769F900286FD0D6E9FC
:10380000002340464946FCF737FDFDF7A7F98346FC
:1038100053EC192B3749D1E90001FDF775F9002860
:1038200060D0344BD3E9002351EC190BFCF724FD95
:10383000FDF794F98246D4E90467D4E90601D4E996
:103840000823FCF71BFD02460B4630463946FCF7C1
:10385000CBFE02460B46284ED6E90001FCF70EFDD2
:10386000C6E9000196ED00AB5046FCF765FE41EC61
:10387000180B5846FCF760FEB0EE482AF0EE682AB6
:1038800041EC110BB0EE4A0AF0EE6A0AFFF779FF3D
:1038900086ED000B174BD3E90001D6E90023FCF7B6
:1038A000EDFCB0EE492AF0EE692A49EC118B41ECAF
:1038B000100BFFF766FF57EC106B0022002310EE91
:1038C000100A3946FDF702F978B9C5E90867D4E965
:1038D0000623C4E90823BDEC068BBDE8F88F4FF042
:1038E000000B95E74FF0000AA5E707F100431F46DC
:1038F000EBE700BF500300204803002038B5044622
:10390000C36B00221A6090F82830012B1CD01A4D8E
:10391000002240212846FFF737F90122802128465E
:10392000FFF732F900220023D4E90201FDF7C4F8C1
:10393000B0B994ED080B00F055FD51EC100BE46BA1
:10394000FDF7ECF8206038BD0B4D012240212846E0
:10395000FFF71AF9002280212846FFF715F9E1E761
:10396000054C002240212046FFF70EF9002280215D
:103970002046FFF709F9E6E70004024080ED000B5E
:1039800080ED041B80ED022B70470000000000005A
:103990002DE9F04705460C46924659EC108B57EC42
:1039A000116B40220021204600F0EAF86C63C5F854
:1039B00038A0012385F82830089B2B64099BEB6312
:1039C000C4E90C89C4E90E679FED052B9FED061B2A
:1039D0009FED070B2046FFF7D1FFBDE8F08700BF42
:1039E0000000000000000000000000403333C33F2F
:1039F00000000000000000402DE9F84359EC108B56
:103A000053EC112B55EC124B12EE100A2946FCF721
:103A1000EBFD06460F4622462B4600200849FCF7E0
:103A20002BFC42464B46FCF7DFFD02460B46304678
:103A30003946FCF723FC41EC100BBDE8F88300BFCE
:103A40000000F03F000000002DE9F8432DED028B4F
:103A50000446B0EE408AF0EE608A036C1F68FFF700
:103A6000B7FB0546A669861B00D10A26E069874296
:103A70002BD9381AFCF73EFD804689460022184BA8
:103A800040464946FDF740F808B1D4E904899FED66
:103A9000122B94ED041B49EC108BFFF7ADFF84ED66
:103AA000040B31462046FFF737FEB0EE480AF0EE31
:103AB000680A2046FFF756FE2046FFF756FEA5612E
:103AC000E761BDEC028BBDE8F883C01BFCF712FD7B
:103AD00080468946D2E700BF000000000000E03FBA
:103AE00000004940DFF834D00D480E490E4A00234B
:103AF00002E0D458C4500433C4188C42F9D30B4AA2
:103B00000B4C002301E013600432A242FBD3FFF709
:103B100065FB00F011F8FDF77FFA70470000022006
:103B200000000020A00000201C450008A00000208C
:103B30006C030020FEE7000070B50D4D0D4C641BBA
:103B4000A4100026A64209D10B4D0C4C00F0A8FC95
:103B5000641BA4100026A64205D170BD55F8043B95
:103B600098470136EEE755F8043B98470136F2E7EF
:103B700014450008144500081445000818450008BD
:103B800002440346934200D1704703F8011BF9E752
:103B90000EB400B59CB01DAB029006906FF00041D2
:103BA000094807910491094953F8042B05910068CD
:103BB000019302A900F068F8029B00221A701CB061
:103BC0005DF804EB03B070473C0000200802FFFFE3
:103BD0002DE9F0478E689E4282460C4690461F466D
:103BE00038D88A8912F4906F32D025680969A5EB1C
:103BF0000109656905EB450505EBD57501334B44B6
:103C00006D109D4238BF1D46530531D5294600F041
:103C100043FB064650B90C23CAF80030A38943F091
:103C20004003A3814FF0FF30BDE8F08721694A4689
:103C300000F0BEFAA38923F4906343F08003A381CC
:103C4000266165614E44A5EB09052660A5603E46E8
:103C5000BE4200D93E4620683246414600F0B6FAE0
:103C6000A3689B1BA3602368334423600020DBE729
:103C70002A4600F06BFB06460028E1D12169504638
:103C800000F0BEFAC7E700002DE9F04F98468B8997
:103C90001B069DB007460D4614460ED50B6963B949
:103CA000402100F0F9FA2860286120B90C233B601C
:103CB0004FF0FF30D1E040236B61002309932023B4
:103CC0008DF82930CDF80C803023DFF8A8818DF8ED
:103CD0002A304FF0010923469A4613F8012B0AB106
:103CE000252AF9D1BAEB040B0BD05B4622462946B4
:103CF0003846FFF76DFF013000F0AA80099A5A4458
:103D000009929AF80030002B00F0A28000234FF0B7
:103D1000FF32CDE905230AF1010A049307938DF8D8
:103D200053301A935446052214F8011B5148FCF7EE
:103D30004FFA049AD8B9D00644BF20238DF85330E7
:103D4000110744BF2B238DF853309AF800302A2BEB
:103D500015D0079A544600204FF00A0C214611F85E
:103D6000013B303B092B4ED9B0B1079214E0A0EBD8
:103D7000080309FA03F313430493A246D2E7039B13
:103D8000191D1B680391002BBBBF5B4242F002026E
:103D900007930793B8BF049223782E2B0CD1637836
:103DA0002A2B35D1039B1A1D1B680392002BB8BF29
:103DB0004FF0FF3302340593DFF8C8A021780322C7
:103DC0005046FCF705FA40B14023A0EB0A0003FA85
:103DD00000F0049B03430134049314F8011B2648AC
:103DE0008DF828100622FCF7F3F9002838D0234B71
:103DF0001BBB039B073323F0070308330393099B83
:103E00003344099367E70CFB02320C460120A5E717
:103E100000230134059319464FF00A0C204610F890
:103E2000012B303A092A03D9002BC5D00591C3E7ED
:103E30000CFB012104460123F0E703AB00932A4663
:103E40000F4B04A93846AFF30080421C0646D6D17A
:103E5000AB895B063FF52CAF09981DB0BDE8F08F2C
:103E600003AB00932A46064B04A9384600F07AF8C3
:103E7000EBE700BFD8440008E2440008000000005F
:103E8000D13B0008DE4400082DE9F047164699466C
:103E90008A680B69DDF820809342B8BF134633600F
:103EA00091F8432007460C460AB10133336023687A
:103EB000990642BF336802333360256815F0060562
:103EC00006D104F1190AE36832689B1AAB4226DC7A
:103ED00094F84320131E226818BF012392062BD4A6
:103EE00004F1430249463846C04701301ED02368DA
:103EF000E568326803F00603042B08BFAD1AA36817
:103F000022690CBF25EAE57500259342C4BF9B1AC0
:103F1000ED1800261A34B5421AD1002008E001231A
:103F2000524649463846C047013003D14FF0FF3072
:103F3000BDE8F0870135C6E7E1185A1C302081F84A
:103F40004300224494F8451082F843100233C7E737
:103F50000123224649463846C0470130E6D00136A3
:103F6000D9E700002DE9FF470F7E0C9D782F914681
:103F700080460C469A4601F1430207D8622F0AD8C0
:103F8000002F00F0D880582F00F0A38004F14205E4
:103F900084F842703AE0A7F16303152BF6D801A12B
:103FA00051F823F0FD3F0008114000088D3F000844
:103FB0008D3F00088D3F00088D3F0008114000082C
:103FC0008D3F00088D3F00088D3F00088D3F0008A1
:103FD0001D41000841400008FF4000088D3F0008D7
:103FE0008D3F00083F4100088D3F00084140000818
:103FF0008D3F00088D3F0008074100082B681A1DFF
:104000001B682A6004F1420584F842300123A3E0D2
:1040100020682968060601F104030AD50E682B60A2
:10402000002E03DA2D23764284F843305E480A23BB
:1040300019E00E682B6010F0400F18BF36B2EFE7A2
:104040002B682068191D2960010601D51E6802E051
:104050004606FBD51E8854486F2F0CBF08230A2341
:10406000002184F843106568A560002DA2BF216877
:1040700021F0040121600EB9002D4DD01546B6FB8C
:10408000F3F103FB1167C75D05F8017D3746BB42BD
:104090000E46F4D9082B0BD12368DE0708D5236917
:1040A00061689942DEBF302305F8013C05F1FF3518
:1040B000521B2261CDF800A04B4603AA2146404680
:1040C000FFF7E2FE01304CD14FF0FF3004B0BDE805
:1040D000F087354881F845702968236851F8046BEA
:1040E00029601D0614D5DF0744BF43F02003236079
:1040F0001EB9236823F0200323601023B0E7236850
:1041000043F0200323607823284884F84530E3E710
:10411000590648BFB6B2E6E71546BBE72B682668E6
:104120006169181D286035061B6801D5196002E019
:104130007006FBD51980002323611546BAE72B686A
:104140001A1D2A601D68626800212846FCF740F8A5
:1041500008B1401B606063682361002384F843302A
:10416000A8E723692A4649464046D0470130ABD0EC
:1041700023689B0713D4E068039B9842B8BF184696
:10418000A4E70123324649464046D04701309BD040
:104190000135E36803995B1AAB42F2DCEBE70025DB
:1041A00004F11906F5E700BFE9440008FA440008E5
:1041B0000A44914200F1FF3300D1704710B511F865
:1041C000014B03F8014F9142F9D110BD884210B55F
:1041D00001EB020402D98442234607D8431EA142C0
:1041E00008D011F8012B03F8012FF8E7024401462B
:1041F0008A4200D110BD13F8014D02F8014DF7E7D6
:1042000037B5002944D051F8043C0190002BA1F1AE
:104210000404B8BFE41800F0CFF81E4A01981368F0
:1042200033B96360146003B0BDE8304000F0CAB831
:10423000A34208D9256861198B4201BF19685B68E0
:1042400049192160EDE71A465B680BB1A342FAD920
:1042500011685518A5420BD1246821445418A34273
:104260001160E0D11C685B68536021441160DAE79B
:1042700002D90C230360D6E7256861198B4204BF7D
:1042800019685B68636004BF491921605460CAE71C
:1042900003B030BD58030020F8B5CD1C25F0030550
:1042A00008350C2D38BF0C25002D064601DBA94230
:1042B00003D90C2333600020F8BD00F07DF82149BC
:1042C0000A6814469CB9204F3B6823B92146304602
:1042D00000F062F838602946304600F05DF8431C73
:1042E00023D10C233360304600F06CF8E3E72368F9
:1042F0005B1B17D40B2B03D923601C44256004E0FF
:104300006368A2420CBF0B605360304600F05AF85D
:1043100004F10B00231D20F00700C21ACCD01B1A99
:10432000A350C9E722466468CCE7C41C24F0030408
:10433000A042E3D0211A304600F02EF80130DDD142
:10434000CFE700BF580300205C030020F8B5074604
:1043500014460E4621B9BDE8F8401146FFF79CBF50
:1043600022B9FFF74DFF25462846F8BD00F030F88A
:10437000A0420FD221463846FFF78EFF054600289F
:10438000F2D031462246FFF713FF31463846FFF799
:1043900037FFE9E73546E7E738B5064D0023044621
:1043A00008462B6000F06EF8431C02D12B6803B165
:1043B000236038BD60030020014800F011B800BF41
:1043C00064030020014800F00CB800BF6403002023
:1043D00051F8043C181F002BBCBF0B58C018704785
:1043E0007047704753EC102BC3F30A5CACF2FF31FB
:1043F000132910B510EE100A9E4622DC002909DBB5
:104400001F4C44FA01FC03EA0C04204310D143EC96
:10441000102B10BD03F0004E013104BF4EF07F5E43
:104420004EF4401E00207346024643EC102B10BD94
:104430004FF4002343FA01F18E442EEA0C0E0020C3
:10444000F1E7332908DDB1F5806FE0D11946FBF7BC
:1044500015FF41EC100B10BDACF2134C4FF0FF34C4
:1044600024FA0CFC12EA0C0FD1D00123C1F1330164
:1044700003FA01F1401828BF9E4420EA0C00D2E75D
:10448000FFFF0F00044A05491368002B08BF0B46C5
:10449000184410601846704768030020700300201D
:1044A000F8B500BFF8BC08BC9E467047F8B500BF21
:0844B000F8BC08BC9E467047F1
:1044B800000610160006101600000000000000009C
:1044C80001020304060708090000000001020304B2
:1044D800232D302B2000686C4C00656667454647E5
:1044E8000030313233343536373839414243444568
:1044F80046003031323334353637383961626364D7
:0445080065660000E4
:08450C0020C7FF7F0100000041
:04451400B5010008E5
:044518009101000805
:10451C00496E6974000000000000000000000000FB
:10452C00000000000000000000000000000000007F
:10453C00000000000000000000000000000000006F
:10454C0000000100100000000024F40040000020D6
:10455C00000000000000000000000000000000004F
:10456C00000000000000000000000000000000003F
:10457C00000000000000000000000000000000002F
:10458C00000000000000000000000000000000001F
:10459C00000000000000000000000000000000000F
:1045AC0000000000000000000000000000000000FF
:0400000508003AE5D0
:00000001FF
