:020000040800F2
:1000000000000220791D0008E1050008E305000852
:10001000E5050008E7050008E90500080000000004
:10002000000000000000000000000000EB050008D8
:10003000ED05000800000000EF050008F1050008CC
:10004000C91D0008C91D0008C91D0008C91D0008F8
:10005000C91D0008C91D0008C91D0008C91D0008E8
:10006000C91D0008C91D0008C91D0008C91D0008D8
:10007000C91D0008C91D0008C91D0008C91D0008C8
:10008000C91D0008C91D0008C91D0008C91D0008B8
:10009000C91D0008C91D0008C91D0008C91D0008A8
:1000A000C91D0008C91D0008C91D0008C91D000898
:1000B000C91D0008C91D0008C91D0008C91D000888
:1000C000C91D0008C91D0008C91D0008C91D000878
:1000D000C91D0008F9050008C91D0008C91D000850
:1000E000C91D0008C91D0008C91D0008C91D000858
:1000F000C91D0008C91D0008C91D0008C91D000848
:10010000C91D0008C91D0008C91D0008C91D000837
:10011000C91D0008C91D0008C91D0008C91D000827
:10012000C91D0008C91D000809060008C91D0008EE
:10013000C91D0008C91D0008C91D0008C91D000807
:10014000C91D0008C91D0008C91D0008C91D0008F7
:10015000C91D0008C91D000819060008C91D0008AE
:10016000C91D0008C91D0008C91D0008C91D0008D7
:10017000C91D0008C91D0008C91D000800000000B5
:08018000C91D0008C91D00089B
:1001880010B5054C237833B9044B13B10448AFF3C9
:1001980000800123237010BD0C0000200000000027
:1001A800241E000808B5034B1BB103490348AFF3ED
:1001B800008008BD0000000010000020241E000878
:1001C800034613F8012B002AFBD1181A013870478F
:1001D80053B94AB9002908BF00281CBF4FF0FF31A6
:1001E8004FF0FF3000F074B9ADF1080C6DE904CEA2
:1001F80000F006F8DDF804E0DDE9022304B07047FA
:100208002DE9F047089D04468E46002B4DD18A42C1
:10021800944669D9B2FA82F252B101FA02F3C2F1F4
:10022800200120FA01F10CFA02FC41EA030E944085
:100238004FEA1C48210CBEFBF8F61FFA8CF708FBA6
:1002480016E341EA034306FB07F199420AD91CEB7E
:10025800030306F1FF3080F01F81994240F21C81B0
:10026800023E63445B1AA4B2B3FBF8F008FB1033F8
:1002780044EA034400FB07F7A7420AD91CEB04042D
:1002880000F1FF3380F00A81A74240F207816444FD
:10029800023840EA0640E41B00261DB1D440002382
:1002A800C5E900433146BDE8F0878B4209D9002DE6
:1002B80000F0EF800026C5E9000130463146BDE870
:1002C800F087B3FA83F6002E4AD18B4202D38242DA
:1002D80000F2F980841A61EB030301209E46002D89
:1002E800E0D0C5E9004EDDE702B9FFDEB2FA82F2DE
:1002F800002A40F09280A1EB0C014FEA1C471FFA3C
:100308008CFE0126200CB1FBF7F307FB131140EA22
:1003180001410EFB03F0884208D91CEB010103F1EF
:10032800FF3802D2884200F2CB804346091AA4B2B1
:10033800B1FBF7F007FB101144EA01440EFB00FE85
:10034800A64508D91CEB040400F1FF3102D2A645EA
:1003580000F2BB800846A4EB0E0440EA03409CE789
:10036800C6F12007B34022FA07FC4CEA030C20FA36
:1003780007F401FA06F31C43F9404FEA1C4900FA56
:1003880006F3B1FBF9F8200C1FFA8CFE09FB1811D3
:1003980040EA014108FB0EF0884202FA06F20BD946
:1003A8001CEB010108F1FF3A80F08880884240F296
:1003B8008580A8F102086144091AA4B2B1FBF9F0DA
:1003C80009FB101144EA014100FB0EFE8E4508D9D5
:1003D8001CEB010100F1FF346CD28E456AD902385A
:1003E800614440EA0840A0FB0294A1EB0E01A1423F
:1003F800C846A64656D353D05DB1B3EB080261EBAD
:100408000E0101FA07F722FA06F3F1401F43C5E986
:10041800007100263146BDE8F087C2F12003D840BC
:100428000CFA02FC21FA03F3914001434FEA1C47FE
:100438001FFA8CFEB3FBF7F007FB10360B0C43EAF0
:10044800064300FB0EF69E4204FA02F408D91CEBA0
:10045800030300F1FF382FD29E422DD9023863449E
:100468009B1B89B2B3FBF7F607FB163341EA03413E
:1004780006FB0EF38B4208D91CEB010106F1FF388D
:1004880016D28B4214D9023E6144C91A46EA004684
:1004980038E72E46284605E70646E3E61846F8E616
:1004A8004B45A9D2B9EB020864EB0C0E0138A3E75F
:1004B8004646EAE7204694E74046D1E7D0467BE740
:1004C800023B614432E7304609E76444023842E7B8
:1004D800704700BF08B54021014801F005F808BD84
:1004E8000000024072B6FEE700B595B03022002148
:1004F80008A801F08BFC002303930493059306934B
:1005080007930193204A116C41F080511164126CD9
:1005180002F080520192019A02931C4B1A6842F42D
:1005280080421A601B6803F480430293029B0123F4
:1005380008934FF48033099302220E924FF48003FC
:100548000F9304231093A82111911292139308A8D2
:1005580000F096FB98B90F2303930223049300231A
:1005680005934FF4A05306934FF480530793052146
:1005780003A800F0EBFD20B915B05DF804FBFFF708
:10058800B1FFFFF7AFFF00BF003802400070004026
:1005980000B585B001F0AAFAFFF7A6FF01F0F0FA5E
:1005A80001F02CFB01F04CFB094BEC460FCBACE8FF
:1005B80007008CF800304FF47A7001F0C3FA6846EF
:1005C800FFF7FEFD82B26946024800F04FF9F2E7F4
:1005D8003C1E0008EC000020FEE7FEE7FEE7FEE711
:1005E800FEE770477047704708B501F099FA08BDF3
:1005F80008B5024800F040FA08BD00BFEC00002032
:1006080008B5024801F0F2F808BD00BF2C00002030
:1006180008B5024801F0EAF808BD00BF8C000020C8
:1006280082B0002100910B4B5A6C42F480425A640C
:100638005A6C02F480420092009A01911A6C42F0BE
:1006480080521A641B6C03F080530193019B02B023
:10065800704700BF003802400268D36823F0C00327
:10066800D360202380F83D3070470268D36823F4B4
:100678009073D3600268536923F001035361036BDD
:10068800012B05D0202380F83E30002303637047F8
:100698000268D36823F01003D360F3E790F83D3085
:1006A800DBB2212B01D0022070478368B3F5805F4D
:1006B80017D0036A5A1C02621A7803685A60C38CFE
:1006C8009BB2013B9BB2C3844BB90268D36823F049
:1006D8008003D3600268D36843F04003D3600020EE
:1006E80070470369002BE4D1036A1B880268C3F3CF
:1006F80008035360036A02330362E0E738B504462F
:100708000268136923F44053C1680B43136183687B
:100718000269134342691343C2691A430168CB68EB
:1007280023F4164323F00C031343CB600268536988
:1007380023F4407381690B4353610368314A934240
:1007480006D002F58062934202D000F0B5FD01E0C8
:1007580000F0C2FDE369B3F5004F29D0002103186A
:1007680049411B1841F10001C90041EA5371DB00FE
:10077800181863684FEA83024FEA937341F1000146
:10078800FFF726FD204DA5FB00325109642303FB2A
:1007980011031B013233A5FB03235B0903F0F002AD
:1007A80002EB011203F00F03216813448B6038BD7C
:1007B8000023021843EB0301121841F10001C9009C
:1007C80041EA5271D200101841F100016268921892
:1007D8005B41FFF7FDFC0C4DA5FB0032510964237A
:1007E80003FB1103DB003233A5FB03235B095A002B
:1007F80002F4F87202EB011203F0070321681344B4
:100808008B60D4E7001001401F85EB5158B310B539
:10081800044690F83D300BB3242384F83D30226819
:10082800D36823F40053D3602046FFF767FF22689C
:10083800136923F4904313612268536923F02A0350
:1008480053612268D36843F40053D36000202064C6
:10085800202384F83D3084F83E3010BD80F83C30C9
:1008680001F008FAD8E701207047000038B590F881
:100878003D30DBB2202B31D10446002930D0002A8C
:1008880030D090F83C30012B2ED0012380F83C303A
:1008980001628284C28400250564212380F83D30EA
:1008A800436B1248D863636B11481864636B114833
:1008B800D864636B1D6520681346021D606B00F0E9
:1008C80003FF23686FF040021A6084F83C502268E6
:1008D800536943F080035361284600E0022038BD85
:1008E8000120FCE70120FAE70220F8E703090008E5
:1008F8004D0900085B090008704708B50346806B7E
:100908001B681B6813F4807F0CD10023C384026822
:10091800536923F0800353610268D36843F04003AE
:10092800D36008BDFFF7E8FFFBE708B50168CA68B0
:1009380022F04002CA60202280F83D20FFF7DCFF49
:10094800002008BD08B5806BFFF7C4FD08BD7047DF
:10095800704710B5846B23685A6994F83D30DBB250
:10096800212B10D023685A6902F0400294F83E30D7
:10097800DBB2222B11D0236C43F0100323642046F2
:10098800FFF7E6FF10BD02F08002002AEAD000233C
:10099800E3842046FFF760FEE4E7002AEBD000235B
:1009A800E3852046FFF761FEE5E708B5806B002385
:1009B800C385C384FFF7CCFF08BD704790F83E306D
:1009C800DBB2222B53D110B504468368B3F5805FA0
:1009D80030D0A26AB3F5805F04D0002B37D12369E9
:1009E800002B34D123685B681370A36A0133A362B8
:1009F800E38D9BB2013B9BB2E385002B39D1226882
:100A0800D36823F02003D3602268D36823F480736B
:100A1800D3602268536923F001035361202384F8CB
:100A28003E30236B012B18D02046FFF790FF0020A3
:100A3800206310BD0269002ACBD1826A03685B6813
:100A4800C3F308031380836A02338362D0E7236801
:100A58005B6803F07F031370C7E72268D36823F04D
:100A68001003D360A18D2046FFF7A7FFDFE7022020
:100A780070470020DDE7000030B583B00446026807
:100A88001368D068516913F00F0505D113F0200FD2
:100A980002D010F0200F19D12DB111F0010119D198
:100AA80010F4907F16D1216B012975D013F0800FB7
:100AB80003D010F0800F40F0D88013F0400F03D01F
:100AC80010F0400F40F0D58003B030BD2046FFF74E
:100AD80075FFF9E713F0010F06D010F4807F03D0FB
:100AE800226C42F00102226413F0040F04D019B101
:100AF800226C42F00202226413F0020F04D019B1F2
:100B0800226C42F00402226413F0080F07D010F0A0
:100B1800200F00D119B1226C42F008022264226C25
:100B2800002AD1D013F0200F02D010F0200F21D1CD
:100B380023685B6903F04003226C12F0080F00D1B0
:100B480023B32046FFF791FD23685A6912F0400F3E
:100B580018D05A6922F040025A61A36B73B1474A10
:100B68001A65A06B00F02FFE0028ADD0A06B036DB6
:100B78009847A9E72046FFF721FFD9E72046FFF766
:100B8800E7FEA1E72046FFF7E3FE9DE72046FFF7D3
:100B9800DFFE0023236497E713F0100F86D010F0D0
:100BA800100F83D0002301931368019353680193B6
:100BB800019B536913F0400F33D0A16B0B685B683E
:100BC8009BB2002B80D0A08D98427FF67DAFE38545
:100BD800CB69B3F5807F08D1A18DE38D9BB2C91A8B
:100BE80089B22046FFF7E9FE6EE7D36823F48073E5
:100BF800D3602268536923F0010353612268536963
:100C080023F040035361202384F83E3000232363FC
:100C18002268D36823F01003D360A06B00F089FD2D
:100C2800DAE7A18DE38D9BB2C91A89B2E38D9BB235
:100C3800002B3FF449AF00293FF446AFD36823F4B3
:100C48009073D3602268536923F001035361202312
:100C580084F83E30002323632268D36823F010030E
:100C6800D3602046FFF7A9FE2EE72046FFF716FDC2
:100C78002AE72046FFF759FE26E700BFB309000818
:100C8800002800F0E08170B582B00446036813F0D4
:100C9800010F3BD09F4B9B6803F00C03042B2CD017
:100CA8009C4B9B6803F00C03082B21D06368B3F5B9
:100CB800803F4FD0B3F5A02F52D0964B1A6822F43C
:100CC80080321A601A6822F480221A606368002B46
:100CD80050D000F031FF05468E4B1B6813F4003FDF
:100CE80014D100F029FF401B6428F5D90320B1E195
:100CF800884B5B6813F4800FD8D0864B1B6813F4BD
:100D0800003F03D06368002B00F09F81236813F035
:100D1800020F54D07F4B9B6813F00C0F3ED07D4BD5
:100D28009B6803F00C03082B33D0E368002B68D0D2
:100D3800794B01221A6000F0FFFE0546754B1B68CF
:100D480013F0020F54D100F0F7FE401B0228F5D92A
:100D580003207FE16F4A136843F480331360B5E7DB
:100D68006C4B1A6842F480221A601A6842F4803286
:100D78001A60ABE700F0E0FE0546664B1B6813F40B
:100D8800003FC3D000F0D8FE401B6428F5D90320EB
:100D980060E1604B5B6813F4800FC6D15D4B1B6844
:100DA80013F0020F03D0E368012B40F05081594A39
:100DB800136823F0F803216943EAC1031360236829
:100DC80013F0080F42D063696BB3534B0122C3F889
:100DD800802E00F0B1FE05464E4B5B6F13F0020FFC
:100DE80034D100F0A9FE401B0228F5D9032031E1D7
:100DF800484A136823F0F803216943EAC1031360E2
:100E0800DDE7454B00221A6000F096FE0546414B8F
:100E18001B6813F0020FD2D000F08EFE401B022890
:100E2800F5D9032016E13C4B0022C3F8802E00F0D0
:100E380083FE0546374B5B6F13F0020F06D000F0B8
:100E48007BFE401B0228F5D9032003E1236813F039
:100E5800040F77D02F4B1B6C13F0805F33D1002326
:100E680001932C4B1A6C42F080521A641B6C03F0ED
:100E780080530193019B0125284B1B6813F4807F45
:100E880023D0A368012B34D0052B38D0214B1A6FFF
:100E980022F001021A671A6F22F004021A67A36887
:100EA800002B3DD000F048FE06461A4B1B6F13F08E
:100EB800020F46D100F040FE801B41F28833984271
:100EC800F3D90320C6E00025D6E7144A136843F493
:100ED8008073136000F030FE0646104B1B6813F455
:100EE800807FCED100F028FE801B0228F5D9032090
:100EF800B0E0084A136F43F001031367CFE7054BCF
:100F08001A6F42F004021A671A6F42F001021A6758
:100F1800C5E700BF003802400000474200700040AB
:100F280000F00AFE0646524B1B6F13F0020F08D062
:100F380000F002FE801B41F288339842F3D9032067
:100F480088E0EDB9A369002B00F08380484A9268D5
:100F580002F00C02082A51D0022B17D0454B002270
:100F68001A6600F0E9FD0446414B1B6813F0007F48
:100F780042D000F0E1FD001B0228F5D9032069E00A
:100F88003B4A136C23F080531364DBE7394B002290
:100F98001A6600F0D1FD0546354B1B6813F0007F3B
:100FA80006D000F0C9FD401B0228F5D9032051E006
:100FB800E369226A1343626A43EA8213A26A520807
:100FC800013A43EA0243E26A43EA0263284A536069
:100FD800284B01221A6600F0AFFD0446244B1B681B
:100FE80013F0007F06D100F0A7FD001B0228F5D9F9
:100FF80003202FE000202DE000202BE0012B2BD038
:101008001B4B5B6803F48001E269914226D103F02F
:101018003F02216A8A4223D1616A47F6C0721A40A8
:10102800B2EB811F1ED103F44031A26A5208013A83
:10103800B1EB024F18D103F07063E26AB3EB026FB1
:1010480014D1002006E001207047012002E00120B1
:1010580000E0002002B070BD0120FBE70120F9E7A5
:101068000120F7E70120F5E70120F3E70120F1E788
:10107800003802400000474208B5314B9B6803F036
:101088000C03042B57D0082B57D12D4B5A6802F06C
:101098003F025B6813F4800F2AD0294B5968C1F3CB
:1010A800881C4FEA4C11B1EB0C006EEB0E0E4FEAA8
:1010B8008E1343EA90638101091A63EB0E03DB0088
:1010C80043EA5173C90011EB0C0C43F100035902B8
:1010D80000234FEA4C2041EADC51FFF779F8184B1E
:1010E8005B68C3F3014301335B00B0FBF3F025E019
:1010F800134B5968C1F3881C4FEA4C11B1EB0C0033
:101108006EEB0E0E4FEA8E1343EA90638101091AC3
:1011180063EB0E03DB0043EA5173C90011EB0C0CBF
:1011280043F10003990200234FEA8C2041EA9C51C5
:10113800FFF74EF8D3E7034800E0034808BD00BFB7
:101148000038024000127A000024F400002800F061
:101158009B8070B50D4604464F4B1B6803F0070390
:101168008B4208D2CBB24C4A1370136803F00703C2
:101178008B4240F08B80236813F0020F17D013F0D6
:10118800040F04D0454A936843F4E05393602368FE
:1011980013F0080F04D0414A936843F46043936006
:1011A8003E4A936823F0F003A1680B4393602368D9
:1011B80013F0010F32D06368012B21D09A1E012A47
:1011C80025D9364A126812F0020F61D033498A686D
:1011D80022F0030213438B6000F0AEFC06462F4B4F
:1011E8009B6803F00C036268B3EB820F16D000F023
:1011F800A3FC801B41F288339842F0D9032042E0D7
:10120800264A126812F4003FE0D101203BE0234A4D
:10121800126812F0007FD9D1012034E01E4B1B6800
:1012280003F00703AB4207D9EAB21B4B1A701B68DD
:1012380003F00703AB422DD1236813F0040F06D047
:10124800164A936823F4E053E1680B4393602368DC
:1012580013F0080F07D0114A936823F460432169FB
:1012680043EAC1039360FFF707FF0C4B9B68C3F386
:1012780003130B4AD35CD8400A4B18600A4B186812
:1012880000F00EFC002070BD012070470120FAE735
:101298000120F8E70120F6E7003C02400038024050
:1012A800541E00080800002004000020014B1868A4
:1012B800704700BF0800002008B5FFF7F7FF044B90
:1012C8009B68C3F38223034AD35CD84008BD00BFA0
:1012D80000380240641E000808B5FFF7E7FF044B1A
:1012E8009B68C3F34233034AD35CD84008BD00BFB0
:1012F80000380240641E000800230F2B00F2E4802F
:1013080070B582B060E085685E000324B44025EAC9
:101318000405CC68B4402C438460456825EA02057E
:101328004C68C4F300129A402A4342605AE0DC0831
:10133800083450F8246003F0070295000F22AA40F1
:1013480026EA020E0A69AA4042EA0E0240F8242060
:101358005CE0072200E0002202FA0EF22A4302347F
:101368005A4D45F824205A4A14686FEA0C0224EAB8
:101378000C054E6816F4803F01D04CEA0405544C25
:101388002560646802EA04054E6816F4003F01D03F
:101398004CEA04054E4C6560A46802EA04054E68F0
:1013A80016F4801F01D04CEA0405494CA560E46896
:1013B80022404D6815F4001F01D04CEA0402444C49
:1013C800E26001330F2B7DD801229A400C6804EAB1
:1013D800020C32EA0404F4D14C6804F00304013C22
:1013E800012C90D94A6802F00302032A09D0C46884
:1013F8005D000322AA4024EA02048A68AA40224324
:10140800C2604A6802F00302022A90D004684FEAD8
:10141800430E032202FA0EF224EA02044A6802F09A
:10142800030202FA0EF2224302604A6812F0805F59
:10143800C7D000220192274A546C44F48044546473
:10144800526C02F480420192019A9C08A51C1F4A22
:1014580052F8255003F003024FEA820E0F2202FAD7
:101468000EF225EA02051C4A90423FF474AF02F5D9
:10147800806290421AD002F58062904218D002F53C
:101488008062904216D002F58062904214D002F534
:101498008062904212D002F58062904210D002F52C
:1014A800806290423FF455AF082255E7012253E786
:1014B800022251E703224FE704224DE705224BE7BA
:1014C800062249E702B070BD704700BF00380140EE
:1014D800003C014000380240000002400AB181612E
:1014E8007047090481617047436901EA030221EAF0
:1014F800030141EA02418161704730B405682C68F4
:1015080024F480242C60046863608368402B05D031
:10151800036899600368DA6030BC704703689A60B2
:101528000368D960F8E7000010B40368D9B210392D
:101538000C4AA2FB014212090B4CA25CC2655F294E
:1015480009D923F47F7323F0030304338365806D83
:101558005DF8044B704723F47F7323F0030383651E
:10156800F5E700BFABAAAAAA4C1E0008836A8269E5
:1015780092B9012B0AD0022B02D00BB10020704780
:10158800C36A13F0807F28D100207047C36AB3F183
:10159800C07F24D000207047B2F5005F09D0022B2D
:1015A80025D9032B25D1C36A13F0807F23D10020CE
:1015B8007047032B03D8DFE803F01404140A002053
:1015C8007047C36A13F0807F0DD100207047C36A4B
:1015D800B3F1C07F09D00020704701207047012077
:1015E8007047012070470120704701207047012093
:1015F80070470020704701207047000070B504460E
:1016080000F09AFA002C5BD00546002384F83430A9
:10161800022384F835302268136823F0010313602D
:1016280023681A6812F0010F0AD000F085FA431BEC
:10163800052BF5D920236365032084F8350070BD98
:101648001A68204810406168A2680A43E1680A43A2
:1016580021690A4361690A43A1690A43E1690A43A6
:10166800216A0A430243616A04291ED01A60266867
:10167800756925F00705636A1D43042B07D1A36A22
:101688001D43E36A1BB12046FFF770FF90B97561EF
:101698002046FFF749FFE26D3F2393408360002017
:1016A8006065012384F83530C9E7E16A206B01439E
:1016B8000A43DBE740236365012084F83500BEE771
:1016C8000120BCE73F8010F038B50446856D90F8DE
:1016D800340001282BD0012084F8340094F8350018
:1016E800C0B2012804D0002384F83430022038BD69
:1016F800022084F83500002060652046FFF7FDFED3
:10170800E26D3F239340AB602268136843F01603F1
:101718001360236C23B12268136843F00803136035
:101728002268136843F0010313600020DFE70220FA
:10173800DDE770B50446866D00F0FEF994F83530A3
:10174800DBB2022B06D080236365002384F8343093
:10175800012070BD05462268136823F01603136044
:101768002268536923F080035361236CE3B1226834
:10177800136823F0080313602268136823F0010339
:10178800136023681B6813F0010F11D000F0D4F91F
:10179800431B052BF5D920236365002384F83430D7
:1017A800032084F83500D4E7A36C002BDFD1E3E7EE
:1017B800E26D3F239340B360002084F83400012396
:1017C80084F83530C5E790F83530DBB2022B03D00A
:1017D8008023436501207047052380F8353002686F
:1017E800136823F00103136000207047F0B583B03D
:1017F800044600230193724B1D68724BA3FB053509
:10180800AD0A876D3E68C26D08239340334210D0FD
:1018180003681A6812F0040F0BD01A6822F0040249
:101828001A60C26D08239340BB60436D43F0010307
:101838004365E26D01239340334209D0226852691F
:1018480012F0800F04D0BB60636D43F00203636540
:10185800E26D04239340334209D02268126812F0E3
:10186800020F04D0BB60636D43F004036365E26D4F
:1018780010239340334224D02268126812F0080FD4
:101888001FD0BB6023681A6812F4802F0DD01B6824
:1018980013F4002F04D1236C9BB12046984710E025
:1018A800A36C73B1204698470BE01A6812F4807F46
:1018B80003D11A6822F008021A60236C0BB1204683
:1018C8009847E26D20239340334255D0226812682E
:1018D80012F0100F50D0BB6094F83530DBB2052BF6
:1018E8000ED023681A6812F4802F33D01B6813F4C3
:1018F800002F2AD1636C002B3ED0204698473BE04E
:101908002268136823F0160313602268536923F0D2
:1019180080035361236CA3B12268136823F0080382
:101928001360E26D3F239340BB60002384F834309A
:10193800012384F83530236D002B3FD0204698478B
:101948003CE0A36C002BE7D1EBE7E36BA3B12046A7
:10195800984711E01A6812F4807F09D11A6822F0BA
:1019680010021A60002384F83430012384F83530DB
:10197800E36B0BB120469847636DFBB1636D13F0C1
:10198800010F17D0052384F835302268136823F037
:1019980001031360019B01330193AB4204D8236810
:1019A8001B6813F0010FF5D1002384F834300123AC
:1019B80084F83530E36C0BB12046984703B0F0BD8E
:1019C80008000020B5814E1B074AD36823F4E06362
:1019D8001B041B0C000200F4E060034343F0BF63E8
:1019E80043F40033D360704700ED00E000B5194BB5
:1019F800DB68C3F30223C3F1070CBCF1040F28BF53
:101A08004FF0040C03F1040EBEF1060F18D9033B86
:101A18004FF0FF3E0EFA0CFC21EA0C0199400EFA39
:101A280003F322EA0303194300280BDB0901C9B2B7
:101A380000F1604000F5614080F800135DF804FB98
:101A48000023E5E700F00F000901C9B2024B195461
:101A5800F4E700BF00ED00E014ED00E0002807DB2C
:101A680000F01F02400901239340024A42F8203047
:101A7800704700BF00E100E00138B0F1807F0BD271
:101A88004FF0E0235861054AF02182F82310002026
:101A9800986107221A6170470120704700ED00E045
:101AA80010B504460E4B18784FF47A73B3FBF0F375
:101AB8000C4A1068B0FBF3F0FFF7DEFF68B90F2C93
:101AC80001D901200AE0002221464FF0FF30FFF73C
:101AD8008DFF054B1C60002000E0012010BD00BFF9
:101AE80000000020080000200400002008B50B4B6F
:101AF8001A6842F400721A601A6842F480621A6026
:101B08001A6842F480721A600320FFF75DFF002014
:101B1800FFF7C6FFFEF784FD002008BD003C024029
:101B2800034A1168034B1B780B441360704700BFCE
:101B38002800002000000020014B1868704700BFF3
:101B48002800002038B50446FFF7F6FF0546B4F133
:101B5800FF3F02D0044B1B781C44FFF7EDFF401BEE
:101B6800A042FAD338BD00BF00000020034AD2F8D3
:101B7800883043F47003C2F88830704700ED00E005
:101B880030B589B00024039404940594069407940E
:101B98000094184B1A6B42F004021A631A6B02F095
:101BA80004020092009A01941A6B42F080021A63B0
:101BB8001A6B02F080020192019A02941A6B42F0A9
:101BC80001021A631B6B03F001030293029B0A4D87
:101BD8002246C0212846FFF781FCC0230393012336
:101BE80004930594069403A92846FFF785FB09B0DA
:101BF80030BD00BF003802400000024010B582B07E
:101C0800002401940D4B1A6B42F480021A631B6B7B
:101C180003F480030193019B224621463A20FFF7F3
:101C2800E5FE3A20FFF71AFF224621464620FFF735
:101C3800DDFE4620FFF712FF02B010BD003802405B
:101C480008B50A480A4B03604FF4E13343600023A8
:101C58008360C36003610C2242618361C361FEF744
:101C6800D5FD00B908BDFEF73DFCFBE7EC00002000
:101C78000010014030B589B0002303930493059305
:101C880006930793026803F1804303F588339A4269
:101C980001D009B030BD04460025019503F5943301
:101CA8005A6C42F010025A645A6C02F01002019207
:101CB800019A02951A6B42F001021A631B6B03F03A
:101CC80001030293029B4FF4C0630393022304931E
:101CD800032306930723079303A92048FFF70CFB68
:101CE8001F48204B03604FF0006343608560C56068
:101CF8004FF48063036145618561C5610562456292
:101D0800FFF77CFC18BB164BA3639C631648174B64
:101D180003604FF000634360402383600023C36087
:101D28004FF48062026143618361C361036243626D
:101D3800FFF764FC70B90C4B63639C630022114687
:101D48002520FFF753FE2520FFF788FEA1E7FEF7C1
:101D5800C9FBD8E7FEF7C6FBEDE700BF000002406D
:101D68002C000020406402408C000020B86402402F
:101D7800DFF834D00D480E490E4A002302E0D4584B
:101D8800C4500433C4188C42F9D30B4A0B4C0023BB
:101D980001E013600432A242FBD3FFF7E7FE00F034
:101DA80011F8FEF7F5FB7047000002200000002044
:101DB8000C0000207C1E00080C00002030010020D0
:101DC800FEE7000070B50D4D0D4C641BA4100026F5
:101DD800A64209D10B4D0C4C00F020F8641BA4104E
:101DE8000026A64205D170BD55F8043B9847013638
:101DF800EEE755F8043B98470136F2E7741E0008F1
:101E0800741E0008741E0008781E00080244034669
:101E1800934200D1704703F8011BF9E7F8B500BFFA
:101E2800F8BC08BC9E467047F8B500BFF8BC08BCB3
:041E38009E4670470B
:101E3C0048656C6C6F20576F726C640A0000000070
:101E4C00000610160006101600000000000000002E
:101E5C000102030406070809000000000102030444
:081E6C009CE3FF7F0100000070
:041E7400AD010008B4
:041E780089010008D4
:0C1E7C0001000000100000000024F40031
:0400000508001D7959
:00000001FF
