:020000040800F2
:1000000000000220193000082D0B00082F0B0008FB
:10001000310B0008330B0008350B0008000000000E
:10002000000000000000000000000000370B000886
:10003000390B0008000000003B0B00083D0B0008D6
:10004000693000086930000869300008693000082C
:10005000693000086930000869300008693000081C
:10006000693000086930000869300008693000080C
:1000700069300008693000086930000869300008FC
:1000800069300008693000086930000869300008EC
:1000900069300008693000086930000869300008DC
:1000A00069300008693000086930000869300008CC
:1000B0006930000869300008450B00086930000805
:1000C00069300008693000086930000869300008AC
:1000D00069300008550B00086930000869300008D5
:1000E000693000086930000869300008693000088C
:1000F000693000086930000869300008693000087C
:100100006930000869300008650B00086930000894
:10011000693000086930000869300008693000085B
:100120006930000869300008750B00086930000864
:10013000693000086930000869300008693000083B
:10014000693000086930000869300008693000082B
:100150006930000869300008850B00086930000824
:10016000693000086930000869300008693000080B
:10017000693000086930000869300008000000009C
:08018000693000086930000835
:1001900010B5054C237833B9044B13B10448AFF3C1
:1001A00000800123237010BDA0000020000000008B
:1001B0003439000808B5034B1BB103490348AFF3BA
:1001C000008008BD00000000A400002034390008B1
:1001D00001F0FF01102A2BDB10F0070F08D010F8F8
:1001E000013B013A8B422DD010F0070F42B3F6D1FC
:1001F000F0B441EA012141EA014122F007047FF015
:1002000000070023F0E80256083C85EA010586EA6B
:10021000010685FA47F5A3FA87F586FA47F6A5FAA7
:1002200087F68EB9EED1F0BC01F0FF0102F00702B3
:1002300032B110F8013B013A83EA010313B1F8D15E
:100240000020704701387047002D06BF354603383F
:10025000073815F0010F07D1013015F4807F02BF78
:10026000013015F4C03F0130F0BC0138704700BFC9
:1002700081F0004102E000BF83F0004330B54FEA57
:1002800041044FEA430594EA050F08BF90EA020FC4
:100290001FBF54EA000C55EA020C7FEA645C7FEA57
:1002A000655C00F0E2804FEA5454D4EB5555B8BF7A
:1002B0006D420CDD2C4480EA020281EA030382EAEB
:1002C000000083EA010180EA020281EA0303362D7D
:1002D00088BF30BD11F0004F4FEA01314FF4801C50
:1002E0004CEA113102D0404261EB410113F0004F62
:1002F0004FEA03334CEA133302D0524263EB430319
:1003000094EA050F00F0A780A4F10104D5F1200EB6
:100310000DDB02FA0EFC22FA05F2801841F1000111
:1003200003FA0EF2801843FA05F359410EE0A5F1E5
:1003300020050EF1200E012A03FA0EFC28BF4CF016
:10034000020C43FA05F3C01851EBE37101F00045CC
:1003500007D54FF0000EDCF1000C7EEB00006EEBD9
:100360000101B1F5801F1BD3B1F5001F0CD3490863
:100370005FEA30004FEA3C0C04F101044FEA4452BA
:1003800012F5800F80F09A80BCF1004F08BF5FEA41
:10039000500C50F1000041EB045141EA050130BD21
:1003A0005FEA4C0C404141EB0101013C28BFB1F533
:1003B000801FE9D291F0000F04BF01460020B1FA7E
:1003C00081F308BF2033A3F10B03B3F120020CDA51
:1003D0000C3208DD02F1140CC2F10C0201FA0CF02F
:1003E00021FA02F10CE002F11402D8BFC2F1200C94
:1003F00001FA02F120FA0CFCDCBF41EA0C0190404A
:10040000E41AA2BF01EB0451294330BD6FEA040492
:100410001F3C1CDA0C340EDC04F11404C4F120027D
:1004200020FA04F001FA02F340EA030021FA04F38F
:1004300045EA030130BDC4F10C04C4F1200220FAE6
:1004400002F001FA04F340EA0300294630BD21FA24
:1004500004F0294630BD94F0000F83F4801306BFEA
:1004600081F480110134013D4EE77FEA645C18BFDE
:100470007FEA655C29D094EA050F08BF90EA020F75
:1004800005D054EA000C04BF1946104630BD91EA6D
:10049000030F1EBF0021002030BD5FEA545C05D170
:1004A0004000494128BF41F0004130BD14F58004AF
:1004B0003CBF01F5801130BD01F0004545F0FE4123
:1004C00041F470014FF0000030BD7FEA645C1ABF58
:1004D000194610467FEA655C1CBF0B46024650EA8F
:1004E000013406BF52EA033591EA030F41F40021BB
:1004F00030BD00BF90F0000F04BF0021704730B541
:100500004FF4806404F132044FF000054FF0000115
:1005100050E700BF90F0000F04BF0021704730B5D6
:100520004FF4806404F1320410F0004548BF4042AB
:100530004FF000013EE700BF42004FEAE2014FEA00
:1005400031014FEA02701FBF12F07F4393F07F4FDB
:1005500081F06051704732F07F4208BF704793F0DE
:100560007F4F04BF41F40021704730B54FF46074F1
:1005700001F0004521F000411CE700BF50EA0102F4
:1005800008BF704730B54FF000050AE050EA01029D
:1005900008BF704730B511F0004502D5404261EB0D
:1005A00041014FF4806404F132045FEA915C3FF44E
:1005B000D8AE4FF003025FEADC0C18BF03325FEAEB
:1005C000DC0C18BF033202EBDC02C2F1200300FA9C
:1005D00003FC20FA02F001FA03FE40EA0E0021FAC1
:1005E00002F11444BDE600BF53B94AB9002908BF5F
:1005F00000281CBF4FF0FF314FF0FF3000F074B9FE
:10060000ADF1080C6DE904CE00F006F8DDF804E069
:10061000DDE9022304B070472DE9F047089D044648
:100620008E46002B4DD18A42944669D9B2FA82F2A5
:1006300052B101FA02F3C2F1200120FA01F10CFAE1
:1006400002FC41EA030E94404FEA1C48210CBEFB19
:10065000F8F61FFA8CF708FB16E341EA034306FBA2
:1006600007F199420AD91CEB030306F1FF3080F031
:100670001F81994240F21C81023E63445B1AA4B27E
:10068000B3FBF8F008FB103344EA034400FB07F720
:10069000A7420AD91CEB040400F1FF3380F00A8161
:1006A000A74240F207816444023840EA0640E41B56
:1006B00000261DB1D4400023C5E900433146BDE802
:1006C000F0878B4209D9002D00F0EF800026C5E9A4
:1006D000000130463146BDE8F087B3FA83F6002EBC
:1006E0004AD18B4202D3824200F2F980841A61EB34
:1006F000030301209E46002DE0D0C5E9004EDDE752
:1007000002B9FFDEB2FA82F2002A40F09280A1EB39
:100710000C014FEA1C471FFA8CFE0126200CB1FB8E
:10072000F7F307FB131140EA01410EFB03F0884287
:1007300008D91CEB010103F1FF3802D2884200F214
:10074000CB804346091AA4B2B1FBF7F007FB1011A6
:1007500044EA01440EFB00FEA64508D91CEB040444
:1007600000F1FF3102D2A64500F2BB800846A4EB9F
:100770000E0440EA03409CE7C6F12007B34022FA8A
:1007800007FC4CEA030C20FA07F401FA06F31C43B9
:10079000F9404FEA1C4900FA06F3B1FBF9F8200CC6
:1007A0001FFA8CFE09FB181140EA014108FB0EF00C
:1007B000884202FA06F20BD91CEB010108F1FF3A5C
:1007C00080F08880884240F28580A8F10208614468
:1007D000091AA4B2B1FBF9F009FB101144EA014176
:1007E00000FB0EFE8E4508D91CEB010100F1FF3421
:1007F0006CD28E456AD90238614440EA0840A0FBB9
:100800000294A1EB0E01A142C846A64656D353D08E
:100810005DB1B3EB080261EB0E0101FA07F722FAB2
:1008200006F3F1401F43C5E9007100263146BDE8DB
:10083000F087C2F12003D8400CFA02FC21FA03F33E
:10084000914001434FEA1C471FFA8CFEB3FBF7F0BF
:1008500007FB10360B0C43EA064300FB0EF69E42E4
:1008600004FA02F408D91CEB030300F1FF382FD27D
:100870009E422DD9023863449B1B89B2B3FBF7F625
:1008800007FB163341EA034106FB0EF38B4208D9FE
:100890001CEB010106F1FF3816D28B4214D9023E3F
:1008A0006144C91A46EA004638E72E46284605E75D
:1008B0000646E3E61846F8E64B45A9D2B9EB02082E
:1008C00064EB0C0E0138A3E74646EAE7204694E7BE
:1008D0004046D1E7D0467BE7023B614432E73046F1
:1008E00009E76444023842E7704700BF024B834285
:1008F00000D0704700BFFCE74C02002070B5204BD1
:100900001B78012B16D01F4B1B781F4A12781343FC
:100910001E4A12781343162B24D0012219491C4871
:1009200001F0DEF8184B1978184A1170154A127840
:100930001A7070BD134D174E10222946304602F032
:10094000C1FB134C10223146204600F047FE012225
:10095000114B1A700A4B002119702946204601F0EC
:10096000BFF8DFE7064B01221A70064900230B602F
:100970004B608B60CB601022054801F0B1F8D1E7E5
:10098000D1000020D4000020D0000020C8000020AA
:10099000C001002000000020E400002072B6FEE745
:1009A00000B595B03022002108A802F083FB002397
:1009B000039304930593069307930193204A116CC4
:1009C00041F080511164126C02F080520192019A40
:1009D00002931C4B1A6842F480421A601B6803F4AD
:1009E00080430293029B012308934FF480330993C1
:1009F00002220E924FF480030F9304231093A82138
:100A000011911292139308A801F086F898B90F2358
:100A1000039302230493002305934FF4A0530693FA
:100A20004FF480530793052103A801F0D7FA20B9AA
:100A300015B05DF804FBFFF7B1FFFFF7AFFF00BF94
:100A4000003802400070004000B583B001F082FF22
:100A5000FFF7A6FF01F0C8FF02F020F802F040F80F
:100A600002F03EFA02F006F902F038F902F0D0F88E
:100A700001222549254801F033F825E017EE900AB8
:100A8000FFF75AFD04460D46214E224B1868FFF72A
:100A900053FDCDE9000122462B461F49304602F0A6
:100AA00011FB32223146194800F098FD194B1A68A3
:100AB0001A4B1A601A4B1A681A4B1A601A4B00220A
:100AC0001A70642001F072FF174B1B78002BF8D0CE
:100AD000134C104A21460C4802F06DFAD4ED007A0E
:100AE000104B93ED007AF4EE477AF1EE10FAC5D18F
:100AF000084BD3ED006A094B93ED007AF4EE476A98
:100B0000F1EE10FAD2D0B9E7D4000020C0010020E5
:100B100000000020BC0000204C390008C00000206C
:100B2000CC000020C4000020E4000020FEE7FEE727
:100B3000FEE7FEE7FEE770477047704708B501F033
:100B400023FF08BD08B5024800F006F908BD00BF44
:100B50000402002008B5024800F046FE08BD00BFB0
:100B6000C001002008B5024800F0F6F808BD00BF3B
:100B70004C02002008B5024801F06EFD08BD00BF20
:100B80006001002008B5024801F066FD08BD00BF05
:100B90000001002082B0002100910B4B5A6C42F4FE
:100BA00080425A645A6C02F480420092009A019189
:100BB0001A6C42F080521A641B6C03F0805301934C
:100BC000019B02B0704700BF0038024030B4036A96
:100BD00023F001030362056A4268846924F0730408
:100BE0000B681C4325F002058B682B43104DA8426F
:100BF00003D005F58065A84205D123F00803CD6830
:100C00002B4323F004030A4DA84203D005F5806569
:100C1000A84205D122F440724D6915438A692A43DE
:100C2000426084614A684263036230BC704700BF1F
:100C30000000014030B4036A23F480730362036A46
:100C40004268C46924F073040D682C4323F40073D4
:100C50008D6843EA0523124DA84203D005F580654F
:100C6000A84206D123F40063CD6843EA052323F4A8
:100C700080630B4DA84203D005F58065A84207D1DB
:100C800022F440524D6942EA05128D6942EA05128A
:100C90004260C4614A68C263036230BC704700BFEF
:100CA0000000014030B4036A23F480530362036AF6
:100CB0004468C26922F4E6420D6842EA052223F440
:100CC00000538D6843EA0533094DA84203D005F56A
:100CD0008065A84204D124F480444D6944EA851417
:100CE0004460C2614A680264036230BC704700BF5E
:100CF0000000014030B4036A056A25F00105056271
:100D0000846924F0F00444EA021423F00A030B433C
:100D10008461036230BC704730B4056A25F0100569
:100D200005628469036A24F4704444EA023423F0BF
:100D3000A00343EA01138461036230BC70478368F7
:100D400023F070030B4343F0070383607047704741
:100D5000704770477047704710B5044603681A69BA
:100D600012F0020F11D0DA6812F0020F0DD06FF0FE
:100D700002021A610123037703689B6913F0030FD2
:100D800070D0FFF7E6FF0023237723681A6912F07B
:100D9000040F12D0DA6812F0040F0ED06FF00402C4
:100DA0001A610223237723689B6913F4407F5FD085
:100DB0002046FFF7CEFF0023237723681A6912F03D
:100DC000080F12D0DA6812F0080F0ED06FF0080288
:100DD0001A61042323772368DB6913F0030F4ED0D5
:100DE0002046FFF7B6FF0023237723681A6912F025
:100DF000100F12D0DA6812F0100F0ED06FF0100240
:100E00001A61082323772368DB6913F4407F3DD000
:100E10002046FFF79EFF0023237723681A6912F00C
:100E2000010F03D0DA6812F0010F36D123681A6976
:100E300012F0800F03D0DA6812F0800F34D12368EB
:100E40001A6912F0400F03D0DA6812F0400F32D165
:100E500023681A6912F0200F03D0DA6812F0200F0D
:100E600030D110BDFFF774FF2046FFF773FF8AE70C
:100E70002046FFF76DFF2046FFF76CFF9BE72046FB
:100E8000FFF766FF2046FFF765FFACE72046FFF758
:100E90005FFF2046FFF75EFFBDE76FF001021A61BA
:100EA0002046FFF723FDC1E76FF080021A6120465C
:100EB00000F083FAC3E76FF040021A612046FFF7A3
:100EC0004AFFC5E76FF020021A61204600F074FA6D
:100ED000C7E700000368304A904212D0B0F1804F5B
:100EE0000FD0A2F57C4290420BD002F58062904276
:100EF00007D002F58062904203D002F5784290421A
:100F000003D123F070034A681343234A90422AD046
:100F1000B0F1804F27D0A2F57C42904223D002F559
:100F2000806290421FD002F5806290421BD002F591
:100F30007842904217D002F57052904213D002F5D9
:100F4000806290420FD002F5806290420BD0A2F5F1
:100F50009832904207D002F58062904203D002F5A9
:100F60008062904203D123F44073CA68134323F094
:100F700080034A69134303608B68C3620B68836212
:100F8000054B984203D003F58063984201D10B6969
:100F900003630123436170470000014040B310B573
:100FA000044690F83D30F3B1022384F83D302146E9
:100FB00051F8040BFFF78EFF012384F8463084F8C4
:100FC0003E3084F83F3084F8403084F8413084F873
:100FD000423084F8433084F8443084F8453084F853
:100FE0003D30002010BD80F83C3001F011FFDBE700
:100FF0000120704740B310B5044690F83D30F3B17E
:10100000022384F83D30214651F8040BFFF762FFBC
:10101000012384F8463084F83E3084F83F3084F869
:10102000403084F8413084F8423084F8433084F80A
:10103000443084F8453084F83D30002010BD80F8FD
:101040003C30FFF784FEDBE701207047002853D0D7
:10105000F8B50D46044690F83D30002B47D00223EA
:1010600084F83D302268936823F4804323F007031B
:101070009360214651F8040BFFF72CFF21688A6822
:101080008E690F6A2868104326F4407626F003061E
:10109000AA68AB6942EA0323334323F47C4323F079
:1010A000FC03EE68EA6946EA02261E432A6A130335
:1010B0002A6943EA0213334327F0AA076A686D6975
:1010C00042EA05123A43886021688B6123681A62FC
:1010D000012384F8463084F83E3084F83F3084F8A9
:1010E000423084F8433084F83D300020F8BD80F869
:1010F0003C3001F02BFEB2E70120704730B4036AA8
:1011000023F010030362036A4468826922F4E64212
:101110000D6842EA052223F020038D6843EA051397
:10112000114DA84203D005F58065A84206D123F0F1
:101130008003CD6843EA051323F040030A4DA8421B
:1011400003D005F58065A84207D124F440644D69B9
:1011500044EA85048D6944EA8504446082614A68F2
:101160008263036230BC70470000014038B590F8DC
:101170003C30012B60D004460D46012380F83C3002
:101180000C2A1AD8DFE802F0071919191D191919C4
:101190003119191944000068FFF718FD2268936996
:1011A00043F0080393612268936923F00403936179
:1011B0002268936929690B439361002084F83C00FD
:1011C00038BD0068FFF79AFF2268936943F4006313
:1011D00093612268936923F4806393612268936921
:1011E000296943EA01239361E7E70068FFF722FDDD
:1011F0002268D36943F00803D3612268D36923F0DE
:101200000403D3612268D36929690B43D361D4E70E
:101210000068FFF747FD2268D36943F40063D36198
:101220002268D36923F48063D3612268D369296972
:1012300043EA0123D361C0E70220C1E710B4846808
:1012400024F47F4442EA03220A43224382605DF889
:10125000044B704790F83C30012B66D010B5044623
:10126000012380F83C30022380F83D300268936807
:1012700023F47F4323F0770393600B68602B40D007
:1012800022D8402B47D00BD9502B0ED1CA684968C1
:101290000068FFF72FFD50212068FFF750FD04E0A4
:1012A000202B0CD008D9302B09D0012384F83D30F5
:1012B000002084F83C0010BD0BB1102BF5D119466D
:1012C0002068FFF73CFDF0E7702B0ED0B3F5005F10
:1012D000EBD1CB684A6889680068FFF7AFFF2268E6
:1012E000936843F480439360DFE7CB684A6889687A
:1012F0000068FFF7A3FF2268936843F077039360C9
:10130000D3E7CA6849680068FFF706FD60212068D6
:10131000FFF715FDC9E7CA6849680068FFF7EAFCEE
:1013200040212068FFF70BFDBFE702207047000057
:1013300090F83C30012B3BD030B4012380F83C3096
:10134000022380F83D3003685C689D6824F07004D7
:101350000A6822435A600368164A93421AD0B3F1CE
:10136000804F17D0A2F57C42934213D002F58062E1
:1013700093420FD002F5806293420BD002F578427F
:10138000934207D002F57052934203D0A2F59432F3
:10139000934204D125F080054A6815439D600123DE
:1013A00080F83D30002380F83C30184630BC704750
:1013B0000220704700000140704770470268D36800
:1013C00023F0C003D360202380F83D3070470268CB
:1013D000D36823F49073D3600268536923F0010348
:1013E0005361036B012B05D0202380F83E3000238E
:1013F000036370470268D36823F01003D360F3E7F8
:1014000090F83D30DBB2212B01D002207047836879
:10141000B3F5805F17D0036A5A1C02621A7803681A
:101420005A60C38C9BB2013B9BB2C3844BB9026828
:10143000D36823F08003D3600268D36843F040038D
:10144000D360002070470369002BE4D1036A1B8836
:101450000268C3F308035360036A02330362E0E7E0
:1014600070B504460268136923F44053C1680B4306
:10147000136183680269134342691343C2691A43C3
:101480000168CB6823F4164323F00C031343CB60AD
:101490000268536923F4407381690B435361036805
:1014A000344A934206D002F58062934202D000F0A3
:1014B0004BFE01E000F058FEE369B3F5004F2AD07F
:1014C0000026051846EB06012D1846EB0101CB005E
:1014D00043EA5573EA001546194663689A009B0F64
:1014E000281846EB0101FFF77FF8234DA5FB0032DA
:1014F0005109642303FB11031B013233A5FB0323B2
:101500005B0903F0F00202EB011203F00F03216804
:1015100013448B6070BD0026051846EB06012D189C
:1015200046EB0101CB0043EA5573EA001546194624
:1015300062683346921846EB0303281846EB010114
:10154000FFF752F80C4DA5FB00325109642303FB51
:101550001103DB003233A5FB03235B095A0002F4BD
:10156000F87202EB011203F00703216813448B6049
:10157000D0E700BF001001401F85EB5158B310B5F4
:10158000044690F83D300BB3242384F83D302268A4
:10159000D36823F40053D3602046FFF761FF22682D
:1015A000136923F4904313612268536923F02A03DB
:1015B00053612268D36843F40053D3600020206451
:1015C000202384F83D3084F83E3010BD80F83C3054
:1015D00001F0A0FAD8E701207047000038B590F874
:1015E0003D30DBB2202B31D10446002930D0002A17
:1015F00030D090F83C30012B2ED0012380F83C30C5
:1016000001628284C28400250564212380F83D3074
:10161000436B1248D863636B11481864636B1148BD
:10162000D864636B1D6520681346021D606B00F073
:1016300081FF23686FF040021A6084F83C502268F2
:10164000536943F080035361284600E0022038BD0F
:101650000120FCE70120FAE70220F8E76B160008FA
:10166000B7160008C5160008704708B50346806B1A
:101670001B681B6813F4807F0CD10023C3840268AD
:10168000536923F0800353610268D36843F0400339
:10169000D36008BDFFF7E8FFFBE708B50168CA683B
:1016A00022F04002CA60202280F83D20FFF7DCFFD4
:1016B000002008BD704708B5806BFFF7FBFF08BD31
:1016C0007047704710B5846B23685A6994F83D30B1
:1016D000DBB2212B10D023685A6902F0400294F843
:1016E0003E30DBB2222B11D0236C43F01003236475
:1016F0002046FFF7E6FF10BD02F08002002AEAD084
:101700000023E3842046FFF759FEE4E7002AEBD0EC
:101710000023E3852046FFF75AFEE5E708B5806B16
:101720000023C385C384FFF7CCFF08BD704790F842
:101730003E30DBB2222B53D110B504468368B3F59B
:10174000805F30D0A26AB3F5805F04D0002B37D120
:101750002369002B34D123685B681370A36A0133BB
:10176000A362E38D9BB2013B9BB2E385002B39D191
:101770002268D36823F02003D3602268D36823F45F
:101780008073D3602268536923F0010353612023DF
:1017900084F83E30236B012B18D02046FFF7AEF8BB
:1017A000002020631FE00269002ACBD1826A03680F
:1017B0005B68C3F308031380836A02338362D0E754
:1017C00023685B6803F07F031370C7E72268D36860
:1017D00023F01003D360A18D2046FFF7A7FFDFE7BA
:1017E00002207047002010BD30B583B00446026867
:1017F0001368D068516913F00F0505D113F0200F5D
:1018000002D010F0200F19D12DB111F0010119D122
:1018100010F4907F16D1216B012975D013F0800F41
:1018200003D010F0800F40F0D88013F0400F03D0A9
:1018300010F0400F40F0D58003B030BD2046FFF7D8
:1018400076FFF9E713F0010F06D010F4807F03D084
:10185000226C42F00102226413F0040F04D019B18B
:10186000226C42F00202226413F0020F04D019B17C
:10187000226C42F00402226413F0080F07D010F02B
:10188000200F00D119B1226C42F008022264226CB0
:10189000002AD1D013F0200F02D010F0200F21D158
:1018A00023685B6903F04003226C12F0080F00D13B
:1018B00023B32046FFF78BFD23685A6912F0400FCF
:1018C00018D05A6922F040025A61A36B73B1474A9B
:1018D0001A65A06B00F0ADFE0028ADD0A06B036DC3
:1018E0009847A9E72046FFF722FFD9E72046FFF7F0
:1018F000E8FEA1E72046FFF7E4FE9DE72046FFF75C
:10190000E0FE0023236497E713F0100F86D010F059
:10191000100F83D000230193136801935368019340
:10192000019B536913F0400F33D0A16B0B685B68C8
:101930009BB2002B80D0A08D98427FF67DAFE385CF
:10194000CB69B3F5807F08D1A18DE38D9BB2C91A15
:1019500089B22046FFF7EAFE6EE7D36823F480736E
:10196000D3602268536923F00103536122685369ED
:1019700023F040035361202384F83E300023236387
:101980002268D36823F01003D360A06B00F007FE39
:10199000DAE7A18DE38D9BB2C91A89B2E38D9BB2C0
:1019A000002B3FF449AF00293FF446AFD36823F43E
:1019B0009073D3602268536923F00103536120239D
:1019C00084F83E30002323632268D36823F0100399
:1019D000D3602046FFF7AAFE2EE72046FFF710FD52
:1019E0002AE72046FFF759FE26E700BF1D1700082B
:1019F00008B5806B036B012B02D0FFF761FE08BDB9
:101A0000818D4908FFF792FEF9E708B50346806B20
:101A10001B681B6813F4807F16D10023C3850268FE
:101A2000D36823F48073D3600268536923F0010301
:101A300053610268536923F040035361202380F807
:101A40003E30036B012B05D0036B012B08D0FEF752
:101A500055FF08BD0268D36823F01003D360F3E795
:101A6000818DFFF763FEF4E730B583B0044613467B
:101A70008162828500250564222280F83E20826BE7
:101A80001448D063A26B14481064A26B1348D0644E
:101A9000A26B156520680A46011DA06B00F04AFD87
:101AA000019523681A6801925A680192019A84F894
:101AB0003C50DA6842F48072DA602268536943F07D
:101AC000010353612268536943F040035361284680
:101AD00003B030BD0B1A0008F1190008C516000844
:101AE00008B590F83E30DBB2202B0DD171B17AB140
:101AF00090F83C30012B0DD0012380F83C300023BE
:101B00000363FFF7B1FF00E0022008BD0120FCE7FE
:101B10000120FAE70220F8E7002800F0DF8170B525
:101B200082B00446036813F0010F3BD0A64B9B68BC
:101B300003F00C03042B2CD0A34B9B6803F00C0385
:101B4000082B21D06368B3F5803F4FD0B3F5A02FA9
:101B500052D09D4B1A6822F480321A601A6822F41F
:101B600080221A606368002B50D000F019FF0546F0
:101B7000954B1B6813F4003F14D100F011FF401B7C
:101B80006428F5D90320B0E18F4B5B6813F4800F14
:101B9000D8D08D4B1B6813F4003F03D06368002B33
:101BA00000F09E81236813F0020F54D0864B9B688F
:101BB00013F00C0F3ED0844B9B6803F00C03082BF2
:101BC00033D0E368002B67D0804B01221A6000F00D
:101BD000E7FE05467C4B1B6813F0020F53D100F063
:101BE000DFFE401B0228F5D903207EE1764A136808
:101BF00043F480331360B5E7734B1A6842F48022D4
:101C00001A601A6842F480321A60ABE700F0C8FE2E
:101C100005466D4B1B6813F4003FC3D000F0C0FEB7
:101C2000401B6428F5D903205FE1674B5B6813F420
:101C3000800FC6D1644B1B6813F0020F03D0E3681A
:101C4000012B40F04F81604A136823F0F8032169AB
:101C500043EAC1031360236813F0080F40D063699F
:101C600063B35B4B01221A6000F09AFE0546564BA7
:101C70005B6F13F0020F33D100F092FE401B02287D
:101C8000F5D9032031E1504A136823F0F8032169A4
:101C900043EAC1031360DEE74C4B00221A6000F0F8
:101CA0007FFE0546484B1B6813F0020FD3D000F0AF
:101CB00077FE401B0228F5D9032016E1444B002291
:101CC0001A6000F06DFE05463F4B5B6F13F0020F8C
:101CD00006D000F065FE401B0228F5D9032004E180
:101CE000236813F0040F78D0374B1B6C13F0805F20
:101CF0000DD100230193344B1A6C42F080521A64C8
:101D00001B6C03F080530193019B012500E000252B
:101D1000304B1B6813F4807F21D0A368012B32D095
:101D2000052B36D0284B1A6F22F001021A671A6F62
:101D300022F004021A67A368002B34D000F030FEB2
:101D40000646214B1B6F13F0020F45D100F028FE11
:101D5000801B41F288339842F3D90320C5E01D4A25
:101D6000136843F48073136000F01AFE0646194BA3
:101D70001B6813F4807FD0D100F012FE801B022874
:101D8000F5D90320B1E0104A136F43F00103136744
:101D9000D1E70D4B1A6F42F004021A671A6F42F036
:101DA00001021A67C7E700F0FBFD0646064B1B6FF2
:101DB00013F0020F10D000F0F3FD801B41F28833C6
:101DC0009842F3D9032090E00038024000004742D7
:101DD000800E474200700040EDB9A369002B00F06F
:101DE0008380494A926802F00C02082A51D0022BE3
:101DF00017D0464B00221A6000F0D2FD0446424B39
:101E00001B6813F0007F42D000F0CAFD001B0228BF
:101E1000F5D9032069E03C4A136C23F08053136426
:101E2000DBE73A4B00221A6000F0BAFD0546364B5C
:101E30001B6813F0007F06D000F0B2FD401B0228A3
:101E4000F5D9032051E0E369226A1343626A43EA49
:101E50008213A26A5208013A43EA0243E26A43EA61
:101E60000263294A5360294B01221A6000F098FD51
:101E70000446254B1B6813F0007F06D100F090FD4F
:101E8000001B0228F5D903202FE000202DE00020C0
:101E90002BE0012B2BD01C4B5B6803F48001E26923
:101EA000914226D103F03F02216A8A4223D1616A1E
:101EB00047F6C0721A40B2EB811F1ED103F44031C5
:101EC000A26A5208013AB1EB024F18D103F07063D5
:101ED000E26AB3EB026F14D1002006E001207047E4
:101EE000012002E0012000E0002002B070BD0120CE
:101EF000FBE70120F9E70120F7E70120F5E70120E2
:101F0000F3E70120F1E700BF0038024060004742DC
:101F1000F8B52F4B9B6803F00C03042B53D0082B10
:101F200053D12B4B5A6802F03F025B6813F4800FC9
:101F300028D0274B5B68C3F3881358010021C01ACF
:101F400061F100018E0146EA906687013C1A66EB5A
:101F50000105E90041EA5471E000C01841F10001B7
:101F60004B0243EAD0534402204619460023FEF7B1
:101F70003BFB174B5B68C3F3014301335B00B0FBD2
:101F8000F3F023E0124B5B68C3F388135C01002578
:101F9000E41A65F10005AE0146EA9466A701381B14
:101FA00066EB0501CC0044EA5074C500E81844F122
:101FB00000018B0243EA9053840220461946002315
:101FC000FEF712FBD5E7034800E00348F8BD00BF69
:101FD0000038024000127A000024F400002800F0CB
:101FE0009B8070B50D4604464F4B1B6803F00703FA
:101FF0008B4208D2CBB24C4A1370136803F007032C
:102000008B4240F08B80236813F0020F17D013F03F
:10201000040F04D0454A936843F4E0539360236867
:1020200013F0080F04D0414A936843F4604393606F
:102030003E4A936823F0F003A1680B439360236842
:1020400013F0010F32D06368012B21D09A1E012AB0
:1020500025D9364A126812F0020F61D033498A68D6
:1020600022F0030213438B6000F09AFC06462F4BCC
:102070009B6803F00C036268B3EB820F16D000F08C
:102080008FFC801B41F288339842F0D9032042E054
:10209000264A126812F4003FE0D101203BE0234AB7
:1020A000126812F0007FD9D1012034E01E4B1B686A
:1020B00003F00703AB4207D9EAB21B4B1A701B6847
:1020C00003F00703AB422DD1236813F0040F06D0B1
:1020D000164A936823F4E053E1680B439360236846
:1020E00013F0080F07D0114A936823F46043216965
:1020F00043EAC1039360FFF70BFF0C4B9B68C3F3EC
:1021000003130B4AD35CD8400A4B18600A4B18687B
:1021100000F0FAFB002070BD012070470120FAE7B3
:102120000120F8E70120F6E7003C024000380240B9
:10213000703900083800002034000020014B186876
:10214000704700BF3800002008B5FFF7F7FF044BC9
:102150009B68C3F38223034AD35CD84008BD00BF09
:10216000003802408039000808B5FFF7E7FF044B4C
:102170009B68C3F34233034AD35CD84008BD00BF19
:10218000003802408039000800230F2B00F2DD8068
:10219000F0B482B05DE086685F000324BC4026EAAC
:1021A0000406CC68BC4034438460466826EA0206D4
:1021B0004C68C4F300129A403243426057E0DC0896
:1021C000083450F8247003F0070296000F22B24042
:1021D00027EA02070A69B2403A4340F824205AE04D
:1021E000072200E00022B2403A430234574E46F83C
:1021F0002420574A1468EA4324EA05064F6817F476
:10220000803F01D045EA0406514C2660646802EA2A
:1022100004064F6817F4003F01D045EA04064C4C11
:102220006660A46802EA04064F6817F4801F01D0B4
:1022300045EA0406464CA660E46822404E6816F45F
:10224000001F01D045EA0402414CE26001330F2B2C
:1022500078D801229A400C6804EA020532EA0404A4
:10226000F4D14C6804F00304013C012C93D94A6872
:1022700002F00302032A09D0C4685E000322B240C0
:1022800024EA02048A68B2402243C2604A6802F02B
:102290000302022A93D004685E000322B24024EABB
:1022A00002044A6802F00302B240224302604A6814
:1022B00012F0805FCAD000220192264A546C44F486
:1022C00080445464526C02F480420192019A9C084A
:1022D000A61C1E4A52F8267003F0030296000F2235
:1022E000B24027EA02071C4A90423FF47BAF02F556
:1022F000806290421AD002F58062904218D002F5B6
:102300008062904216D002F58062904214D002F5AD
:102310008062904212D002F58062904210D002F5A5
:10232000806290423FF45CAF08225CE701225AE7EA
:10233000022258E7032256E7042254E7052252E717
:10234000062250E702B0F0BC7047704700380140E9
:10235000003C014000380240000002400AB18161A7
:10236000704709048161704730B405682C6824F413
:1023700080242C60046863608368402B05D0036868
:1023800099600368DA6030BC704703689A6003683C
:10239000D960F8E710B40368D9B210390C4AA2FB2F
:1023A000014212090B4CA25CC2655F2909D923F4D2
:1023B0007F7323F0030304338365806D5DF8044B62
:1023C000704723F47F7323F003038365F5E700BFB1
:1023D000ABAAAAAA68390008836A826992B9012B5C
:1023E0000AD0022B02D00BB100207047C36A13F051
:1023F000807F28D100207047C36AB3F1C07F24D00A
:1024000000207047B2F5005F09D0022B25D9032BBD
:1024100025D1C36A13F0807F23D100207047032B9E
:1024200003D8DFE803F01404140A00207047C36ADD
:1024300013F0807F0DD100207047C36AB3F1C07FD5
:1024400009D000207047012070470120704701200B
:10245000704701207047012070470120704700201D
:10246000704701207047000070B5044600F098FAEC
:10247000002C5BD00546002384F83430022384F816
:1024800035302268136823F00103136023681A684B
:1024900012F0010F0AD000F083FA431B052BF5D987
:1024A00020236365032084F8350070BD1A68204836
:1024B00010406168A2680A43E1680A4321690A433F
:1024C00061690A43A1690A43E1690A43216A0A432F
:1024D0000243616A04291ED01A602668756925F0D6
:1024E0000705636A1D43042B07D1A36A1D43E36AF2
:1024F0001BB12046FFF770FF90B975612046FFF7CA
:1025000049FFE26D3F239340836000206065012313
:1025100084F83530C9E7E16A206B01430A43DBE701
:1025200040236365012084F83500BEE70120BCE745
:102530003F8010F038B50446856D90F834000128CE
:102540002BD0012084F8340094F83500C0B2012863
:1025500004D0002384F83430022038BD022084F8EF
:102560003500002060652046FFF7FEFEE26D3F2348
:102570009340AB602268136843F016031360236C2A
:1025800023B12268136843F00803136022681368BC
:1025900043F0010313600020DFE70220DDE770B5A0
:1025A0000446866D00F0FCF994F83530DBB2022B5E
:1025B00006D080236365002384F83430012070BD89
:1025C00005462268136823F01603136022685369D6
:1025D00023F080035361236CE3B12268136823F076
:1025E000080313602268136823F001031360236853
:1025F0001B6813F0010F11D000F0D2F9431B052B1B
:10260000F5D920236365002384F83430032084F84F
:102610003500D4E7A36C002BDFD1E3E7E26D3F2365
:102620009340B360002084F83400012384F83530EF
:10263000C5E790F83530DBB2022B03D08023436529
:1026400001207047052380F835300268136823F0B5
:102650000103136000207047F0B583B004460023E7
:102660000193724B1D68724BA3FB0535AD0A876D54
:102670003E68C26D08239340334210D003681A6845
:1026800012F0040F0BD01A6822F004021A60C26D17
:1026900008239340BB60436D43F001034365E26D43
:1026A00001239340334209D02268526912F0800F0F
:1026B00004D0BB60636D43F002036365E26D0423E5
:1026C0009340334209D02268126812F0020F04D0FE
:1026D000BB60636D43F004036365E26D10239340B8
:1026E000334224D02268126812F0080F1FD0BB605A
:1026F00023681A6812F4802F0DD01B6813F4002F82
:1027000004D1236C9BB12046984710E0A36C73B1B1
:10271000204698470BE01A6812F4807F03D11A68AC
:1027200022F008021A60236C0BB120469847E26D34
:1027300020239340334255D02268126812F0100FC4
:1027400050D0BB6094F83530DBB2052B0ED0236837
:102750001A6812F4802F33D01B6813F4002F2AD18B
:10276000636C002B3ED0204698473BE022681368FC
:1027700023F0160313602268536923F0800353612A
:10278000236CA3B12268136823F008031360E26D81
:102790003F239340BB60002384F83430012384F846
:1027A0003530236D002B3FD0204698473CE0A36C8A
:1027B000002BE7D1EBE7E36BA3B12046984711E08C
:1027C0001A6812F4807F09D11A6822F010021A6088
:1027D000002384F83430012384F83530E36B0BB1E7
:1027E00020469847636DFBB1636D13F0010F17D05E
:1027F000052384F835302268136823F00103136041
:10280000019B01330193AB4204D823681B6813F08A
:10281000010FF5D1002384F83430012384F83530DA
:10282000E36C0BB12046984703B0F0BD38000020A0
:10283000B5814E1B074AD36823F4E0631B041B0CCD
:10284000000200F4E060034343F0BF6343F400334D
:10285000D360704700ED00E030B4174BDB68C3F382
:102860000223C3F10704042C28BF04241D1D062DD8
:1028700018D9033B4FF0FF3505FA04F421EA0401AF
:10288000994005FA03F322EA0303194300280BDBFE
:102890000901C9B200F1604000F5614080F8001301
:1028A00030BC70470023E5E700F00F000901C9B212
:1028B000024B1954F4E700BF00ED00E014ED00E016
:1028C000002807DB00F01F02400901239340024A61
:1028D00042F82030704700BF00E100E00138B0F15D
:1028E000807F0AD2064B5860064AF02182F82310F6
:1028F0000020986007221A6070470120704700BFCF
:1029000010E000E000ED00E010B504460E4B187832
:102910004FF47A73B3FBF0F30C4A1068B0FBF3F09A
:10292000FFF7DCFF68B90F2C01D901200AE0002273
:1029300021464FF0FF30FFF78FFF054B1C60002052
:1029400000E0012010BD00BF320000203800002050
:102950003400002008B50B4B1A6842F400721A606C
:102960001A6842F480621A601A6842F480721A602F
:102970000320FFF75FFF0020FFF7C6FFFEF70AF90D
:10298000002008BD003C0240034A1168034B1B783D
:102990000B441360704700BFFC0000203200002091
:1029A000014B1868704700BFFC00002038B5044692
:1029B000FFF7F6FF0546B4F1FF3F02D0044B1B784A
:1029C0001C44FFF7EDFF401BA042FAD338BD00BF07
:1029D00032000020034AD2F8883043F47003C2F872
:1029E0008830704700ED00E02DE9F0418AB0002406
:1029F000059406940794089409940194244B1A6B47
:102A000042F004021A631A6B02F004020192019A66
:102A100002941A6B42F080021A631A6B02F0800271
:102A20000292029A03941A6B42F001021A631A6B23
:102A300002F001020392039A04941A6B42F002021C
:102A40001A631B6B03F002030493049BDFF84880B6
:102A50002246C0214046FFF781FC0E4D2246C02190
:102A60002846FFF77BFCC0270597012606960794AA
:102A7000089405A94046FFF787FB0597069607943B
:102A8000089405A92846FFF77FFB0AB0BDE8F0814E
:102A900000380240000402400000024010B582B03D
:102AA000002401940D4B1A6B42F480021A631B6BD5
:102AB00003F480030193019B224621463A20FFF74D
:102AC000CBFE3A20FFF7FCFE224621464620FFF7C8
:102AD000C3FE4620FFF7F4FE02B010BD00380240EE
:102AE00008B50A480A4B03604FF4E1334360002302
:102AF0008360C36003610C2242618361C361FEF79E
:102B00003DFD00B908BDFDF749FFFBE7C00100200E
:102B10000010014030B589B000230393049305935E
:102B200006930793026803F1804303F588339A42C2
:102B300001D009B030BD04460025019503F594335A
:102B40005A6C42F010025A645A6C02F01002019260
:102B5000019A02951A6B42F001021A631B6B03F093
:102B600001030293029B4FF4C06303930223049377
:102B70000595032306930723079303A91F48FFF72F
:102B800003FB1F481F4B03604FF0006343608560E9
:102B9000C5604FF48063036145618561C56105626D
:102BA0004562FFF761FC18BB154BA3639C63164895
:102BB000164B03604FF000634360402383600023A3
:102BC000C3604FF48062026143618361C361036249
:102BD0004362FFF749FC70B90B4B63639C630022AF
:102BE00011462520FFF738FE2520FFF769FEA0E7F4
:102BF000FDF7D4FED8E7FDF7D1FEEDE70000024077
:102C0000600100204064024000010020B8640240DE
:102C100000B58DB000230193029315484FF0804218
:102C20000260436083604FF0FF32C26003618361E2
:102C300003220392049301220592069307930893BB
:102C400009920A930B9303A9FEF700FA50B90023E7
:102C50000193029301A90648FEF76AFB28B90DB05B
:102C60005DF804FBFDF79AFEF1E7FDF797FEF6E746
:102C7000DC02002000B58DB00023019302931548BB
:102C8000154A0260436083604FF44872C26003617A
:102C900083610322039204930121059106930A2282
:102CA0000792089309910A930B9203A9FEF7CEF9B4
:102CB00050B900230193029301A90648FEF738FB9F
:102CC00028B90DB05DF804FBFDF768FEF1E7FDF7EC
:102CD00065FEF6E7940200200004004000B587B0CE
:102CE00000230293039304930593009301931548E3
:102CF000154A026042F2D002426083606422C260E0
:102D000003618361FEF74AF990B94FF4805302934F
:102D100002A90C48FEF79EFA68B9002300930193BC
:102D200069460848FEF704FB40B907B05DF804FBAC
:102D3000FDF734FEE9E7FDF731FEEEE7FDF72EFE85
:102D4000F3E700BF4C020020000C004000B58BB040
:102D50000023059306930793089309930368B3F13F
:102D6000804F05D0264A934226D00BB05DF804FB75
:102D70000022019203F50E33196C41F00101196430
:102D8000196C01F00101019101990292196B41F056
:102D9000010119631B6B03F001030293029B0323E0
:102DA000059302230693012307930892099305A92B
:102DB0001448FFF7E9F9D8E700220392124B196C87
:102DC00041F002011964196C01F0020103910399A9
:102DD0000492196B41F0040119631B6B03F00403A7
:102DE0000493049BC02305930223069301210791BA
:102DF0000892099305A90548FFF7C6F9B5E700BF92
:102E00000004004000000240003802400008024078
:102E100000B583B00368184A934205D0174A93421D
:102E200016D003B05DF804FB00210091144B1A6C1E
:102E300042F004021A641B6C03F004030093009B2D
:102E40000A461E20FFF708FD1E20FFF739FDE8E7C0
:102E5000002101910A4B1A6C42F008021A641B6CA3
:102E600003F008030193019B0A463220FFF7F4FCAC
:102E70003220FFF725FDD4E700080040000C004099
:102E80000038024000B587B00023019302930393FA
:102E90000493059302680F4B9A4202D007B05DF885
:102EA00004FB002300930C4A116B41F002011163F3
:102EB000126B02F002020092009A4FF440720192EB
:102EC0000222029203930493059201A90348FFF79B
:102ED0005BF9E3E7000800400038024000040240CC
:102EE00000B58FB000230A930B930C930D930893B6
:102EF0000993019302930393049305930693079315
:102F00002548264A02605422426083606422C260DF
:102F100003618361FEF742F858BB4FF480530A9374
:102F20000AA91D48FEF796F930BB1B48FEF762F868
:102F300028BB00230893099308A91748FEF7F8F95E
:102F400000BB60230193002302930393059308229F
:102F500001A91148FEF70AF9B8B90C2201A90E48D7
:102F6000FEF704F9A0B90C48FFF78CFF0FB05DF82D
:102F700004FBFDF713FDD0E7FDF710FDD5E7FDF7E6
:102F80000DFDD6E7FDF70AFDDBE7FDF707FDE4E7FA
:102F9000FDF704FDE7E700BF040200200008004041
:102FA00001460223002003E0CA5C10440133DBB277
:102FB000092BF9D970472DE9F0410F461646827A60
:102FC000C57A2D0445EA0265027B45EA0225427B6B
:102FD00015438278C478240444EA0264027944EAFE
:102FE000022442791443827990F807C04FEA0C4CCE
:102FF0004CEA026C027A4CEA022C90F809804CEA06
:103000000808FFF7CDFF854201D0BDE8F0813C60A4
:10301000C6F80080F9E70000DFF834D00D480E490B
:103020000E4A002302E0D458C4500433C4188C4222
:10303000F9D30B4A0B4C002301E013600432A24287
:10304000FBD3FFF7C7FC00F011F8FDF7FDFC70475C
:103050000000022000000020A0000020CC39000861
:10306000A000002024030020FEE7000070B50D4DF5
:103070000D4C641BA4100026A64209D10B4D0C4C2C
:1030800000F058FC641BA4100026A64205D170BDB8
:1030900055F8043B98470136EEE755F8043B98474E
:1030A0000136F2E7C4390008C4390008C439000801
:1030B000C839000802440346934200D1704703F820
:1030C000011BF9E70EB400B59CB01DAB0290069051
:1030D0006FF00041094807910491094953F8042B06
:1030E00005910068019302A900F068F8029B002294
:1030F0001A701CB05DF804EB03B070473C00002070
:103100000802FFFF2DE9F0478E689E4282460C467A
:1031100090461F4638D88A8912F4906F32D02568BD
:103120000969A5EB0109656905EB450505EBD57551
:1031300001334B446D109D4238BF1D46530531D5B8
:10314000294600F043FB064650B90C23CAF800306C
:10315000A38943F04003A3814FF0FF30BDE8F0871F
:1031600021694A4600F0BEFAA38923F4906343F034
:103170008003A381266165614E44A5EB09052660A5
:10318000A5603E46BE4200D93E46206832464146D2
:1031900000F0B6FAA3689B1BA36023683344236046
:1031A0000020DBE72A4600F06BFB06460028E1D151
:1031B0002169504600F0BEFAC7E700002DE9F04F44
:1031C00098468B891B069DB007460D4614460ED5C2
:1031D0000B6963B9402100F0F9FA2860286120B931
:1031E0000C233B604FF0FF30D1E040236B610023A4
:1031F000099320238DF82930CDF80C803023DFF897
:10320000A8818DF82A304FF0010923469A4613F819
:10321000012B0AB1252AF9D1BAEB040B0BD05B467E
:10322000224629463846FFF76DFF013000F0AA809C
:10323000099A5A4409929AF80030002B00F0A280B3
:1032400000234FF0FF32CDE905230AF1010A049370
:1032500007938DF853301A935446052214F8011B36
:103260005148FCF7B5FF049AD8B9D00644BF2023D3
:103270008DF85330110744BF2B238DF853309AF843
:1032800000302A2B15D0079A544600204FF00A0C24
:10329000214611F8013B303B092B4ED9B0B10792C2
:1032A00014E0A0EB080309FA03F313430493A246C6
:1032B000D2E7039B191D1B680391002BBBBF5B4228
:1032C00042F0020207930793B8BF049223782E2B93
:1032D0000CD163782A2B35D1039B1A1D1B680392EE
:1032E000002BB8BF4FF0FF3302340593DFF8C8A0BE
:1032F000217803225046FCF76BFF40B14023A0EB3E
:103300000A0003FA00F0049B03430134049314F809
:10331000011B26488DF828100622FCF759FF0028CB
:1033200038D0234B1BBB039B073323F00703083321
:103330000393099B3344099367E70CFB02320C4665
:103340000120A5E700230134059319464FF00A0C2C
:10335000204610F8012B303A092A03D9002BC5D09A
:103360000591C3E70CFB012104460123F0E703AB01
:1033700000932A460F4B04A93846AFF30080421C45
:103380000646D6D1AB895B063FF52CAF09981DB038
:10339000BDE8F08F03AB00932A46064B04A93846DC
:1033A00000F07AF8EBE700BF88390008923900088E
:1033B00000000000053100088E3900082DE9F047B3
:1033C000164699468A680B69DDF820809342B8BF9B
:1033D0001346336091F8432007460C460AB1013387
:1033E00033602368990642BF33680233336025682F
:1033F00015F0060506D104F1190AE36832689B1A34
:10340000AB4226DC94F84320131E226818BF012328
:1034100092062BD404F1430249463846C047013096
:103420001ED02368E568326803F00603042B08BF4A
:10343000AD1AA36822690CBF25EAE5750025934201
:10344000C4BF9B1AED1800261A34B5421AD10020C9
:1034500008E00123524649463846C047013003D1AF
:103460004FF0FF30BDE8F0870135C6E7E1185A1C80
:10347000302081F84300224494F8451082F843102C
:103480000233C7E70123224649463846C047013088
:10349000E6D00136D9E700002DE9FF470F7E0C9DED
:1034A000782F914680460C469A4601F1430207D890
:1034B000622F0AD8002F00F0D880582F00F0A38088
:1034C00004F1420584F842703AE0A7F16303152B3A
:1034D000F6D801A151F823F0313500084535000830
:1034E000C1340008C1340008C1340008C1340008E8
:1034F00045350008C1340008C1340008C134000853
:10350000C13400085136000875350008333600080C
:10351000C1340008C134000873360008C134000803
:1035200075350008C1340008C13400083B36000876
:103530002B681A1D1B682A6004F1420584F842308A
:103540000123A3E020682968060601F104030AD5D7
:103550000E682B60002E03DA2D23764284F8433068
:103560005E480A2319E00E682B6010F0400F18BF68
:1035700036B2EFE72B682068191D2960010601D5D6
:103580001E6802E04606FBD51E8854486F2F0CBF0C
:1035900008230A23002184F843106568A560002DE4
:1035A000A2BF216821F0040121600EB9002D4DD089
:1035B0001546B6FBF3F103FB1167C75D05F8017D06
:1035C0003746BB420E46F4D9082B0BD12368DE07E1
:1035D00008D5236961689942DEBF302305F8013CB4
:1035E00005F1FF35521B2261CDF800A04B4603AA1E
:1035F00021464046FFF7E2FE01304CD14FF0FF304C
:1036000004B0BDE8F087354881F845702968236823
:1036100051F8046B29601D0614D5DF0744BF43F041
:10362000200323601EB9236823F0200323601023A6
:10363000B0E7236843F0200323607823284884F808
:103640004530E3E7590648BFB6B2E6E71546BBE7A3
:103650002B6826686169181D286035061B6801D52E
:10366000196002E07006FBD519800023236115461E
:10367000BAE72B681A1D2A601D6862680021284677
:10368000FCF7A6FD08B1401B60606368236100235E
:1036900084F84330A8E723692A4649464046D04784
:1036A0000130ABD023689B0713D4E068039B98429A
:1036B000B8BF1846A4E70123324649464046D047E2
:1036C00001309BD00135E36803995B1AAB42F2DC11
:1036D000EBE7002504F11906F5E700BF993900086A
:1036E000AA3900080A44914200F1FF3300D1704723
:1036F00010B511F8014B03F8014F9142F9D110BDFB
:10370000884210B501EB020402D98442234607D84F
:10371000431EA14208D011F8012B03F8012FF8E74E
:10372000024401468A4200D110BD13F8014D02F84F
:10373000014DF7E737B5002944D051F8043C01901A
:10374000002BA1F10404B8BFE41800F0CFF81E4A22
:103750000198136833B96360146003B0BDE830406A
:1037600000F0CAB8A34208D9256861198B4201BF8D
:1037700019685B6849192160EDE71A465B680BB16F
:10378000A342FAD911685518A5420BD124682144E7
:103790005418A3421160E0D11C685B685360214457
:1037A0001160DAE702D90C230360D6E725686119B6
:1037B0008B4204BF19685B68636004BF49192160CC
:1037C0005460CAE703B030BDE8000020F8B5CD1C56
:1037D00025F0030508350C2D38BF0C25002D0646B5
:1037E00001DBA94203D90C2333600020F8BD00F0AF
:1037F0007DF821490A6814469CB9204F3B6823B9DB
:103800002146304600F062F838602946304600F024
:103810005DF8431C23D10C233360304600F06CF874
:10382000E3E723685B1B17D40B2B03D923601C44ED
:10383000256004E06368A2420CBF0B605360304611
:1038400000F05AF804F10B00231D20F00700C21A03
:10385000CCD01B1AA350C9E722466468CCE7C41C2D
:1038600024F00304A042E3D0211A304600F02EF8E1
:103870000130DDD1CFE700BFE8000020EC000020E0
:10388000F8B5074614460E4621B9BDE8F840114682
:10389000FFF79CBF22B9FFF74DFF25462846F8BD2C
:1038A00000F030F8A0420FD221463846FFF78EFFD5
:1038B00005460028F2D031462246FFF713FF314675
:1038C0003846FFF737FFE9E73546E7E738B5064DF5
:1038D0000023044608462B6000F01EF8431C02D16A
:1038E0002B6803B1236038BDF0000020014800F0D0
:1038F00011B800BFF4000020014800F00CB800BF70
:10390000F400002051F8043C181F002BBCBF0B58DA
:10391000C018704770477047044A05491368002B68
:1039200008BF0B461844106018467047F800002086
:1039300028030020F8B500BFF8BC08BC9E467047BD
:0C394000F8B500BFF8BC08BC9E467047FC
:10394C004C696E6561723A202566207C20416E6759
:10395C00756C61723A202566200A0000000610166C
:10396C000006101600000000000000000102030415
:10397C00060708090000000001020304232D302B68
:10398C002000686C4C006566674546470030313254
:10399C0033343536373839414243444546003031AB
:1039AC00323334353637383961626364656600000A
:0839BC005CCCFF7F010000005C
:0439C400B501000841
:0439C8009101000861
:1039CC00496E697400000000000000000000000057
:1039DC0000000000000000000000000000000000DB
:1039EC0000000000000000000000000000000000CB
:1039FC0000000100100000000024F4004000002032
:103A0C0000000000000000000000000000000000AA
:103A1C00000000000000000000000000000000009A
:103A2C00000000000000000000000000000000008A
:103A3C00000000000000000000000000000000007A
:103A4C00000000000000000000000000000000006A
:103A5C00000000000000000000000000000000005A
:0400000508003019A6
:00000001FF
