:020000040800F2
:100000000000022009390008A9140008AB140008F8
:10001000AD140008AF140008B1140008000000007F
:10002000000000000000000000000000B314000801
:10003000B514000800000000B7140008B914000847
:100040005939000859390008593900085939000848
:100050005939000859390008593900085939000838
:100060005939000859390008593900085939000828
:100070005939000859390008593900085939000818
:100080005939000859390008593900085939000808
:1000900059390008593900085939000859390008F8
:1000A00059390008593900085939000859390008E8
:1000B0005939000859390008C11400085939000895
:1000C00059390008593900085939000859390008C8
:1000D00059390008D1140008593900085939000865
:1000E00059390008593900085939000859390008A8
:1000F0005939000859390008593900085939000898
:100100005939000859390008E11400085939000824
:100110005939000859390008593900085939000877
:100120005939000859390008F114000859390008F4
:100130005939000859390008593900085939000857
:100140005939000859390008593900085939000847
:1001500059390008593900080115000859390008B3
:100160005939000859390008593900085939000827
:1001700059390008593900085939000800000000B1
:08018000593900085939000843
:100190000348044B834202D0034B03B11847704716
:1001A000A0000020A0000020000000000548064933
:1001B0000B1AD90F01EBA301491002D0034B03B175
:1001C00018477047A0000020A00000200000000099
:1001D00010B5064C237843B9FFF7DAFF044B13B18F
:1001E0000448AFF300800123237010BDA00000205D
:1001F000000000005C39000808B5044B1BB104493D
:100200000448AFF30080BDE80840CFE700000000DD
:10021000A40000205C39000870B50D4E0D4D761B12
:10022000B61006D00024013455F8043B9847A64286
:10023000F9D1094E094D761B03F090FBB61006D09C
:100240000024013455F8043B9847A642F9D170BD0B
:10025000D8390008D8390008DC390008D839000836
:10026000F0B4860746D0541E002A3CD0CAB20346DA
:1002700002E014F1FF3436D303F8012B9D07F8D1C7
:10028000032C29D9CDB245EA05250F2C45EA0545B1
:1002900033D9A4F11006360903F1200707EB06173E
:1002A00003F1100242E9045542E902551032BA4204
:1002B000F8D1721C14F00C0F03EB021204F00F06BD
:1002C00013D0331F23F003030433134442F8045BB9
:1002D0009342FBD106F003042CB1C9B21C4403F8CD
:1002E000011B9C42FBD1F0BC704734461346002CE6
:1002F000F3D1F8E714460346C2E71A462646E0E77C
:100300000CB470B59CB020AC0B4E54F8042B029189
:10031000234606916FF0004502A901940795CDE9A7
:10032000045600F009F9029B00221A701CB0BDE8C7
:10033000704002B0704700BF0802FFFF0EB430B536
:100340009CB01FAB0C4C0D4D53F8042B0193014690
:1003500002910691206802A96FF000440794CDE94C
:10036000044500F0E9F8029B00221A701CB0BDE8B9
:10037000304003B0704700BF000000200802FFFFBC
:100380002DE9F0478E681D46AE420C460B681746B5
:1003900036D88046888910F4906F0ED135461846BD
:1003A0002A46394600F0CEFCA2682368961B2B44EF
:1003B000A66023600020BDE8F087D1E9041606EBB3
:1003C0004606A3EB010906EBD6766B1C76104B4470
:1003D000B342324684BF1E463246430512D511460B
:1003E000404600F06DFD824600B34A46216900F0A8
:1003F0000FFCA38923F4906343F08003A38106E0FC
:100400002E46CCE7404600F0BFFD824650B1A6EB39
:1004100009020AEB09036661C4F810A02360A26018
:100420002E46BCE72169404600F0F4FC0C23C8F8D6
:100430000030A38943F04003A3814FF0FF30BAE7B7
:100440002DE9F04F936883B09046002B6DD017686C
:100450008D6882460C460868083743E0A38913F488
:10046000906F2ED0D4E9041505EB4505A0EB010BE8
:1004700005EBD5750BEB06006D100130A8422A463E
:1004800084BF05462A465B0536D51146504600F026
:1004900017FD00283AD05A462169019000F0B8FBB8
:1004A000A289019B22F4906242F08002A281A5EB16
:1004B0000B0203EB0B00656123612060A2603546EF
:1004C000B3465A46494600F03DFCD8F80830A268C9
:1004D0002068551B58449E1BA5602060C8F8086022
:1004E0001EB3083757E90296AB46002EF9D0AE424C
:1004F000B4D23546B346E4E7504600F045FD034626
:100500000028D4D12169504600F084FC0C23CAF89D
:100510000030A389002243F040034FF0FF30A38155
:10052000C8E9012203B0BDE8F08F0020C8F804003C
:1005300003B0BDE8F08F00BF2DE9F04F90468A89E7
:100540009FB014068B46029003D50A69002A00F07A
:100550000B81059330238DF8323098F800308E4EA1
:10056000002120220B918DF831200127002B00F073
:100570008480252B00F0F680454603E0252B00F013
:10058000868025466B786C1C002BF7D1B4EB080AEB
:1005900073D04246534659460298FFF7F1FE0130A8
:1005A0006BD00B9B6A7853440B93002A65D00023D1
:1005B0004FF0FF3201340693CDE908338DF85B30FC
:1005C0001C93079205E0069A07FA03F313432C469F
:1005D00006932546052215F8011B304600F0C8FA9F
:1005E000AA46831B0028EED1069BD90644BF2022D1
:1005F0008DF85B2021781A0744BF2B228DF85B20F1
:100600002A2948D1059A11680432002905927EDB17
:1006100009916178A51C2E2956D0604C03222046F2
:1006200000F0A6FA002868D0001B069B402404FABC
:1006300000F00343069305F10108297858488DF826
:100640003010062200F094FA002866D0554B002B9B
:1006500056D005AB00935A46534B029806A9AFF308
:1006600000808146B9F1FF3F07D00B9B4B440B93B1
:1006700098F80030002B7FF47CAFBBF80C305B06A1
:1006800054BF0B984FF0FF301FB0BDE8F08FB4EBB4
:10069000080A8CD07DE7A1F13002092A88BFA24662
:1006A000B9D8099B01E02C460135297803EB830377
:1006B00002EB4303A1F13002092AAA46F3D92E29FD
:1006C00004F102050993A8D19AF801102A292ED124
:1006D000059B9AF802101A6807920433002A0593C2
:1006E0000AF103050AF1020337DB2C4C03222046F2
:1006F0009A4600F03DFA002896D1A84655469CE758
:10070000059B073323F0070308330593ADE7494200
:1007100043F00203099106937BE705AB00935A4629
:10072000214B029806A900F0D7F881469AE7A1F17B
:1007300030020023092A079301D923E0554669783E
:1007400003EB830302EB4303A1F13002092A05F115
:10075000010AF3D9023507935FE74FF0FF329A465B
:1007600007925AE7444622E74021039300F0A8FB92
:10077000039BCBF80000CBF8100030B14022CBF83F
:100780001420E6E6AA46013547E7029A0C231360D7
:100790004FF0FF3078E700BF943900089C3900081B
:1007A000A039000800000000810300082DE9F0478F
:1007B0000C4691460A698968DDF820808A42B8BFF4
:1007C0000A46C9F8002094F8431006461F4611B1A6
:1007D0000132C9F80020236899065CD5D9F80020B9
:1007E0000232C9F80020236813F0060F19461DD104
:1007F000E1688A1A002AD8BF194617DD04F1190AE0
:10080000002505E0E368D9F800209B1AAB420CDD17
:100810000123524639463046C047013005F10105F3
:10082000F0D14FF0FF30BDE8F087216894F84330F5
:10083000003318BF01238A060AD5E1185A1C30205C
:1008400081F84300224494F8451082F843100233A3
:1008500004F1430239463046C0470130E1D02368F5
:10086000A268216903F00603042B1DD08A4226DD0D
:100870004FF00009521A91441A34002501E04D4509
:100880001DDA0123224639463046C047013005F1C2
:100890000105F4D1C5E713F0060F13D094F84330E7
:1008A000003318BF0123D3E7D9F80000E3688A4278
:1008B000A3EB000323EAE379DCDC002BDCDC002083
:1008C000BDE8F087E168D9F800208A1A002AD8BF6D
:1008D000194693DCAAE700BF2DE9F0430C46097ED8
:1008E00085B06E29064617460C98984604F1430ECB
:1008F0006DD039D9732900F0F68044D9752900F0FC
:100900000481782940F0118178232268DFF858C2E9
:1009100084F845300168150651F8043B016040F148
:10092000A180D10744BF42F020022260002B00F0DA
:1009300093801022002184F843106068A060002892
:10094000C0F2C880216821F004012160002B40F032
:10095000A380002840F0C0807546082A00F0AC80D3
:10096000AEEB0503236141E0632900F0E5801AD86E
:10097000002938D0582940F0D88084F845102268E2
:10098000DFF8E8C1C6E76F2900F0BF80702940F0AA
:10099000CC802268DFF8D0C142F0200278232260A8
:1009A00084F84530B6E7642902D0692940F0BD805B
:1009B00022680368110603F1040557D5196805601C
:1009C0000B46002959DBDFF8A4C10A22B5E703680A
:1009D000226861691D1D056015061B6802D450065A
:1009E00000F1BD801960002375462361CDF80080B9
:1009F0003B4603AA21463046FFF7D8FE013020D0FF
:100A00002A46236939463046C047013019D022684A
:100A10000398E368920719D51A1A002A16DD04F123
:100A20001909002504E0E36803981A1AAA420DDDAB
:100A300001234A4639463046C047013005F10105D9
:100A4000F1D14FF0FF3005B0BDE8F0839842B8BF58
:100A5000184605B0BDE8F083226822F0200222602B
:100A6000102267E7500648BF9BB25AE75106A5D54A
:100A7000B3F9003005601946A3E76168A1602D2035
:100A80000029C3F1000384F8430002DB22F00402D2
:100A90002260DFF8D8C00A22754600E00B46B3FB9F
:100AA000F2F102FB113093421CF8000005F8010D31
:100AB000F4D2082A7FF454AF2368DB077FF550AFE8
:100AC000626823699A423FF74BAF302305F8013C37
:100AD000013D45E7002BDFD19CF8003084F842301F
:100AE00004F1420539E703686268191D01601D6859
:100AF0000021284600F03CF8002832D0401B6060FE
:100B00002061002384F8433070E72268036812F004
:100B1000800F03F104051AD01B6805606F290CBF14
:100B200008220A22DFF844C004E7012384F84210B7
:100B3000236104F14205E4E703681A68191D0123E3
:100B4000016004F1420584F842202361D9E712F0E4
:100B5000400F0DBF1B6805601B880560DEE719802C
:100B600041E76068CCE700BFBC390008A83900083D
:100B700001F0FF01102A2BDB10F0070F08D010F84E
:100B8000013B013A8B422DD010F0070F42B3F6D152
:100B9000F0B441EA012141EA014122F007047FF06B
:100BA00000070023F0E80256083C85EA010586EAC2
:100BB000010685FA47F5A3FA87F586FA47F6A5FAFE
:100BC00087F68EB9EED1F0BC01F0FF0102F007020A
:100BD00032B110F8013B013A83EA010313B1F8D1B5
:100BE0000020704701387047002D06BF3546033896
:100BF000073815F0010F07D1013015F4807F02BFCF
:100C0000013015F4C03F0130F0BC0138704700BF1F
:100C1000844641EA000313F003036DD1403A41D307
:100C200051F8043B40F8043B51F8043B40F8043BC6
:100C300051F8043B40F8043B51F8043B40F8043BB6
:100C400051F8043B40F8043B51F8043B40F8043BA6
:100C500051F8043B40F8043B51F8043B40F8043B96
:100C600051F8043B40F8043B51F8043B40F8043B86
:100C700051F8043B40F8043B51F8043B40F8043B76
:100C800051F8043B40F8043B51F8043B40F8043B66
:100C900051F8043B40F8043B51F8043B40F8043B56
:100CA000403ABDD2303211D351F8043B40F8043BF6
:100CB00051F8043B40F8043B51F8043B40F8043B36
:100CC00051F8043B40F8043B103AEDD20C3205D306
:100CD00051F8043B40F8043B043AF9D2043208D0FE
:100CE000D2071CBF11F8013B00F8013B01D30B8870
:100CF00003806046704700BF082A13D38B078DD04E
:100D000010F003038AD0C3F10403D21ADB071CBF1F
:100D100011F8013B00F8013B80D331F8023B20F889
:100D2000023B7BE7043AD9D3013A11F8013B00F8C2
:100D3000013BF9D20B7803704B7843708B7883704A
:100D4000604670478842F0B40DD98B1883420AD9A7
:100D5000841832B1224613F8014D02F8014D994230
:100D6000F9D1F0BC70470F2A0ED80346541E002A52
:100D7000F7D001340C44013B11F8012B03F8012F8B
:100D8000A142F9D1F0BC704740EA01039B073BD177
:100D9000A2F110073F0901F1200606EB071601F149
:100DA000100300F1100453F8105C44F8105C53F881
:100DB0000C5C44F80C5C53F8085C44F8085C53F88D
:100DC000045C44F8045C1033B34204F11004EAD12B
:100DD0007B1C1B0112F00C0F194402F00F05034499
:100DE00015D0043DAD0803EB850C1C1F0E4656F8CC
:100DF000047B44F8047F6445F9D10135AD002B44F0
:100E0000294402F00302B1E7541E0346B1E72A4623
:100E1000ACE700BF00293CD038B551F8043C0C1FAA
:100E2000002BB8BFE418054600F0E6F8234B1A681B
:100E30002AB1A2420DD921686018824223D0626093
:100E400028461C60BDE8384000F0D8B8A34203D85B
:100E50001A465368002BF9D111685018A04219D0D6
:100E600024D821686018834206D063605460284605
:100E7000BDE8384000F0C2B8D3E900030144636024
:100E800021605460F3E7D2E900020144626021600E
:100E9000D6E7704720680144501883421160E6D1BC
:100EA000D3E90003014453601160E0E70C232B6099
:100EB0002846BDE8384000F0A1B800BFBC000020C3
:100EC000F8B5CD1C25F0030508350C2D38BF0C25D1
:100ED000002D064633DBA94231D82A4F00F08CF8AA
:100EE0003A6852B113685B1B04D43FE023685B1B74
:100EF00029D522465468002CF8D1796800293BD0C6
:100F00002946304600F066F8431C28D0C41C24F063
:100F10000304A04205D0211A304600F05BF80130EE
:100F20001DD02560304600F069F804F10B0020F078
:100F30000700231DC21A01D01B1AA350F8BD0C22B2
:100F400032600020F8BD0B2B05D8A242636811D097
:100F50005360E7E7144623601C442560E2E70C2356
:100F60003046336000F04AF80020F8BD0B2BF1D872
:100F7000536814463B60D5E7304600F02BF87860A4
:100F8000BEE700BFBC00002009B3F8B51446CAB1E3
:100F900006460D4600F034F8A04202D32F463846EC
:100FA000F8BD21463046FFF78BFF07460028F6D0F4
:100FB00022462946FFF72CFE30462946FFF72AFF36
:100FC0003846F8BD2746FFF725FF3846F8BD1146DD
:100FD000FFF776BF38B5074C002305460846236067
:100FE00000F016F8431C00D038BD2368002BFBD05E
:100FF0002B6038BD14030020704700BF704700BF4E
:1010000051F8043C181F002BBCBF0B58C018704788
:10101000044A05491368002B08BF0B4618441060AA
:1010200018467047C40000201803002053B94AB97D
:10103000002908BF00281CBF4FF0FF314FF0FF30E0
:1010400000F06EB9ADF1080C6DE904CE00F006F8C1
:10105000DDF804E0DDE9022304B070472DE9F04734
:10106000089D04468C46002B40F083808A42174638
:1010700047D9B2FA82F242B1C2F1200024FA00F05C
:101080009140974040EA010C94404FEA1748230CE6
:10109000BCFBF8F61FFA87FE08FB16C143EA0143C2
:1010A00006FB0EF1994209D9FB1806F1FF3080F0DA
:1010B0001981994240F21681023E3B445B1AA4B268
:1010C000B3FBF8F008FB103344EA034400FB0EFEC8
:1010D000A64509D93C1900F1FF3380F00581A645EA
:1010E00040F2028102383C4440EA0640A4EB0E0480
:1010F00000261DB1D4400023C5E900433146BDE8B8
:10110000F08702B9FFDEB2FA82F2002A50D1CB1B7F
:101110004FEA174E1FFA87F80126B3FBFEFC210C9D
:101120000EFB1C3341EA034108FB0CF38B4207D949
:1011300079180CF1FF3002D28B4200F2E98084462C
:10114000C91AA3B2B1FBFEF00EFB101143EA014431
:1011500008FB00F8A04507D93C1900F1FF3302D283
:10116000A04500F2D9801846A4EB080440EA0C40E0
:10117000BFE78B4209D9002D00F0B1800026C5E9F8
:10118000000130463146BDE8F087B3FA83F6002E01
:101190004AD18B4202D3824200F2B880841A61EBBA
:1011A000030101208C46002DA8D0C5E9004CA5E71D
:1011B000C2F1200320FA03F6974001FA02F04FEA49
:1011C000174ED9403043030CB1FBFEF61FFA87F8E7
:1011D0000EFB161143EA014306FB08F1994204FA9B
:1011E00002F409D9FB1806F1FF3C80F08D8099428A
:1011F00040F28A80023E3B445B1A81B2B3FBFEF0B0
:101200000EFB103341EA034100FB08F38B4207D980
:10121000791800F1FF3C73D28B4271D902383944FE
:10122000CB1A40EA064678E7C6F1200C03FA06F42A
:1012300022FA0CF31C4320FA0CF701FA06F34FEAEA
:10124000144E21FA0CF11F433B0CB1FBFEF91FFABF
:1012500084F80EFB191143EA014109FB08FA8A459B
:1012600002FA06F200FA06F308D9611809F1FF3014
:1012700048D28A4546D9A9F102092144A1EB0A01C5
:10128000BFB2B1FBFEF00EFB101147EA014700FBB5
:1012900008F8B84507D9E71900F1FF312ED2B84553
:1012A0002CD90238274440EA0940A7EB0807A0FBE5
:1012B00002894F45C64649461AD317D05DB1B3EBF4
:1012C0000E0267EB010707FA0CFCF2404CEA02023F
:1012D000F740C5E9002700263146BDE8F0872E46D5
:1012E00028460BE70646E9E61846FDE64345E5D203
:1012F000B8EB020E69EB04010138DFE70846D2E7DC
:1013000060468DE78146B9E7664675E730464AE7AD
:10131000ACF1020C394413E702383C4424E700BF27
:10132000704700BF024B834200D0704700BFFCE70C
:101330003C02002038B51D4B1B78F02B18D01C4BFD
:101340001B780BBB194C102221461A48FEF7F6FFFA
:10135000194D10222146284600F0FEFD102221469C
:10136000284601F07BF84021144801F0BBFC38BD51
:101370000E4B5B78F02BE2D10C4B9B78F02BDED13F
:101380000B4B01221A70DAE7084C1022214609485B
:10139000FEF7D4FF084D10222146284600F0DCFD60
:1013A00010222146284601F059F8CBE7CC00002056
:1013B000C800002064000020B001002000000240AE
:1013C00072B6FEE700B595B03022002108A8FEF7FE
:1013D00047FF002303930493059306930793019318
:1013E000204A116C41F080511164126C02F080525D
:1013F0000192019A02931C4B1A6842F480421A60CF
:101400001B6803F480430293029B012308934FF46B
:101410008033099302220E924FF480030F9304232A
:101420001093A82111911292139308A801F032F899
:1014300098B90F23039302230493002305934FF4D9
:10144000A05306934FF480530793052103A801F09E
:1014500083FA20B915B05DF804FBFFF7B1FFFFF781
:10146000AFFF00BF003802400070004008B501F037
:1014700039FFFFF7A7FF01F06BFF01F0C3FF01F099
:10148000E3FF02F0E1F902F0A9F802F0DBF802F064
:1014900073F810220249034800F0E0FFFEE700BFA6
:1014A000CC000020B0010020FEE7FEE7FEE7FEE7EB
:1014B000FEE770477047704708B501F02DFF08BD83
:1014C00008B5024800F006F908BD00BFF40100208D
:1014D00008B5024800F046FE08BD00BFB00100207C
:1014E00008B5024800F0F6F808BD00BF3C02002035
:1014F00008B5024801F078FD08BD00BF500100208A
:1015000008B5024801F070FD08BD00BFF0000020E2
:1015100082B0002100910B4B5A6C42F480425A6415
:101520005A6C02F480420092009A01911A6C42F0C7
:1015300080521A641B6C03F080530193019B02B02C
:10154000704700BF0038024030B4036A23F0010343
:101550000362056A4268846924F073040B681C43C3
:1015600025F002058B682B43104DA84203D005F5EA
:101570008065A84205D123F00803CD682B4323F0F2
:1015800004030A4DA84203D005F58065A84205D1A1
:1015900022F440724D6915438A692A43426084618E
:1015A0004A684263036230BC704700BF00000140DC
:1015B00030B4036A23F480730362036A4268C46927
:1015C00024F073040D682C4323F400738D6843EA00
:1015D0000523124DA84203D005F58065A84206D127
:1015E00023F40063CD6843EA052323F480630B4DA5
:1015F000A84203D005F58065A84207D122F44052E5
:101600004D6942EA05128D6942EA05124260C461E1
:101610004A68C263036230BC704700BF00000140EB
:1016200030B4036A23F480530362036A4468C269D6
:1016300022F4E6420D6842EA052223F400538D6845
:1016400043EA0533094DA84203D005F58065A84259
:1016500004D124F480444D6944EA85144460C26195
:101660004A680264036230BC704700BF000001405A
:1016700030B4036A056A25F001050562846924F027
:10168000F00444EA021423F00A030B43846103626A
:1016900030BC704730B4056A25F0100505628469D6
:1016A000036A24F4704444EA023423F0A00343EABA
:1016B00001138461036230BC7047836823F07003B8
:1016C0000B4343F0070383607047704770477047D0
:1016D0007047704710B5044603681A6912F0020F8C
:1016E00011D0DA6812F0020F0DD06FF002021A6109
:1016F0000123037703689B6913F0030F70D0FFF792
:10170000E6FF0023237723681A6912F0040F12D032
:10171000DA6812F0040F0ED06FF004021A6102238F
:10172000237723689B6913F4407F5FD02046FFF73F
:10173000CEFF0023237723681A6912F0080F12D016
:10174000DA6812F0080F0ED06FF008021A61042355
:1017500023772368DB6913F0030F4ED02046FFF791
:10176000B6FF0023237723681A6912F0100F12D0F6
:10177000DA6812F0100F0ED06FF010021A61082311
:1017800023772368DB6913F4407F3DD02046FFF7C1
:101790009EFF0023237723681A6912F0010F03D0FC
:1017A000DA6812F0010F36D123681A6912F0800F3F
:1017B00003D0DA6812F0800F34D123681A6912F06E
:1017C000400F03D0DA6812F0400F32D123681A6953
:1017D00012F0200F03D0DA6812F0200F30D110BDC4
:1017E000FFF774FF2046FFF773FF8AE72046FFF7F5
:1017F0006DFF2046FFF76CFF9BE72046FFF766FF73
:101800002046FFF765FFACE72046FFF75FFF204665
:10181000FFF75EFFBDE76FF001021A612046FFF798
:1018200081FDC1E76FF080021A61204600F083FA63
:10183000C3E76FF040021A612046FFF74AFFC5E791
:101840006FF020021A61204600F074FAC7E700002A
:101850000368304A904212D0B0F1804F0FD0A2F509
:101860007C4290420BD002F58062904207D002F594
:101870008062904203D002F57842904203D123F077
:1018800070034A681343234A90422AD0B0F1804F34
:1018900027D0A2F57C42904223D002F5806290428C
:1018A0001FD002F5806290421BD002F57842904230
:1018B00017D002F57052904213D002F58062904228
:1018C0000FD002F5806290420BD0A2F59832904280
:1018D00007D002F58062904203D002F58062904208
:1018E00003D123F44073CA68134323F080034A6989
:1018F000134303608B68C3620B688362054B984295
:1019000003D003F58063984201D10B69036301237F
:10191000436170470000014040B310B5044690F8A1
:101920003D30F3B1022384F83D30214651F8040BD9
:10193000FFF78EFF012384F8463084F83E3084F8A8
:101940003F3084F8403084F8413084F8423084F8E5
:10195000433084F8443084F8453084F83D3000202A
:1019600010BD80F83C3001F007FFDBE70120704735
:1019700040B310B5044690F83D30F3B1022384F82B
:101980003D30214651F8040BFFF762FF012384F834
:10199000463084F83E3084F83F3084F8403084F894
:1019A000413084F8423084F8433084F8443084F87D
:1019B000453084F83D30002010BD80F83C30FFF702
:1019C00084FEDBE701207047002853D0F8B50D46B0
:1019D000044690F83D30002B47D0022384F83D3078
:1019E0002268936823F4804323F007039360214621
:1019F00051F8040BFFF72CFF21688A688E690F6A83
:101A00002868104326F4407626F00306AA68AB69DE
:101A100042EA0323334323F47C4323F0FC03EE68C0
:101A2000EA6946EA02261E432A6A13032A6943EA40
:101A30000213334327F0AA076A686D6942EA051268
:101A40003A43886021688B6123681A62012384F815
:101A5000463084F83E3084F83F3084F8423084F8D1
:101A6000433084F83D300020F8BD80F83C3001F070
:101A700021FEB2E70120704730B4036A23F010035F
:101A80000362036A4468826922F4E6420D6842EA0E
:101A9000052223F020038D6843EA0513114DA84267
:101AA00003D005F58065A84206D123F08003CD68F8
:101AB00043EA051323F040030A4DA84203D005F57D
:101AC0008065A84207D124F440644D6944EA850446
:101AD0008D6944EA8504446082614A6882630362D6
:101AE00030BC70470000014038B590F83C30012B05
:101AF00060D004460D46012380F83C300C2A1AD8E9
:101B0000DFE802F0071919191D19191931191919E6
:101B100044000068FFF718FD2268936943F008034A
:101B200093612268936923F00403936122689369A7
:101B300029690B439361002084F83C0038BD00689C
:101B4000FFF79AFF2268936943F400639361226868
:101B5000936923F48063936122689369296943EA56
:101B600001239361E7E70068FFF722FD2268D3694C
:101B700043F00803D3612268D36923F00403D361DF
:101B80002268D36929690B43D361D4E70068FFF762
:101B900047FD2268D36943F40063D3612268D369A7
:101BA00023F48063D3612268D369296943EA01235E
:101BB000D361C0E70220C1E710B4846824F47F44F5
:101BC00042EA03220A43224382605DF8044B7047D5
:101BD00090F83C30012B66D010B50446012380F804
:101BE0003C30022380F83D300268936823F47F4341
:101BF00023F0770393600B68602B40D022D8402BF2
:101C000047D00BD9502B0ED1CA6849680068FFF73E
:101C10002FFD50212068FFF750FD04E0202B0CD051
:101C200008D9302B09D0012384F83D30002084F8F6
:101C30003C0010BD0BB1102BF5D119462068FFF701
:101C40003CFDF0E7702B0ED0B3F5005FEBD1CB6815
:101C50004A6889680068FFF7AFFF2268936843F419
:101C600080439360DFE7CB684A6889680068FFF7C4
:101C7000A3FF2268936843F077039360D3E7CA68B1
:101C800049680068FFF706FD60212068FFF715FD31
:101C9000C9E7CA6849680068FFF7EAFC4021206884
:101CA000FFF70BFDBFE702207047000090F83C30C3
:101CB000012B3BD030B4012380F83C30022380F864
:101CC0003D3003685C689D6824F070040A68224314
:101CD0005A600368164A93421AD0B3F1804F17D066
:101CE000A2F57C42934213D002F5806293420FD05A
:101CF00002F5806293420BD002F57842934207D0FE
:101D000002F57052934203D0A2F59432934204D16B
:101D100025F080054A6815439D60012380F83D3019
:101D2000002380F83C30184630BC704702207047D2
:101D300000000140704770470268D36823F0C00379
:101D4000D360202380F83D3070470268D36823F4C5
:101D50009073D3600268536923F001035361036BEE
:101D6000012B05D0202380F83E3000230363704709
:101D70000268D36823F01003D360F3E790F83D3096
:101D8000DBB2212B01D0022070478368B3F5805F5E
:101D900017D0036A5A1C02621A7803685A60C38C0F
:101DA0009BB2013B9BB2C3844BB90268D36823F05A
:101DB0008003D3600268D36843F04003D3600020FF
:101DC00070470369002BE4D1036A1B880268C3F3E0
:101DD00008035360036A02330362E0E770B5044608
:101DE0000268136923F44053C1680B43136183688D
:101DF0000269134342691343C2691A430168CB68FD
:101E000023F4164323F00C031343CB600268536999
:101E100023F4407381690B4353610368344A93424E
:101E200006D002F58062934202D000F04BFE01E042
:101E300000F058FEE369B3F5004F2AD000260518DC
:101E400046EB06012D1846EB0101CB0043EA557322
:101E5000EA001546194663689A009B0F281846EB5E
:101E60000101FFF7E3F8234DA5FB0032510964237C
:101E700003FB11031B013233A5FB03235B0903F0B2
:101E8000F00202EB011203F00F03216813448B6090
:101E900070BD0026051846EB06012D1846EB010122
:101EA000CB0043EA5573EA0015461946626833468B
:101EB000921846EB0303281846EB0101FFF7B6F82A
:101EC0000C4DA5FB00325109642303FB1103DB0019
:101ED0003233A5FB03235B095A0002F4F87202EBCC
:101EE000011203F00703216813448B60D0E700BFA1
:101EF000001001401F85EB5158B310B5044690F80F
:101F00003D300BB3242384F83D302268D36823F49A
:101F10000053D3602046FFF761FF2268136923F462
:101F2000904313612268536923F02A0353612268A6
:101F3000D36843F40053D36000202064202384F846
:101F40003D3084F83E3010BD80F83C3001F096FA08
:101F5000D8E701207047000038B590F83D30DBB27B
:101F6000202B31D10446002930D0002A30D090F8FF
:101F70003C30012B2ED0012380F83C30016282845A
:101F8000C28400250564212380F83D30436B12484C
:101F9000D863636B11481864636B1148D864636B32
:101FA0001D6520681346021D606B00F08BFF2368DF
:101FB0006FF040021A6084F83C502268536943F085
:101FC00080035361284600E0022038BD0120FCE771
:101FD0000120FAE70220F8E7E71F00083320000895
:101FE00041200008704708B50346806B1B681B68DA
:101FF00013F4807F0CD10023C3840268536923F05B
:10200000800353610268D36843F04003D36008BD86
:10201000FFF7E8FFFBE708B50168CA6822F0400255
:10202000CA60202280F83D20FFF7DCFF002008BDB9
:10203000704708B5806BFFF7FBFF08BD704770471E
:1020400010B5846B23685A6994F83D30DBB2212BBC
:1020500010D023685A6902F0400294F83E30DBB297
:10206000222B11D0236C43F0100323642046FFF78A
:10207000E6FF10BD02F08002002AEAD00023E384CC
:102080002046FFF759FEE4E7002AEBD00023E38562
:102090002046FFF75AFEE5E708B5806B0023C385AD
:1020A000C384FFF7CCFF08BD704790F83E30DBB229
:1020B000222B53D110B504468368B3F5805F30D02E
:1020C000A26AB3F5805F04D0002B37D12369002BBF
:1020D00034D123685B681370A36A0133A362E38D74
:1020E0009BB2013B9BB2E385002B39D12268D368B8
:1020F00023F02003D3602268D36823F48073D36075
:102100002268536923F001035361202384F83E3091
:10211000236B012B18D02046FFF70CF90020206319
:102120001FE00269002ACBD1826A03685B68C3F3AF
:1021300008031380836A02338362D0E723685B68F5
:1021400003F07F031370C7E72268D36823F01003FE
:10215000D360A18D2046FFF7A7FFDFE7022070477D
:10216000002010BD30B583B0044602681368D06803
:10217000516913F00F0505D113F0200F02D010F0B4
:10218000200F19D12DB111F0010119D110F4907F58
:1021900016D1216B012975D013F0800F03D010F0F8
:1021A000800F40F0D88013F0400F03D010F0400FA4
:1021B00040F0D58003B030BD2046FFF776FFF9E749
:1021C00013F0010F06D010F4807F03D0226C42F090
:1021D0000102226413F0040F04D019B1226C42F002
:1021E0000202226413F0020F04D019B1226C42F0F3
:1021F0000402226413F0080F07D010F0200F00D162
:1022000019B1226C42F008022264226C002AD1D05B
:1022100013F0200F02D010F0200F21D123685B694A
:1022200003F04003226C12F0080F00D123B32046C4
:10223000FFF78BFD23685A6912F0400F18D05A69D6
:1022400022F040025A61A36B73B1474A1A65A06B32
:1022500000F0B7FE0028ADD0A06B036D9847A9E74A
:102260002046FFF722FFD9E72046FFF7E8FEA1E767
:102270002046FFF7E4FE9DE72046FFF7E0FE00233F
:10228000236497E713F0100F86D010F0100F83D05F
:10229000002301931368019353680193019B5369D1
:1022A00013F0400F33D0A16B0B685B689BB2002B1F
:1022B00080D0A08D98427FF67DAFE385CB69B3F5E2
:1022C000807F08D1A18DE38D9BB2C91A89B22046C7
:1022D000FFF7EAFE6EE7D36823F48073D3602268C9
:1022E000536923F0010353612268536923F04003CB
:1022F0005361202384F83E30002323632268D3688F
:1023000023F01003D360A06B00F011FEDAE7A18D7B
:10231000E38D9BB2C91A89B2E38D9BB2002B3FF4C7
:1023200049AF00293FF446AFD36823F49073D360DC
:102330002268536923F001035361202384F83E305F
:10234000002323632268D36823F01003D360204660
:10235000FFF7AAFE2EE72046FFF710FD2AE72046EA
:10236000FFF759FE26E700BF9920000808B5806BEB
:10237000036B012B02D0FFF761FE08BD818D490878
:10238000FFF792FEF9E708B50346806B1B681B68F0
:1023900013F4807F16D10023C3850268D36823F429
:1023A0008073D3600268536923F0010353610268AC
:1023B000536923F040035361202380F83E30036BC0
:1023C000012B05D0036B012B08D0FEF7B3FF08BD2E
:1023D0000268D36823F01003D360F3E7818DFFF721
:1023E00063FEF4E730B583B004461346816282850C
:1023F00000250564222280F83E20826B1448D063B9
:10240000A26B14481064A26B1348D064A26B1565CC
:1024100020680A46011DA06B00F054FD0195236859
:102420001A6801925A680192019A84F83C50DA685D
:1024300042F48072DA602268536943F00103536109
:102440002268536943F040035361284603B030BD0E
:10245000872300086D2300084120000808B590F884
:102460003E30DBB2202B0DD171B17AB190F83C3007
:10247000012B0DD0012380F83C3000230363FFF7CC
:10248000B1FF00E0022008BD0120FCE70120FAE7CF
:102490000220F8E7002800F0DF8170B582B0044622
:1024A000036813F0010F3BD0A64B9B6803F00C03AD
:1024B000042B2CD0A34B9B6803F00C03082B21D0DA
:1024C0006368B3F5803F4FD0B3F5A02F52D09D4B3A
:1024D0001A6822F480321A601A6822F480221A6084
:1024E0006368002B50D000F023FF0546954B1B6816
:1024F00013F4003F14D100F01BFF401B6428F5D9F2
:102500000320B0E18F4B5B6813F4800FD8D08D4B64
:102510001B6813F4003F03D06368002B00F09E811A
:10252000236813F0020F54D0864B9B6813F00C0FF6
:102530003ED0844B9B6803F00C03082B33D0E36838
:10254000002B67D0804B01221A6000F0F1FE054697
:102550007C4B1B6813F0020F53D100F0E9FE401BC7
:102560000228F5D903207EE1764A136843F48033CC
:102570001360B5E7734B1A6842F480221A601A6838
:1025800042F480321A60ABE700F0D2FE05466D4B94
:102590001B6813F4003FC3D000F0CAFE401B642840
:1025A000F5D903205FE1674B5B6813F4800FC6D158
:1025B000644B1B6813F0020F03D0E368012B40F05B
:1025C0004F81604A136823F0F803216943EAC1038D
:1025D0001360236813F0080F40D0636963B35B4B4B
:1025E00001221A6000F0A4FE0546564B5B6F13F003
:1025F000020F33D100F09CFE401B0228F5D90320C6
:1026000031E1504A136823F0F803216943EAC1031A
:102610001360DEE74C4B00221A6000F089FE05468D
:10262000484B1B6813F0020FD3D000F081FE401B13
:102630000228F5D9032016E1444B00221A6000F06D
:1026400077FE05463F4B5B6F13F0020F06D000F09C
:102650006FFE401B0228F5D9032004E1236813F024
:10266000040F78D0374B1B6C13F0805F0DD1002323
:102670000193344B1A6C42F080521A641B6C03F0C5
:1026800080530193019B012500E00025304B1B681E
:1026900013F4807F21D0A368012B32D0052B36D0D4
:1026A000284B1A6F22F001021A671A6F22F00402F7
:1026B0001A67A368002B34D000F03AFE0646214B7F
:1026C0001B6F13F0020F45D100F032FE801B41F268
:1026D00088339842F3D90320C5E01D4A136843F4B8
:1026E0008073136000F024FE0646194B1B6813F438
:1026F000807FD0D100F01CFE801B0228F5D903207A
:10270000B1E0104A136F43F001031367D1E70D4B9B
:102710001A6F42F004021A671A6F42F001021A6738
:10272000C7E700F005FE0646064B1B6F13F0020FCD
:1027300010D000F0FDFD801B41F288339842F3D9A0
:10274000032090E00038024000004742800E4742DC
:1027500000700040EDB9A369002B00F08380494A66
:10276000926802F00C02082A51D0022B17D0464B77
:1027700000221A6000F0DCFD0446424B1B6813F097
:10278000007F42D000F0D4FD001B0228F5D90320C1
:1027900069E03C4A136C23F080531364DBE73A4B47
:1027A00000221A6000F0C4FD0546364B1B6813F08A
:1027B000007F06D000F0BCFD401B0228F5D90320A5
:1027C00051E0E369226A1343626A43EA8213A26A10
:1027D0005208013A43EA0243E26A43EA0263294AA1
:1027E0005360294B01221A6000F0A2FD0446254BDC
:1027F0001B6813F0007F06D100F09AFD001B022831
:10280000F5D903202FE000202DE000202BE0012B44
:102810002BD01C4B5B6803F48001E269914226D106
:1028200003F03F02216A8A4223D1616A47F6C072EF
:102830001A40B2EB811F1ED103F44031A26A520844
:10284000013AB1EB024F18D103F07063E26AB3EBC7
:10285000026F14D1002006E001207047012002E041
:10286000012000E0002002B070BD0120FBE7012044
:10287000F9E70120F7E70120F5E70120F3E7012060
:10288000F1E700BF0038024060004742F8B52F4B27
:102890009B6803F00C03042B53D0082B53D12B4B14
:1028A0005A6802F03F025B6813F4800F28D0274B70
:1028B0005B68C3F3881358010021C01A61F100015D
:1028C0008E0146EA906687013C1A66EB0105E90035
:1028D00041EA5471E000C01841F100014B0243EAA3
:1028E000D0534402204619460023FEF79FFB174BA6
:1028F0005B68C3F3014301335B00B0FBF3F023E0FB
:10290000124B5B68C3F388135C010025E41A65F180
:102910000005AE0146EA9466A701381B66EB050187
:10292000CC0044EA5074C500E81844F100018B0261
:1029300043EA90538402204619460023FEF776FBB3
:10294000D5E7034800E00348F8BD00BF0038024067
:1029500000127A000024F400002800F09B8070B57B
:102960000D4604464F4B1B6803F007038B4208D209
:10297000CBB24C4A1370136803F007038B4240F04C
:102980008B80236813F0020F17D013F0040F04D0CC
:10299000454A936843F4E0539360236813F0080FAB
:1029A00004D0414A936843F4604393603E4A93687D
:1029B00023F0F003A1680B439360236813F0010F29
:1029C00032D06368012B21D09A1E012A25D9364ABC
:1029D000126812F0020F61D033498A6822F00302B4
:1029E00013438B6000F0A4FC06462F4B9B6803F05A
:1029F0000C036268B3EB820F16D000F099FC801BC9
:102A000041F288339842F0D9032042E0264A126806
:102A100012F4003FE0D101203BE0234A126812F09B
:102A2000007FD9D1012034E01E4B1B6803F007035F
:102A3000AB4207D9EAB21B4B1A701B6803F00703BD
:102A4000AB422DD1236813F0040F06D0164A9368C9
:102A500023F4E053E1680B439360236813F0080FFD
:102A600007D0114A936823F46043216943EAC10304
:102A70009360FFF70BFF0C4B9B68C3F303130B4AE8
:102A8000D35CD8400A4B18600A4B186800F004FC6D
:102A9000002070BD012070470120FAE70120F8E70F
:102AA0000120F6E7003C0240003802407C39000873
:102AB0009C00002098000020014B1868704700BF60
:102AC0009C00002008B5FFF7F7FF044B9B68C3F399
:102AD0008223034AD35CD84008BD00BF00380240BF
:102AE0008C39000808B5FFF7E7FF044B9B68C3F378
:102AF0004233034AD35CD84008BD00BF00380240CF
:102B00008C39000800230F2B00F2DD80F0B482B076
:102B10005DE086685F000324BC4026EA0406CC68BA
:102B2000BC4034438460466826EA02064C68C4F31D
:102B300000129A403243426057E0DC08083450F8F3
:102B4000247003F0070296000F22B24027EA020722
:102B50000A69B2403A4340F824205AE0072200E0D4
:102B60000022B2403A430234574E46F82420574AD6
:102B70001468EA4324EA05064F6817F4803F01D041
:102B800045EA0406514C2660646802EA04064F6870
:102B900017F4003F01D045EA04064C4C6660A46877
:102BA00002EA04064F6817F4801F01D045EA0406C4
:102BB000464CA660E46822404E6816F4001F01D01F
:102BC00045EA0402414CE26001330F2B78D8012220
:102BD0009A400C6804EA020532EA0404F4D14C6815
:102BE00004F00304013C012C93D94A6802F003026B
:102BF000032A09D0C4685E000322B24024EA02041A
:102C00008A68B2402243C2604A6802F00302022A84
:102C100093D004685E000322B24024EA02044A68AA
:102C200002F00302B240224302604A6812F0805F61
:102C3000CAD000220192264A546C44F48044546461
:102C4000526C02F480420192019A9C08A61C1E4A12
:102C500052F8267003F0030296000F22B24027EAD2
:102C600002071C4A90423FF47BAF02F5806290421B
:102C70001AD002F58062904218D002F5806290422C
:102C800016D002F58062904214D002F58062904224
:102C900012D002F58062904210D002F5806290421C
:102CA0003FF45CAF08225CE701225AE7022258E7B2
:102CB000032256E7042254E7052252E7062250E792
:102CC00002B0F0BC7047704700380140003C014042
:102CD00000380240000002400AB1816170470904D7
:102CE00081617047436901EA030221EA030141EA75
:102CF00002418161704730B405682C6824F4802457
:102D00002C60046863608368402B05D00368996079
:102D10000368DA6030BC704703689A600368D96062
:102D2000F8E7000010B40368D9B210390C4AA2FBCE
:102D3000014212090B4CA25CC2655F2909D923F438
:102D40007F7323F0030304338365806D5DF8044BC8
:102D5000704723F47F7323F003038365F5E700BF17
:102D6000ABAAAAAA74390008836A826992B9012BB6
:102D70000AD0022B02D00BB100207047C36A13F0B7
:102D8000807F28D100207047C36AB3F1C07F24D070
:102D900000207047B2F5005F09D0022B25D9032B24
:102DA00025D1C36A13F0807F23D100207047032B05
:102DB00003D8DFE803F01404140A00207047C36A44
:102DC00013F0807F0DD100207047C36AB3F1C07F3C
:102DD00009D0002070470120704701207047012072
:102DE0007047012070470120704701207047002084
:102DF000704701207047000070B5044600F098FA53
:102E0000002C5BD00546002384F83430022384F87C
:102E100035302268136823F00103136023681A68B1
:102E200012F0010F0AD000F083FA431B052BF5D9ED
:102E300020236365032084F8350070BD1A6820489C
:102E400010406168A2680A43E1680A4321690A43A5
:102E500061690A43A1690A43E1690A43216A0A4395
:102E60000243616A04291ED01A602668756925F03C
:102E70000705636A1D43042B07D1A36A1D43E36A58
:102E80001BB12046FFF770FF90B975612046FFF730
:102E900049FFE26D3F23934083600020606501237A
:102EA00084F83530C9E7E16A206B01430A43DBE768
:102EB00040236365012084F83500BEE70120BCE7AC
:102EC0003F8010F038B50446856D90F83400012835
:102ED0002BD0012084F8340094F83500C0B20128CA
:102EE00004D0002384F83430022038BD022084F856
:102EF0003500002060652046FFF7FDFEE26D3F23B0
:102F00009340AB602268136843F016031360236C90
:102F100023B12268136843F0080313602268136822
:102F200043F0010313600020DFE70220DDE770B506
:102F30000446866D00F0FCF994F83530DBB2022BC4
:102F400006D080236365002384F83430012070BDEF
:102F500005462268136823F016031360226853693C
:102F600023F080035361236CE3B12268136823F0DC
:102F7000080313602268136823F0010313602368B9
:102F80001B6813F0010F11D000F0D2F9431B052B81
:102F9000F5D920236365002384F83430032084F8B6
:102FA0003500D4E7A36C002BDFD1E3E7E26D3F23CC
:102FB0009340B360002084F83400012384F8353056
:102FC000C5E790F83530DBB2022B03D08023436590
:102FD00001207047052380F835300268136823F01C
:102FE0000103136000207047F0B583B0044600234E
:102FF0000193724B1D68724BA3FB0535AD0A876DBB
:103000003E68C26D08239340334210D003681A68AB
:1030100012F0040F0BD01A6822F004021A60C26D7D
:1030200008239340BB60436D43F001034365E26DA9
:1030300001239340334209D02268526912F0800F75
:1030400004D0BB60636D43F002036365E26D04234B
:103050009340334209D02268126812F0020F04D064
:10306000BB60636D43F004036365E26D102393401E
:10307000334224D02268126812F0080F1FD0BB60C0
:1030800023681A6812F4802F0DD01B6813F4002FE8
:1030900004D1236C9BB12046984710E0A36C73B118
:1030A000204698470BE01A6812F4807F03D11A6813
:1030B00022F008021A60236C0BB120469847E26D9B
:1030C00020239340334255D02268126812F0100F2B
:1030D00050D0BB6094F83530DBB2052B0ED023689E
:1030E0001A6812F4802F33D01B6813F4002F2AD1F2
:1030F000636C002B3ED0204698473BE02268136863
:1031000023F0160313602268536923F08003536190
:10311000236CA3B12268136823F008031360E26DE7
:103120003F239340BB60002384F83430012384F8AC
:103130003530236D002B3FD0204698473CE0A36CF0
:10314000002BE7D1EBE7E36BA3B12046984711E0F2
:103150001A6812F4807F09D11A6822F010021A60EE
:10316000002384F83430012384F83530E36B0BB14D
:1031700020469847636DFBB1636D13F0010F17D0C4
:10318000052384F835302268136823F001031360A7
:10319000019B01330193AB4204D823681B6813F0F1
:1031A000010FF5D1002384F83430012384F8353041
:1031B000E36C0BB12046984703B0F0BD9C000020A3
:1031C000B5814E1B074AD36823F4E0631B041B0C34
:1031D000000200F4E060034343F0BF6343F40033B4
:1031E000D360704700ED00E030B4174BDB68C3F3E9
:1031F0000223C3F10704042C28BF04241D1D062D3F
:1032000018D9033B4FF0FF3505FA04F421EA040115
:10321000994005FA03F322EA0303194300280BDB64
:103220000901C9B200F1604000F5614080F8001367
:1032300030BC70470023E5E700F00F000901C9B278
:10324000024B1954F4E700BF00ED00E014ED00E07C
:10325000002807DB00F01F02400901239340024AC7
:1032600042F82030704700BF00E100E00138B0F1C3
:10327000807F0AD2064B5860064AF02182F823105C
:103280000020986007221A6070470120704700BF35
:1032900010E000E000ED00E010B504460E4B187899
:1032A0004FF47A73B3FBF0F30C4A1068B0FBF3F001
:1032B000FFF7DCFF68B90F2C01D901200AE00022DA
:1032C00021464FF0FF30FFF78FFF054B1C600020B9
:1032D00000E0012010BD00BF960000209C000020EF
:1032E0009800002008B50B4B1A6842F400721A606F
:1032F0001A6842F480621A601A6842F480721A6096
:103300000320FFF75FFF0020FFF7C6FFFEF700F97D
:10331000002008BD003C0240034A1168034B1B78A3
:103320000B441360704700BFEC00002096000020A3
:10333000014B1868704700BFEC000020034AD2F828
:10334000883043F47003C2F88830704700ED00E025
:103350002DE9F0418AB0002405940694079408945E
:1033600009940194244B1A6B42F004021A631A6BFD
:1033700002F004020192019A02941A6B42F0800258
:103380001A631A6B02F080020292029A03941A6B7B
:1033900042F001021A631A6B02F001020392039ACF
:1033A00004941A6B42F002021A631B6B03F00203CF
:1033B0000493049BDFF848802246C0214046FFF773
:1033C0008BFC0E4D2246C0212846FFF785FCC02706
:1033D0000597012606960794089405A94046FFF72D
:1033E00091FB059706960794089405A92846FFF7D0
:1033F00089FB0AB0BDE8F0810038024000040240B9
:103400000000024010B582B0002401940D4B1A6BED
:1034100042F480021A631B6B03F480030193019B47
:10342000224621463A20FFF7DFFE3A20FFF710FF41
:10343000224621464620FFF7D7FE4620FFF708FF29
:1034400002B010BD0038024008B50A480A4B0360BC
:103450004FF4E133436000238360C36003610C22B7
:1034600042618361C361FEF747FD00B908BDFDF706
:10347000A7FFFBE7B00100200010014030B589B084
:10348000002303930493059306930793026803F1C3
:10349000804303F588339A4201D009B030BD044619
:1034A0000025019503F594335A6C42F010025A64DA
:1034B0005A6C02F010020192019A02951A6B42F0C6
:1034C00001021A631B6B03F001030293029B4FF48A
:1034D000C0630393022304930595032306930723F4
:1034E000079303A91F48FFF70DFB1F481F4B0360FD
:1034F0004FF0006343608560C5604FF480630361F3
:1035000045618561C56105624562FFF775FC18BBC1
:10351000154BA3639C631648164B03604FF0006382
:103520004360402383600023C3604FF480620261E4
:1035300043618361C36103624362FFF75DFC70B95D
:103540000B4B63639C63002211462520FFF74CFE62
:103550002520FFF77DFEA0E7FDF732FFD8E7FDF756
:103560002FFFEDE7000002405001002040640240C0
:10357000F0000020B864024000B58DB00023019334
:10358000029315484FF080420260436083604FF021
:10359000FF32C2600361836103220392049301221C
:1035A000059206930793089309920A930B9303A934
:1035B000FEF70AFA50B900230193029301A90648C5
:1035C000FEF774FB28B90DB05DF804FBFDF7F8FEBB
:1035D000F1E7FDF7F5FEF6E7CC02002000B58DB06F
:1035E0000023019302931548154A026043608360EB
:1035F0004FF44872C2600361836103220392049313
:103600000121059106930A220792089309910A93D2
:103610000B9203A9FEF7D8F950B900230193029346
:1036200001A90648FEF742FB28B90DB05DF804FB7E
:10363000FDF7C6FEF1E7FDF7C3FEF6E784020020C2
:103640000004004000B587B0002302930393049365
:103650000593009301931548154A026042F2D00287
:10366000426083606422C26003618361FEF754F9A3
:1036700090B94FF48053029302A90C48FEF7A8FAC0
:1036800068B900230093019369460848FEF70EFBD2
:1036900040B907B05DF804FBFDF792FEE9E7FDF7DE
:1036A0008FFEEEE7FDF78CFEF3E700BF3C02002043
:1036B000000C004000B58BB00023059306930793E0
:1036C000089309930368B3F1804F05D0264A9342CB
:1036D00026D00BB05DF804FB0022019203F50E33F7
:1036E000196C41F001011964196C01F0010101919B
:1036F00001990292196B41F0010119631B6B03F0F0
:1037000001030293029B03230593022306930123E3
:1037100007930892099305A91448FFF7F3F9D8E72E
:1037200000220392124B196C41F002011964196CCA
:1037300001F00201039103990492196B41F0040115
:1037400019631B6B03F004030493049BC0230593CC
:1037500002230693012107910892099305A90548C0
:10376000FFF7D0F9B5E700BF0004004000000240B9
:10377000003802400008024000B583B00368184AD0
:10378000934205D0174A934216D003B05DF804FB6C
:1037900000210091144B1A6C42F004021A641B6C55
:1037A00003F004030093009B0A461E20FFF71CFD54
:1037B0001E20FFF74DFDE8E7002101910A4B1A6C2E
:1037C00042F008021A641B6C03F008030193019B8A
:1037D0000A463220FFF708FD3220FFF739FDD4E713
:1037E00000080040000C00400038024000B587B0DF
:1037F00000230193029303930493059302680F4BF4
:103800009A4202D007B05DF804FB002300930C4AF3
:10381000116B41F002011163126B02F0020200927F
:10382000009A4FF440720192022202920393049391
:10383000059201A90348FFF765F9E3E70008004096
:10384000003802400004024000B58FB000230A9304
:103850000B930C930D930893099301930293039395
:1038600004930593069307932548264A0260542241
:10387000426083606422C26003618361FEF74CF89A
:1038800058BB4FF480530A930AA91D48FEF7A0F9CC
:1038900030BB1B48FEF76CF828BB00230893099344
:1038A00008A91748FEF702FA00BB60230193002322
:1038B000029303930593082201A91148FEF714F916
:1038C000B8B90C2201A90E48FEF70EF9A0B90C48B0
:1038D000FFF78CFF0FB05DF804FBFDF771FDD0E73B
:1038E000FDF76EFDD5E7FDF76BFDD6E7FDF768FD4B
:1038F000DBE7FDF765FDE4E7FDF762FDE7E700BF05
:10390000F401002000080040DFF834D00D480E49D3
:103910000E4A002302E0D458C4500433C4188C4229
:10392000F9D30B4A0B4C002301E013600432A2428E
:10393000FBD3FFF703FDFCF76FFCFDF797FD704726
:103940000000022000000020A0000020E039000854
:10395000A000002018030020FEE70000F8B500BF1B
:10396000F8BC08BC9E467047F8B500BFF8BC08BC60
:043970009E467047B8
:1039740000061016000610160000000000000000EB
:103984000102030406070809000000000102030401
:10399400232D302B20000000686C4C0065666745C1
:1039A40046470000303132333435363738394142F6
:1039B4004344454600000000303132333435363755
:0C39C40038396162636465660000000031
:0839D0008CD6FF7F010000000E
:0439D800F9010008E9
:0439DC00D10100080D
:1039E00004000020000000000000000000000000B3
:1039F00000000000000000000000000000000000C7
:103A000000000000000000000000000000000000B6
:103A100000000000000000000000000000000000A6
:103A20000000000000000000000000000000000096
:103A30000000000000000000000000000000000086
:103A400000000000496E69740000000000000000E2
:103A50000000000000000000000000000000000066
:103A60000000000000000000000000000000000056
:103A70000000000000000100100000000024F4001D
:0400000508003909AD
:00000001FF
